{
	"/contracts/HelloWorld.sol": {
		"CamelotScavenger": {
			"abi": [
				{
					"inputs": [],
					"stateMutability": "nonpayable",
					"type": "constructor"
				},
				{
					"inputs": [],
					"name": "ECDSAInvalidSignature",
					"type": "error"
				},
				{
					"inputs": [
						{
							"internalType": "uint256",
							"name": "length",
							"type": "uint256"
						}
					],
					"name": "ECDSAInvalidSignatureLength",
					"type": "error"
				},
				{
					"inputs": [
						{
							"internalType": "bytes32",
							"name": "s",
							"type": "bytes32"
						}
					],
					"name": "ECDSAInvalidSignatureS",
					"type": "error"
				},
				{
					"inputs": [
						{
							"internalType": "address",
							"name": "spender",
							"type": "address"
						},
						{
							"internalType": "uint256",
							"name": "allowance",
							"type": "uint256"
						},
						{
							"internalType": "uint256",
							"name": "needed",
							"type": "uint256"
						}
					],
					"name": "ERC20InsufficientAllowance",
					"type": "error"
				},
				{
					"inputs": [
						{
							"internalType": "address",
							"name": "sender",
							"type": "address"
						},
						{
							"internalType": "uint256",
							"name": "balance",
							"type": "uint256"
						},
						{
							"internalType": "uint256",
							"name": "needed",
							"type": "uint256"
						}
					],
					"name": "ERC20InsufficientBalance",
					"type": "error"
				},
				{
					"inputs": [
						{
							"internalType": "address",
							"name": "approver",
							"type": "address"
						}
					],
					"name": "ERC20InvalidApprover",
					"type": "error"
				},
				{
					"inputs": [
						{
							"internalType": "address",
							"name": "receiver",
							"type": "address"
						}
					],
					"name": "ERC20InvalidReceiver",
					"type": "error"
				},
				{
					"inputs": [
						{
							"internalType": "address",
							"name": "sender",
							"type": "address"
						}
					],
					"name": "ERC20InvalidSender",
					"type": "error"
				},
				{
					"inputs": [
						{
							"internalType": "address",
							"name": "spender",
							"type": "address"
						}
					],
					"name": "ERC20InvalidSpender",
					"type": "error"
				},
				{
					"inputs": [
						{
							"internalType": "address",
							"name": "owner",
							"type": "address"
						}
					],
					"name": "OwnableInvalidOwner",
					"type": "error"
				},
				{
					"inputs": [
						{
							"internalType": "address",
							"name": "account",
							"type": "address"
						}
					],
					"name": "OwnableUnauthorizedAccount",
					"type": "error"
				},
				{
					"anonymous": false,
					"inputs": [
						{
							"indexed": true,
							"internalType": "address",
							"name": "owner",
							"type": "address"
						},
						{
							"indexed": true,
							"internalType": "address",
							"name": "spender",
							"type": "address"
						},
						{
							"indexed": false,
							"internalType": "uint256",
							"name": "value",
							"type": "uint256"
						}
					],
					"name": "Approval",
					"type": "event"
				},
				{
					"anonymous": false,
					"inputs": [
						{
							"indexed": true,
							"internalType": "address",
							"name": "previousOwner",
							"type": "address"
						},
						{
							"indexed": true,
							"internalType": "address",
							"name": "newOwner",
							"type": "address"
						}
					],
					"name": "OwnershipTransferred",
					"type": "event"
				},
				{
					"anonymous": false,
					"inputs": [
						{
							"indexed": true,
							"internalType": "address",
							"name": "from",
							"type": "address"
						},
						{
							"indexed": true,
							"internalType": "address",
							"name": "to",
							"type": "address"
						},
						{
							"indexed": false,
							"internalType": "uint256",
							"name": "value",
							"type": "uint256"
						}
					],
					"name": "Transfer",
					"type": "event"
				},
				{
					"inputs": [],
					"name": "GENESIS_MESSAGE_HASH",
					"outputs": [
						{
							"internalType": "bytes32",
							"name": "",
							"type": "bytes32"
						}
					],
					"stateMutability": "view",
					"type": "function"
				},
				{
					"inputs": [],
					"name": "GENESIS_MINT",
					"outputs": [
						{
							"internalType": "uint256",
							"name": "",
							"type": "uint256"
						}
					],
					"stateMutability": "view",
					"type": "function"
				},
				{
					"inputs": [],
					"name": "GENESIS_PUBKEY",
					"outputs": [
						{
							"internalType": "bytes",
							"name": "",
							"type": "bytes"
						}
					],
					"stateMutability": "view",
					"type": "function"
				},
				{
					"inputs": [],
					"name": "GENESIS_SIGNATURE",
					"outputs": [
						{
							"internalType": "bytes",
							"name": "",
							"type": "bytes"
						}
					],
					"stateMutability": "view",
					"type": "function"
				},
				{
					"inputs": [],
					"name": "MNEMONIC_HASH",
					"outputs": [
						{
							"internalType": "bytes32",
							"name": "",
							"type": "bytes32"
						}
					],
					"stateMutability": "view",
					"type": "function"
				},
				{
					"inputs": [],
					"name": "PER_SOLVER_MINT",
					"outputs": [
						{
							"internalType": "uint256",
							"name": "",
							"type": "uint256"
						}
					],
					"stateMutability": "view",
					"type": "function"
				},
				{
					"inputs": [],
					"name": "REMAINING_MINT",
					"outputs": [
						{
							"internalType": "uint256",
							"name": "",
							"type": "uint256"
						}
					],
					"stateMutability": "view",
					"type": "function"
				},
				{
					"inputs": [],
					"name": "TOTAL_SUPPLY",
					"outputs": [
						{
							"internalType": "uint256",
							"name": "",
							"type": "uint256"
						}
					],
					"stateMutability": "view",
					"type": "function"
				},
				{
					"inputs": [
						{
							"internalType": "address",
							"name": "owner",
							"type": "address"
						},
						{
							"internalType": "address",
							"name": "spender",
							"type": "address"
						}
					],
					"name": "allowance",
					"outputs": [
						{
							"internalType": "uint256",
							"name": "",
							"type": "uint256"
						}
					],
					"stateMutability": "view",
					"type": "function"
				},
				{
					"inputs": [
						{
							"internalType": "address",
							"name": "spender",
							"type": "address"
						},
						{
							"internalType": "uint256",
							"name": "value",
							"type": "uint256"
						}
					],
					"name": "approve",
					"outputs": [
						{
							"internalType": "bool",
							"name": "",
							"type": "bool"
						}
					],
					"stateMutability": "nonpayable",
					"type": "function"
				},
				{
					"inputs": [
						{
							"internalType": "address",
							"name": "account",
							"type": "address"
						}
					],
					"name": "balanceOf",
					"outputs": [
						{
							"internalType": "uint256",
							"name": "",
							"type": "uint256"
						}
					],
					"stateMutability": "view",
					"type": "function"
				},
				{
					"inputs": [],
					"name": "decimals",
					"outputs": [
						{
							"internalType": "uint8",
							"name": "",
							"type": "uint8"
						}
					],
					"stateMutability": "view",
					"type": "function"
				},
				{
					"inputs": [
						{
							"internalType": "address",
							"name": "",
							"type": "address"
						}
					],
					"name": "hasMinted",
					"outputs": [
						{
							"internalType": "bool",
							"name": "",
							"type": "bool"
						}
					],
					"stateMutability": "view",
					"type": "function"
				},
				{
					"inputs": [
						{
							"internalType": "string",
							"name": "mnemonic",
							"type": "string"
						}
					],
					"name": "mintByMnemonic",
					"outputs": [],
					"stateMutability": "nonpayable",
					"type": "function"
				},
				{
					"inputs": [],
					"name": "mintedBySolvers",
					"outputs": [
						{
							"internalType": "uint256",
							"name": "",
							"type": "uint256"
						}
					],
					"stateMutability": "view",
					"type": "function"
				},
				{
					"inputs": [],
					"name": "name",
					"outputs": [
						{
							"internalType": "string",
							"name": "",
							"type": "string"
						}
					],
					"stateMutability": "view",
					"type": "function"
				},
				{
					"inputs": [],
					"name": "owner",
					"outputs": [
						{
							"internalType": "address",
							"name": "",
							"type": "address"
						}
					],
					"stateMutability": "view",
					"type": "function"
				},
				{
					"inputs": [],
					"name": "renounceOwnership",
					"outputs": [],
					"stateMutability": "nonpayable",
					"type": "function"
				},
				{
					"inputs": [],
					"name": "symbol",
					"outputs": [
						{
							"internalType": "string",
							"name": "",
							"type": "string"
						}
					],
					"stateMutability": "view",
					"type": "function"
				},
				{
					"inputs": [],
					"name": "totalSupply",
					"outputs": [
						{
							"internalType": "uint256",
							"name": "",
							"type": "uint256"
						}
					],
					"stateMutability": "view",
					"type": "function"
				},
				{
					"inputs": [
						{
							"internalType": "address",
							"name": "to",
							"type": "address"
						},
						{
							"internalType": "uint256",
							"name": "value",
							"type": "uint256"
						}
					],
					"name": "transfer",
					"outputs": [
						{
							"internalType": "bool",
							"name": "",
							"type": "bool"
						}
					],
					"stateMutability": "nonpayable",
					"type": "function"
				},
				{
					"inputs": [
						{
							"internalType": "address",
							"name": "from",
							"type": "address"
						},
						{
							"internalType": "address",
							"name": "to",
							"type": "address"
						},
						{
							"internalType": "uint256",
							"name": "value",
							"type": "uint256"
						}
					],
					"name": "transferFrom",
					"outputs": [
						{
							"internalType": "bool",
							"name": "",
							"type": "bool"
						}
					],
					"stateMutability": "nonpayable",
					"type": "function"
				},
				{
					"inputs": [
						{
							"internalType": "address",
							"name": "newOwner",
							"type": "address"
						}
					],
					"name": "transferOwnership",
					"outputs": [],
					"stateMutability": "nonpayable",
					"type": "function"
				}
			],
			"devdoc": {
				"errors": {
					"ECDSAInvalidSignature()": [
						{
							"details": "The signature is invalid."
						}
					],
					"ECDSAInvalidSignatureLength(uint256)": [
						{
							"details": "The signature has an invalid length."
						}
					],
					"ECDSAInvalidSignatureS(bytes32)": [
						{
							"details": "The signature has an S value that is in the upper half order."
						}
					],
					"ERC20InsufficientAllowance(address,uint256,uint256)": [
						{
							"details": "Indicates a failure with the `spender`’s `allowance`. Used in transfers.",
							"params": {
								"allowance": "Amount of tokens a `spender` is allowed to operate with.",
								"needed": "Minimum amount required to perform a transfer.",
								"spender": "Address that may be allowed to operate on tokens without being their owner."
							}
						}
					],
					"ERC20InsufficientBalance(address,uint256,uint256)": [
						{
							"details": "Indicates an error related to the current `balance` of a `sender`. Used in transfers.",
							"params": {
								"balance": "Current balance for the interacting account.",
								"needed": "Minimum amount required to perform a transfer.",
								"sender": "Address whose tokens are being transferred."
							}
						}
					],
					"ERC20InvalidApprover(address)": [
						{
							"details": "Indicates a failure with the `approver` of a token to be approved. Used in approvals.",
							"params": {
								"approver": "Address initiating an approval operation."
							}
						}
					],
					"ERC20InvalidReceiver(address)": [
						{
							"details": "Indicates a failure with the token `receiver`. Used in transfers.",
							"params": {
								"receiver": "Address to which tokens are being transferred."
							}
						}
					],
					"ERC20InvalidSender(address)": [
						{
							"details": "Indicates a failure with the token `sender`. Used in transfers.",
							"params": {
								"sender": "Address whose tokens are being transferred."
							}
						}
					],
					"ERC20InvalidSpender(address)": [
						{
							"details": "Indicates a failure with the `spender` to be approved. Used in approvals.",
							"params": {
								"spender": "Address that may be allowed to operate on tokens without being their owner."
							}
						}
					],
					"OwnableInvalidOwner(address)": [
						{
							"details": "The owner is not a valid owner account. (eg. `address(0)`)"
						}
					],
					"OwnableUnauthorizedAccount(address)": [
						{
							"details": "The caller account is not authorized to perform an operation."
						}
					]
				},
				"events": {
					"Approval(address,address,uint256)": {
						"details": "Emitted when the allowance of a `spender` for an `owner` is set by a call to {approve}. `value` is the new allowance."
					},
					"Transfer(address,address,uint256)": {
						"details": "Emitted when `value` tokens are moved from one account (`from`) to another (`to`). Note that `value` may be zero."
					}
				},
				"kind": "dev",
				"methods": {
					"allowance(address,address)": {
						"details": "Returns the remaining number of tokens that `spender` will be allowed to spend on behalf of `owner` through {transferFrom}. This is zero by default. This value changes when {approve} or {transferFrom} are called."
					},
					"approve(address,uint256)": {
						"details": "See {IERC20-approve}. NOTE: If `value` is the maximum `uint256`, the allowance is not updated on `transferFrom`. This is semantically equivalent to an infinite approval. Requirements: - `spender` cannot be the zero address."
					},
					"balanceOf(address)": {
						"details": "Returns the value of tokens owned by `account`."
					},
					"decimals()": {
						"details": "Returns the number of decimals used to get its user representation. For example, if `decimals` equals `2`, a balance of `505` tokens should be displayed to a user as `5.05` (`505 / 10 ** 2`). Tokens usually opt for a value of 18, imitating the relationship between Ether and Wei. This is the default value returned by this function, unless it's overridden. NOTE: This information is only used for _display_ purposes: it in no way affects any of the arithmetic of the contract, including {IERC20-balanceOf} and {IERC20-transfer}."
					},
					"name()": {
						"details": "Returns the name of the token."
					},
					"owner()": {
						"details": "Returns the address of the current owner."
					},
					"renounceOwnership()": {
						"details": "Leaves the contract without owner. It will not be possible to call `onlyOwner` functions. Can only be called by the current owner. NOTE: Renouncing ownership will leave the contract without an owner, thereby disabling any functionality that is only available to the owner."
					},
					"symbol()": {
						"details": "Returns the symbol of the token, usually a shorter version of the name."
					},
					"totalSupply()": {
						"details": "Returns the value of tokens in existence."
					},
					"transfer(address,uint256)": {
						"details": "See {IERC20-transfer}. Requirements: - `to` cannot be the zero address. - the caller must have a balance of at least `value`."
					},
					"transferFrom(address,address,uint256)": {
						"details": "See {IERC20-transferFrom}. Skips emitting an {Approval} event indicating an allowance update. This is not required by the ERC. See {xref-ERC20-_approve-address-address-uint256-bool-}[_approve]. NOTE: Does not update the allowance if the current allowance is the maximum `uint256`. Requirements: - `from` and `to` cannot be the zero address. - `from` must have a balance of at least `value`. - the caller must have allowance for ``from``'s tokens of at least `value`."
					},
					"transferOwnership(address)": {
						"details": "Transfers ownership of the contract to a new account (`newOwner`). Can only be called by the current owner."
					}
				},
				"version": 1
			},
			"evm": {
				"assembly": "    /* \"/contracts/HelloWorld.sol\":231:1916  contract CamelotScavenger is ERC20, Ownable {... */\n  mstore(0x40, 0x80)\n    /* \"/contracts/HelloWorld.sol\":1150:1489  constructor() ERC20(\"Camelot Excalibur\", \"EXCAL\") Ownable(msg.sender) {... */\n  callvalue\n  dup1\n  iszero\n  tag_1\n  jumpi\n  revert(0x00, 0x00)\ntag_1:\n  pop\n    /* \"/contracts/HelloWorld.sol\":1208:1218  msg.sender */\n  caller\n    /* \"@openzeppelin/contracts/token/ERC20/ERC20.sol\":1582:1695  constructor(string memory name_, string memory symbol_) {... */\n  mload(0x40)\n  dup1\n  0x40\n  add\n  0x40\n  mstore\n  dup1\n  0x11\n  dup2\n  mstore\n  0x20\n  add\n  0x43616d656c6f7420457863616c69627572000000000000000000000000000000\n  dup2\n  mstore\n  pop\n  mload(0x40)\n  dup1\n  0x40\n  add\n  0x40\n  mstore\n  dup1\n  0x05\n  dup2\n  mstore\n  0x20\n  add\n  0x455843414c000000000000000000000000000000000000000000000000000000\n  dup2\n  mstore\n  pop\n    /* \"@openzeppelin/contracts/token/ERC20/ERC20.sol\":1656:1661  name_ */\n  dup2\n    /* \"@openzeppelin/contracts/token/ERC20/ERC20.sol\":1648:1653  _name */\n  0x03\n    /* \"@openzeppelin/contracts/token/ERC20/ERC20.sol\":1648:1661  _name = name_ */\n  swap1\n  dup2\n  tag_6\n  swap2\n  swap1\n  tag_7\n  jump\t// in\ntag_6:\n  pop\n    /* \"@openzeppelin/contracts/token/ERC20/ERC20.sol\":1681:1688  symbol_ */\n  dup1\n    /* \"@openzeppelin/contracts/token/ERC20/ERC20.sol\":1671:1678  _symbol */\n  0x04\n    /* \"@openzeppelin/contracts/token/ERC20/ERC20.sol\":1671:1688  _symbol = symbol_ */\n  swap1\n  dup2\n  tag_8\n  swap2\n  swap1\n  tag_7\n  jump\t// in\ntag_8:\n  pop\n    /* \"@openzeppelin/contracts/token/ERC20/ERC20.sol\":1582:1695  constructor(string memory name_, string memory symbol_) {... */\n  pop\n  pop\n    /* \"@openzeppelin/contracts/access/Ownable.sol\":1297:1298  0 */\n  0x00\n    /* \"@openzeppelin/contracts/access/Ownable.sol\":1273:1299  initialOwner == address(0) */\n  0xffffffffffffffffffffffffffffffffffffffff\n  and\n    /* \"@openzeppelin/contracts/access/Ownable.sol\":1273:1285  initialOwner */\n  dup2\n    /* \"@openzeppelin/contracts/access/Ownable.sol\":1273:1299  initialOwner == address(0) */\n  0xffffffffffffffffffffffffffffffffffffffff\n  and\n  sub\n    /* \"@openzeppelin/contracts/access/Ownable.sol\":1269:1364  if (initialOwner == address(0)) {... */\n  tag_10\n  jumpi\n    /* \"@openzeppelin/contracts/access/Ownable.sol\":1350:1351  0 */\n  0x00\n    /* \"@openzeppelin/contracts/access/Ownable.sol\":1322:1353  OwnableInvalidOwner(address(0)) */\n  mload(0x40)\n  0x1e4fbdf700000000000000000000000000000000000000000000000000000000\n  dup2\n  mstore\n  0x04\n  add\n  tag_11\n  swap2\n  swap1\n  tag_12\n  jump\t// in\ntag_11:\n  mload(0x40)\n  dup1\n  swap2\n  sub\n  swap1\n  revert\n    /* \"@openzeppelin/contracts/access/Ownable.sol\":1269:1364  if (initialOwner == address(0)) {... */\ntag_10:\n    /* \"@openzeppelin/contracts/access/Ownable.sol\":1373:1405  _transferOwnership(initialOwner) */\n  tag_13\n    /* \"@openzeppelin/contracts/access/Ownable.sol\":1392:1404  initialOwner */\n  dup2\n    /* \"@openzeppelin/contracts/access/Ownable.sol\":1373:1391  _transferOwnership */\n  shl(0x20, tag_14)\n    /* \"@openzeppelin/contracts/access/Ownable.sol\":1373:1405  _transferOwnership(initialOwner) */\n  0x20\n  shr\n  jump\t// in\ntag_13:\n    /* \"@openzeppelin/contracts/access/Ownable.sol\":1225:1412  constructor(address initialOwner) {... */\n  pop\n    /* \"/contracts/HelloWorld.sol\":1230:1244  address signer */\n  0x00\n    /* \"/contracts/HelloWorld.sol\":1247:1294  GENESIS_MESSAGE_HASH.recover(GENESIS_SIGNATURE) */\n  tag_16\n    /* \"/contracts/HelloWorld.sol\":1276:1293  GENESIS_SIGNATURE */\n  mload(0x40)\n  dup1\n  0x40\n  add\n  0x40\n  mstore\n  dup1\n  0x20\n  dup2\n  mstore\n  0x20\n  add\n  0x1234567890abcdef1234567890abcdef1234567890abcdef1234567890abcdef\n  dup2\n  mstore\n  pop\n    /* \"/contracts/HelloWorld.sol\":991:1026  keccak256(\"Camelot Scavenger Hunt\") */\n  0x450d5ca1d5fa8aee9d893f6c7ac9fd8e59a06ff5f40dac808d5e4b456017f336\n    /* \"/contracts/HelloWorld.sol\":1247:1275  GENESIS_MESSAGE_HASH.recover */\n  shl(0x20, tag_17)\n  swap1\n    /* \"/contracts/HelloWorld.sol\":1247:1294  GENESIS_MESSAGE_HASH.recover(GENESIS_SIGNATURE) */\n  swap2\n  swap1\n  0x20\n  shr\n  jump\t// in\ntag_16:\n    /* \"/contracts/HelloWorld.sol\":1230:1294  address signer = GENESIS_MESSAGE_HASH.recover(GENESIS_SIGNATURE) */\n  swap1\n  pop\n    /* \"/contracts/HelloWorld.sol\":1304:1320  address expected */\n  0x00\n    /* \"/contracts/HelloWorld.sol\":1357:1371  GENESIS_PUBKEY */\n  mload(0x40)\n  dup1\n  0x60\n  add\n  0x40\n  mstore\n  dup1\n  0x21\n  dup2\n  mstore\n  0x20\n  add\n  data_7c247f0faa109da9a7dfcc30d9b7c5309fb4341a6d669088e6e5c9edaf7a8422\n  0x21\n  swap2\n  codecopy\n    /* \"/contracts/HelloWorld.sol\":1347:1372  keccak256(GENESIS_PUBKEY) */\n  dup1\n  mload\n  swap1\n  0x20\n  add\n  keccak256\n    /* \"/contracts/HelloWorld.sol\":1339:1373  uint256(keccak256(GENESIS_PUBKEY)) */\n  0x00\n  shr\n    /* \"/contracts/HelloWorld.sol\":1304:1375  address expected = address(uint160(uint256(keccak256(GENESIS_PUBKEY)))) */\n  swap1\n  pop\n    /* \"/contracts/HelloWorld.sol\":1403:1411  expected */\n  dup1\n    /* \"/contracts/HelloWorld.sol\":1393:1411  signer == expected */\n  0xffffffffffffffffffffffffffffffffffffffff\n  and\n    /* \"/contracts/HelloWorld.sol\":1393:1399  signer */\n  dup3\n    /* \"/contracts/HelloWorld.sol\":1393:1411  signer == expected */\n  0xffffffffffffffffffffffffffffffffffffffff\n  and\n  eq\n    /* \"/contracts/HelloWorld.sol\":1385:1441  require(signer == expected, \"Invalid genesis signature\") */\n  tag_18\n  jumpi\n  mload(0x40)\n  0x08c379a000000000000000000000000000000000000000000000000000000000\n  dup2\n  mstore\n  0x04\n  add\n  tag_19\n  swap1\n  tag_20\n  jump\t// in\ntag_19:\n  mload(0x40)\n  dup1\n  swap2\n  sub\n  swap1\n  revert\ntag_18:\n    /* \"/contracts/HelloWorld.sol\":1451:1482  _mint(msg.sender, GENESIS_MINT) */\n  tag_21\n    /* \"/contracts/HelloWorld.sol\":1457:1467  msg.sender */\n  caller\n    /* \"/contracts/HelloWorld.sol\":696:714  7_500_000 * 10**18 */\n  0x06342fd08f00f637800000\n    /* \"/contracts/HelloWorld.sol\":1451:1456  _mint */\n  shl(0x20, tag_22)\n    /* \"/contracts/HelloWorld.sol\":1451:1482  _mint(msg.sender, GENESIS_MINT) */\n  0x20\n  shr\n  jump\t// in\ntag_21:\n    /* \"/contracts/HelloWorld.sol\":1220:1489  {... */\n  pop\n  pop\n    /* \"/contracts/HelloWorld.sol\":231:1916  contract CamelotScavenger is ERC20, Ownable {... */\n  jump(tag_23)\n    /* \"@openzeppelin/contracts/access/Ownable.sol\":2912:3099  function _transferOwnership(address newOwner) internal virtual {... */\ntag_14:\n    /* \"@openzeppelin/contracts/access/Ownable.sol\":2985:3001  address oldOwner */\n  0x00\n    /* \"@openzeppelin/contracts/access/Ownable.sol\":3004:3010  _owner */\n  0x05\n  0x00\n  swap1\n  sload\n  swap1\n  0x0100\n  exp\n  swap1\n  div\n  0xffffffffffffffffffffffffffffffffffffffff\n  and\n    /* \"@openzeppelin/contracts/access/Ownable.sol\":2985:3010  address oldOwner = _owner */\n  swap1\n  pop\n    /* \"@openzeppelin/contracts/access/Ownable.sol\":3029:3037  newOwner */\n  dup2\n    /* \"@openzeppelin/contracts/access/Ownable.sol\":3020:3026  _owner */\n  0x05\n  0x00\n    /* \"@openzeppelin/contracts/access/Ownable.sol\":3020:3037  _owner = newOwner */\n  0x0100\n  exp\n  dup2\n  sload\n  dup2\n  0xffffffffffffffffffffffffffffffffffffffff\n  mul\n  not\n  and\n  swap1\n  dup4\n  0xffffffffffffffffffffffffffffffffffffffff\n  and\n  mul\n  or\n  swap1\n  sstore\n  pop\n    /* \"@openzeppelin/contracts/access/Ownable.sol\":3083:3091  newOwner */\n  dup2\n    /* \"@openzeppelin/contracts/access/Ownable.sol\":3052:3092  OwnershipTransferred(oldOwner, newOwner) */\n  0xffffffffffffffffffffffffffffffffffffffff\n  and\n    /* \"@openzeppelin/contracts/access/Ownable.sol\":3073:3081  oldOwner */\n  dup2\n    /* \"@openzeppelin/contracts/access/Ownable.sol\":3052:3092  OwnershipTransferred(oldOwner, newOwner) */\n  0xffffffffffffffffffffffffffffffffffffffff\n  and\n  0x8be0079c531659141344cd1fd0a4f28419497f9722a3daafe3b4186f6b6457e0\n  mload(0x40)\n  mload(0x40)\n  dup1\n  swap2\n  sub\n  swap1\n  log3\n    /* \"@openzeppelin/contracts/access/Ownable.sol\":2975:3099  {... */\n  pop\n    /* \"@openzeppelin/contracts/access/Ownable.sol\":2912:3099  function _transferOwnership(address newOwner) internal virtual {... */\n  pop\n  jump\t// out\n    /* \"@openzeppelin/contracts/utils/cryptography/ECDSA.sol\":5276:5531  function recover(bytes32 hash, bytes memory signature) internal pure returns (address) {... */\ntag_17:\n    /* \"@openzeppelin/contracts/utils/cryptography/ECDSA.sol\":5354:5361  address */\n  0x00\n    /* \"@openzeppelin/contracts/utils/cryptography/ECDSA.sol\":5374:5391  address recovered */\n  0x00\n    /* \"@openzeppelin/contracts/utils/cryptography/ECDSA.sol\":5393:5411  RecoverError error */\n  0x00\n    /* \"@openzeppelin/contracts/utils/cryptography/ECDSA.sol\":5413:5429  bytes32 errorArg */\n  0x00\n    /* \"@openzeppelin/contracts/utils/cryptography/ECDSA.sol\":5433:5460  tryRecover(hash, signature) */\n  tag_26\n    /* \"@openzeppelin/contracts/utils/cryptography/ECDSA.sol\":5444:5448  hash */\n  dup7\n    /* \"@openzeppelin/contracts/utils/cryptography/ECDSA.sol\":5450:5459  signature */\n  dup7\n    /* \"@openzeppelin/contracts/utils/cryptography/ECDSA.sol\":5433:5443  tryRecover */\n  shl(0x20, tag_27)\n    /* \"@openzeppelin/contracts/utils/cryptography/ECDSA.sol\":5433:5460  tryRecover(hash, signature) */\n  0x20\n  shr\n  jump\t// in\ntag_26:\n    /* \"@openzeppelin/contracts/utils/cryptography/ECDSA.sol\":5373:5460  (address recovered, RecoverError error, bytes32 errorArg) = tryRecover(hash, signature) */\n  swap3\n  pop\n  swap3\n  pop\n  swap3\n  pop\n    /* \"@openzeppelin/contracts/utils/cryptography/ECDSA.sol\":5470:5498  _throwError(error, errorArg) */\n  tag_28\n    /* \"@openzeppelin/contracts/utils/cryptography/ECDSA.sol\":5482:5487  error */\n  dup3\n    /* \"@openzeppelin/contracts/utils/cryptography/ECDSA.sol\":5489:5497  errorArg */\n  dup3\n    /* \"@openzeppelin/contracts/utils/cryptography/ECDSA.sol\":5470:5481  _throwError */\n  shl(0x20, tag_29)\n    /* \"@openzeppelin/contracts/utils/cryptography/ECDSA.sol\":5470:5498  _throwError(error, errorArg) */\n  0x20\n  shr\n  jump\t// in\ntag_28:\n    /* \"@openzeppelin/contracts/utils/cryptography/ECDSA.sol\":5515:5524  recovered */\n  dup3\n    /* \"@openzeppelin/contracts/utils/cryptography/ECDSA.sol\":5508:5524  return recovered */\n  swap4\n  pop\n  pop\n  pop\n  pop\n    /* \"@openzeppelin/contracts/utils/cryptography/ECDSA.sol\":5276:5531  function recover(bytes32 hash, bytes memory signature) internal pure returns (address) {... */\n  swap3\n  swap2\n  pop\n  pop\n  jump\t// out\n    /* \"@openzeppelin/contracts/token/ERC20/ERC20.sol\":7362:7570  function _mint(address account, uint256 value) internal {... */\ntag_22:\n    /* \"@openzeppelin/contracts/token/ERC20/ERC20.sol\":7451:7452  0 */\n  0x00\n    /* \"@openzeppelin/contracts/token/ERC20/ERC20.sol\":7432:7453  account == address(0) */\n  0xffffffffffffffffffffffffffffffffffffffff\n  and\n    /* \"@openzeppelin/contracts/token/ERC20/ERC20.sol\":7432:7439  account */\n  dup3\n    /* \"@openzeppelin/contracts/token/ERC20/ERC20.sol\":7432:7453  account == address(0) */\n  0xffffffffffffffffffffffffffffffffffffffff\n  and\n  sub\n    /* \"@openzeppelin/contracts/token/ERC20/ERC20.sol\":7428:7519  if (account == address(0)) {... */\n  tag_31\n  jumpi\n    /* \"@openzeppelin/contracts/token/ERC20/ERC20.sol\":7505:7506  0 */\n  0x00\n    /* \"@openzeppelin/contracts/token/ERC20/ERC20.sol\":7476:7508  ERC20InvalidReceiver(address(0)) */\n  mload(0x40)\n  0xec442f0500000000000000000000000000000000000000000000000000000000\n  dup2\n  mstore\n  0x04\n  add\n  tag_32\n  swap2\n  swap1\n  tag_12\n  jump\t// in\ntag_32:\n  mload(0x40)\n  dup1\n  swap2\n  sub\n  swap1\n  revert\n    /* \"@openzeppelin/contracts/token/ERC20/ERC20.sol\":7428:7519  if (account == address(0)) {... */\ntag_31:\n    /* \"@openzeppelin/contracts/token/ERC20/ERC20.sol\":7528:7563  _update(address(0), account, value) */\n  tag_33\n    /* \"@openzeppelin/contracts/token/ERC20/ERC20.sol\":7544:7545  0 */\n  0x00\n    /* \"@openzeppelin/contracts/token/ERC20/ERC20.sol\":7548:7555  account */\n  dup4\n    /* \"@openzeppelin/contracts/token/ERC20/ERC20.sol\":7557:7562  value */\n  dup4\n    /* \"@openzeppelin/contracts/token/ERC20/ERC20.sol\":7528:7535  _update */\n  shl(0x20, tag_34)\n    /* \"@openzeppelin/contracts/token/ERC20/ERC20.sol\":7528:7563  _update(address(0), account, value) */\n  0x20\n  shr\n  jump\t// in\ntag_33:\n    /* \"@openzeppelin/contracts/token/ERC20/ERC20.sol\":7362:7570  function _mint(address account, uint256 value) internal {... */\n  pop\n  pop\n  jump\t// out\n    /* \"@openzeppelin/contracts/utils/cryptography/ECDSA.sol\":2419:3197  function tryRecover(... */\ntag_27:\n    /* \"@openzeppelin/contracts/utils/cryptography/ECDSA.sol\":2522:2539  address recovered */\n  0x00\n    /* \"@openzeppelin/contracts/utils/cryptography/ECDSA.sol\":2541:2557  RecoverError err */\n  0x00\n    /* \"@openzeppelin/contracts/utils/cryptography/ECDSA.sol\":2559:2573  bytes32 errArg */\n  0x00\n    /* \"@openzeppelin/contracts/utils/cryptography/ECDSA.sol\":2609:2611  65 */\n  0x41\n    /* \"@openzeppelin/contracts/utils/cryptography/ECDSA.sol\":2589:2598  signature */\n  dup5\n    /* \"@openzeppelin/contracts/utils/cryptography/ECDSA.sol\":2589:2605  signature.length */\n  mload\n    /* \"@openzeppelin/contracts/utils/cryptography/ECDSA.sol\":2589:2611  signature.length == 65 */\n  sub\n    /* \"@openzeppelin/contracts/utils/cryptography/ECDSA.sol\":2585:3191  if (signature.length == 65) {... */\n  tag_36\n  jumpi\n    /* \"@openzeppelin/contracts/utils/cryptography/ECDSA.sol\":2627:2636  bytes32 r */\n  0x00\n    /* \"@openzeppelin/contracts/utils/cryptography/ECDSA.sol\":2650:2659  bytes32 s */\n  0x00\n    /* \"@openzeppelin/contracts/utils/cryptography/ECDSA.sol\":2673:2680  uint8 v */\n  0x00\n    /* \"@openzeppelin/contracts/utils/cryptography/ECDSA.sol\":2894:2898  0x20 */\n  0x20\n    /* \"@openzeppelin/contracts/utils/cryptography/ECDSA.sol\":2883:2892  signature */\n  dup8\n    /* \"@openzeppelin/contracts/utils/cryptography/ECDSA.sol\":2879:2899  add(signature, 0x20) */\n  add\n    /* \"@openzeppelin/contracts/utils/cryptography/ECDSA.sol\":2873:2900  mload(add(signature, 0x20)) */\n  mload\n    /* \"@openzeppelin/contracts/utils/cryptography/ECDSA.sol\":2868:2900  r := mload(add(signature, 0x20)) */\n  swap3\n  pop\n    /* \"@openzeppelin/contracts/utils/cryptography/ECDSA.sol\":2943:2947  0x40 */\n  0x40\n    /* \"@openzeppelin/contracts/utils/cryptography/ECDSA.sol\":2932:2941  signature */\n  dup8\n    /* \"@openzeppelin/contracts/utils/cryptography/ECDSA.sol\":2928:2948  add(signature, 0x40) */\n  add\n    /* \"@openzeppelin/contracts/utils/cryptography/ECDSA.sol\":2922:2949  mload(add(signature, 0x40)) */\n  mload\n    /* \"@openzeppelin/contracts/utils/cryptography/ECDSA.sol\":2917:2949  s := mload(add(signature, 0x40)) */\n  swap2\n  pop\n    /* \"@openzeppelin/contracts/utils/cryptography/ECDSA.sol\":3000:3004  0x60 */\n  0x60\n    /* \"@openzeppelin/contracts/utils/cryptography/ECDSA.sol\":2989:2998  signature */\n  dup8\n    /* \"@openzeppelin/contracts/utils/cryptography/ECDSA.sol\":2985:3005  add(signature, 0x60) */\n  add\n    /* \"@openzeppelin/contracts/utils/cryptography/ECDSA.sol\":2979:3006  mload(add(signature, 0x60)) */\n  mload\n    /* \"@openzeppelin/contracts/utils/cryptography/ECDSA.sol\":2976:2977  0 */\n  0x00\n    /* \"@openzeppelin/contracts/utils/cryptography/ECDSA.sol\":2971:3007  byte(0, mload(add(signature, 0x60))) */\n  byte\n    /* \"@openzeppelin/contracts/utils/cryptography/ECDSA.sol\":2966:3007  v := byte(0, mload(add(signature, 0x60))) */\n  swap1\n  pop\n    /* \"@openzeppelin/contracts/utils/cryptography/ECDSA.sol\":3041:3066  tryRecover(hash, v, r, s) */\n  tag_37\n    /* \"@openzeppelin/contracts/utils/cryptography/ECDSA.sol\":3052:3056  hash */\n  dup9\n    /* \"@openzeppelin/contracts/utils/cryptography/ECDSA.sol\":3058:3059  v */\n  dup3\n    /* \"@openzeppelin/contracts/utils/cryptography/ECDSA.sol\":3061:3062  r */\n  dup6\n    /* \"@openzeppelin/contracts/utils/cryptography/ECDSA.sol\":3064:3065  s */\n  dup6\n    /* \"@openzeppelin/contracts/utils/cryptography/ECDSA.sol\":3041:3051  tryRecover */\n  shl(0x20, tag_38)\n    /* \"@openzeppelin/contracts/utils/cryptography/ECDSA.sol\":3041:3066  tryRecover(hash, v, r, s) */\n  0x20\n  shr\n  jump\t// in\ntag_37:\n    /* \"@openzeppelin/contracts/utils/cryptography/ECDSA.sol\":3034:3066  return tryRecover(hash, v, r, s) */\n  swap6\n  pop\n  swap6\n  pop\n  swap6\n  pop\n  pop\n  pop\n  pop\n  jump(tag_35)\n    /* \"@openzeppelin/contracts/utils/cryptography/ECDSA.sol\":2585:3191  if (signature.length == 65) {... */\ntag_36:\n    /* \"@openzeppelin/contracts/utils/cryptography/ECDSA.sol\":3113:3114  0 */\n  0x00\n    /* \"@openzeppelin/contracts/utils/cryptography/ECDSA.sol\":3117:3152  RecoverError.InvalidSignatureLength */\n  0x02\n    /* \"@openzeppelin/contracts/utils/cryptography/ECDSA.sol\":3162:3171  signature */\n  dup6\n    /* \"@openzeppelin/contracts/utils/cryptography/ECDSA.sol\":3162:3178  signature.length */\n  mload\n    /* \"@openzeppelin/contracts/utils/cryptography/ECDSA.sol\":3154:3179  bytes32(signature.length) */\n  0x00\n  shl\n    /* \"@openzeppelin/contracts/utils/cryptography/ECDSA.sol\":3097:3180  return (address(0), RecoverError.InvalidSignatureLength, bytes32(signature.length)) */\n  swap3\n  pop\n  swap3\n  pop\n  swap3\n  pop\n    /* \"@openzeppelin/contracts/utils/cryptography/ECDSA.sol\":2419:3197  function tryRecover(... */\ntag_35:\n  swap3\n  pop\n  swap3\n  pop\n  swap3\n  jump\t// out\n    /* \"@openzeppelin/contracts/utils/cryptography/ECDSA.sol\":11617:12149  function _throwError(RecoverError error, bytes32 errorArg) private pure {... */\ntag_29:\n    /* \"@openzeppelin/contracts/utils/cryptography/ECDSA.sol\":11712:11732  RecoverError.NoError */\n  0x00\n    /* \"@openzeppelin/contracts/utils/cryptography/ECDSA.sol\":11703:11732  error == RecoverError.NoError */\n  0x03\n  dup2\n  gt\n  iszero\n  tag_41\n  jumpi\n  tag_42\n  tag_43\n  jump\t// in\ntag_42:\ntag_41:\n    /* \"@openzeppelin/contracts/utils/cryptography/ECDSA.sol\":11703:11708  error */\n  dup3\n    /* \"@openzeppelin/contracts/utils/cryptography/ECDSA.sol\":11703:11732  error == RecoverError.NoError */\n  0x03\n  dup2\n  gt\n  iszero\n  tag_44\n  jumpi\n  tag_45\n  tag_43\n  jump\t// in\ntag_45:\ntag_44:\n  sub\n    /* \"@openzeppelin/contracts/utils/cryptography/ECDSA.sol\":11699:12143  if (error == RecoverError.NoError) {... */\n  iszero\n    /* \"@openzeppelin/contracts/utils/cryptography/ECDSA.sol\":11748:11755  return; */\n  tag_40\n    /* \"@openzeppelin/contracts/utils/cryptography/ECDSA.sol\":11699:12143  if (error == RecoverError.NoError) {... */\n  jumpi\n    /* \"@openzeppelin/contracts/utils/cryptography/ECDSA.sol\":11808:11837  RecoverError.InvalidSignature */\n  0x01\n    /* \"@openzeppelin/contracts/utils/cryptography/ECDSA.sol\":11799:11837  error == RecoverError.InvalidSignature */\n  0x03\n  dup2\n  gt\n  iszero\n  tag_48\n  jumpi\n  tag_49\n  tag_43\n  jump\t// in\ntag_49:\ntag_48:\n    /* \"@openzeppelin/contracts/utils/cryptography/ECDSA.sol\":11799:11804  error */\n  dup3\n    /* \"@openzeppelin/contracts/utils/cryptography/ECDSA.sol\":11799:11837  error == RecoverError.InvalidSignature */\n  0x03\n  dup2\n  gt\n  iszero\n  tag_50\n  jumpi\n  tag_51\n  tag_43\n  jump\t// in\ntag_51:\ntag_50:\n  sub\n    /* \"@openzeppelin/contracts/utils/cryptography/ECDSA.sol\":11795:12143  if (error == RecoverError.InvalidSignature) {... */\n  tag_52\n  jumpi\n    /* \"@openzeppelin/contracts/utils/cryptography/ECDSA.sol\":11860:11883  ECDSAInvalidSignature() */\n  mload(0x40)\n  0xf645eedf00000000000000000000000000000000000000000000000000000000\n  dup2\n  mstore\n  0x04\n  add\n  mload(0x40)\n  dup1\n  swap2\n  sub\n  swap1\n  revert\n    /* \"@openzeppelin/contracts/utils/cryptography/ECDSA.sol\":11795:12143  if (error == RecoverError.InvalidSignature) {... */\ntag_52:\n    /* \"@openzeppelin/contracts/utils/cryptography/ECDSA.sol\":11913:11948  RecoverError.InvalidSignatureLength */\n  0x02\n    /* \"@openzeppelin/contracts/utils/cryptography/ECDSA.sol\":11904:11948  error == RecoverError.InvalidSignatureLength */\n  0x03\n  dup2\n  gt\n  iszero\n  tag_54\n  jumpi\n  tag_55\n  tag_43\n  jump\t// in\ntag_55:\ntag_54:\n    /* \"@openzeppelin/contracts/utils/cryptography/ECDSA.sol\":11904:11909  error */\n  dup3\n    /* \"@openzeppelin/contracts/utils/cryptography/ECDSA.sol\":11904:11948  error == RecoverError.InvalidSignatureLength */\n  0x03\n  dup2\n  gt\n  iszero\n  tag_56\n  jumpi\n  tag_57\n  tag_43\n  jump\t// in\ntag_57:\ntag_56:\n  sub\n    /* \"@openzeppelin/contracts/utils/cryptography/ECDSA.sol\":11900:12143  if (error == RecoverError.InvalidSignatureLength) {... */\n  tag_58\n  jumpi\n    /* \"@openzeppelin/contracts/utils/cryptography/ECDSA.sol\":12007:12015  errorArg */\n  dup1\n    /* \"@openzeppelin/contracts/utils/cryptography/ECDSA.sol\":11999:12016  uint256(errorArg) */\n  0x00\n  shr\n    /* \"@openzeppelin/contracts/utils/cryptography/ECDSA.sol\":11971:12017  ECDSAInvalidSignatureLength(uint256(errorArg)) */\n  mload(0x40)\n  0xfce698f700000000000000000000000000000000000000000000000000000000\n  dup2\n  mstore\n  0x04\n  add\n  tag_59\n  swap2\n  swap1\n  tag_60\n  jump\t// in\ntag_59:\n  mload(0x40)\n  dup1\n  swap2\n  sub\n  swap1\n  revert\n    /* \"@openzeppelin/contracts/utils/cryptography/ECDSA.sol\":11900:12143  if (error == RecoverError.InvalidSignatureLength) {... */\ntag_58:\n    /* \"@openzeppelin/contracts/utils/cryptography/ECDSA.sol\":12047:12077  RecoverError.InvalidSignatureS */\n  0x03\n    /* \"@openzeppelin/contracts/utils/cryptography/ECDSA.sol\":12038:12077  error == RecoverError.InvalidSignatureS */\n  dup1\n  dup2\n  gt\n  iszero\n  tag_62\n  jumpi\n  tag_63\n  tag_43\n  jump\t// in\ntag_63:\ntag_62:\n    /* \"@openzeppelin/contracts/utils/cryptography/ECDSA.sol\":12038:12043  error */\n  dup3\n    /* \"@openzeppelin/contracts/utils/cryptography/ECDSA.sol\":12038:12077  error == RecoverError.InvalidSignatureS */\n  0x03\n  dup2\n  gt\n  iszero\n  tag_64\n  jumpi\n  tag_65\n  tag_43\n  jump\t// in\ntag_65:\ntag_64:\n  sub\n    /* \"@openzeppelin/contracts/utils/cryptography/ECDSA.sol\":12034:12143  if (error == RecoverError.InvalidSignatureS) {... */\n  tag_66\n  jumpi\n    /* \"@openzeppelin/contracts/utils/cryptography/ECDSA.sol\":12123:12131  errorArg */\n  dup1\n    /* \"@openzeppelin/contracts/utils/cryptography/ECDSA.sol\":12100:12132  ECDSAInvalidSignatureS(errorArg) */\n  mload(0x40)\n  0xd78bce0c00000000000000000000000000000000000000000000000000000000\n  dup2\n  mstore\n  0x04\n  add\n  tag_67\n  swap2\n  swap1\n  tag_68\n  jump\t// in\ntag_67:\n  mload(0x40)\n  dup1\n  swap2\n  sub\n  swap1\n  revert\n    /* \"@openzeppelin/contracts/utils/cryptography/ECDSA.sol\":12034:12143  if (error == RecoverError.InvalidSignatureS) {... */\ntag_66:\n    /* \"@openzeppelin/contracts/utils/cryptography/ECDSA.sol\":11617:12149  function _throwError(RecoverError error, bytes32 errorArg) private pure {... */\ntag_40:\n  pop\n  pop\n  jump\t// out\n    /* \"@openzeppelin/contracts/token/ERC20/ERC20.sol\":5912:7019  function _update(address from, address to, uint256 value) internal virtual {... */\ntag_34:\n    /* \"@openzeppelin/contracts/token/ERC20/ERC20.sol\":6017:6018  0 */\n  0x00\n    /* \"@openzeppelin/contracts/token/ERC20/ERC20.sol\":6001:6019  from == address(0) */\n  0xffffffffffffffffffffffffffffffffffffffff\n  and\n    /* \"@openzeppelin/contracts/token/ERC20/ERC20.sol\":6001:6005  from */\n  dup4\n    /* \"@openzeppelin/contracts/token/ERC20/ERC20.sol\":6001:6019  from == address(0) */\n  0xffffffffffffffffffffffffffffffffffffffff\n  and\n  sub\n    /* \"@openzeppelin/contracts/token/ERC20/ERC20.sol\":5997:6537  if (from == address(0)) {... */\n  tag_70\n  jumpi\n    /* \"@openzeppelin/contracts/token/ERC20/ERC20.sol\":6153:6158  value */\n  dup1\n    /* \"@openzeppelin/contracts/token/ERC20/ERC20.sol\":6137:6149  _totalSupply */\n  0x02\n  0x00\n    /* \"@openzeppelin/contracts/token/ERC20/ERC20.sol\":6137:6158  _totalSupply += value */\n  dup3\n  dup3\n  sload\n  tag_71\n  swap2\n  swap1\n  tag_72\n  jump\t// in\ntag_71:\n  swap3\n  pop\n  pop\n  dup2\n  swap1\n  sstore\n  pop\n    /* \"@openzeppelin/contracts/token/ERC20/ERC20.sol\":5997:6537  if (from == address(0)) {... */\n  jump(tag_73)\ntag_70:\n    /* \"@openzeppelin/contracts/token/ERC20/ERC20.sol\":6189:6208  uint256 fromBalance */\n  0x00\n    /* \"@openzeppelin/contracts/token/ERC20/ERC20.sol\":6211:6220  _balances */\n  0x00\n    /* \"@openzeppelin/contracts/token/ERC20/ERC20.sol\":6211:6226  _balances[from] */\n  0x00\n    /* \"@openzeppelin/contracts/token/ERC20/ERC20.sol\":6221:6225  from */\n  dup6\n    /* \"@openzeppelin/contracts/token/ERC20/ERC20.sol\":6211:6226  _balances[from] */\n  0xffffffffffffffffffffffffffffffffffffffff\n  and\n  0xffffffffffffffffffffffffffffffffffffffff\n  and\n  dup2\n  mstore\n  0x20\n  add\n  swap1\n  dup2\n  mstore\n  0x20\n  add\n  0x00\n  keccak256\n  sload\n    /* \"@openzeppelin/contracts/token/ERC20/ERC20.sol\":6189:6226  uint256 fromBalance = _balances[from] */\n  swap1\n  pop\n    /* \"@openzeppelin/contracts/token/ERC20/ERC20.sol\":6258:6263  value */\n  dup2\n    /* \"@openzeppelin/contracts/token/ERC20/ERC20.sol\":6244:6255  fromBalance */\n  dup2\n    /* \"@openzeppelin/contracts/token/ERC20/ERC20.sol\":6244:6263  fromBalance < value */\n  lt\n    /* \"@openzeppelin/contracts/token/ERC20/ERC20.sol\":6240:6355  if (fromBalance < value) {... */\n  iszero\n  tag_74\n  jumpi\n    /* \"@openzeppelin/contracts/token/ERC20/ERC20.sol\":6315:6319  from */\n  dup4\n    /* \"@openzeppelin/contracts/token/ERC20/ERC20.sol\":6321:6332  fromBalance */\n  dup2\n    /* \"@openzeppelin/contracts/token/ERC20/ERC20.sol\":6334:6339  value */\n  dup4\n    /* \"@openzeppelin/contracts/token/ERC20/ERC20.sol\":6290:6340  ERC20InsufficientBalance(from, fromBalance, value) */\n  mload(0x40)\n  0xe450d38c00000000000000000000000000000000000000000000000000000000\n  dup2\n  mstore\n  0x04\n  add\n  tag_75\n  swap4\n  swap3\n  swap2\n  swap1\n  tag_76\n  jump\t// in\ntag_75:\n  mload(0x40)\n  dup1\n  swap2\n  sub\n  swap1\n  revert\n    /* \"@openzeppelin/contracts/token/ERC20/ERC20.sol\":6240:6355  if (fromBalance < value) {... */\ntag_74:\n    /* \"@openzeppelin/contracts/token/ERC20/ERC20.sol\":6507:6512  value */\n  dup2\n    /* \"@openzeppelin/contracts/token/ERC20/ERC20.sol\":6493:6504  fromBalance */\n  dup2\n    /* \"@openzeppelin/contracts/token/ERC20/ERC20.sol\":6493:6512  fromBalance - value */\n  sub\n    /* \"@openzeppelin/contracts/token/ERC20/ERC20.sol\":6475:6484  _balances */\n  0x00\n    /* \"@openzeppelin/contracts/token/ERC20/ERC20.sol\":6475:6490  _balances[from] */\n  0x00\n    /* \"@openzeppelin/contracts/token/ERC20/ERC20.sol\":6485:6489  from */\n  dup7\n    /* \"@openzeppelin/contracts/token/ERC20/ERC20.sol\":6475:6490  _balances[from] */\n  0xffffffffffffffffffffffffffffffffffffffff\n  and\n  0xffffffffffffffffffffffffffffffffffffffff\n  and\n  dup2\n  mstore\n  0x20\n  add\n  swap1\n  dup2\n  mstore\n  0x20\n  add\n  0x00\n  keccak256\n    /* \"@openzeppelin/contracts/token/ERC20/ERC20.sol\":6475:6512  _balances[from] = fromBalance - value */\n  dup2\n  swap1\n  sstore\n  pop\n    /* \"@openzeppelin/contracts/token/ERC20/ERC20.sol\":6175:6537  {... */\n  pop\n    /* \"@openzeppelin/contracts/token/ERC20/ERC20.sol\":5997:6537  if (from == address(0)) {... */\ntag_73:\n    /* \"@openzeppelin/contracts/token/ERC20/ERC20.sol\":6565:6566  0 */\n  0x00\n    /* \"@openzeppelin/contracts/token/ERC20/ERC20.sol\":6551:6567  to == address(0) */\n  0xffffffffffffffffffffffffffffffffffffffff\n  and\n    /* \"@openzeppelin/contracts/token/ERC20/ERC20.sol\":6551:6553  to */\n  dup3\n    /* \"@openzeppelin/contracts/token/ERC20/ERC20.sol\":6551:6567  to == address(0) */\n  0xffffffffffffffffffffffffffffffffffffffff\n  and\n  sub\n    /* \"@openzeppelin/contracts/token/ERC20/ERC20.sol\":6547:6972  if (to == address(0)) {... */\n  tag_77\n  jumpi\n    /* \"@openzeppelin/contracts/token/ERC20/ERC20.sol\":6730:6735  value */\n  dup1\n    /* \"@openzeppelin/contracts/token/ERC20/ERC20.sol\":6714:6726  _totalSupply */\n  0x02\n  0x00\n    /* \"@openzeppelin/contracts/token/ERC20/ERC20.sol\":6714:6735  _totalSupply -= value */\n  dup3\n  dup3\n  sload\n  sub\n  swap3\n  pop\n  pop\n  dup2\n  swap1\n  sstore\n  pop\n    /* \"@openzeppelin/contracts/token/ERC20/ERC20.sol\":6547:6972  if (to == address(0)) {... */\n  jump(tag_78)\ntag_77:\n    /* \"@openzeppelin/contracts/token/ERC20/ERC20.sol\":6942:6947  value */\n  dup1\n    /* \"@openzeppelin/contracts/token/ERC20/ERC20.sol\":6925:6934  _balances */\n  0x00\n    /* \"@openzeppelin/contracts/token/ERC20/ERC20.sol\":6925:6938  _balances[to] */\n  0x00\n    /* \"@openzeppelin/contracts/token/ERC20/ERC20.sol\":6935:6937  to */\n  dup5\n    /* \"@openzeppelin/contracts/token/ERC20/ERC20.sol\":6925:6938  _balances[to] */\n  0xffffffffffffffffffffffffffffffffffffffff\n  and\n  0xffffffffffffffffffffffffffffffffffffffff\n  and\n  dup2\n  mstore\n  0x20\n  add\n  swap1\n  dup2\n  mstore\n  0x20\n  add\n  0x00\n  keccak256\n  0x00\n    /* \"@openzeppelin/contracts/token/ERC20/ERC20.sol\":6925:6947  _balances[to] += value */\n  dup3\n  dup3\n  sload\n  add\n  swap3\n  pop\n  pop\n  dup2\n  swap1\n  sstore\n  pop\n    /* \"@openzeppelin/contracts/token/ERC20/ERC20.sol\":6547:6972  if (to == address(0)) {... */\ntag_78:\n    /* \"@openzeppelin/contracts/token/ERC20/ERC20.sol\":7002:7004  to */\n  dup2\n    /* \"@openzeppelin/contracts/token/ERC20/ERC20.sol\":6987:7012  Transfer(from, to, value) */\n  0xffffffffffffffffffffffffffffffffffffffff\n  and\n    /* \"@openzeppelin/contracts/token/ERC20/ERC20.sol\":6996:7000  from */\n  dup4\n    /* \"@openzeppelin/contracts/token/ERC20/ERC20.sol\":6987:7012  Transfer(from, to, value) */\n  0xffffffffffffffffffffffffffffffffffffffff\n  and\n  0xddf252ad1be2c89b69c2b068fc378daa952ba7f163c4a11628f55a4df523b3ef\n    /* \"@openzeppelin/contracts/token/ERC20/ERC20.sol\":7006:7011  value */\n  dup4\n    /* \"@openzeppelin/contracts/token/ERC20/ERC20.sol\":6987:7012  Transfer(from, to, value) */\n  mload(0x40)\n  tag_79\n  swap2\n  swap1\n  tag_60\n  jump\t// in\ntag_79:\n  mload(0x40)\n  dup1\n  swap2\n  sub\n  swap1\n  log3\n    /* \"@openzeppelin/contracts/token/ERC20/ERC20.sol\":5912:7019  function _update(address from, address to, uint256 value) internal virtual {... */\n  pop\n  pop\n  pop\n  jump\t// out\n    /* \"@openzeppelin/contracts/utils/cryptography/ECDSA.sol\":7129:8680  function tryRecover(... */\ntag_38:\n    /* \"@openzeppelin/contracts/utils/cryptography/ECDSA.sol\":7255:7272  address recovered */\n  0x00\n    /* \"@openzeppelin/contracts/utils/cryptography/ECDSA.sol\":7274:7290  RecoverError err */\n  0x00\n    /* \"@openzeppelin/contracts/utils/cryptography/ECDSA.sol\":7292:7306  bytes32 errArg */\n  0x00\n    /* \"@openzeppelin/contracts/utils/cryptography/ECDSA.sol\":8209:8275  0x7FFFFFFFFFFFFFFFFFFFFFFFFFFFFFFF5D576E7357A4501DDFE92F46681B20A0 */\n  0x7fffffffffffffffffffffffffffffff5d576e7357a4501ddfe92f46681b20a0\n    /* \"@openzeppelin/contracts/utils/cryptography/ECDSA.sol\":8204:8205  s */\n  dup5\n    /* \"@openzeppelin/contracts/utils/cryptography/ECDSA.sol\":8196:8206  uint256(s) */\n  0x00\n  shr\n    /* \"@openzeppelin/contracts/utils/cryptography/ECDSA.sol\":8196:8275  uint256(s) > 0x7FFFFFFFFFFFFFFFFFFFFFFFFFFFFFFF5D576E7357A4501DDFE92F46681B20A0 */\n  gt\n    /* \"@openzeppelin/contracts/utils/cryptography/ECDSA.sol\":8192:8356  if (uint256(s) > 0x7FFFFFFFFFFFFFFFFFFFFFFFFFFFFFFF5D576E7357A4501DDFE92F46681B20A0) {... */\n  iszero\n  tag_81\n  jumpi\n    /* \"@openzeppelin/contracts/utils/cryptography/ECDSA.sol\":8307:8308  0 */\n  0x00\n    /* \"@openzeppelin/contracts/utils/cryptography/ECDSA.sol\":8311:8341  RecoverError.InvalidSignatureS */\n  0x03\n    /* \"@openzeppelin/contracts/utils/cryptography/ECDSA.sol\":8343:8344  s */\n  dup6\n    /* \"@openzeppelin/contracts/utils/cryptography/ECDSA.sol\":8291:8345  return (address(0), RecoverError.InvalidSignatureS, s) */\n  swap3\n  pop\n  swap3\n  pop\n  swap3\n  pop\n  jump(tag_80)\n    /* \"@openzeppelin/contracts/utils/cryptography/ECDSA.sol\":8192:8356  if (uint256(s) > 0x7FFFFFFFFFFFFFFFFFFFFFFFFFFFFFFF5D576E7357A4501DDFE92F46681B20A0) {... */\ntag_81:\n    /* \"@openzeppelin/contracts/utils/cryptography/ECDSA.sol\":8450:8464  address signer */\n  0x00\n    /* \"@openzeppelin/contracts/utils/cryptography/ECDSA.sol\":8467:8491  ecrecover(hash, v, r, s) */\n  0x01\n    /* \"@openzeppelin/contracts/utils/cryptography/ECDSA.sol\":8477:8481  hash */\n  dup9\n    /* \"@openzeppelin/contracts/utils/cryptography/ECDSA.sol\":8483:8484  v */\n  dup9\n    /* \"@openzeppelin/contracts/utils/cryptography/ECDSA.sol\":8486:8487  r */\n  dup9\n    /* \"@openzeppelin/contracts/utils/cryptography/ECDSA.sol\":8489:8490  s */\n  dup9\n    /* \"@openzeppelin/contracts/utils/cryptography/ECDSA.sol\":8467:8491  ecrecover(hash, v, r, s) */\n  mload(0x40)\n  0x00\n  dup2\n  mstore\n  0x20\n  add\n  0x40\n  mstore\n  mload(0x40)\n  tag_82\n  swap5\n  swap4\n  swap3\n  swap2\n  swap1\n  tag_83\n  jump\t// in\ntag_82:\n  0x20\n  mload(0x40)\n  0x20\n  dup2\n  sub\n  swap1\n  dup1\n  dup5\n  sub\n  swap1\n  dup6\n  gas\n  staticcall\n  iszero\n  dup1\n  iszero\n  tag_85\n  jumpi\n  returndatacopy(0x00, 0x00, returndatasize)\n  revert(0x00, returndatasize)\ntag_85:\n  pop\n  pop\n  pop\n  mload(sub(mload(0x40), 0x20))\n    /* \"@openzeppelin/contracts/utils/cryptography/ECDSA.sol\":8450:8491  address signer = ecrecover(hash, v, r, s) */\n  swap1\n  pop\n    /* \"@openzeppelin/contracts/utils/cryptography/ECDSA.sol\":8523:8524  0 */\n  0x00\n    /* \"@openzeppelin/contracts/utils/cryptography/ECDSA.sol\":8505:8525  signer == address(0) */\n  0xffffffffffffffffffffffffffffffffffffffff\n  and\n    /* \"@openzeppelin/contracts/utils/cryptography/ECDSA.sol\":8505:8511  signer */\n  dup2\n    /* \"@openzeppelin/contracts/utils/cryptography/ECDSA.sol\":8505:8525  signer == address(0) */\n  0xffffffffffffffffffffffffffffffffffffffff\n  and\n  sub\n    /* \"@openzeppelin/contracts/utils/cryptography/ECDSA.sol\":8501:8614  if (signer == address(0)) {... */\n  tag_86\n  jumpi\n    /* \"@openzeppelin/contracts/utils/cryptography/ECDSA.sol\":8557:8558  0 */\n  0x00\n    /* \"@openzeppelin/contracts/utils/cryptography/ECDSA.sol\":8561:8590  RecoverError.InvalidSignature */\n  0x01\n    /* \"@openzeppelin/contracts/utils/cryptography/ECDSA.sol\":8600:8601  0 */\n  0x00\n    /* \"@openzeppelin/contracts/utils/cryptography/ECDSA.sol\":8592:8602  bytes32(0) */\n  0x00\n  shl\n    /* \"@openzeppelin/contracts/utils/cryptography/ECDSA.sol\":8541:8603  return (address(0), RecoverError.InvalidSignature, bytes32(0)) */\n  swap4\n  pop\n  swap4\n  pop\n  swap4\n  pop\n  pop\n  jump(tag_80)\n    /* \"@openzeppelin/contracts/utils/cryptography/ECDSA.sol\":8501:8614  if (signer == address(0)) {... */\ntag_86:\n    /* \"@openzeppelin/contracts/utils/cryptography/ECDSA.sol\":8632:8638  signer */\n  dup1\n    /* \"@openzeppelin/contracts/utils/cryptography/ECDSA.sol\":8640:8660  RecoverError.NoError */\n  0x00\n    /* \"@openzeppelin/contracts/utils/cryptography/ECDSA.sol\":8670:8671  0 */\n  0x00\n    /* \"@openzeppelin/contracts/utils/cryptography/ECDSA.sol\":8662:8672  bytes32(0) */\n  0x00\n  shl\n    /* \"@openzeppelin/contracts/utils/cryptography/ECDSA.sol\":8624:8673  return (signer, RecoverError.NoError, bytes32(0)) */\n  swap4\n  pop\n  swap4\n  pop\n  swap4\n  pop\n  pop\n    /* \"@openzeppelin/contracts/utils/cryptography/ECDSA.sol\":7129:8680  function tryRecover(... */\ntag_80:\n  swap5\n  pop\n  swap5\n  pop\n  swap5\n  swap2\n  pop\n  pop\n  jump\t// out\n    /* \"#utility.yul\":7:106   */\ntag_87:\n    /* \"#utility.yul\":59:65   */\n  0x00\n    /* \"#utility.yul\":93:98   */\n  dup2\n    /* \"#utility.yul\":87:99   */\n  mload\n    /* \"#utility.yul\":77:99   */\n  swap1\n  pop\n    /* \"#utility.yul\":7:106   */\n  swap2\n  swap1\n  pop\n  jump\t// out\n    /* \"#utility.yul\":112:292   */\ntag_88:\n    /* \"#utility.yul\":160:237   */\n  0x4e487b7100000000000000000000000000000000000000000000000000000000\n    /* \"#utility.yul\":157:158   */\n  0x00\n    /* \"#utility.yul\":150:238   */\n  mstore\n    /* \"#utility.yul\":257:261   */\n  0x41\n    /* \"#utility.yul\":254:255   */\n  0x04\n    /* \"#utility.yul\":247:262   */\n  mstore\n    /* \"#utility.yul\":281:285   */\n  0x24\n    /* \"#utility.yul\":278:279   */\n  0x00\n    /* \"#utility.yul\":271:286   */\n  revert\n    /* \"#utility.yul\":298:478   */\ntag_89:\n    /* \"#utility.yul\":346:423   */\n  0x4e487b7100000000000000000000000000000000000000000000000000000000\n    /* \"#utility.yul\":343:344   */\n  0x00\n    /* \"#utility.yul\":336:424   */\n  mstore\n    /* \"#utility.yul\":443:447   */\n  0x22\n    /* \"#utility.yul\":440:441   */\n  0x04\n    /* \"#utility.yul\":433:448   */\n  mstore\n    /* \"#utility.yul\":467:471   */\n  0x24\n    /* \"#utility.yul\":464:465   */\n  0x00\n    /* \"#utility.yul\":457:472   */\n  revert\n    /* \"#utility.yul\":484:804   */\ntag_90:\n    /* \"#utility.yul\":528:534   */\n  0x00\n    /* \"#utility.yul\":565:566   */\n  0x02\n    /* \"#utility.yul\":559:563   */\n  dup3\n    /* \"#utility.yul\":555:567   */\n  div\n    /* \"#utility.yul\":545:567   */\n  swap1\n  pop\n    /* \"#utility.yul\":612:613   */\n  0x01\n    /* \"#utility.yul\":606:610   */\n  dup3\n    /* \"#utility.yul\":602:614   */\n  and\n    /* \"#utility.yul\":633:651   */\n  dup1\n    /* \"#utility.yul\":623:704   */\n  tag_124\n  jumpi\n    /* \"#utility.yul\":689:693   */\n  0x7f\n    /* \"#utility.yul\":681:687   */\n  dup3\n    /* \"#utility.yul\":677:694   */\n  and\n    /* \"#utility.yul\":667:694   */\n  swap2\n  pop\n    /* \"#utility.yul\":623:704   */\ntag_124:\n    /* \"#utility.yul\":751:753   */\n  0x20\n    /* \"#utility.yul\":743:749   */\n  dup3\n    /* \"#utility.yul\":740:754   */\n  lt\n    /* \"#utility.yul\":720:738   */\n  dup2\n    /* \"#utility.yul\":717:755   */\n  sub\n    /* \"#utility.yul\":714:798   */\n  tag_125\n  jumpi\n    /* \"#utility.yul\":770:788   */\n  tag_126\n  tag_89\n  jump\t// in\ntag_126:\n    /* \"#utility.yul\":714:798   */\ntag_125:\n    /* \"#utility.yul\":535:804   */\n  pop\n    /* \"#utility.yul\":484:804   */\n  swap2\n  swap1\n  pop\n  jump\t// out\n    /* \"#utility.yul\":810:951   */\ntag_91:\n    /* \"#utility.yul\":859:863   */\n  0x00\n    /* \"#utility.yul\":882:885   */\n  dup2\n    /* \"#utility.yul\":874:885   */\n  swap1\n  pop\n    /* \"#utility.yul\":905:908   */\n  dup2\n    /* \"#utility.yul\":902:903   */\n  0x00\n    /* \"#utility.yul\":895:909   */\n  mstore\n    /* \"#utility.yul\":939:943   */\n  0x20\n    /* \"#utility.yul\":936:937   */\n  0x00\n    /* \"#utility.yul\":926:944   */\n  keccak256\n    /* \"#utility.yul\":918:944   */\n  swap1\n  pop\n    /* \"#utility.yul\":810:951   */\n  swap2\n  swap1\n  pop\n  jump\t// out\n    /* \"#utility.yul\":957:1050   */\ntag_92:\n    /* \"#utility.yul\":994:1000   */\n  0x00\n    /* \"#utility.yul\":1041:1043   */\n  0x20\n    /* \"#utility.yul\":1036:1038   */\n  0x1f\n    /* \"#utility.yul\":1029:1034   */\n  dup4\n    /* \"#utility.yul\":1025:1039   */\n  add\n    /* \"#utility.yul\":1021:1044   */\n  div\n    /* \"#utility.yul\":1011:1044   */\n  swap1\n  pop\n    /* \"#utility.yul\":957:1050   */\n  swap2\n  swap1\n  pop\n  jump\t// out\n    /* \"#utility.yul\":1056:1163   */\ntag_93:\n    /* \"#utility.yul\":1100:1108   */\n  0x00\n    /* \"#utility.yul\":1150:1155   */\n  dup3\n    /* \"#utility.yul\":1144:1148   */\n  dup3\n    /* \"#utility.yul\":1140:1156   */\n  shl\n    /* \"#utility.yul\":1119:1156   */\n  swap1\n  pop\n    /* \"#utility.yul\":1056:1163   */\n  swap3\n  swap2\n  pop\n  pop\n  jump\t// out\n    /* \"#utility.yul\":1169:1562   */\ntag_94:\n    /* \"#utility.yul\":1238:1244   */\n  0x00\n    /* \"#utility.yul\":1288:1289   */\n  0x08\n    /* \"#utility.yul\":1276:1286   */\n  dup4\n    /* \"#utility.yul\":1272:1290   */\n  mul\n    /* \"#utility.yul\":1311:1408   */\n  tag_131\n    /* \"#utility.yul\":1341:1407   */\n  0xffffffffffffffffffffffffffffffffffffffffffffffffffffffffffffffff\n    /* \"#utility.yul\":1330:1339   */\n  dup3\n    /* \"#utility.yul\":1311:1408   */\n  tag_93\n  jump\t// in\ntag_131:\n    /* \"#utility.yul\":1429:1468   */\n  tag_132\n    /* \"#utility.yul\":1459:1467   */\n  dup7\n    /* \"#utility.yul\":1448:1457   */\n  dup4\n    /* \"#utility.yul\":1429:1468   */\n  tag_93\n  jump\t// in\ntag_132:\n    /* \"#utility.yul\":1417:1468   */\n  swap6\n  pop\n    /* \"#utility.yul\":1501:1505   */\n  dup1\n    /* \"#utility.yul\":1497:1506   */\n  not\n    /* \"#utility.yul\":1490:1495   */\n  dup5\n    /* \"#utility.yul\":1486:1507   */\n  and\n    /* \"#utility.yul\":1477:1507   */\n  swap4\n  pop\n    /* \"#utility.yul\":1550:1554   */\n  dup1\n    /* \"#utility.yul\":1540:1548   */\n  dup7\n    /* \"#utility.yul\":1536:1555   */\n  and\n    /* \"#utility.yul\":1529:1534   */\n  dup5\n    /* \"#utility.yul\":1526:1556   */\n  or\n    /* \"#utility.yul\":1516:1556   */\n  swap3\n  pop\n    /* \"#utility.yul\":1245:1562   */\n  pop\n  pop\n    /* \"#utility.yul\":1169:1562   */\n  swap4\n  swap3\n  pop\n  pop\n  pop\n  jump\t// out\n    /* \"#utility.yul\":1568:1645   */\ntag_95:\n    /* \"#utility.yul\":1605:1612   */\n  0x00\n    /* \"#utility.yul\":1634:1639   */\n  dup2\n    /* \"#utility.yul\":1623:1639   */\n  swap1\n  pop\n    /* \"#utility.yul\":1568:1645   */\n  swap2\n  swap1\n  pop\n  jump\t// out\n    /* \"#utility.yul\":1651:1711   */\ntag_96:\n    /* \"#utility.yul\":1679:1682   */\n  0x00\n    /* \"#utility.yul\":1700:1705   */\n  dup2\n    /* \"#utility.yul\":1693:1705   */\n  swap1\n  pop\n    /* \"#utility.yul\":1651:1711   */\n  swap2\n  swap1\n  pop\n  jump\t// out\n    /* \"#utility.yul\":1717:1859   */\ntag_97:\n    /* \"#utility.yul\":1767:1776   */\n  0x00\n    /* \"#utility.yul\":1800:1853   */\n  tag_136\n    /* \"#utility.yul\":1818:1852   */\n  tag_137\n    /* \"#utility.yul\":1827:1851   */\n  tag_138\n    /* \"#utility.yul\":1845:1850   */\n  dup5\n    /* \"#utility.yul\":1827:1851   */\n  tag_95\n  jump\t// in\ntag_138:\n    /* \"#utility.yul\":1818:1852   */\n  tag_96\n  jump\t// in\ntag_137:\n    /* \"#utility.yul\":1800:1853   */\n  tag_95\n  jump\t// in\ntag_136:\n    /* \"#utility.yul\":1787:1853   */\n  swap1\n  pop\n    /* \"#utility.yul\":1717:1859   */\n  swap2\n  swap1\n  pop\n  jump\t// out\n    /* \"#utility.yul\":1865:1940   */\ntag_98:\n    /* \"#utility.yul\":1908:1911   */\n  0x00\n    /* \"#utility.yul\":1929:1934   */\n  dup2\n    /* \"#utility.yul\":1922:1934   */\n  swap1\n  pop\n    /* \"#utility.yul\":1865:1940   */\n  swap2\n  swap1\n  pop\n  jump\t// out\n    /* \"#utility.yul\":1946:2215   */\ntag_99:\n    /* \"#utility.yul\":2056:2095   */\n  tag_141\n    /* \"#utility.yul\":2087:2094   */\n  dup4\n    /* \"#utility.yul\":2056:2095   */\n  tag_97\n  jump\t// in\ntag_141:\n    /* \"#utility.yul\":2117:2208   */\n  tag_142\n    /* \"#utility.yul\":2166:2207   */\n  tag_143\n    /* \"#utility.yul\":2190:2206   */\n  dup3\n    /* \"#utility.yul\":2166:2207   */\n  tag_98\n  jump\t// in\ntag_143:\n    /* \"#utility.yul\":2158:2164   */\n  dup5\n    /* \"#utility.yul\":2151:2155   */\n  dup5\n    /* \"#utility.yul\":2145:2156   */\n  sload\n    /* \"#utility.yul\":2117:2208   */\n  tag_94\n  jump\t// in\ntag_142:\n    /* \"#utility.yul\":2111:2115   */\n  dup3\n    /* \"#utility.yul\":2104:2209   */\n  sstore\n    /* \"#utility.yul\":2022:2215   */\n  pop\n    /* \"#utility.yul\":1946:2215   */\n  pop\n  pop\n  pop\n  jump\t// out\n    /* \"#utility.yul\":2221:2294   */\ntag_100:\n    /* \"#utility.yul\":2266:2269   */\n  0x00\n    /* \"#utility.yul\":2287:2288   */\n  0x00\n    /* \"#utility.yul\":2280:2288   */\n  swap1\n  pop\n    /* \"#utility.yul\":2221:2294   */\n  swap1\n  jump\t// out\n    /* \"#utility.yul\":2300:2489   */\ntag_101:\n    /* \"#utility.yul\":2377:2409   */\n  tag_146\n  tag_100\n  jump\t// in\ntag_146:\n    /* \"#utility.yul\":2418:2483   */\n  tag_147\n    /* \"#utility.yul\":2476:2482   */\n  dup2\n    /* \"#utility.yul\":2468:2474   */\n  dup5\n    /* \"#utility.yul\":2462:2466   */\n  dup5\n    /* \"#utility.yul\":2418:2483   */\n  tag_99\n  jump\t// in\ntag_147:\n    /* \"#utility.yul\":2353:2489   */\n  pop\n    /* \"#utility.yul\":2300:2489   */\n  pop\n  pop\n  jump\t// out\n    /* \"#utility.yul\":2495:2709   */\ntag_102:\n    /* \"#utility.yul\":2580:2581   */\n  0x00\n    /* \"#utility.yul\":2565:2703   */\ntag_149:\n    /* \"#utility.yul\":2590:2599   */\n  dup3\n    /* \"#utility.yul\":2587:2588   */\n  dup2\n    /* \"#utility.yul\":2584:2600   */\n  lt\n    /* \"#utility.yul\":2565:2703   */\n  iszero\n  tag_151\n  jumpi\n    /* \"#utility.yul\":2642:2693   */\n  tag_152\n    /* \"#utility.yul\":2691:2692   */\n  0x00\n    /* \"#utility.yul\":2687:2688   */\n  dup3\n    /* \"#utility.yul\":2676:2685   */\n  dup5\n    /* \"#utility.yul\":2672:2689   */\n  add\n    /* \"#utility.yul\":2642:2693   */\n  tag_101\n  jump\t// in\ntag_152:\n    /* \"#utility.yul\":2615:2616   */\n  0x01\n    /* \"#utility.yul\":2612:2613   */\n  dup2\n    /* \"#utility.yul\":2608:2617   */\n  add\n    /* \"#utility.yul\":2603:2617   */\n  swap1\n  pop\n    /* \"#utility.yul\":2565:2703   */\n  jump(tag_149)\ntag_151:\n    /* \"#utility.yul\":2569:2583   */\n  pop\n    /* \"#utility.yul\":2495:2709   */\n  pop\n  pop\n  jump\t// out\n    /* \"#utility.yul\":2715:3461   */\ntag_103:\n    /* \"#utility.yul\":2816:2818   */\n  0x1f\n    /* \"#utility.yul\":2811:2814   */\n  dup3\n    /* \"#utility.yul\":2808:2819   */\n  gt\n    /* \"#utility.yul\":2805:3454   */\n  iszero\n  tag_154\n  jumpi\n    /* \"#utility.yul\":2845:2855   */\n  dup3\n    /* \"#utility.yul\":2840:2843   */\n  dup3\n    /* \"#utility.yul\":2837:2856   */\n  gt\n    /* \"#utility.yul\":2834:3444   */\n  iszero\n  tag_155\n  jumpi\n    /* \"#utility.yul\":2891:2929   */\n  tag_156\n    /* \"#utility.yul\":2923:2928   */\n  dup2\n    /* \"#utility.yul\":2891:2929   */\n  tag_91\n  jump\t// in\ntag_156:\n    /* \"#utility.yul\":2966:2988   */\n  tag_157\n    /* \"#utility.yul\":2984:2987   */\n  dup4\n    /* \"#utility.yul\":2966:2988   */\n  tag_92\n  jump\t// in\ntag_157:\n    /* \"#utility.yul\":3025:3054   */\n  tag_158\n    /* \"#utility.yul\":3043:3053   */\n  dup6\n    /* \"#utility.yul\":3025:3054   */\n  tag_92\n  jump\t// in\ntag_158:\n    /* \"#utility.yul\":3215:3217   */\n  0x20\n    /* \"#utility.yul\":3203:3213   */\n  dup7\n    /* \"#utility.yul\":3200:3218   */\n  lt\n    /* \"#utility.yul\":3197:3276   */\n  iszero\n  tag_159\n  jumpi\n    /* \"#utility.yul\":3257:3258   */\n  0x00\n    /* \"#utility.yul\":3241:3258   */\n  swap1\n  pop\n    /* \"#utility.yul\":3197:3276   */\ntag_159:\n    /* \"#utility.yul\":3326:3338   */\n  dup1\n    /* \"#utility.yul\":3316:3324   */\n  dup4\n    /* \"#utility.yul\":3312:3339   */\n  add\n    /* \"#utility.yul\":3356:3430   */\n  tag_160\n    /* \"#utility.yul\":3416:3428   */\n  dup3\n    /* \"#utility.yul\":3402:3414   */\n  dup5\n    /* \"#utility.yul\":3398:3429   */\n  sub\n    /* \"#utility.yul\":3385:3396   */\n  dup3\n    /* \"#utility.yul\":3356:3430   */\n  tag_102\n  jump\t// in\ntag_160:\n    /* \"#utility.yul\":2857:3444   */\n  pop\n  pop\n  pop\n  pop\n    /* \"#utility.yul\":2834:3444   */\ntag_155:\n    /* \"#utility.yul\":2805:3454   */\ntag_154:\n    /* \"#utility.yul\":2715:3461   */\n  pop\n  pop\n  pop\n  jump\t// out\n    /* \"#utility.yul\":3467:3584   */\ntag_104:\n    /* \"#utility.yul\":3521:3529   */\n  0x00\n    /* \"#utility.yul\":3571:3576   */\n  dup3\n    /* \"#utility.yul\":3565:3569   */\n  dup3\n    /* \"#utility.yul\":3561:3577   */\n  shr\n    /* \"#utility.yul\":3540:3577   */\n  swap1\n  pop\n    /* \"#utility.yul\":3467:3584   */\n  swap3\n  swap2\n  pop\n  pop\n  jump\t// out\n    /* \"#utility.yul\":3590:3759   */\ntag_105:\n    /* \"#utility.yul\":3634:3640   */\n  0x00\n    /* \"#utility.yul\":3667:3718   */\n  tag_163\n    /* \"#utility.yul\":3715:3716   */\n  0x00\n    /* \"#utility.yul\":3711:3717   */\n  not\n    /* \"#utility.yul\":3703:3708   */\n  dup5\n    /* \"#utility.yul\":3700:3701   */\n  0x08\n    /* \"#utility.yul\":3696:3709   */\n  mul\n    /* \"#utility.yul\":3667:3718   */\n  tag_104\n  jump\t// in\ntag_163:\n    /* \"#utility.yul\":3663:3719   */\n  not\n    /* \"#utility.yul\":3748:3752   */\n  dup1\n    /* \"#utility.yul\":3742:3746   */\n  dup4\n    /* \"#utility.yul\":3738:3753   */\n  and\n    /* \"#utility.yul\":3728:3753   */\n  swap2\n  pop\n    /* \"#utility.yul\":3641:3759   */\n  pop\n    /* \"#utility.yul\":3590:3759   */\n  swap3\n  swap2\n  pop\n  pop\n  jump\t// out\n    /* \"#utility.yul\":3764:4059   */\ntag_106:\n    /* \"#utility.yul\":3840:3844   */\n  0x00\n    /* \"#utility.yul\":3986:4015   */\n  tag_165\n    /* \"#utility.yul\":4011:4014   */\n  dup4\n    /* \"#utility.yul\":4005:4009   */\n  dup4\n    /* \"#utility.yul\":3986:4015   */\n  tag_105\n  jump\t// in\ntag_165:\n    /* \"#utility.yul\":3978:4015   */\n  swap2\n  pop\n    /* \"#utility.yul\":4048:4051   */\n  dup3\n    /* \"#utility.yul\":4045:4046   */\n  0x02\n    /* \"#utility.yul\":4041:4052   */\n  mul\n    /* \"#utility.yul\":4035:4039   */\n  dup3\n    /* \"#utility.yul\":4032:4053   */\n  or\n    /* \"#utility.yul\":4024:4053   */\n  swap1\n  pop\n    /* \"#utility.yul\":3764:4059   */\n  swap3\n  swap2\n  pop\n  pop\n  jump\t// out\n    /* \"#utility.yul\":4064:5459   */\ntag_7:\n    /* \"#utility.yul\":4181:4218   */\n  tag_167\n    /* \"#utility.yul\":4214:4217   */\n  dup3\n    /* \"#utility.yul\":4181:4218   */\n  tag_87\n  jump\t// in\ntag_167:\n    /* \"#utility.yul\":4283:4301   */\n  0xffffffffffffffff\n    /* \"#utility.yul\":4275:4281   */\n  dup2\n    /* \"#utility.yul\":4272:4302   */\n  gt\n    /* \"#utility.yul\":4269:4325   */\n  iszero\n  tag_168\n  jumpi\n    /* \"#utility.yul\":4305:4323   */\n  tag_169\n  tag_88\n  jump\t// in\ntag_169:\n    /* \"#utility.yul\":4269:4325   */\ntag_168:\n    /* \"#utility.yul\":4349:4387   */\n  tag_170\n    /* \"#utility.yul\":4381:4385   */\n  dup3\n    /* \"#utility.yul\":4375:4386   */\n  sload\n    /* \"#utility.yul\":4349:4387   */\n  tag_90\n  jump\t// in\ntag_170:\n    /* \"#utility.yul\":4434:4501   */\n  tag_171\n    /* \"#utility.yul\":4494:4500   */\n  dup3\n    /* \"#utility.yul\":4486:4492   */\n  dup3\n    /* \"#utility.yul\":4480:4484   */\n  dup6\n    /* \"#utility.yul\":4434:4501   */\n  tag_103\n  jump\t// in\ntag_171:\n    /* \"#utility.yul\":4528:4529   */\n  0x00\n    /* \"#utility.yul\":4552:4556   */\n  0x20\n    /* \"#utility.yul\":4539:4556   */\n  swap1\n  pop\n    /* \"#utility.yul\":4584:4586   */\n  0x1f\n    /* \"#utility.yul\":4576:4582   */\n  dup4\n    /* \"#utility.yul\":4573:4587   */\n  gt\n    /* \"#utility.yul\":4601:4602   */\n  0x01\n    /* \"#utility.yul\":4596:5214   */\n  dup2\n  eq\n  tag_173\n  jumpi\n    /* \"#utility.yul\":5258:5259   */\n  0x00\n    /* \"#utility.yul\":5275:5281   */\n  dup5\n    /* \"#utility.yul\":5272:5349   */\n  iszero\n  tag_174\n  jumpi\n    /* \"#utility.yul\":5324:5333   */\n  dup3\n    /* \"#utility.yul\":5319:5322   */\n  dup8\n    /* \"#utility.yul\":5315:5334   */\n  add\n    /* \"#utility.yul\":5309:5335   */\n  mload\n    /* \"#utility.yul\":5300:5335   */\n  swap1\n  pop\n    /* \"#utility.yul\":5272:5349   */\ntag_174:\n    /* \"#utility.yul\":5375:5442   */\n  tag_175\n    /* \"#utility.yul\":5435:5441   */\n  dup6\n    /* \"#utility.yul\":5428:5433   */\n  dup3\n    /* \"#utility.yul\":5375:5442   */\n  tag_106\n  jump\t// in\ntag_175:\n    /* \"#utility.yul\":5369:5373   */\n  dup7\n    /* \"#utility.yul\":5362:5443   */\n  sstore\n    /* \"#utility.yul\":5231:5453   */\n  pop\n    /* \"#utility.yul\":4566:5453   */\n  jump(tag_172)\n    /* \"#utility.yul\":4596:5214   */\ntag_173:\n    /* \"#utility.yul\":4648:4652   */\n  0x1f\n    /* \"#utility.yul\":4644:4653   */\n  not\n    /* \"#utility.yul\":4636:4642   */\n  dup5\n    /* \"#utility.yul\":4632:4654   */\n  and\n    /* \"#utility.yul\":4682:4719   */\n  tag_176\n    /* \"#utility.yul\":4714:4718   */\n  dup7\n    /* \"#utility.yul\":4682:4719   */\n  tag_91\n  jump\t// in\ntag_176:\n    /* \"#utility.yul\":4741:4742   */\n  0x00\n    /* \"#utility.yul\":4755:4963   */\ntag_177:\n    /* \"#utility.yul\":4769:4776   */\n  dup3\n    /* \"#utility.yul\":4766:4767   */\n  dup2\n    /* \"#utility.yul\":4763:4777   */\n  lt\n    /* \"#utility.yul\":4755:4963   */\n  iszero\n  tag_179\n  jumpi\n    /* \"#utility.yul\":4848:4857   */\n  dup5\n    /* \"#utility.yul\":4843:4846   */\n  dup10\n    /* \"#utility.yul\":4839:4858   */\n  add\n    /* \"#utility.yul\":4833:4859   */\n  mload\n    /* \"#utility.yul\":4825:4831   */\n  dup3\n    /* \"#utility.yul\":4818:4860   */\n  sstore\n    /* \"#utility.yul\":4899:4900   */\n  0x01\n    /* \"#utility.yul\":4891:4897   */\n  dup3\n    /* \"#utility.yul\":4887:4901   */\n  add\n    /* \"#utility.yul\":4877:4901   */\n  swap2\n  pop\n    /* \"#utility.yul\":4946:4948   */\n  0x20\n    /* \"#utility.yul\":4935:4944   */\n  dup6\n    /* \"#utility.yul\":4931:4949   */\n  add\n    /* \"#utility.yul\":4918:4949   */\n  swap5\n  pop\n    /* \"#utility.yul\":4792:4796   */\n  0x20\n    /* \"#utility.yul\":4789:4790   */\n  dup2\n    /* \"#utility.yul\":4785:4797   */\n  add\n    /* \"#utility.yul\":4780:4797   */\n  swap1\n  pop\n    /* \"#utility.yul\":4755:4963   */\n  jump(tag_177)\ntag_179:\n    /* \"#utility.yul\":4991:4997   */\n  dup7\n    /* \"#utility.yul\":4982:4989   */\n  dup4\n    /* \"#utility.yul\":4979:4998   */\n  lt\n    /* \"#utility.yul\":4976:5155   */\n  iszero\n  tag_180\n  jumpi\n    /* \"#utility.yul\":5049:5058   */\n  dup5\n    /* \"#utility.yul\":5044:5047   */\n  dup10\n    /* \"#utility.yul\":5040:5059   */\n  add\n    /* \"#utility.yul\":5034:5060   */\n  mload\n    /* \"#utility.yul\":5092:5140   */\n  tag_181\n    /* \"#utility.yul\":5134:5138   */\n  0x1f\n    /* \"#utility.yul\":5126:5132   */\n  dup10\n    /* \"#utility.yul\":5122:5139   */\n  and\n    /* \"#utility.yul\":5111:5120   */\n  dup3\n    /* \"#utility.yul\":5092:5140   */\n  tag_105\n  jump\t// in\ntag_181:\n    /* \"#utility.yul\":5084:5090   */\n  dup4\n    /* \"#utility.yul\":5077:5141   */\n  sstore\n    /* \"#utility.yul\":4999:5155   */\n  pop\n    /* \"#utility.yul\":4976:5155   */\ntag_180:\n    /* \"#utility.yul\":5201:5202   */\n  0x01\n    /* \"#utility.yul\":5197:5198   */\n  0x02\n    /* \"#utility.yul\":5189:5195   */\n  dup9\n    /* \"#utility.yul\":5185:5199   */\n  mul\n    /* \"#utility.yul\":5181:5203   */\n  add\n    /* \"#utility.yul\":5175:5179   */\n  dup9\n    /* \"#utility.yul\":5168:5204   */\n  sstore\n    /* \"#utility.yul\":4603:5214   */\n  pop\n  pop\n  pop\n    /* \"#utility.yul\":4566:5453   */\ntag_172:\n  pop\n    /* \"#utility.yul\":4156:5459   */\n  pop\n  pop\n  pop\n    /* \"#utility.yul\":4064:5459   */\n  pop\n  pop\n  jump\t// out\n    /* \"#utility.yul\":5465:5591   */\ntag_107:\n    /* \"#utility.yul\":5502:5509   */\n  0x00\n    /* \"#utility.yul\":5542:5584   */\n  0xffffffffffffffffffffffffffffffffffffffff\n    /* \"#utility.yul\":5535:5540   */\n  dup3\n    /* \"#utility.yul\":5531:5585   */\n  and\n    /* \"#utility.yul\":5520:5585   */\n  swap1\n  pop\n    /* \"#utility.yul\":5465:5591   */\n  swap2\n  swap1\n  pop\n  jump\t// out\n    /* \"#utility.yul\":5597:5693   */\ntag_108:\n    /* \"#utility.yul\":5634:5641   */\n  0x00\n    /* \"#utility.yul\":5663:5687   */\n  tag_184\n    /* \"#utility.yul\":5681:5686   */\n  dup3\n    /* \"#utility.yul\":5663:5687   */\n  tag_107\n  jump\t// in\ntag_184:\n    /* \"#utility.yul\":5652:5687   */\n  swap1\n  pop\n    /* \"#utility.yul\":5597:5693   */\n  swap2\n  swap1\n  pop\n  jump\t// out\n    /* \"#utility.yul\":5699:5817   */\ntag_109:\n    /* \"#utility.yul\":5786:5810   */\n  tag_186\n    /* \"#utility.yul\":5804:5809   */\n  dup2\n    /* \"#utility.yul\":5786:5810   */\n  tag_108\n  jump\t// in\ntag_186:\n    /* \"#utility.yul\":5781:5784   */\n  dup3\n    /* \"#utility.yul\":5774:5811   */\n  mstore\n    /* \"#utility.yul\":5699:5817   */\n  pop\n  pop\n  jump\t// out\n    /* \"#utility.yul\":5823:6045   */\ntag_12:\n    /* \"#utility.yul\":5916:5920   */\n  0x00\n    /* \"#utility.yul\":5954:5956   */\n  0x20\n    /* \"#utility.yul\":5943:5952   */\n  dup3\n    /* \"#utility.yul\":5939:5957   */\n  add\n    /* \"#utility.yul\":5931:5957   */\n  swap1\n  pop\n    /* \"#utility.yul\":5967:6038   */\n  tag_188\n    /* \"#utility.yul\":6035:6036   */\n  0x00\n    /* \"#utility.yul\":6024:6033   */\n  dup4\n    /* \"#utility.yul\":6020:6037   */\n  add\n    /* \"#utility.yul\":6011:6017   */\n  dup5\n    /* \"#utility.yul\":5967:6038   */\n  tag_109\n  jump\t// in\ntag_188:\n    /* \"#utility.yul\":5823:6045   */\n  swap3\n  swap2\n  pop\n  pop\n  jump\t// out\n    /* \"#utility.yul\":6051:6220   */\ntag_110:\n    /* \"#utility.yul\":6135:6146   */\n  0x00\n    /* \"#utility.yul\":6169:6175   */\n  dup3\n    /* \"#utility.yul\":6164:6167   */\n  dup3\n    /* \"#utility.yul\":6157:6176   */\n  mstore\n    /* \"#utility.yul\":6209:6213   */\n  0x20\n    /* \"#utility.yul\":6204:6207   */\n  dup3\n    /* \"#utility.yul\":6200:6214   */\n  add\n    /* \"#utility.yul\":6185:6214   */\n  swap1\n  pop\n    /* \"#utility.yul\":6051:6220   */\n  swap3\n  swap2\n  pop\n  pop\n  jump\t// out\n    /* \"#utility.yul\":6226:6401   */\ntag_111:\n    /* \"#utility.yul\":6366:6393   */\n  0x496e76616c69642067656e65736973207369676e617475726500000000000000\n    /* \"#utility.yul\":6362:6363   */\n  0x00\n    /* \"#utility.yul\":6354:6360   */\n  dup3\n    /* \"#utility.yul\":6350:6364   */\n  add\n    /* \"#utility.yul\":6343:6394   */\n  mstore\n    /* \"#utility.yul\":6226:6401   */\n  pop\n  jump\t// out\n    /* \"#utility.yul\":6407:6773   */\ntag_112:\n    /* \"#utility.yul\":6549:6552   */\n  0x00\n    /* \"#utility.yul\":6570:6637   */\n  tag_192\n    /* \"#utility.yul\":6634:6636   */\n  0x19\n    /* \"#utility.yul\":6629:6632   */\n  dup4\n    /* \"#utility.yul\":6570:6637   */\n  tag_110\n  jump\t// in\ntag_192:\n    /* \"#utility.yul\":6563:6637   */\n  swap2\n  pop\n    /* \"#utility.yul\":6646:6739   */\n  tag_193\n    /* \"#utility.yul\":6735:6738   */\n  dup3\n    /* \"#utility.yul\":6646:6739   */\n  tag_111\n  jump\t// in\ntag_193:\n    /* \"#utility.yul\":6764:6766   */\n  0x20\n    /* \"#utility.yul\":6759:6762   */\n  dup3\n    /* \"#utility.yul\":6755:6767   */\n  add\n    /* \"#utility.yul\":6748:6767   */\n  swap1\n  pop\n    /* \"#utility.yul\":6407:6773   */\n  swap2\n  swap1\n  pop\n  jump\t// out\n    /* \"#utility.yul\":6779:7198   */\ntag_20:\n    /* \"#utility.yul\":6945:6949   */\n  0x00\n    /* \"#utility.yul\":6983:6985   */\n  0x20\n    /* \"#utility.yul\":6972:6981   */\n  dup3\n    /* \"#utility.yul\":6968:6986   */\n  add\n    /* \"#utility.yul\":6960:6986   */\n  swap1\n  pop\n    /* \"#utility.yul\":7032:7041   */\n  dup2\n    /* \"#utility.yul\":7026:7030   */\n  dup2\n    /* \"#utility.yul\":7022:7042   */\n  sub\n    /* \"#utility.yul\":7018:7019   */\n  0x00\n    /* \"#utility.yul\":7007:7016   */\n  dup4\n    /* \"#utility.yul\":7003:7020   */\n  add\n    /* \"#utility.yul\":6996:7043   */\n  mstore\n    /* \"#utility.yul\":7060:7191   */\n  tag_195\n    /* \"#utility.yul\":7186:7190   */\n  dup2\n    /* \"#utility.yul\":7060:7191   */\n  tag_112\n  jump\t// in\ntag_195:\n    /* \"#utility.yul\":7052:7191   */\n  swap1\n  pop\n    /* \"#utility.yul\":6779:7198   */\n  swap2\n  swap1\n  pop\n  jump\t// out\n    /* \"#utility.yul\":7204:7384   */\ntag_43:\n    /* \"#utility.yul\":7252:7329   */\n  0x4e487b7100000000000000000000000000000000000000000000000000000000\n    /* \"#utility.yul\":7249:7250   */\n  0x00\n    /* \"#utility.yul\":7242:7330   */\n  mstore\n    /* \"#utility.yul\":7349:7353   */\n  0x21\n    /* \"#utility.yul\":7346:7347   */\n  0x04\n    /* \"#utility.yul\":7339:7354   */\n  mstore\n    /* \"#utility.yul\":7373:7377   */\n  0x24\n    /* \"#utility.yul\":7370:7371   */\n  0x00\n    /* \"#utility.yul\":7363:7378   */\n  revert\n    /* \"#utility.yul\":7390:7508   */\ntag_113:\n    /* \"#utility.yul\":7477:7501   */\n  tag_198\n    /* \"#utility.yul\":7495:7500   */\n  dup2\n    /* \"#utility.yul\":7477:7501   */\n  tag_95\n  jump\t// in\ntag_198:\n    /* \"#utility.yul\":7472:7475   */\n  dup3\n    /* \"#utility.yul\":7465:7502   */\n  mstore\n    /* \"#utility.yul\":7390:7508   */\n  pop\n  pop\n  jump\t// out\n    /* \"#utility.yul\":7514:7736   */\ntag_60:\n    /* \"#utility.yul\":7607:7611   */\n  0x00\n    /* \"#utility.yul\":7645:7647   */\n  0x20\n    /* \"#utility.yul\":7634:7643   */\n  dup3\n    /* \"#utility.yul\":7630:7648   */\n  add\n    /* \"#utility.yul\":7622:7648   */\n  swap1\n  pop\n    /* \"#utility.yul\":7658:7729   */\n  tag_200\n    /* \"#utility.yul\":7726:7727   */\n  0x00\n    /* \"#utility.yul\":7715:7724   */\n  dup4\n    /* \"#utility.yul\":7711:7728   */\n  add\n    /* \"#utility.yul\":7702:7708   */\n  dup5\n    /* \"#utility.yul\":7658:7729   */\n  tag_113\n  jump\t// in\ntag_200:\n    /* \"#utility.yul\":7514:7736   */\n  swap3\n  swap2\n  pop\n  pop\n  jump\t// out\n    /* \"#utility.yul\":7742:7819   */\ntag_114:\n    /* \"#utility.yul\":7779:7786   */\n  0x00\n    /* \"#utility.yul\":7808:7813   */\n  dup2\n    /* \"#utility.yul\":7797:7813   */\n  swap1\n  pop\n    /* \"#utility.yul\":7742:7819   */\n  swap2\n  swap1\n  pop\n  jump\t// out\n    /* \"#utility.yul\":7825:7943   */\ntag_115:\n    /* \"#utility.yul\":7912:7936   */\n  tag_203\n    /* \"#utility.yul\":7930:7935   */\n  dup2\n    /* \"#utility.yul\":7912:7936   */\n  tag_114\n  jump\t// in\ntag_203:\n    /* \"#utility.yul\":7907:7910   */\n  dup3\n    /* \"#utility.yul\":7900:7937   */\n  mstore\n    /* \"#utility.yul\":7825:7943   */\n  pop\n  pop\n  jump\t// out\n    /* \"#utility.yul\":7949:8171   */\ntag_68:\n    /* \"#utility.yul\":8042:8046   */\n  0x00\n    /* \"#utility.yul\":8080:8082   */\n  0x20\n    /* \"#utility.yul\":8069:8078   */\n  dup3\n    /* \"#utility.yul\":8065:8083   */\n  add\n    /* \"#utility.yul\":8057:8083   */\n  swap1\n  pop\n    /* \"#utility.yul\":8093:8164   */\n  tag_205\n    /* \"#utility.yul\":8161:8162   */\n  0x00\n    /* \"#utility.yul\":8150:8159   */\n  dup4\n    /* \"#utility.yul\":8146:8163   */\n  add\n    /* \"#utility.yul\":8137:8143   */\n  dup5\n    /* \"#utility.yul\":8093:8164   */\n  tag_115\n  jump\t// in\ntag_205:\n    /* \"#utility.yul\":7949:8171   */\n  swap3\n  swap2\n  pop\n  pop\n  jump\t// out\n    /* \"#utility.yul\":8177:8357   */\ntag_116:\n    /* \"#utility.yul\":8225:8302   */\n  0x4e487b7100000000000000000000000000000000000000000000000000000000\n    /* \"#utility.yul\":8222:8223   */\n  0x00\n    /* \"#utility.yul\":8215:8303   */\n  mstore\n    /* \"#utility.yul\":8322:8326   */\n  0x11\n    /* \"#utility.yul\":8319:8320   */\n  0x04\n    /* \"#utility.yul\":8312:8327   */\n  mstore\n    /* \"#utility.yul\":8346:8350   */\n  0x24\n    /* \"#utility.yul\":8343:8344   */\n  0x00\n    /* \"#utility.yul\":8336:8351   */\n  revert\n    /* \"#utility.yul\":8363:8554   */\ntag_72:\n    /* \"#utility.yul\":8403:8406   */\n  0x00\n    /* \"#utility.yul\":8422:8442   */\n  tag_208\n    /* \"#utility.yul\":8440:8441   */\n  dup3\n    /* \"#utility.yul\":8422:8442   */\n  tag_95\n  jump\t// in\ntag_208:\n    /* \"#utility.yul\":8417:8442   */\n  swap2\n  pop\n    /* \"#utility.yul\":8456:8476   */\n  tag_209\n    /* \"#utility.yul\":8474:8475   */\n  dup4\n    /* \"#utility.yul\":8456:8476   */\n  tag_95\n  jump\t// in\ntag_209:\n    /* \"#utility.yul\":8451:8476   */\n  swap3\n  pop\n    /* \"#utility.yul\":8499:8500   */\n  dup3\n    /* \"#utility.yul\":8496:8497   */\n  dup3\n    /* \"#utility.yul\":8492:8501   */\n  add\n    /* \"#utility.yul\":8485:8501   */\n  swap1\n  pop\n    /* \"#utility.yul\":8520:8523   */\n  dup1\n    /* \"#utility.yul\":8517:8518   */\n  dup3\n    /* \"#utility.yul\":8514:8524   */\n  gt\n    /* \"#utility.yul\":8511:8547   */\n  iszero\n  tag_210\n  jumpi\n    /* \"#utility.yul\":8527:8545   */\n  tag_211\n  tag_116\n  jump\t// in\ntag_211:\n    /* \"#utility.yul\":8511:8547   */\ntag_210:\n    /* \"#utility.yul\":8363:8554   */\n  swap3\n  swap2\n  pop\n  pop\n  jump\t// out\n    /* \"#utility.yul\":8560:9002   */\ntag_76:\n    /* \"#utility.yul\":8709:8713   */\n  0x00\n    /* \"#utility.yul\":8747:8749   */\n  0x60\n    /* \"#utility.yul\":8736:8745   */\n  dup3\n    /* \"#utility.yul\":8732:8750   */\n  add\n    /* \"#utility.yul\":8724:8750   */\n  swap1\n  pop\n    /* \"#utility.yul\":8760:8831   */\n  tag_213\n    /* \"#utility.yul\":8828:8829   */\n  0x00\n    /* \"#utility.yul\":8817:8826   */\n  dup4\n    /* \"#utility.yul\":8813:8830   */\n  add\n    /* \"#utility.yul\":8804:8810   */\n  dup7\n    /* \"#utility.yul\":8760:8831   */\n  tag_109\n  jump\t// in\ntag_213:\n    /* \"#utility.yul\":8841:8913   */\n  tag_214\n    /* \"#utility.yul\":8909:8911   */\n  0x20\n    /* \"#utility.yul\":8898:8907   */\n  dup4\n    /* \"#utility.yul\":8894:8912   */\n  add\n    /* \"#utility.yul\":8885:8891   */\n  dup6\n    /* \"#utility.yul\":8841:8913   */\n  tag_113\n  jump\t// in\ntag_214:\n    /* \"#utility.yul\":8923:8995   */\n  tag_215\n    /* \"#utility.yul\":8991:8993   */\n  0x40\n    /* \"#utility.yul\":8980:8989   */\n  dup4\n    /* \"#utility.yul\":8976:8994   */\n  add\n    /* \"#utility.yul\":8967:8973   */\n  dup5\n    /* \"#utility.yul\":8923:8995   */\n  tag_113\n  jump\t// in\ntag_215:\n    /* \"#utility.yul\":8560:9002   */\n  swap5\n  swap4\n  pop\n  pop\n  pop\n  pop\n  jump\t// out\n    /* \"#utility.yul\":9008:9094   */\ntag_117:\n    /* \"#utility.yul\":9043:9050   */\n  0x00\n    /* \"#utility.yul\":9083:9087   */\n  0xff\n    /* \"#utility.yul\":9076:9081   */\n  dup3\n    /* \"#utility.yul\":9072:9088   */\n  and\n    /* \"#utility.yul\":9061:9088   */\n  swap1\n  pop\n    /* \"#utility.yul\":9008:9094   */\n  swap2\n  swap1\n  pop\n  jump\t// out\n    /* \"#utility.yul\":9100:9212   */\ntag_118:\n    /* \"#utility.yul\":9183:9205   */\n  tag_218\n    /* \"#utility.yul\":9199:9204   */\n  dup2\n    /* \"#utility.yul\":9183:9205   */\n  tag_117\n  jump\t// in\ntag_218:\n    /* \"#utility.yul\":9178:9181   */\n  dup3\n    /* \"#utility.yul\":9171:9206   */\n  mstore\n    /* \"#utility.yul\":9100:9212   */\n  pop\n  pop\n  jump\t// out\n    /* \"#utility.yul\":9218:9763   */\ntag_83:\n    /* \"#utility.yul\":9391:9395   */\n  0x00\n    /* \"#utility.yul\":9429:9432   */\n  0x80\n    /* \"#utility.yul\":9418:9427   */\n  dup3\n    /* \"#utility.yul\":9414:9433   */\n  add\n    /* \"#utility.yul\":9406:9433   */\n  swap1\n  pop\n    /* \"#utility.yul\":9443:9514   */\n  tag_220\n    /* \"#utility.yul\":9511:9512   */\n  0x00\n    /* \"#utility.yul\":9500:9509   */\n  dup4\n    /* \"#utility.yul\":9496:9513   */\n  add\n    /* \"#utility.yul\":9487:9493   */\n  dup8\n    /* \"#utility.yul\":9443:9514   */\n  tag_115\n  jump\t// in\ntag_220:\n    /* \"#utility.yul\":9524:9592   */\n  tag_221\n    /* \"#utility.yul\":9588:9590   */\n  0x20\n    /* \"#utility.yul\":9577:9586   */\n  dup4\n    /* \"#utility.yul\":9573:9591   */\n  add\n    /* \"#utility.yul\":9564:9570   */\n  dup7\n    /* \"#utility.yul\":9524:9592   */\n  tag_118\n  jump\t// in\ntag_221:\n    /* \"#utility.yul\":9602:9674   */\n  tag_222\n    /* \"#utility.yul\":9670:9672   */\n  0x40\n    /* \"#utility.yul\":9659:9668   */\n  dup4\n    /* \"#utility.yul\":9655:9673   */\n  add\n    /* \"#utility.yul\":9646:9652   */\n  dup6\n    /* \"#utility.yul\":9602:9674   */\n  tag_115\n  jump\t// in\ntag_222:\n    /* \"#utility.yul\":9684:9756   */\n  tag_223\n    /* \"#utility.yul\":9752:9754   */\n  0x60\n    /* \"#utility.yul\":9741:9750   */\n  dup4\n    /* \"#utility.yul\":9737:9755   */\n  add\n    /* \"#utility.yul\":9728:9734   */\n  dup5\n    /* \"#utility.yul\":9684:9756   */\n  tag_115\n  jump\t// in\ntag_223:\n    /* \"#utility.yul\":9218:9763   */\n  swap6\n  swap5\n  pop\n  pop\n  pop\n  pop\n  pop\n  jump\t// out\n    /* \"/contracts/HelloWorld.sol\":231:1916  contract CamelotScavenger is ERC20, Ownable {... */\ntag_23:\n  dataSize(sub_0)\n  dup1\n  dataOffset(sub_0)\n  0x00\n  codecopy\n  0x00\n  return\nstop\ndata_7c247f0faa109da9a7dfcc30d9b7c5309fb4341a6d669088e6e5c9edaf7a8422 03678afdb0fe5548271967f1a67130b7105cd6a828e03909a67962e0ea1f61deb6\n\nsub_0: assembly {\n        /* \"/contracts/HelloWorld.sol\":231:1916  contract CamelotScavenger is ERC20, Ownable {... */\n      mstore(0x40, 0x80)\n      callvalue\n      dup1\n      iszero\n      tag_1\n      jumpi\n      revert(0x00, 0x00)\n    tag_1:\n      pop\n      jumpi(tag_2, lt(calldatasize, 0x04))\n      shr(0xe0, calldataload(0x00))\n      dup1\n      0x715018a6\n      gt\n      tag_26\n      jumpi\n      dup1\n      0x965ea38c\n      gt\n      tag_27\n      jumpi\n      dup1\n      0x965ea38c\n      eq\n      tag_20\n      jumpi\n      dup1\n      0x9f45bdac\n      eq\n      tag_21\n      jumpi\n      dup1\n      0xa9059cbb\n      eq\n      tag_22\n      jumpi\n      dup1\n      0xdd62ed3e\n      eq\n      tag_23\n      jumpi\n      dup1\n      0xe042735b\n      eq\n      tag_24\n      jumpi\n      dup1\n      0xf2fde38b\n      eq\n      tag_25\n      jumpi\n      jump(tag_2)\n    tag_27:\n      dup1\n      0x715018a6\n      eq\n      tag_14\n      jumpi\n      dup1\n      0x77fd5d02\n      eq\n      tag_15\n      jumpi\n      dup1\n      0x7e39cb58\n      eq\n      tag_16\n      jumpi\n      dup1\n      0x8da5cb5b\n      eq\n      tag_17\n      jumpi\n      dup1\n      0x902d55a5\n      eq\n      tag_18\n      jumpi\n      dup1\n      0x95d89b41\n      eq\n      tag_19\n      jumpi\n      jump(tag_2)\n    tag_26:\n      dup1\n      0x2c7abeea\n      gt\n      tag_28\n      jumpi\n      dup1\n      0x2c7abeea\n      eq\n      tag_8\n      jumpi\n      dup1\n      0x313ce567\n      eq\n      tag_9\n      jumpi\n      dup1\n      0x38e21cce\n      eq\n      tag_10\n      jumpi\n      dup1\n      0x41baeb92\n      eq\n      tag_11\n      jumpi\n      dup1\n      0x6e95b711\n      eq\n      tag_12\n      jumpi\n      dup1\n      0x70a08231\n      eq\n      tag_13\n      jumpi\n      jump(tag_2)\n    tag_28:\n      dup1\n      0x06fdde03\n      eq\n      tag_3\n      jumpi\n      dup1\n      0x095ea7b3\n      eq\n      tag_4\n      jumpi\n      dup1\n      0x18160ddd\n      eq\n      tag_5\n      jumpi\n      dup1\n      0x23b872dd\n      eq\n      tag_6\n      jumpi\n      dup1\n      0x28fd21c1\n      eq\n      tag_7\n      jumpi\n    tag_2:\n      revert(0x00, 0x00)\n        /* \"@openzeppelin/contracts/token/ERC20/ERC20.sol\":1760:1849  function name() public view virtual returns (string memory) {... */\n    tag_3:\n      tag_29\n      tag_30\n      jump\t// in\n    tag_29:\n      mload(0x40)\n      tag_31\n      swap2\n      swap1\n      tag_32\n      jump\t// in\n    tag_31:\n      mload(0x40)\n      dup1\n      swap2\n      sub\n      swap1\n      return\n        /* \"@openzeppelin/contracts/token/ERC20/ERC20.sol\":3902:4088  function approve(address spender, uint256 value) public virtual returns (bool) {... */\n    tag_4:\n      tag_33\n      0x04\n      dup1\n      calldatasize\n      sub\n      dup2\n      add\n      swap1\n      tag_34\n      swap2\n      swap1\n      tag_35\n      jump\t// in\n    tag_34:\n      tag_36\n      jump\t// in\n    tag_33:\n      mload(0x40)\n      tag_37\n      swap2\n      swap1\n      tag_38\n      jump\t// in\n    tag_37:\n      mload(0x40)\n      dup1\n      swap2\n      sub\n      swap1\n      return\n        /* \"@openzeppelin/contracts/token/ERC20/ERC20.sol\":2803:2900  function totalSupply() public view virtual returns (uint256) {... */\n    tag_5:\n      tag_39\n      tag_40\n      jump\t// in\n    tag_39:\n      mload(0x40)\n      tag_41\n      swap2\n      swap1\n      tag_42\n      jump\t// in\n    tag_41:\n      mload(0x40)\n      dup1\n      swap2\n      sub\n      swap1\n      return\n        /* \"@openzeppelin/contracts/token/ERC20/ERC20.sol\":4680:4924  function transferFrom(address from, address to, uint256 value) public virtual returns (bool) {... */\n    tag_6:\n      tag_43\n      0x04\n      dup1\n      calldatasize\n      sub\n      dup2\n      add\n      swap1\n      tag_44\n      swap2\n      swap1\n      tag_45\n      jump\t// in\n    tag_44:\n      tag_46\n      jump\t// in\n    tag_43:\n      mload(0x40)\n      tag_47\n      swap2\n      swap1\n      tag_38\n      jump\t// in\n    tag_47:\n      mload(0x40)\n      dup1\n      swap2\n      sub\n      swap1\n      return\n        /* \"/contracts/HelloWorld.sol\":311:429  bytes public constant GENESIS_PUBKEY =... */\n    tag_7:\n      tag_48\n      tag_49\n      jump\t// in\n    tag_48:\n      mload(0x40)\n      tag_50\n      swap2\n      swap1\n      tag_51\n      jump\t// in\n    tag_50:\n      mload(0x40)\n      dup1\n      swap2\n      sub\n      swap1\n      return\n        /* \"/contracts/HelloWorld.sol\":794:853  uint256 public constant PER_SOLVER_MINT =     1000 * 10**18 */\n    tag_8:\n      tag_52\n      tag_53\n      jump\t// in\n    tag_52:\n      mload(0x40)\n      tag_54\n      swap2\n      swap1\n      tag_42\n      jump\t// in\n    tag_54:\n      mload(0x40)\n      dup1\n      swap2\n      sub\n      swap1\n      return\n        /* \"@openzeppelin/contracts/token/ERC20/ERC20.sol\":2688:2770  function decimals() public view virtual returns (uint8) {... */\n    tag_9:\n      tag_55\n      tag_56\n      jump\t// in\n    tag_55:\n      mload(0x40)\n      tag_57\n      swap2\n      swap1\n      tag_58\n      jump\t// in\n    tag_57:\n      mload(0x40)\n      dup1\n      swap2\n      sub\n      swap1\n      return\n        /* \"/contracts/HelloWorld.sol\":896:937  mapping(address => bool) public hasMinted */\n    tag_10:\n      tag_59\n      0x04\n      dup1\n      calldatasize\n      sub\n      dup2\n      add\n      swap1\n      tag_60\n      swap2\n      swap1\n      tag_61\n      jump\t// in\n    tag_60:\n      tag_62\n      jump\t// in\n    tag_59:\n      mload(0x40)\n      tag_63\n      swap2\n      swap1\n      tag_38\n      jump\t// in\n    tag_63:\n      mload(0x40)\n      dup1\n      swap2\n      sub\n      swap1\n      return\n        /* \"/contracts/HelloWorld.sol\":860:890  uint256 public mintedBySolvers */\n    tag_11:\n      tag_64\n      tag_65\n      jump\t// in\n    tag_64:\n      mload(0x40)\n      tag_66\n      swap2\n      swap1\n      tag_42\n      jump\t// in\n    tag_66:\n      mload(0x40)\n      dup1\n      swap2\n      sub\n      swap1\n      return\n        /* \"/contracts/HelloWorld.sol\":654:714  uint256 public constant GENESIS_MINT   =  7_500_000 * 10**18 */\n    tag_12:\n      tag_67\n      tag_68\n      jump\t// in\n    tag_67:\n      mload(0x40)\n      tag_69\n      swap2\n      swap1\n      tag_42\n      jump\t// in\n    tag_69:\n      mload(0x40)\n      dup1\n      swap2\n      sub\n      swap1\n      return\n        /* \"@openzeppelin/contracts/token/ERC20/ERC20.sol\":2933:3049  function balanceOf(address account) public view virtual returns (uint256) {... */\n    tag_13:\n      tag_70\n      0x04\n      dup1\n      calldatasize\n      sub\n      dup2\n      add\n      swap1\n      tag_71\n      swap2\n      swap1\n      tag_61\n      jump\t// in\n    tag_71:\n      tag_72\n      jump\t// in\n    tag_70:\n      mload(0x40)\n      tag_73\n      swap2\n      swap1\n      tag_42\n      jump\t// in\n    tag_73:\n      mload(0x40)\n      dup1\n      swap2\n      sub\n      swap1\n      return\n        /* \"@openzeppelin/contracts/access/Ownable.sol\":2293:2394  function renounceOwnership() public virtual onlyOwner {... */\n    tag_14:\n      tag_74\n      tag_75\n      jump\t// in\n    tag_74:\n      stop\n        /* \"/contracts/HelloWorld.sol\":720:788  uint256 public constant REMAINING_MINT = TOTAL_SUPPLY - GENESIS_MINT */\n    tag_15:\n      tag_76\n      tag_77\n      jump\t// in\n    tag_76:\n      mload(0x40)\n      tag_78\n      swap2\n      swap1\n      tag_42\n      jump\t// in\n    tag_78:\n      mload(0x40)\n      dup1\n      swap2\n      sub\n      swap1\n      return\n        /* \"/contracts/HelloWorld.sol\":436:581  bytes32 public constant MNEMONIC_HASH = keccak256(... */\n    tag_16:\n      tag_79\n      tag_80\n      jump\t// in\n    tag_79:\n      mload(0x40)\n      tag_81\n      swap2\n      swap1\n      tag_82\n      jump\t// in\n    tag_81:\n      mload(0x40)\n      dup1\n      swap2\n      sub\n      swap1\n      return\n        /* \"@openzeppelin/contracts/access/Ownable.sol\":1638:1723  function owner() public view virtual returns (address) {... */\n    tag_17:\n      tag_83\n      tag_84\n      jump\t// in\n    tag_83:\n      mload(0x40)\n      tag_85\n      swap2\n      swap1\n      tag_86\n      jump\t// in\n    tag_85:\n      mload(0x40)\n      dup1\n      swap2\n      sub\n      swap1\n      return\n        /* \"/contracts/HelloWorld.sol\":588:648  uint256 public constant TOTAL_SUPPLY   = 29_000_000 * 10**18 */\n    tag_18:\n      tag_87\n      tag_88\n      jump\t// in\n    tag_87:\n      mload(0x40)\n      tag_89\n      swap2\n      swap1\n      tag_42\n      jump\t// in\n    tag_89:\n      mload(0x40)\n      dup1\n      swap2\n      sub\n      swap1\n      return\n        /* \"@openzeppelin/contracts/token/ERC20/ERC20.sol\":1962:2055  function symbol() public view virtual returns (string memory) {... */\n    tag_19:\n      tag_90\n      tag_91\n      jump\t// in\n    tag_90:\n      mload(0x40)\n      tag_92\n      swap2\n      swap1\n      tag_32\n      jump\t// in\n    tag_92:\n      mload(0x40)\n      dup1\n      swap2\n      sub\n      swap1\n      return\n        /* \"/contracts/HelloWorld.sol\":1032:1143  bytes public constant GENESIS_SIGNATURE = hex\"1234567890abcdef1234567890abcdef1234567890abcdef1234567890abcdef\" */\n    tag_20:\n      tag_93\n      tag_94\n      jump\t// in\n    tag_93:\n      mload(0x40)\n      tag_95\n      swap2\n      swap1\n      tag_51\n      jump\t// in\n    tag_95:\n      mload(0x40)\n      dup1\n      swap2\n      sub\n      swap1\n      return\n        /* \"/contracts/HelloWorld.sol\":944:1026  bytes32 public constant GENESIS_MESSAGE_HASH = keccak256(\"Camelot Scavenger Hunt\") */\n    tag_21:\n      tag_96\n      tag_97\n      jump\t// in\n    tag_96:\n      mload(0x40)\n      tag_98\n      swap2\n      swap1\n      tag_82\n      jump\t// in\n    tag_98:\n      mload(0x40)\n      dup1\n      swap2\n      sub\n      swap1\n      return\n        /* \"@openzeppelin/contracts/token/ERC20/ERC20.sol\":3244:3422  function transfer(address to, uint256 value) public virtual returns (bool) {... */\n    tag_22:\n      tag_99\n      0x04\n      dup1\n      calldatasize\n      sub\n      dup2\n      add\n      swap1\n      tag_100\n      swap2\n      swap1\n      tag_35\n      jump\t// in\n    tag_100:\n      tag_101\n      jump\t// in\n    tag_99:\n      mload(0x40)\n      tag_102\n      swap2\n      swap1\n      tag_38\n      jump\t// in\n    tag_102:\n      mload(0x40)\n      dup1\n      swap2\n      sub\n      swap1\n      return\n        /* \"@openzeppelin/contracts/token/ERC20/ERC20.sol\":3455:3595  function allowance(address owner, address spender) public view virtual returns (uint256) {... */\n    tag_23:\n      tag_103\n      0x04\n      dup1\n      calldatasize\n      sub\n      dup2\n      add\n      swap1\n      tag_104\n      swap2\n      swap1\n      tag_105\n      jump\t// in\n    tag_104:\n      tag_106\n      jump\t// in\n    tag_103:\n      mload(0x40)\n      tag_107\n      swap2\n      swap1\n      tag_42\n      jump\t// in\n    tag_107:\n      mload(0x40)\n      dup1\n      swap2\n      sub\n      swap1\n      return\n        /* \"/contracts/HelloWorld.sol\":1495:1914  function mintByMnemonic(string calldata mnemonic) external {... */\n    tag_24:\n      tag_108\n      0x04\n      dup1\n      calldatasize\n      sub\n      dup2\n      add\n      swap1\n      tag_109\n      swap2\n      swap1\n      tag_110\n      jump\t// in\n    tag_109:\n      tag_111\n      jump\t// in\n    tag_108:\n      stop\n        /* \"@openzeppelin/contracts/access/Ownable.sol\":2543:2758  function transferOwnership(address newOwner) public virtual onlyOwner {... */\n    tag_25:\n      tag_112\n      0x04\n      dup1\n      calldatasize\n      sub\n      dup2\n      add\n      swap1\n      tag_113\n      swap2\n      swap1\n      tag_61\n      jump\t// in\n    tag_113:\n      tag_114\n      jump\t// in\n    tag_112:\n      stop\n        /* \"@openzeppelin/contracts/token/ERC20/ERC20.sol\":1760:1849  function name() public view virtual returns (string memory) {... */\n    tag_30:\n        /* \"@openzeppelin/contracts/token/ERC20/ERC20.sol\":1805:1818  string memory */\n      0x60\n        /* \"@openzeppelin/contracts/token/ERC20/ERC20.sol\":1837:1842  _name */\n      0x03\n        /* \"@openzeppelin/contracts/token/ERC20/ERC20.sol\":1830:1842  return _name */\n      dup1\n      sload\n      tag_116\n      swap1\n      tag_117\n      jump\t// in\n    tag_116:\n      dup1\n      0x1f\n      add\n      0x20\n      dup1\n      swap2\n      div\n      mul\n      0x20\n      add\n      mload(0x40)\n      swap1\n      dup2\n      add\n      0x40\n      mstore\n      dup1\n      swap3\n      swap2\n      swap1\n      dup2\n      dup2\n      mstore\n      0x20\n      add\n      dup3\n      dup1\n      sload\n      tag_118\n      swap1\n      tag_117\n      jump\t// in\n    tag_118:\n      dup1\n      iszero\n      tag_119\n      jumpi\n      dup1\n      0x1f\n      lt\n      tag_120\n      jumpi\n      0x0100\n      dup1\n      dup4\n      sload\n      div\n      mul\n      dup4\n      mstore\n      swap2\n      0x20\n      add\n      swap2\n      jump(tag_119)\n    tag_120:\n      dup3\n      add\n      swap2\n      swap1\n      0x00\n      mstore\n      keccak256(0x00, 0x20)\n      swap1\n    tag_121:\n      dup2\n      sload\n      dup2\n      mstore\n      swap1\n      0x01\n      add\n      swap1\n      0x20\n      add\n      dup1\n      dup4\n      gt\n      tag_121\n      jumpi\n      dup3\n      swap1\n      sub\n      0x1f\n      and\n      dup3\n      add\n      swap2\n    tag_119:\n      pop\n      pop\n      pop\n      pop\n      pop\n      swap1\n      pop\n        /* \"@openzeppelin/contracts/token/ERC20/ERC20.sol\":1760:1849  function name() public view virtual returns (string memory) {... */\n      swap1\n      jump\t// out\n        /* \"@openzeppelin/contracts/token/ERC20/ERC20.sol\":3902:4088  function approve(address spender, uint256 value) public virtual returns (bool) {... */\n    tag_36:\n        /* \"@openzeppelin/contracts/token/ERC20/ERC20.sol\":3975:3979  bool */\n      0x00\n        /* \"@openzeppelin/contracts/token/ERC20/ERC20.sol\":3991:4004  address owner */\n      0x00\n        /* \"@openzeppelin/contracts/token/ERC20/ERC20.sol\":4007:4019  _msgSender() */\n      tag_123\n        /* \"@openzeppelin/contracts/token/ERC20/ERC20.sol\":4007:4017  _msgSender */\n      tag_124\n        /* \"@openzeppelin/contracts/token/ERC20/ERC20.sol\":4007:4019  _msgSender() */\n      jump\t// in\n    tag_123:\n        /* \"@openzeppelin/contracts/token/ERC20/ERC20.sol\":3991:4019  address owner = _msgSender() */\n      swap1\n      pop\n        /* \"@openzeppelin/contracts/token/ERC20/ERC20.sol\":4029:4060  _approve(owner, spender, value) */\n      tag_125\n        /* \"@openzeppelin/contracts/token/ERC20/ERC20.sol\":4038:4043  owner */\n      dup2\n        /* \"@openzeppelin/contracts/token/ERC20/ERC20.sol\":4045:4052  spender */\n      dup6\n        /* \"@openzeppelin/contracts/token/ERC20/ERC20.sol\":4054:4059  value */\n      dup6\n        /* \"@openzeppelin/contracts/token/ERC20/ERC20.sol\":4029:4037  _approve */\n      tag_126\n        /* \"@openzeppelin/contracts/token/ERC20/ERC20.sol\":4029:4060  _approve(owner, spender, value) */\n      jump\t// in\n    tag_125:\n        /* \"@openzeppelin/contracts/token/ERC20/ERC20.sol\":4077:4081  true */\n      0x01\n        /* \"@openzeppelin/contracts/token/ERC20/ERC20.sol\":4070:4081  return true */\n      swap2\n      pop\n      pop\n        /* \"@openzeppelin/contracts/token/ERC20/ERC20.sol\":3902:4088  function approve(address spender, uint256 value) public virtual returns (bool) {... */\n      swap3\n      swap2\n      pop\n      pop\n      jump\t// out\n        /* \"@openzeppelin/contracts/token/ERC20/ERC20.sol\":2803:2900  function totalSupply() public view virtual returns (uint256) {... */\n    tag_40:\n        /* \"@openzeppelin/contracts/token/ERC20/ERC20.sol\":2855:2862  uint256 */\n      0x00\n        /* \"@openzeppelin/contracts/token/ERC20/ERC20.sol\":2881:2893  _totalSupply */\n      sload(0x02)\n        /* \"@openzeppelin/contracts/token/ERC20/ERC20.sol\":2874:2893  return _totalSupply */\n      swap1\n      pop\n        /* \"@openzeppelin/contracts/token/ERC20/ERC20.sol\":2803:2900  function totalSupply() public view virtual returns (uint256) {... */\n      swap1\n      jump\t// out\n        /* \"@openzeppelin/contracts/token/ERC20/ERC20.sol\":4680:4924  function transferFrom(address from, address to, uint256 value) public virtual returns (bool) {... */\n    tag_46:\n        /* \"@openzeppelin/contracts/token/ERC20/ERC20.sol\":4767:4771  bool */\n      0x00\n        /* \"@openzeppelin/contracts/token/ERC20/ERC20.sol\":4783:4798  address spender */\n      0x00\n        /* \"@openzeppelin/contracts/token/ERC20/ERC20.sol\":4801:4813  _msgSender() */\n      tag_129\n        /* \"@openzeppelin/contracts/token/ERC20/ERC20.sol\":4801:4811  _msgSender */\n      tag_124\n        /* \"@openzeppelin/contracts/token/ERC20/ERC20.sol\":4801:4813  _msgSender() */\n      jump\t// in\n    tag_129:\n        /* \"@openzeppelin/contracts/token/ERC20/ERC20.sol\":4783:4813  address spender = _msgSender() */\n      swap1\n      pop\n        /* \"@openzeppelin/contracts/token/ERC20/ERC20.sol\":4823:4860  _spendAllowance(from, spender, value) */\n      tag_130\n        /* \"@openzeppelin/contracts/token/ERC20/ERC20.sol\":4839:4843  from */\n      dup6\n        /* \"@openzeppelin/contracts/token/ERC20/ERC20.sol\":4845:4852  spender */\n      dup3\n        /* \"@openzeppelin/contracts/token/ERC20/ERC20.sol\":4854:4859  value */\n      dup6\n        /* \"@openzeppelin/contracts/token/ERC20/ERC20.sol\":4823:4838  _spendAllowance */\n      tag_131\n        /* \"@openzeppelin/contracts/token/ERC20/ERC20.sol\":4823:4860  _spendAllowance(from, spender, value) */\n      jump\t// in\n    tag_130:\n        /* \"@openzeppelin/contracts/token/ERC20/ERC20.sol\":4870:4896  _transfer(from, to, value) */\n      tag_132\n        /* \"@openzeppelin/contracts/token/ERC20/ERC20.sol\":4880:4884  from */\n      dup6\n        /* \"@openzeppelin/contracts/token/ERC20/ERC20.sol\":4886:4888  to */\n      dup6\n        /* \"@openzeppelin/contracts/token/ERC20/ERC20.sol\":4890:4895  value */\n      dup6\n        /* \"@openzeppelin/contracts/token/ERC20/ERC20.sol\":4870:4879  _transfer */\n      tag_133\n        /* \"@openzeppelin/contracts/token/ERC20/ERC20.sol\":4870:4896  _transfer(from, to, value) */\n      jump\t// in\n    tag_132:\n        /* \"@openzeppelin/contracts/token/ERC20/ERC20.sol\":4913:4917  true */\n      0x01\n        /* \"@openzeppelin/contracts/token/ERC20/ERC20.sol\":4906:4917  return true */\n      swap2\n      pop\n      pop\n        /* \"@openzeppelin/contracts/token/ERC20/ERC20.sol\":4680:4924  function transferFrom(address from, address to, uint256 value) public virtual returns (bool) {... */\n      swap4\n      swap3\n      pop\n      pop\n      pop\n      jump\t// out\n        /* \"/contracts/HelloWorld.sol\":311:429  bytes public constant GENESIS_PUBKEY =... */\n    tag_49:\n      mload(0x40)\n      dup1\n      0x60\n      add\n      0x40\n      mstore\n      dup1\n      0x21\n      dup2\n      mstore\n      0x20\n      add\n      data_7c247f0faa109da9a7dfcc30d9b7c5309fb4341a6d669088e6e5c9edaf7a8422\n      0x21\n      swap2\n      codecopy\n      dup2\n      jump\t// out\n        /* \"/contracts/HelloWorld.sol\":794:853  uint256 public constant PER_SOLVER_MINT =     1000 * 10**18 */\n    tag_53:\n        /* \"/contracts/HelloWorld.sol\":840:853  1000 * 10**18 */\n      0x3635c9adc5dea00000\n        /* \"/contracts/HelloWorld.sol\":794:853  uint256 public constant PER_SOLVER_MINT =     1000 * 10**18 */\n      dup2\n      jump\t// out\n        /* \"@openzeppelin/contracts/token/ERC20/ERC20.sol\":2688:2770  function decimals() public view virtual returns (uint8) {... */\n    tag_56:\n        /* \"@openzeppelin/contracts/token/ERC20/ERC20.sol\":2737:2742  uint8 */\n      0x00\n        /* \"@openzeppelin/contracts/token/ERC20/ERC20.sol\":2761:2763  18 */\n      0x12\n        /* \"@openzeppelin/contracts/token/ERC20/ERC20.sol\":2754:2763  return 18 */\n      swap1\n      pop\n        /* \"@openzeppelin/contracts/token/ERC20/ERC20.sol\":2688:2770  function decimals() public view virtual returns (uint8) {... */\n      swap1\n      jump\t// out\n        /* \"/contracts/HelloWorld.sol\":896:937  mapping(address => bool) public hasMinted */\n    tag_62:\n      mstore(0x20, 0x07)\n      dup1\n      0x00\n      mstore\n      keccak256(0x00, 0x40)\n      0x00\n      swap2\n      pop\n      sload\n      swap1\n      0x0100\n      exp\n      swap1\n      div\n      0xff\n      and\n      dup2\n      jump\t// out\n        /* \"/contracts/HelloWorld.sol\":860:890  uint256 public mintedBySolvers */\n    tag_65:\n      sload(0x06)\n      dup2\n      jump\t// out\n        /* \"/contracts/HelloWorld.sol\":654:714  uint256 public constant GENESIS_MINT   =  7_500_000 * 10**18 */\n    tag_68:\n        /* \"/contracts/HelloWorld.sol\":696:714  7_500_000 * 10**18 */\n      0x06342fd08f00f637800000\n        /* \"/contracts/HelloWorld.sol\":654:714  uint256 public constant GENESIS_MINT   =  7_500_000 * 10**18 */\n      dup2\n      jump\t// out\n        /* \"@openzeppelin/contracts/token/ERC20/ERC20.sol\":2933:3049  function balanceOf(address account) public view virtual returns (uint256) {... */\n    tag_72:\n        /* \"@openzeppelin/contracts/token/ERC20/ERC20.sol\":2998:3005  uint256 */\n      0x00\n        /* \"@openzeppelin/contracts/token/ERC20/ERC20.sol\":3024:3033  _balances */\n      0x00\n        /* \"@openzeppelin/contracts/token/ERC20/ERC20.sol\":3024:3042  _balances[account] */\n      0x00\n        /* \"@openzeppelin/contracts/token/ERC20/ERC20.sol\":3034:3041  account */\n      dup4\n        /* \"@openzeppelin/contracts/token/ERC20/ERC20.sol\":3024:3042  _balances[account] */\n      0xffffffffffffffffffffffffffffffffffffffff\n      and\n      0xffffffffffffffffffffffffffffffffffffffff\n      and\n      dup2\n      mstore\n      0x20\n      add\n      swap1\n      dup2\n      mstore\n      0x20\n      add\n      0x00\n      keccak256\n      sload\n        /* \"@openzeppelin/contracts/token/ERC20/ERC20.sol\":3017:3042  return _balances[account] */\n      swap1\n      pop\n        /* \"@openzeppelin/contracts/token/ERC20/ERC20.sol\":2933:3049  function balanceOf(address account) public view virtual returns (uint256) {... */\n      swap2\n      swap1\n      pop\n      jump\t// out\n        /* \"@openzeppelin/contracts/access/Ownable.sol\":2293:2394  function renounceOwnership() public virtual onlyOwner {... */\n    tag_75:\n        /* \"@openzeppelin/contracts/access/Ownable.sol\":1531:1544  _checkOwner() */\n      tag_137\n        /* \"@openzeppelin/contracts/access/Ownable.sol\":1531:1542  _checkOwner */\n      tag_138\n        /* \"@openzeppelin/contracts/access/Ownable.sol\":1531:1544  _checkOwner() */\n      jump\t// in\n    tag_137:\n        /* \"@openzeppelin/contracts/access/Ownable.sol\":2357:2387  _transferOwnership(address(0)) */\n      tag_140\n        /* \"@openzeppelin/contracts/access/Ownable.sol\":2384:2385  0 */\n      0x00\n        /* \"@openzeppelin/contracts/access/Ownable.sol\":2357:2375  _transferOwnership */\n      tag_141\n        /* \"@openzeppelin/contracts/access/Ownable.sol\":2357:2387  _transferOwnership(address(0)) */\n      jump\t// in\n    tag_140:\n        /* \"@openzeppelin/contracts/access/Ownable.sol\":2293:2394  function renounceOwnership() public virtual onlyOwner {... */\n      jump\t// out\n        /* \"/contracts/HelloWorld.sol\":720:788  uint256 public constant REMAINING_MINT = TOTAL_SUPPLY - GENESIS_MINT */\n    tag_77:\n        /* \"/contracts/HelloWorld.sol\":696:714  7_500_000 * 10**18 */\n      0x06342fd08f00f637800000\n        /* \"/contracts/HelloWorld.sol\":629:648  29_000_000 * 10**18 */\n      0x17fcfd266d36eb3d000000\n        /* \"/contracts/HelloWorld.sol\":761:788  TOTAL_SUPPLY - GENESIS_MINT */\n      tag_142\n      swap2\n      swap1\n      tag_143\n      jump\t// in\n    tag_142:\n        /* \"/contracts/HelloWorld.sol\":720:788  uint256 public constant REMAINING_MINT = TOTAL_SUPPLY - GENESIS_MINT */\n      dup2\n      jump\t// out\n        /* \"/contracts/HelloWorld.sol\":436:581  bytes32 public constant MNEMONIC_HASH = keccak256(... */\n    tag_80:\n        /* \"/contracts/HelloWorld.sol\":476:581  keccak256(... */\n      0x3d6146d9ec877e7556edbff9b8fa61ca49404ac8b4128ab4937a74c7b033cee7\n        /* \"/contracts/HelloWorld.sol\":436:581  bytes32 public constant MNEMONIC_HASH = keccak256(... */\n      dup2\n      jump\t// out\n        /* \"@openzeppelin/contracts/access/Ownable.sol\":1638:1723  function owner() public view virtual returns (address) {... */\n    tag_84:\n        /* \"@openzeppelin/contracts/access/Ownable.sol\":1684:1691  address */\n      0x00\n        /* \"@openzeppelin/contracts/access/Ownable.sol\":1710:1716  _owner */\n      0x05\n      0x00\n      swap1\n      sload\n      swap1\n      0x0100\n      exp\n      swap1\n      div\n      0xffffffffffffffffffffffffffffffffffffffff\n      and\n        /* \"@openzeppelin/contracts/access/Ownable.sol\":1703:1716  return _owner */\n      swap1\n      pop\n        /* \"@openzeppelin/contracts/access/Ownable.sol\":1638:1723  function owner() public view virtual returns (address) {... */\n      swap1\n      jump\t// out\n        /* \"/contracts/HelloWorld.sol\":588:648  uint256 public constant TOTAL_SUPPLY   = 29_000_000 * 10**18 */\n    tag_88:\n        /* \"/contracts/HelloWorld.sol\":629:648  29_000_000 * 10**18 */\n      0x17fcfd266d36eb3d000000\n        /* \"/contracts/HelloWorld.sol\":588:648  uint256 public constant TOTAL_SUPPLY   = 29_000_000 * 10**18 */\n      dup2\n      jump\t// out\n        /* \"@openzeppelin/contracts/token/ERC20/ERC20.sol\":1962:2055  function symbol() public view virtual returns (string memory) {... */\n    tag_91:\n        /* \"@openzeppelin/contracts/token/ERC20/ERC20.sol\":2009:2022  string memory */\n      0x60\n        /* \"@openzeppelin/contracts/token/ERC20/ERC20.sol\":2041:2048  _symbol */\n      0x04\n        /* \"@openzeppelin/contracts/token/ERC20/ERC20.sol\":2034:2048  return _symbol */\n      dup1\n      sload\n      tag_146\n      swap1\n      tag_117\n      jump\t// in\n    tag_146:\n      dup1\n      0x1f\n      add\n      0x20\n      dup1\n      swap2\n      div\n      mul\n      0x20\n      add\n      mload(0x40)\n      swap1\n      dup2\n      add\n      0x40\n      mstore\n      dup1\n      swap3\n      swap2\n      swap1\n      dup2\n      dup2\n      mstore\n      0x20\n      add\n      dup3\n      dup1\n      sload\n      tag_147\n      swap1\n      tag_117\n      jump\t// in\n    tag_147:\n      dup1\n      iszero\n      tag_148\n      jumpi\n      dup1\n      0x1f\n      lt\n      tag_149\n      jumpi\n      0x0100\n      dup1\n      dup4\n      sload\n      div\n      mul\n      dup4\n      mstore\n      swap2\n      0x20\n      add\n      swap2\n      jump(tag_148)\n    tag_149:\n      dup3\n      add\n      swap2\n      swap1\n      0x00\n      mstore\n      keccak256(0x00, 0x20)\n      swap1\n    tag_150:\n      dup2\n      sload\n      dup2\n      mstore\n      swap1\n      0x01\n      add\n      swap1\n      0x20\n      add\n      dup1\n      dup4\n      gt\n      tag_150\n      jumpi\n      dup3\n      swap1\n      sub\n      0x1f\n      and\n      dup3\n      add\n      swap2\n    tag_148:\n      pop\n      pop\n      pop\n      pop\n      pop\n      swap1\n      pop\n        /* \"@openzeppelin/contracts/token/ERC20/ERC20.sol\":1962:2055  function symbol() public view virtual returns (string memory) {... */\n      swap1\n      jump\t// out\n        /* \"/contracts/HelloWorld.sol\":1032:1143  bytes public constant GENESIS_SIGNATURE = hex\"1234567890abcdef1234567890abcdef1234567890abcdef1234567890abcdef\" */\n    tag_94:\n      mload(0x40)\n      dup1\n      0x40\n      add\n      0x40\n      mstore\n      dup1\n      0x20\n      dup2\n      mstore\n      0x20\n      add\n      0x1234567890abcdef1234567890abcdef1234567890abcdef1234567890abcdef\n      dup2\n      mstore\n      pop\n      dup2\n      jump\t// out\n        /* \"/contracts/HelloWorld.sol\":944:1026  bytes32 public constant GENESIS_MESSAGE_HASH = keccak256(\"Camelot Scavenger Hunt\") */\n    tag_97:\n        /* \"/contracts/HelloWorld.sol\":991:1026  keccak256(\"Camelot Scavenger Hunt\") */\n      0x450d5ca1d5fa8aee9d893f6c7ac9fd8e59a06ff5f40dac808d5e4b456017f336\n        /* \"/contracts/HelloWorld.sol\":944:1026  bytes32 public constant GENESIS_MESSAGE_HASH = keccak256(\"Camelot Scavenger Hunt\") */\n      dup2\n      jump\t// out\n        /* \"@openzeppelin/contracts/token/ERC20/ERC20.sol\":3244:3422  function transfer(address to, uint256 value) public virtual returns (bool) {... */\n    tag_101:\n        /* \"@openzeppelin/contracts/token/ERC20/ERC20.sol\":3313:3317  bool */\n      0x00\n        /* \"@openzeppelin/contracts/token/ERC20/ERC20.sol\":3329:3342  address owner */\n      0x00\n        /* \"@openzeppelin/contracts/token/ERC20/ERC20.sol\":3345:3357  _msgSender() */\n      tag_152\n        /* \"@openzeppelin/contracts/token/ERC20/ERC20.sol\":3345:3355  _msgSender */\n      tag_124\n        /* \"@openzeppelin/contracts/token/ERC20/ERC20.sol\":3345:3357  _msgSender() */\n      jump\t// in\n    tag_152:\n        /* \"@openzeppelin/contracts/token/ERC20/ERC20.sol\":3329:3357  address owner = _msgSender() */\n      swap1\n      pop\n        /* \"@openzeppelin/contracts/token/ERC20/ERC20.sol\":3367:3394  _transfer(owner, to, value) */\n      tag_153\n        /* \"@openzeppelin/contracts/token/ERC20/ERC20.sol\":3377:3382  owner */\n      dup2\n        /* \"@openzeppelin/contracts/token/ERC20/ERC20.sol\":3384:3386  to */\n      dup6\n        /* \"@openzeppelin/contracts/token/ERC20/ERC20.sol\":3388:3393  value */\n      dup6\n        /* \"@openzeppelin/contracts/token/ERC20/ERC20.sol\":3367:3376  _transfer */\n      tag_133\n        /* \"@openzeppelin/contracts/token/ERC20/ERC20.sol\":3367:3394  _transfer(owner, to, value) */\n      jump\t// in\n    tag_153:\n        /* \"@openzeppelin/contracts/token/ERC20/ERC20.sol\":3411:3415  true */\n      0x01\n        /* \"@openzeppelin/contracts/token/ERC20/ERC20.sol\":3404:3415  return true */\n      swap2\n      pop\n      pop\n        /* \"@openzeppelin/contracts/token/ERC20/ERC20.sol\":3244:3422  function transfer(address to, uint256 value) public virtual returns (bool) {... */\n      swap3\n      swap2\n      pop\n      pop\n      jump\t// out\n        /* \"@openzeppelin/contracts/token/ERC20/ERC20.sol\":3455:3595  function allowance(address owner, address spender) public view virtual returns (uint256) {... */\n    tag_106:\n        /* \"@openzeppelin/contracts/token/ERC20/ERC20.sol\":3535:3542  uint256 */\n      0x00\n        /* \"@openzeppelin/contracts/token/ERC20/ERC20.sol\":3561:3572  _allowances */\n      0x01\n        /* \"@openzeppelin/contracts/token/ERC20/ERC20.sol\":3561:3579  _allowances[owner] */\n      0x00\n        /* \"@openzeppelin/contracts/token/ERC20/ERC20.sol\":3573:3578  owner */\n      dup5\n        /* \"@openzeppelin/contracts/token/ERC20/ERC20.sol\":3561:3579  _allowances[owner] */\n      0xffffffffffffffffffffffffffffffffffffffff\n      and\n      0xffffffffffffffffffffffffffffffffffffffff\n      and\n      dup2\n      mstore\n      0x20\n      add\n      swap1\n      dup2\n      mstore\n      0x20\n      add\n      0x00\n      keccak256\n        /* \"@openzeppelin/contracts/token/ERC20/ERC20.sol\":3561:3588  _allowances[owner][spender] */\n      0x00\n        /* \"@openzeppelin/contracts/token/ERC20/ERC20.sol\":3580:3587  spender */\n      dup4\n        /* \"@openzeppelin/contracts/token/ERC20/ERC20.sol\":3561:3588  _allowances[owner][spender] */\n      0xffffffffffffffffffffffffffffffffffffffff\n      and\n      0xffffffffffffffffffffffffffffffffffffffff\n      and\n      dup2\n      mstore\n      0x20\n      add\n      swap1\n      dup2\n      mstore\n      0x20\n      add\n      0x00\n      keccak256\n      sload\n        /* \"@openzeppelin/contracts/token/ERC20/ERC20.sol\":3554:3588  return _allowances[owner][spender] */\n      swap1\n      pop\n        /* \"@openzeppelin/contracts/token/ERC20/ERC20.sol\":3455:3595  function allowance(address owner, address spender) public view virtual returns (uint256) {... */\n      swap3\n      swap2\n      pop\n      pop\n      jump\t// out\n        /* \"/contracts/HelloWorld.sol\":1495:1914  function mintByMnemonic(string calldata mnemonic) external {... */\n    tag_111:\n        /* \"/contracts/HelloWorld.sol\":1573:1582  hasMinted */\n      0x07\n        /* \"/contracts/HelloWorld.sol\":1573:1594  hasMinted[msg.sender] */\n      0x00\n        /* \"/contracts/HelloWorld.sol\":1583:1593  msg.sender */\n      caller\n        /* \"/contracts/HelloWorld.sol\":1573:1594  hasMinted[msg.sender] */\n      0xffffffffffffffffffffffffffffffffffffffff\n      and\n      0xffffffffffffffffffffffffffffffffffffffff\n      and\n      dup2\n      mstore\n      0x20\n      add\n      swap1\n      dup2\n      mstore\n      0x20\n      add\n      0x00\n      keccak256\n      0x00\n      swap1\n      sload\n      swap1\n      0x0100\n      exp\n      swap1\n      div\n      0xff\n      and\n        /* \"/contracts/HelloWorld.sol\":1572:1594  !hasMinted[msg.sender] */\n      iszero\n        /* \"/contracts/HelloWorld.sol\":1564:1613  require(!hasMinted[msg.sender], \"Already minted\") */\n      tag_156\n      jumpi\n      mload(0x40)\n      0x08c379a000000000000000000000000000000000000000000000000000000000\n      dup2\n      mstore\n      0x04\n      add\n      tag_157\n      swap1\n      tag_158\n      jump\t// in\n    tag_157:\n      mload(0x40)\n      dup1\n      swap2\n      sub\n      swap1\n      revert\n    tag_156:\n        /* \"/contracts/HelloWorld.sol\":476:581  keccak256(... */\n      0x3d6146d9ec877e7556edbff9b8fa61ca49404ac8b4128ab4937a74c7b033cee7\n        /* \"/contracts/HelloWorld.sol\":1647:1655  mnemonic */\n      dup3\n      dup3\n        /* \"/contracts/HelloWorld.sol\":1631:1657  keccak256(bytes(mnemonic)) */\n      mload(0x40)\n      tag_159\n      swap3\n      swap2\n      swap1\n      tag_160\n      jump\t// in\n    tag_159:\n      mload(0x40)\n      dup1\n      swap2\n      sub\n      swap1\n      keccak256\n        /* \"/contracts/HelloWorld.sol\":1631:1674  keccak256(bytes(mnemonic)) == MNEMONIC_HASH */\n      eq\n        /* \"/contracts/HelloWorld.sol\":1623:1693  require(keccak256(bytes(mnemonic)) == MNEMONIC_HASH, \"Wrong mnemonic\") */\n      tag_161\n      jumpi\n      mload(0x40)\n      0x08c379a000000000000000000000000000000000000000000000000000000000\n      dup2\n      mstore\n      0x04\n      add\n      tag_162\n      swap1\n      tag_163\n      jump\t// in\n    tag_162:\n      mload(0x40)\n      dup1\n      swap2\n      sub\n      swap1\n      revert\n    tag_161:\n        /* \"/contracts/HelloWorld.sol\":696:714  7_500_000 * 10**18 */\n      0x06342fd08f00f637800000\n        /* \"/contracts/HelloWorld.sol\":629:648  29_000_000 * 10**18 */\n      0x17fcfd266d36eb3d000000\n        /* \"/contracts/HelloWorld.sol\":761:788  TOTAL_SUPPLY - GENESIS_MINT */\n      tag_164\n      swap2\n      swap1\n      tag_143\n      jump\t// in\n    tag_164:\n        /* \"/contracts/HelloWorld.sol\":840:853  1000 * 10**18 */\n      0x3635c9adc5dea00000\n        /* \"/contracts/HelloWorld.sol\":1711:1726  mintedBySolvers */\n      sload(0x06)\n        /* \"/contracts/HelloWorld.sol\":1711:1744  mintedBySolvers + PER_SOLVER_MINT */\n      tag_165\n      swap2\n      swap1\n      tag_166\n      jump\t// in\n    tag_165:\n        /* \"/contracts/HelloWorld.sol\":1711:1762  mintedBySolvers + PER_SOLVER_MINT <= REMAINING_MINT */\n      gt\n      iszero\n        /* \"/contracts/HelloWorld.sol\":1703:1781  require(mintedBySolvers + PER_SOLVER_MINT <= REMAINING_MINT, \"Pool exhausted\") */\n      tag_167\n      jumpi\n      mload(0x40)\n      0x08c379a000000000000000000000000000000000000000000000000000000000\n      dup2\n      mstore\n      0x04\n      add\n      tag_168\n      swap1\n      tag_169\n      jump\t// in\n    tag_168:\n      mload(0x40)\n      dup1\n      swap2\n      sub\n      swap1\n      revert\n    tag_167:\n        /* \"/contracts/HelloWorld.sol\":1791:1825  _mint(msg.sender, PER_SOLVER_MINT) */\n      tag_170\n        /* \"/contracts/HelloWorld.sol\":1797:1807  msg.sender */\n      caller\n        /* \"/contracts/HelloWorld.sol\":840:853  1000 * 10**18 */\n      0x3635c9adc5dea00000\n        /* \"/contracts/HelloWorld.sol\":1791:1796  _mint */\n      tag_171\n        /* \"/contracts/HelloWorld.sol\":1791:1825  _mint(msg.sender, PER_SOLVER_MINT) */\n      jump\t// in\n    tag_170:\n        /* \"/contracts/HelloWorld.sol\":840:853  1000 * 10**18 */\n      0x3635c9adc5dea00000\n        /* \"/contracts/HelloWorld.sol\":1835:1850  mintedBySolvers */\n      0x06\n      0x00\n        /* \"/contracts/HelloWorld.sol\":1835:1869  mintedBySolvers += PER_SOLVER_MINT */\n      dup3\n      dup3\n      sload\n      tag_172\n      swap2\n      swap1\n      tag_166\n      jump\t// in\n    tag_172:\n      swap3\n      pop\n      pop\n      dup2\n      swap1\n      sstore\n      pop\n        /* \"/contracts/HelloWorld.sol\":1903:1907  true */\n      0x01\n        /* \"/contracts/HelloWorld.sol\":1879:1888  hasMinted */\n      0x07\n        /* \"/contracts/HelloWorld.sol\":1879:1900  hasMinted[msg.sender] */\n      0x00\n        /* \"/contracts/HelloWorld.sol\":1889:1899  msg.sender */\n      caller\n        /* \"/contracts/HelloWorld.sol\":1879:1900  hasMinted[msg.sender] */\n      0xffffffffffffffffffffffffffffffffffffffff\n      and\n      0xffffffffffffffffffffffffffffffffffffffff\n      and\n      dup2\n      mstore\n      0x20\n      add\n      swap1\n      dup2\n      mstore\n      0x20\n      add\n      0x00\n      keccak256\n      0x00\n        /* \"/contracts/HelloWorld.sol\":1879:1907  hasMinted[msg.sender] = true */\n      0x0100\n      exp\n      dup2\n      sload\n      dup2\n      0xff\n      mul\n      not\n      and\n      swap1\n      dup4\n      iszero\n      iszero\n      mul\n      or\n      swap1\n      sstore\n      pop\n        /* \"/contracts/HelloWorld.sol\":1495:1914  function mintByMnemonic(string calldata mnemonic) external {... */\n      pop\n      pop\n      jump\t// out\n        /* \"@openzeppelin/contracts/access/Ownable.sol\":2543:2758  function transferOwnership(address newOwner) public virtual onlyOwner {... */\n    tag_114:\n        /* \"@openzeppelin/contracts/access/Ownable.sol\":1531:1544  _checkOwner() */\n      tag_174\n        /* \"@openzeppelin/contracts/access/Ownable.sol\":1531:1542  _checkOwner */\n      tag_138\n        /* \"@openzeppelin/contracts/access/Ownable.sol\":1531:1544  _checkOwner() */\n      jump\t// in\n    tag_174:\n        /* \"@openzeppelin/contracts/access/Ownable.sol\":2647:2648  0 */\n      0x00\n        /* \"@openzeppelin/contracts/access/Ownable.sol\":2627:2649  newOwner == address(0) */\n      0xffffffffffffffffffffffffffffffffffffffff\n      and\n        /* \"@openzeppelin/contracts/access/Ownable.sol\":2627:2635  newOwner */\n      dup2\n        /* \"@openzeppelin/contracts/access/Ownable.sol\":2627:2649  newOwner == address(0) */\n      0xffffffffffffffffffffffffffffffffffffffff\n      and\n      sub\n        /* \"@openzeppelin/contracts/access/Ownable.sol\":2623:2714  if (newOwner == address(0)) {... */\n      tag_176\n      jumpi\n        /* \"@openzeppelin/contracts/access/Ownable.sol\":2700:2701  0 */\n      0x00\n        /* \"@openzeppelin/contracts/access/Ownable.sol\":2672:2703  OwnableInvalidOwner(address(0)) */\n      mload(0x40)\n      0x1e4fbdf700000000000000000000000000000000000000000000000000000000\n      dup2\n      mstore\n      0x04\n      add\n      tag_177\n      swap2\n      swap1\n      tag_86\n      jump\t// in\n    tag_177:\n      mload(0x40)\n      dup1\n      swap2\n      sub\n      swap1\n      revert\n        /* \"@openzeppelin/contracts/access/Ownable.sol\":2623:2714  if (newOwner == address(0)) {... */\n    tag_176:\n        /* \"@openzeppelin/contracts/access/Ownable.sol\":2723:2751  _transferOwnership(newOwner) */\n      tag_178\n        /* \"@openzeppelin/contracts/access/Ownable.sol\":2742:2750  newOwner */\n      dup2\n        /* \"@openzeppelin/contracts/access/Ownable.sol\":2723:2741  _transferOwnership */\n      tag_141\n        /* \"@openzeppelin/contracts/access/Ownable.sol\":2723:2751  _transferOwnership(newOwner) */\n      jump\t// in\n    tag_178:\n        /* \"@openzeppelin/contracts/access/Ownable.sol\":2543:2758  function transferOwnership(address newOwner) public virtual onlyOwner {... */\n      pop\n      jump\t// out\n        /* \"@openzeppelin/contracts/utils/Context.sol\":656:752  function _msgSender() internal view virtual returns (address) {... */\n    tag_124:\n        /* \"@openzeppelin/contracts/utils/Context.sol\":709:716  address */\n      0x00\n        /* \"@openzeppelin/contracts/utils/Context.sol\":735:745  msg.sender */\n      caller\n        /* \"@openzeppelin/contracts/utils/Context.sol\":728:745  return msg.sender */\n      swap1\n      pop\n        /* \"@openzeppelin/contracts/utils/Context.sol\":656:752  function _msgSender() internal view virtual returns (address) {... */\n      swap1\n      jump\t// out\n        /* \"@openzeppelin/contracts/token/ERC20/ERC20.sol\":8630:8758  function _approve(address owner, address spender, uint256 value) internal {... */\n    tag_126:\n        /* \"@openzeppelin/contracts/token/ERC20/ERC20.sol\":8714:8751  _approve(owner, spender, value, true) */\n      tag_181\n        /* \"@openzeppelin/contracts/token/ERC20/ERC20.sol\":8723:8728  owner */\n      dup4\n        /* \"@openzeppelin/contracts/token/ERC20/ERC20.sol\":8730:8737  spender */\n      dup4\n        /* \"@openzeppelin/contracts/token/ERC20/ERC20.sol\":8739:8744  value */\n      dup4\n        /* \"@openzeppelin/contracts/token/ERC20/ERC20.sol\":8746:8750  true */\n      0x01\n        /* \"@openzeppelin/contracts/token/ERC20/ERC20.sol\":8714:8722  _approve */\n      tag_182\n        /* \"@openzeppelin/contracts/token/ERC20/ERC20.sol\":8714:8751  _approve(owner, spender, value, true) */\n      jump\t// in\n    tag_181:\n        /* \"@openzeppelin/contracts/token/ERC20/ERC20.sol\":8630:8758  function _approve(address owner, address spender, uint256 value) internal {... */\n      pop\n      pop\n      pop\n      jump\t// out\n        /* \"@openzeppelin/contracts/token/ERC20/ERC20.sol\":10321:10797  function _spendAllowance(address owner, address spender, uint256 value) internal virtual {... */\n    tag_131:\n        /* \"@openzeppelin/contracts/token/ERC20/ERC20.sol\":10420:10444  uint256 currentAllowance */\n      0x00\n        /* \"@openzeppelin/contracts/token/ERC20/ERC20.sol\":10447:10472  allowance(owner, spender) */\n      tag_184\n        /* \"@openzeppelin/contracts/token/ERC20/ERC20.sol\":10457:10462  owner */\n      dup5\n        /* \"@openzeppelin/contracts/token/ERC20/ERC20.sol\":10464:10471  spender */\n      dup5\n        /* \"@openzeppelin/contracts/token/ERC20/ERC20.sol\":10447:10456  allowance */\n      tag_106\n        /* \"@openzeppelin/contracts/token/ERC20/ERC20.sol\":10447:10472  allowance(owner, spender) */\n      jump\t// in\n    tag_184:\n        /* \"@openzeppelin/contracts/token/ERC20/ERC20.sol\":10420:10472  uint256 currentAllowance = allowance(owner, spender) */\n      swap1\n      pop\n        /* \"@openzeppelin/contracts/token/ERC20/ERC20.sol\":10505:10522  type(uint256).max */\n      0xffffffffffffffffffffffffffffffffffffffffffffffffffffffffffffffff\n        /* \"@openzeppelin/contracts/token/ERC20/ERC20.sol\":10486:10502  currentAllowance */\n      dup2\n        /* \"@openzeppelin/contracts/token/ERC20/ERC20.sol\":10486:10522  currentAllowance < type(uint256).max */\n      lt\n        /* \"@openzeppelin/contracts/token/ERC20/ERC20.sol\":10482:10791  if (currentAllowance < type(uint256).max) {... */\n      iszero\n      tag_185\n      jumpi\n        /* \"@openzeppelin/contracts/token/ERC20/ERC20.sol\":10561:10566  value */\n      dup2\n        /* \"@openzeppelin/contracts/token/ERC20/ERC20.sol\":10542:10558  currentAllowance */\n      dup2\n        /* \"@openzeppelin/contracts/token/ERC20/ERC20.sol\":10542:10566  currentAllowance < value */\n      lt\n        /* \"@openzeppelin/contracts/token/ERC20/ERC20.sol\":10538:10668  if (currentAllowance < value) {... */\n      iszero\n      tag_186\n      jumpi\n        /* \"@openzeppelin/contracts/token/ERC20/ERC20.sol\":10620:10627  spender */\n      dup3\n        /* \"@openzeppelin/contracts/token/ERC20/ERC20.sol\":10629:10645  currentAllowance */\n      dup2\n        /* \"@openzeppelin/contracts/token/ERC20/ERC20.sol\":10647:10652  value */\n      dup4\n        /* \"@openzeppelin/contracts/token/ERC20/ERC20.sol\":10593:10653  ERC20InsufficientAllowance(spender, currentAllowance, value) */\n      mload(0x40)\n      0xfb8f41b200000000000000000000000000000000000000000000000000000000\n      dup2\n      mstore\n      0x04\n      add\n      tag_187\n      swap4\n      swap3\n      swap2\n      swap1\n      tag_188\n      jump\t// in\n    tag_187:\n      mload(0x40)\n      dup1\n      swap2\n      sub\n      swap1\n      revert\n        /* \"@openzeppelin/contracts/token/ERC20/ERC20.sol\":10538:10668  if (currentAllowance < value) {... */\n    tag_186:\n        /* \"@openzeppelin/contracts/token/ERC20/ERC20.sol\":10709:10766  _approve(owner, spender, currentAllowance - value, false) */\n      tag_189\n        /* \"@openzeppelin/contracts/token/ERC20/ERC20.sol\":10718:10723  owner */\n      dup5\n        /* \"@openzeppelin/contracts/token/ERC20/ERC20.sol\":10725:10732  spender */\n      dup5\n        /* \"@openzeppelin/contracts/token/ERC20/ERC20.sol\":10753:10758  value */\n      dup5\n        /* \"@openzeppelin/contracts/token/ERC20/ERC20.sol\":10734:10750  currentAllowance */\n      dup5\n        /* \"@openzeppelin/contracts/token/ERC20/ERC20.sol\":10734:10758  currentAllowance - value */\n      sub\n        /* \"@openzeppelin/contracts/token/ERC20/ERC20.sol\":10760:10765  false */\n      0x00\n        /* \"@openzeppelin/contracts/token/ERC20/ERC20.sol\":10709:10717  _approve */\n      tag_182\n        /* \"@openzeppelin/contracts/token/ERC20/ERC20.sol\":10709:10766  _approve(owner, spender, currentAllowance - value, false) */\n      jump\t// in\n    tag_189:\n        /* \"@openzeppelin/contracts/token/ERC20/ERC20.sol\":10482:10791  if (currentAllowance < type(uint256).max) {... */\n    tag_185:\n        /* \"@openzeppelin/contracts/token/ERC20/ERC20.sol\":10410:10797  {... */\n      pop\n        /* \"@openzeppelin/contracts/token/ERC20/ERC20.sol\":10321:10797  function _spendAllowance(address owner, address spender, uint256 value) internal virtual {... */\n      pop\n      pop\n      pop\n      jump\t// out\n        /* \"@openzeppelin/contracts/token/ERC20/ERC20.sol\":5297:5597  function _transfer(address from, address to, uint256 value) internal {... */\n    tag_133:\n        /* \"@openzeppelin/contracts/token/ERC20/ERC20.sol\":5396:5397  0 */\n      0x00\n        /* \"@openzeppelin/contracts/token/ERC20/ERC20.sol\":5380:5398  from == address(0) */\n      0xffffffffffffffffffffffffffffffffffffffff\n      and\n        /* \"@openzeppelin/contracts/token/ERC20/ERC20.sol\":5380:5384  from */\n      dup4\n        /* \"@openzeppelin/contracts/token/ERC20/ERC20.sol\":5380:5398  from == address(0) */\n      0xffffffffffffffffffffffffffffffffffffffff\n      and\n      sub\n        /* \"@openzeppelin/contracts/token/ERC20/ERC20.sol\":5376:5462  if (from == address(0)) {... */\n      tag_191\n      jumpi\n        /* \"@openzeppelin/contracts/token/ERC20/ERC20.sol\":5448:5449  0 */\n      0x00\n        /* \"@openzeppelin/contracts/token/ERC20/ERC20.sol\":5421:5451  ERC20InvalidSender(address(0)) */\n      mload(0x40)\n      0x96c6fd1e00000000000000000000000000000000000000000000000000000000\n      dup2\n      mstore\n      0x04\n      add\n      tag_192\n      swap2\n      swap1\n      tag_86\n      jump\t// in\n    tag_192:\n      mload(0x40)\n      dup1\n      swap2\n      sub\n      swap1\n      revert\n        /* \"@openzeppelin/contracts/token/ERC20/ERC20.sol\":5376:5462  if (from == address(0)) {... */\n    tag_191:\n        /* \"@openzeppelin/contracts/token/ERC20/ERC20.sol\":5489:5490  0 */\n      0x00\n        /* \"@openzeppelin/contracts/token/ERC20/ERC20.sol\":5475:5491  to == address(0) */\n      0xffffffffffffffffffffffffffffffffffffffff\n      and\n        /* \"@openzeppelin/contracts/token/ERC20/ERC20.sol\":5475:5477  to */\n      dup3\n        /* \"@openzeppelin/contracts/token/ERC20/ERC20.sol\":5475:5491  to == address(0) */\n      0xffffffffffffffffffffffffffffffffffffffff\n      and\n      sub\n        /* \"@openzeppelin/contracts/token/ERC20/ERC20.sol\":5471:5557  if (to == address(0)) {... */\n      tag_193\n      jumpi\n        /* \"@openzeppelin/contracts/token/ERC20/ERC20.sol\":5543:5544  0 */\n      0x00\n        /* \"@openzeppelin/contracts/token/ERC20/ERC20.sol\":5514:5546  ERC20InvalidReceiver(address(0)) */\n      mload(0x40)\n      0xec442f0500000000000000000000000000000000000000000000000000000000\n      dup2\n      mstore\n      0x04\n      add\n      tag_194\n      swap2\n      swap1\n      tag_86\n      jump\t// in\n    tag_194:\n      mload(0x40)\n      dup1\n      swap2\n      sub\n      swap1\n      revert\n        /* \"@openzeppelin/contracts/token/ERC20/ERC20.sol\":5471:5557  if (to == address(0)) {... */\n    tag_193:\n        /* \"@openzeppelin/contracts/token/ERC20/ERC20.sol\":5566:5590  _update(from, to, value) */\n      tag_195\n        /* \"@openzeppelin/contracts/token/ERC20/ERC20.sol\":5574:5578  from */\n      dup4\n        /* \"@openzeppelin/contracts/token/ERC20/ERC20.sol\":5580:5582  to */\n      dup4\n        /* \"@openzeppelin/contracts/token/ERC20/ERC20.sol\":5584:5589  value */\n      dup4\n        /* \"@openzeppelin/contracts/token/ERC20/ERC20.sol\":5566:5573  _update */\n      tag_196\n        /* \"@openzeppelin/contracts/token/ERC20/ERC20.sol\":5566:5590  _update(from, to, value) */\n      jump\t// in\n    tag_195:\n        /* \"@openzeppelin/contracts/token/ERC20/ERC20.sol\":5297:5597  function _transfer(address from, address to, uint256 value) internal {... */\n      pop\n      pop\n      pop\n      jump\t// out\n        /* \"@openzeppelin/contracts/access/Ownable.sol\":1796:1958  function _checkOwner() internal view virtual {... */\n    tag_138:\n        /* \"@openzeppelin/contracts/access/Ownable.sol\":1866:1878  _msgSender() */\n      tag_198\n        /* \"@openzeppelin/contracts/access/Ownable.sol\":1866:1876  _msgSender */\n      tag_124\n        /* \"@openzeppelin/contracts/access/Ownable.sol\":1866:1878  _msgSender() */\n      jump\t// in\n    tag_198:\n        /* \"@openzeppelin/contracts/access/Ownable.sol\":1855:1878  owner() != _msgSender() */\n      0xffffffffffffffffffffffffffffffffffffffff\n      and\n        /* \"@openzeppelin/contracts/access/Ownable.sol\":1855:1862  owner() */\n      tag_199\n        /* \"@openzeppelin/contracts/access/Ownable.sol\":1855:1860  owner */\n      tag_84\n        /* \"@openzeppelin/contracts/access/Ownable.sol\":1855:1862  owner() */\n      jump\t// in\n    tag_199:\n        /* \"@openzeppelin/contracts/access/Ownable.sol\":1855:1878  owner() != _msgSender() */\n      0xffffffffffffffffffffffffffffffffffffffff\n      and\n      eq\n        /* \"@openzeppelin/contracts/access/Ownable.sol\":1851:1952  if (owner() != _msgSender()) {... */\n      tag_200\n      jumpi\n        /* \"@openzeppelin/contracts/access/Ownable.sol\":1928:1940  _msgSender() */\n      tag_201\n        /* \"@openzeppelin/contracts/access/Ownable.sol\":1928:1938  _msgSender */\n      tag_124\n        /* \"@openzeppelin/contracts/access/Ownable.sol\":1928:1940  _msgSender() */\n      jump\t// in\n    tag_201:\n        /* \"@openzeppelin/contracts/access/Ownable.sol\":1901:1941  OwnableUnauthorizedAccount(_msgSender()) */\n      mload(0x40)\n      0x118cdaa700000000000000000000000000000000000000000000000000000000\n      dup2\n      mstore\n      0x04\n      add\n      tag_202\n      swap2\n      swap1\n      tag_86\n      jump\t// in\n    tag_202:\n      mload(0x40)\n      dup1\n      swap2\n      sub\n      swap1\n      revert\n        /* \"@openzeppelin/contracts/access/Ownable.sol\":1851:1952  if (owner() != _msgSender()) {... */\n    tag_200:\n        /* \"@openzeppelin/contracts/access/Ownable.sol\":1796:1958  function _checkOwner() internal view virtual {... */\n      jump\t// out\n        /* \"@openzeppelin/contracts/access/Ownable.sol\":2912:3099  function _transferOwnership(address newOwner) internal virtual {... */\n    tag_141:\n        /* \"@openzeppelin/contracts/access/Ownable.sol\":2985:3001  address oldOwner */\n      0x00\n        /* \"@openzeppelin/contracts/access/Ownable.sol\":3004:3010  _owner */\n      0x05\n      0x00\n      swap1\n      sload\n      swap1\n      0x0100\n      exp\n      swap1\n      div\n      0xffffffffffffffffffffffffffffffffffffffff\n      and\n        /* \"@openzeppelin/contracts/access/Ownable.sol\":2985:3010  address oldOwner = _owner */\n      swap1\n      pop\n        /* \"@openzeppelin/contracts/access/Ownable.sol\":3029:3037  newOwner */\n      dup2\n        /* \"@openzeppelin/contracts/access/Ownable.sol\":3020:3026  _owner */\n      0x05\n      0x00\n        /* \"@openzeppelin/contracts/access/Ownable.sol\":3020:3037  _owner = newOwner */\n      0x0100\n      exp\n      dup2\n      sload\n      dup2\n      0xffffffffffffffffffffffffffffffffffffffff\n      mul\n      not\n      and\n      swap1\n      dup4\n      0xffffffffffffffffffffffffffffffffffffffff\n      and\n      mul\n      or\n      swap1\n      sstore\n      pop\n        /* \"@openzeppelin/contracts/access/Ownable.sol\":3083:3091  newOwner */\n      dup2\n        /* \"@openzeppelin/contracts/access/Ownable.sol\":3052:3092  OwnershipTransferred(oldOwner, newOwner) */\n      0xffffffffffffffffffffffffffffffffffffffff\n      and\n        /* \"@openzeppelin/contracts/access/Ownable.sol\":3073:3081  oldOwner */\n      dup2\n        /* \"@openzeppelin/contracts/access/Ownable.sol\":3052:3092  OwnershipTransferred(oldOwner, newOwner) */\n      0xffffffffffffffffffffffffffffffffffffffff\n      and\n      0x8be0079c531659141344cd1fd0a4f28419497f9722a3daafe3b4186f6b6457e0\n      mload(0x40)\n      mload(0x40)\n      dup1\n      swap2\n      sub\n      swap1\n      log3\n        /* \"@openzeppelin/contracts/access/Ownable.sol\":2975:3099  {... */\n      pop\n        /* \"@openzeppelin/contracts/access/Ownable.sol\":2912:3099  function _transferOwnership(address newOwner) internal virtual {... */\n      pop\n      jump\t// out\n        /* \"@openzeppelin/contracts/token/ERC20/ERC20.sol\":7362:7570  function _mint(address account, uint256 value) internal {... */\n    tag_171:\n        /* \"@openzeppelin/contracts/token/ERC20/ERC20.sol\":7451:7452  0 */\n      0x00\n        /* \"@openzeppelin/contracts/token/ERC20/ERC20.sol\":7432:7453  account == address(0) */\n      0xffffffffffffffffffffffffffffffffffffffff\n      and\n        /* \"@openzeppelin/contracts/token/ERC20/ERC20.sol\":7432:7439  account */\n      dup3\n        /* \"@openzeppelin/contracts/token/ERC20/ERC20.sol\":7432:7453  account == address(0) */\n      0xffffffffffffffffffffffffffffffffffffffff\n      and\n      sub\n        /* \"@openzeppelin/contracts/token/ERC20/ERC20.sol\":7428:7519  if (account == address(0)) {... */\n      tag_205\n      jumpi\n        /* \"@openzeppelin/contracts/token/ERC20/ERC20.sol\":7505:7506  0 */\n      0x00\n        /* \"@openzeppelin/contracts/token/ERC20/ERC20.sol\":7476:7508  ERC20InvalidReceiver(address(0)) */\n      mload(0x40)\n      0xec442f0500000000000000000000000000000000000000000000000000000000\n      dup2\n      mstore\n      0x04\n      add\n      tag_206\n      swap2\n      swap1\n      tag_86\n      jump\t// in\n    tag_206:\n      mload(0x40)\n      dup1\n      swap2\n      sub\n      swap1\n      revert\n        /* \"@openzeppelin/contracts/token/ERC20/ERC20.sol\":7428:7519  if (account == address(0)) {... */\n    tag_205:\n        /* \"@openzeppelin/contracts/token/ERC20/ERC20.sol\":7528:7563  _update(address(0), account, value) */\n      tag_207\n        /* \"@openzeppelin/contracts/token/ERC20/ERC20.sol\":7544:7545  0 */\n      0x00\n        /* \"@openzeppelin/contracts/token/ERC20/ERC20.sol\":7548:7555  account */\n      dup4\n        /* \"@openzeppelin/contracts/token/ERC20/ERC20.sol\":7557:7562  value */\n      dup4\n        /* \"@openzeppelin/contracts/token/ERC20/ERC20.sol\":7528:7535  _update */\n      tag_196\n        /* \"@openzeppelin/contracts/token/ERC20/ERC20.sol\":7528:7563  _update(address(0), account, value) */\n      jump\t// in\n    tag_207:\n        /* \"@openzeppelin/contracts/token/ERC20/ERC20.sol\":7362:7570  function _mint(address account, uint256 value) internal {... */\n      pop\n      pop\n      jump\t// out\n        /* \"@openzeppelin/contracts/token/ERC20/ERC20.sol\":9607:10039  function _approve(address owner, address spender, uint256 value, bool emitEvent) internal virtual {... */\n    tag_182:\n        /* \"@openzeppelin/contracts/token/ERC20/ERC20.sol\":9736:9737  0 */\n      0x00\n        /* \"@openzeppelin/contracts/token/ERC20/ERC20.sol\":9719:9738  owner == address(0) */\n      0xffffffffffffffffffffffffffffffffffffffff\n      and\n        /* \"@openzeppelin/contracts/token/ERC20/ERC20.sol\":9719:9724  owner */\n      dup5\n        /* \"@openzeppelin/contracts/token/ERC20/ERC20.sol\":9719:9738  owner == address(0) */\n      0xffffffffffffffffffffffffffffffffffffffff\n      and\n      sub\n        /* \"@openzeppelin/contracts/token/ERC20/ERC20.sol\":9715:9804  if (owner == address(0)) {... */\n      tag_209\n      jumpi\n        /* \"@openzeppelin/contracts/token/ERC20/ERC20.sol\":9790:9791  0 */\n      0x00\n        /* \"@openzeppelin/contracts/token/ERC20/ERC20.sol\":9761:9793  ERC20InvalidApprover(address(0)) */\n      mload(0x40)\n      0xe602df0500000000000000000000000000000000000000000000000000000000\n      dup2\n      mstore\n      0x04\n      add\n      tag_210\n      swap2\n      swap1\n      tag_86\n      jump\t// in\n    tag_210:\n      mload(0x40)\n      dup1\n      swap2\n      sub\n      swap1\n      revert\n        /* \"@openzeppelin/contracts/token/ERC20/ERC20.sol\":9715:9804  if (owner == address(0)) {... */\n    tag_209:\n        /* \"@openzeppelin/contracts/token/ERC20/ERC20.sol\":9836:9837  0 */\n      0x00\n        /* \"@openzeppelin/contracts/token/ERC20/ERC20.sol\":9817:9838  spender == address(0) */\n      0xffffffffffffffffffffffffffffffffffffffff\n      and\n        /* \"@openzeppelin/contracts/token/ERC20/ERC20.sol\":9817:9824  spender */\n      dup4\n        /* \"@openzeppelin/contracts/token/ERC20/ERC20.sol\":9817:9838  spender == address(0) */\n      0xffffffffffffffffffffffffffffffffffffffff\n      and\n      sub\n        /* \"@openzeppelin/contracts/token/ERC20/ERC20.sol\":9813:9903  if (spender == address(0)) {... */\n      tag_211\n      jumpi\n        /* \"@openzeppelin/contracts/token/ERC20/ERC20.sol\":9889:9890  0 */\n      0x00\n        /* \"@openzeppelin/contracts/token/ERC20/ERC20.sol\":9861:9892  ERC20InvalidSpender(address(0)) */\n      mload(0x40)\n      0x94280d6200000000000000000000000000000000000000000000000000000000\n      dup2\n      mstore\n      0x04\n      add\n      tag_212\n      swap2\n      swap1\n      tag_86\n      jump\t// in\n    tag_212:\n      mload(0x40)\n      dup1\n      swap2\n      sub\n      swap1\n      revert\n        /* \"@openzeppelin/contracts/token/ERC20/ERC20.sol\":9813:9903  if (spender == address(0)) {... */\n    tag_211:\n        /* \"@openzeppelin/contracts/token/ERC20/ERC20.sol\":9942:9947  value */\n      dup2\n        /* \"@openzeppelin/contracts/token/ERC20/ERC20.sol\":9912:9923  _allowances */\n      0x01\n        /* \"@openzeppelin/contracts/token/ERC20/ERC20.sol\":9912:9930  _allowances[owner] */\n      0x00\n        /* \"@openzeppelin/contracts/token/ERC20/ERC20.sol\":9924:9929  owner */\n      dup7\n        /* \"@openzeppelin/contracts/token/ERC20/ERC20.sol\":9912:9930  _allowances[owner] */\n      0xffffffffffffffffffffffffffffffffffffffff\n      and\n      0xffffffffffffffffffffffffffffffffffffffff\n      and\n      dup2\n      mstore\n      0x20\n      add\n      swap1\n      dup2\n      mstore\n      0x20\n      add\n      0x00\n      keccak256\n        /* \"@openzeppelin/contracts/token/ERC20/ERC20.sol\":9912:9939  _allowances[owner][spender] */\n      0x00\n        /* \"@openzeppelin/contracts/token/ERC20/ERC20.sol\":9931:9938  spender */\n      dup6\n        /* \"@openzeppelin/contracts/token/ERC20/ERC20.sol\":9912:9939  _allowances[owner][spender] */\n      0xffffffffffffffffffffffffffffffffffffffff\n      and\n      0xffffffffffffffffffffffffffffffffffffffff\n      and\n      dup2\n      mstore\n      0x20\n      add\n      swap1\n      dup2\n      mstore\n      0x20\n      add\n      0x00\n      keccak256\n        /* \"@openzeppelin/contracts/token/ERC20/ERC20.sol\":9912:9947  _allowances[owner][spender] = value */\n      dup2\n      swap1\n      sstore\n      pop\n        /* \"@openzeppelin/contracts/token/ERC20/ERC20.sol\":9961:9970  emitEvent */\n      dup1\n        /* \"@openzeppelin/contracts/token/ERC20/ERC20.sol\":9957:10033  if (emitEvent) {... */\n      iszero\n      tag_213\n      jumpi\n        /* \"@openzeppelin/contracts/token/ERC20/ERC20.sol\":10007:10014  spender */\n      dup3\n        /* \"@openzeppelin/contracts/token/ERC20/ERC20.sol\":9991:10022  Approval(owner, spender, value) */\n      0xffffffffffffffffffffffffffffffffffffffff\n      and\n        /* \"@openzeppelin/contracts/token/ERC20/ERC20.sol\":10000:10005  owner */\n      dup5\n        /* \"@openzeppelin/contracts/token/ERC20/ERC20.sol\":9991:10022  Approval(owner, spender, value) */\n      0xffffffffffffffffffffffffffffffffffffffff\n      and\n      0x8c5be1e5ebec7d5bd14f71427d1e84f3dd0314c0f7b2291e5b200ac8c7c3b925\n        /* \"@openzeppelin/contracts/token/ERC20/ERC20.sol\":10016:10021  value */\n      dup5\n        /* \"@openzeppelin/contracts/token/ERC20/ERC20.sol\":9991:10022  Approval(owner, spender, value) */\n      mload(0x40)\n      tag_214\n      swap2\n      swap1\n      tag_42\n      jump\t// in\n    tag_214:\n      mload(0x40)\n      dup1\n      swap2\n      sub\n      swap1\n      log3\n        /* \"@openzeppelin/contracts/token/ERC20/ERC20.sol\":9957:10033  if (emitEvent) {... */\n    tag_213:\n        /* \"@openzeppelin/contracts/token/ERC20/ERC20.sol\":9607:10039  function _approve(address owner, address spender, uint256 value, bool emitEvent) internal virtual {... */\n      pop\n      pop\n      pop\n      pop\n      jump\t// out\n        /* \"@openzeppelin/contracts/token/ERC20/ERC20.sol\":5912:7019  function _update(address from, address to, uint256 value) internal virtual {... */\n    tag_196:\n        /* \"@openzeppelin/contracts/token/ERC20/ERC20.sol\":6017:6018  0 */\n      0x00\n        /* \"@openzeppelin/contracts/token/ERC20/ERC20.sol\":6001:6019  from == address(0) */\n      0xffffffffffffffffffffffffffffffffffffffff\n      and\n        /* \"@openzeppelin/contracts/token/ERC20/ERC20.sol\":6001:6005  from */\n      dup4\n        /* \"@openzeppelin/contracts/token/ERC20/ERC20.sol\":6001:6019  from == address(0) */\n      0xffffffffffffffffffffffffffffffffffffffff\n      and\n      sub\n        /* \"@openzeppelin/contracts/token/ERC20/ERC20.sol\":5997:6537  if (from == address(0)) {... */\n      tag_216\n      jumpi\n        /* \"@openzeppelin/contracts/token/ERC20/ERC20.sol\":6153:6158  value */\n      dup1\n        /* \"@openzeppelin/contracts/token/ERC20/ERC20.sol\":6137:6149  _totalSupply */\n      0x02\n      0x00\n        /* \"@openzeppelin/contracts/token/ERC20/ERC20.sol\":6137:6158  _totalSupply += value */\n      dup3\n      dup3\n      sload\n      tag_217\n      swap2\n      swap1\n      tag_166\n      jump\t// in\n    tag_217:\n      swap3\n      pop\n      pop\n      dup2\n      swap1\n      sstore\n      pop\n        /* \"@openzeppelin/contracts/token/ERC20/ERC20.sol\":5997:6537  if (from == address(0)) {... */\n      jump(tag_218)\n    tag_216:\n        /* \"@openzeppelin/contracts/token/ERC20/ERC20.sol\":6189:6208  uint256 fromBalance */\n      0x00\n        /* \"@openzeppelin/contracts/token/ERC20/ERC20.sol\":6211:6220  _balances */\n      0x00\n        /* \"@openzeppelin/contracts/token/ERC20/ERC20.sol\":6211:6226  _balances[from] */\n      0x00\n        /* \"@openzeppelin/contracts/token/ERC20/ERC20.sol\":6221:6225  from */\n      dup6\n        /* \"@openzeppelin/contracts/token/ERC20/ERC20.sol\":6211:6226  _balances[from] */\n      0xffffffffffffffffffffffffffffffffffffffff\n      and\n      0xffffffffffffffffffffffffffffffffffffffff\n      and\n      dup2\n      mstore\n      0x20\n      add\n      swap1\n      dup2\n      mstore\n      0x20\n      add\n      0x00\n      keccak256\n      sload\n        /* \"@openzeppelin/contracts/token/ERC20/ERC20.sol\":6189:6226  uint256 fromBalance = _balances[from] */\n      swap1\n      pop\n        /* \"@openzeppelin/contracts/token/ERC20/ERC20.sol\":6258:6263  value */\n      dup2\n        /* \"@openzeppelin/contracts/token/ERC20/ERC20.sol\":6244:6255  fromBalance */\n      dup2\n        /* \"@openzeppelin/contracts/token/ERC20/ERC20.sol\":6244:6263  fromBalance < value */\n      lt\n        /* \"@openzeppelin/contracts/token/ERC20/ERC20.sol\":6240:6355  if (fromBalance < value) {... */\n      iszero\n      tag_219\n      jumpi\n        /* \"@openzeppelin/contracts/token/ERC20/ERC20.sol\":6315:6319  from */\n      dup4\n        /* \"@openzeppelin/contracts/token/ERC20/ERC20.sol\":6321:6332  fromBalance */\n      dup2\n        /* \"@openzeppelin/contracts/token/ERC20/ERC20.sol\":6334:6339  value */\n      dup4\n        /* \"@openzeppelin/contracts/token/ERC20/ERC20.sol\":6290:6340  ERC20InsufficientBalance(from, fromBalance, value) */\n      mload(0x40)\n      0xe450d38c00000000000000000000000000000000000000000000000000000000\n      dup2\n      mstore\n      0x04\n      add\n      tag_220\n      swap4\n      swap3\n      swap2\n      swap1\n      tag_188\n      jump\t// in\n    tag_220:\n      mload(0x40)\n      dup1\n      swap2\n      sub\n      swap1\n      revert\n        /* \"@openzeppelin/contracts/token/ERC20/ERC20.sol\":6240:6355  if (fromBalance < value) {... */\n    tag_219:\n        /* \"@openzeppelin/contracts/token/ERC20/ERC20.sol\":6507:6512  value */\n      dup2\n        /* \"@openzeppelin/contracts/token/ERC20/ERC20.sol\":6493:6504  fromBalance */\n      dup2\n        /* \"@openzeppelin/contracts/token/ERC20/ERC20.sol\":6493:6512  fromBalance - value */\n      sub\n        /* \"@openzeppelin/contracts/token/ERC20/ERC20.sol\":6475:6484  _balances */\n      0x00\n        /* \"@openzeppelin/contracts/token/ERC20/ERC20.sol\":6475:6490  _balances[from] */\n      0x00\n        /* \"@openzeppelin/contracts/token/ERC20/ERC20.sol\":6485:6489  from */\n      dup7\n        /* \"@openzeppelin/contracts/token/ERC20/ERC20.sol\":6475:6490  _balances[from] */\n      0xffffffffffffffffffffffffffffffffffffffff\n      and\n      0xffffffffffffffffffffffffffffffffffffffff\n      and\n      dup2\n      mstore\n      0x20\n      add\n      swap1\n      dup2\n      mstore\n      0x20\n      add\n      0x00\n      keccak256\n        /* \"@openzeppelin/contracts/token/ERC20/ERC20.sol\":6475:6512  _balances[from] = fromBalance - value */\n      dup2\n      swap1\n      sstore\n      pop\n        /* \"@openzeppelin/contracts/token/ERC20/ERC20.sol\":6175:6537  {... */\n      pop\n        /* \"@openzeppelin/contracts/token/ERC20/ERC20.sol\":5997:6537  if (from == address(0)) {... */\n    tag_218:\n        /* \"@openzeppelin/contracts/token/ERC20/ERC20.sol\":6565:6566  0 */\n      0x00\n        /* \"@openzeppelin/contracts/token/ERC20/ERC20.sol\":6551:6567  to == address(0) */\n      0xffffffffffffffffffffffffffffffffffffffff\n      and\n        /* \"@openzeppelin/contracts/token/ERC20/ERC20.sol\":6551:6553  to */\n      dup3\n        /* \"@openzeppelin/contracts/token/ERC20/ERC20.sol\":6551:6567  to == address(0) */\n      0xffffffffffffffffffffffffffffffffffffffff\n      and\n      sub\n        /* \"@openzeppelin/contracts/token/ERC20/ERC20.sol\":6547:6972  if (to == address(0)) {... */\n      tag_221\n      jumpi\n        /* \"@openzeppelin/contracts/token/ERC20/ERC20.sol\":6730:6735  value */\n      dup1\n        /* \"@openzeppelin/contracts/token/ERC20/ERC20.sol\":6714:6726  _totalSupply */\n      0x02\n      0x00\n        /* \"@openzeppelin/contracts/token/ERC20/ERC20.sol\":6714:6735  _totalSupply -= value */\n      dup3\n      dup3\n      sload\n      sub\n      swap3\n      pop\n      pop\n      dup2\n      swap1\n      sstore\n      pop\n        /* \"@openzeppelin/contracts/token/ERC20/ERC20.sol\":6547:6972  if (to == address(0)) {... */\n      jump(tag_222)\n    tag_221:\n        /* \"@openzeppelin/contracts/token/ERC20/ERC20.sol\":6942:6947  value */\n      dup1\n        /* \"@openzeppelin/contracts/token/ERC20/ERC20.sol\":6925:6934  _balances */\n      0x00\n        /* \"@openzeppelin/contracts/token/ERC20/ERC20.sol\":6925:6938  _balances[to] */\n      0x00\n        /* \"@openzeppelin/contracts/token/ERC20/ERC20.sol\":6935:6937  to */\n      dup5\n        /* \"@openzeppelin/contracts/token/ERC20/ERC20.sol\":6925:6938  _balances[to] */\n      0xffffffffffffffffffffffffffffffffffffffff\n      and\n      0xffffffffffffffffffffffffffffffffffffffff\n      and\n      dup2\n      mstore\n      0x20\n      add\n      swap1\n      dup2\n      mstore\n      0x20\n      add\n      0x00\n      keccak256\n      0x00\n        /* \"@openzeppelin/contracts/token/ERC20/ERC20.sol\":6925:6947  _balances[to] += value */\n      dup3\n      dup3\n      sload\n      add\n      swap3\n      pop\n      pop\n      dup2\n      swap1\n      sstore\n      pop\n        /* \"@openzeppelin/contracts/token/ERC20/ERC20.sol\":6547:6972  if (to == address(0)) {... */\n    tag_222:\n        /* \"@openzeppelin/contracts/token/ERC20/ERC20.sol\":7002:7004  to */\n      dup2\n        /* \"@openzeppelin/contracts/token/ERC20/ERC20.sol\":6987:7012  Transfer(from, to, value) */\n      0xffffffffffffffffffffffffffffffffffffffff\n      and\n        /* \"@openzeppelin/contracts/token/ERC20/ERC20.sol\":6996:7000  from */\n      dup4\n        /* \"@openzeppelin/contracts/token/ERC20/ERC20.sol\":6987:7012  Transfer(from, to, value) */\n      0xffffffffffffffffffffffffffffffffffffffff\n      and\n      0xddf252ad1be2c89b69c2b068fc378daa952ba7f163c4a11628f55a4df523b3ef\n        /* \"@openzeppelin/contracts/token/ERC20/ERC20.sol\":7006:7011  value */\n      dup4\n        /* \"@openzeppelin/contracts/token/ERC20/ERC20.sol\":6987:7012  Transfer(from, to, value) */\n      mload(0x40)\n      tag_223\n      swap2\n      swap1\n      tag_42\n      jump\t// in\n    tag_223:\n      mload(0x40)\n      dup1\n      swap2\n      sub\n      swap1\n      log3\n        /* \"@openzeppelin/contracts/token/ERC20/ERC20.sol\":5912:7019  function _update(address from, address to, uint256 value) internal virtual {... */\n      pop\n      pop\n      pop\n      jump\t// out\n        /* \"#utility.yul\":7:106   */\n    tag_224:\n        /* \"#utility.yul\":59:65   */\n      0x00\n        /* \"#utility.yul\":93:98   */\n      dup2\n        /* \"#utility.yul\":87:99   */\n      mload\n        /* \"#utility.yul\":77:99   */\n      swap1\n      pop\n        /* \"#utility.yul\":7:106   */\n      swap2\n      swap1\n      pop\n      jump\t// out\n        /* \"#utility.yul\":112:281   */\n    tag_225:\n        /* \"#utility.yul\":196:207   */\n      0x00\n        /* \"#utility.yul\":230:236   */\n      dup3\n        /* \"#utility.yul\":225:228   */\n      dup3\n        /* \"#utility.yul\":218:237   */\n      mstore\n        /* \"#utility.yul\":270:274   */\n      0x20\n        /* \"#utility.yul\":265:268   */\n      dup3\n        /* \"#utility.yul\":261:275   */\n      add\n        /* \"#utility.yul\":246:275   */\n      swap1\n      pop\n        /* \"#utility.yul\":112:281   */\n      swap3\n      swap2\n      pop\n      pop\n      jump\t// out\n        /* \"#utility.yul\":287:426   */\n    tag_226:\n        /* \"#utility.yul\":376:382   */\n      dup3\n        /* \"#utility.yul\":371:374   */\n      dup2\n        /* \"#utility.yul\":366:369   */\n      dup4\n        /* \"#utility.yul\":360:383   */\n      mcopy\n        /* \"#utility.yul\":417:418   */\n      0x00\n        /* \"#utility.yul\":408:414   */\n      dup4\n        /* \"#utility.yul\":403:406   */\n      dup4\n        /* \"#utility.yul\":399:415   */\n      add\n        /* \"#utility.yul\":392:419   */\n      mstore\n        /* \"#utility.yul\":287:426   */\n      pop\n      pop\n      pop\n      jump\t// out\n        /* \"#utility.yul\":432:534   */\n    tag_227:\n        /* \"#utility.yul\":473:479   */\n      0x00\n        /* \"#utility.yul\":524:526   */\n      0x1f\n        /* \"#utility.yul\":520:527   */\n      not\n        /* \"#utility.yul\":515:517   */\n      0x1f\n        /* \"#utility.yul\":508:513   */\n      dup4\n        /* \"#utility.yul\":504:518   */\n      add\n        /* \"#utility.yul\":500:528   */\n      and\n        /* \"#utility.yul\":490:528   */\n      swap1\n      pop\n        /* \"#utility.yul\":432:534   */\n      swap2\n      swap1\n      pop\n      jump\t// out\n        /* \"#utility.yul\":540:917   */\n    tag_228:\n        /* \"#utility.yul\":628:631   */\n      0x00\n        /* \"#utility.yul\":656:695   */\n      tag_271\n        /* \"#utility.yul\":689:694   */\n      dup3\n        /* \"#utility.yul\":656:695   */\n      tag_224\n      jump\t// in\n    tag_271:\n        /* \"#utility.yul\":711:782   */\n      tag_272\n        /* \"#utility.yul\":775:781   */\n      dup2\n        /* \"#utility.yul\":770:773   */\n      dup6\n        /* \"#utility.yul\":711:782   */\n      tag_225\n      jump\t// in\n    tag_272:\n        /* \"#utility.yul\":704:782   */\n      swap4\n      pop\n        /* \"#utility.yul\":791:856   */\n      tag_273\n        /* \"#utility.yul\":849:855   */\n      dup2\n        /* \"#utility.yul\":844:847   */\n      dup6\n        /* \"#utility.yul\":837:841   */\n      0x20\n        /* \"#utility.yul\":830:835   */\n      dup7\n        /* \"#utility.yul\":826:842   */\n      add\n        /* \"#utility.yul\":791:856   */\n      tag_226\n      jump\t// in\n    tag_273:\n        /* \"#utility.yul\":881:910   */\n      tag_274\n        /* \"#utility.yul\":903:909   */\n      dup2\n        /* \"#utility.yul\":881:910   */\n      tag_227\n      jump\t// in\n    tag_274:\n        /* \"#utility.yul\":876:879   */\n      dup5\n        /* \"#utility.yul\":872:911   */\n      add\n        /* \"#utility.yul\":865:911   */\n      swap2\n      pop\n        /* \"#utility.yul\":632:917   */\n      pop\n        /* \"#utility.yul\":540:917   */\n      swap3\n      swap2\n      pop\n      pop\n      jump\t// out\n        /* \"#utility.yul\":923:1236   */\n    tag_32:\n        /* \"#utility.yul\":1036:1040   */\n      0x00\n        /* \"#utility.yul\":1074:1076   */\n      0x20\n        /* \"#utility.yul\":1063:1072   */\n      dup3\n        /* \"#utility.yul\":1059:1077   */\n      add\n        /* \"#utility.yul\":1051:1077   */\n      swap1\n      pop\n        /* \"#utility.yul\":1123:1132   */\n      dup2\n        /* \"#utility.yul\":1117:1121   */\n      dup2\n        /* \"#utility.yul\":1113:1133   */\n      sub\n        /* \"#utility.yul\":1109:1110   */\n      0x00\n        /* \"#utility.yul\":1098:1107   */\n      dup4\n        /* \"#utility.yul\":1094:1111   */\n      add\n        /* \"#utility.yul\":1087:1134   */\n      mstore\n        /* \"#utility.yul\":1151:1229   */\n      tag_276\n        /* \"#utility.yul\":1224:1228   */\n      dup2\n        /* \"#utility.yul\":1215:1221   */\n      dup5\n        /* \"#utility.yul\":1151:1229   */\n      tag_228\n      jump\t// in\n    tag_276:\n        /* \"#utility.yul\":1143:1229   */\n      swap1\n      pop\n        /* \"#utility.yul\":923:1236   */\n      swap3\n      swap2\n      pop\n      pop\n      jump\t// out\n        /* \"#utility.yul\":1323:1440   */\n    tag_230:\n        /* \"#utility.yul\":1432:1433   */\n      0x00\n        /* \"#utility.yul\":1429:1430   */\n      0x00\n        /* \"#utility.yul\":1422:1434   */\n      revert\n        /* \"#utility.yul\":1446:1563   */\n    tag_231:\n        /* \"#utility.yul\":1555:1556   */\n      0x00\n        /* \"#utility.yul\":1552:1553   */\n      0x00\n        /* \"#utility.yul\":1545:1557   */\n      revert\n        /* \"#utility.yul\":1569:1695   */\n    tag_232:\n        /* \"#utility.yul\":1606:1613   */\n      0x00\n        /* \"#utility.yul\":1646:1688   */\n      0xffffffffffffffffffffffffffffffffffffffff\n        /* \"#utility.yul\":1639:1644   */\n      dup3\n        /* \"#utility.yul\":1635:1689   */\n      and\n        /* \"#utility.yul\":1624:1689   */\n      swap1\n      pop\n        /* \"#utility.yul\":1569:1695   */\n      swap2\n      swap1\n      pop\n      jump\t// out\n        /* \"#utility.yul\":1701:1797   */\n    tag_233:\n        /* \"#utility.yul\":1738:1745   */\n      0x00\n        /* \"#utility.yul\":1767:1791   */\n      tag_282\n        /* \"#utility.yul\":1785:1790   */\n      dup3\n        /* \"#utility.yul\":1767:1791   */\n      tag_232\n      jump\t// in\n    tag_282:\n        /* \"#utility.yul\":1756:1791   */\n      swap1\n      pop\n        /* \"#utility.yul\":1701:1797   */\n      swap2\n      swap1\n      pop\n      jump\t// out\n        /* \"#utility.yul\":1803:1925   */\n    tag_234:\n        /* \"#utility.yul\":1876:1900   */\n      tag_284\n        /* \"#utility.yul\":1894:1899   */\n      dup2\n        /* \"#utility.yul\":1876:1900   */\n      tag_233\n      jump\t// in\n    tag_284:\n        /* \"#utility.yul\":1869:1874   */\n      dup2\n        /* \"#utility.yul\":1866:1901   */\n      eq\n        /* \"#utility.yul\":1856:1919   */\n      tag_285\n      jumpi\n        /* \"#utility.yul\":1915:1916   */\n      0x00\n        /* \"#utility.yul\":1912:1913   */\n      0x00\n        /* \"#utility.yul\":1905:1917   */\n      revert\n        /* \"#utility.yul\":1856:1919   */\n    tag_285:\n        /* \"#utility.yul\":1803:1925   */\n      pop\n      jump\t// out\n        /* \"#utility.yul\":1931:2070   */\n    tag_235:\n        /* \"#utility.yul\":1977:1982   */\n      0x00\n        /* \"#utility.yul\":2015:2021   */\n      dup2\n        /* \"#utility.yul\":2002:2022   */\n      calldataload\n        /* \"#utility.yul\":1993:2022   */\n      swap1\n      pop\n        /* \"#utility.yul\":2031:2064   */\n      tag_287\n        /* \"#utility.yul\":2058:2063   */\n      dup2\n        /* \"#utility.yul\":2031:2064   */\n      tag_234\n      jump\t// in\n    tag_287:\n        /* \"#utility.yul\":1931:2070   */\n      swap3\n      swap2\n      pop\n      pop\n      jump\t// out\n        /* \"#utility.yul\":2076:2153   */\n    tag_236:\n        /* \"#utility.yul\":2113:2120   */\n      0x00\n        /* \"#utility.yul\":2142:2147   */\n      dup2\n        /* \"#utility.yul\":2131:2147   */\n      swap1\n      pop\n        /* \"#utility.yul\":2076:2153   */\n      swap2\n      swap1\n      pop\n      jump\t// out\n        /* \"#utility.yul\":2159:2281   */\n    tag_237:\n        /* \"#utility.yul\":2232:2256   */\n      tag_290\n        /* \"#utility.yul\":2250:2255   */\n      dup2\n        /* \"#utility.yul\":2232:2256   */\n      tag_236\n      jump\t// in\n    tag_290:\n        /* \"#utility.yul\":2225:2230   */\n      dup2\n        /* \"#utility.yul\":2222:2257   */\n      eq\n        /* \"#utility.yul\":2212:2275   */\n      tag_291\n      jumpi\n        /* \"#utility.yul\":2271:2272   */\n      0x00\n        /* \"#utility.yul\":2268:2269   */\n      0x00\n        /* \"#utility.yul\":2261:2273   */\n      revert\n        /* \"#utility.yul\":2212:2275   */\n    tag_291:\n        /* \"#utility.yul\":2159:2281   */\n      pop\n      jump\t// out\n        /* \"#utility.yul\":2287:2426   */\n    tag_238:\n        /* \"#utility.yul\":2333:2338   */\n      0x00\n        /* \"#utility.yul\":2371:2377   */\n      dup2\n        /* \"#utility.yul\":2358:2378   */\n      calldataload\n        /* \"#utility.yul\":2349:2378   */\n      swap1\n      pop\n        /* \"#utility.yul\":2387:2420   */\n      tag_293\n        /* \"#utility.yul\":2414:2419   */\n      dup2\n        /* \"#utility.yul\":2387:2420   */\n      tag_237\n      jump\t// in\n    tag_293:\n        /* \"#utility.yul\":2287:2426   */\n      swap3\n      swap2\n      pop\n      pop\n      jump\t// out\n        /* \"#utility.yul\":2432:2906   */\n    tag_35:\n        /* \"#utility.yul\":2500:2506   */\n      0x00\n        /* \"#utility.yul\":2508:2514   */\n      0x00\n        /* \"#utility.yul\":2557:2559   */\n      0x40\n        /* \"#utility.yul\":2545:2554   */\n      dup4\n        /* \"#utility.yul\":2536:2543   */\n      dup6\n        /* \"#utility.yul\":2532:2555   */\n      sub\n        /* \"#utility.yul\":2528:2560   */\n      slt\n        /* \"#utility.yul\":2525:2644   */\n      iszero\n      tag_295\n      jumpi\n        /* \"#utility.yul\":2563:2642   */\n      tag_296\n      tag_230\n      jump\t// in\n    tag_296:\n        /* \"#utility.yul\":2525:2644   */\n    tag_295:\n        /* \"#utility.yul\":2683:2684   */\n      0x00\n        /* \"#utility.yul\":2708:2761   */\n      tag_297\n        /* \"#utility.yul\":2753:2760   */\n      dup6\n        /* \"#utility.yul\":2744:2750   */\n      dup3\n        /* \"#utility.yul\":2733:2742   */\n      dup7\n        /* \"#utility.yul\":2729:2751   */\n      add\n        /* \"#utility.yul\":2708:2761   */\n      tag_235\n      jump\t// in\n    tag_297:\n        /* \"#utility.yul\":2698:2761   */\n      swap3\n      pop\n        /* \"#utility.yul\":2654:2771   */\n      pop\n        /* \"#utility.yul\":2810:2812   */\n      0x20\n        /* \"#utility.yul\":2836:2889   */\n      tag_298\n        /* \"#utility.yul\":2881:2888   */\n      dup6\n        /* \"#utility.yul\":2872:2878   */\n      dup3\n        /* \"#utility.yul\":2861:2870   */\n      dup7\n        /* \"#utility.yul\":2857:2879   */\n      add\n        /* \"#utility.yul\":2836:2889   */\n      tag_238\n      jump\t// in\n    tag_298:\n        /* \"#utility.yul\":2826:2889   */\n      swap2\n      pop\n        /* \"#utility.yul\":2781:2899   */\n      pop\n        /* \"#utility.yul\":2432:2906   */\n      swap3\n      pop\n      swap3\n      swap1\n      pop\n      jump\t// out\n        /* \"#utility.yul\":2912:3002   */\n    tag_239:\n        /* \"#utility.yul\":2946:2953   */\n      0x00\n        /* \"#utility.yul\":2989:2994   */\n      dup2\n        /* \"#utility.yul\":2982:2995   */\n      iszero\n        /* \"#utility.yul\":2975:2996   */\n      iszero\n        /* \"#utility.yul\":2964:2996   */\n      swap1\n      pop\n        /* \"#utility.yul\":2912:3002   */\n      swap2\n      swap1\n      pop\n      jump\t// out\n        /* \"#utility.yul\":3008:3117   */\n    tag_240:\n        /* \"#utility.yul\":3089:3110   */\n      tag_301\n        /* \"#utility.yul\":3104:3109   */\n      dup2\n        /* \"#utility.yul\":3089:3110   */\n      tag_239\n      jump\t// in\n    tag_301:\n        /* \"#utility.yul\":3084:3087   */\n      dup3\n        /* \"#utility.yul\":3077:3111   */\n      mstore\n        /* \"#utility.yul\":3008:3117   */\n      pop\n      pop\n      jump\t// out\n        /* \"#utility.yul\":3123:3333   */\n    tag_38:\n        /* \"#utility.yul\":3210:3214   */\n      0x00\n        /* \"#utility.yul\":3248:3250   */\n      0x20\n        /* \"#utility.yul\":3237:3246   */\n      dup3\n        /* \"#utility.yul\":3233:3251   */\n      add\n        /* \"#utility.yul\":3225:3251   */\n      swap1\n      pop\n        /* \"#utility.yul\":3261:3326   */\n      tag_303\n        /* \"#utility.yul\":3323:3324   */\n      0x00\n        /* \"#utility.yul\":3312:3321   */\n      dup4\n        /* \"#utility.yul\":3308:3325   */\n      add\n        /* \"#utility.yul\":3299:3305   */\n      dup5\n        /* \"#utility.yul\":3261:3326   */\n      tag_240\n      jump\t// in\n    tag_303:\n        /* \"#utility.yul\":3123:3333   */\n      swap3\n      swap2\n      pop\n      pop\n      jump\t// out\n        /* \"#utility.yul\":3339:3457   */\n    tag_241:\n        /* \"#utility.yul\":3426:3450   */\n      tag_305\n        /* \"#utility.yul\":3444:3449   */\n      dup2\n        /* \"#utility.yul\":3426:3450   */\n      tag_236\n      jump\t// in\n    tag_305:\n        /* \"#utility.yul\":3421:3424   */\n      dup3\n        /* \"#utility.yul\":3414:3451   */\n      mstore\n        /* \"#utility.yul\":3339:3457   */\n      pop\n      pop\n      jump\t// out\n        /* \"#utility.yul\":3463:3685   */\n    tag_42:\n        /* \"#utility.yul\":3556:3560   */\n      0x00\n        /* \"#utility.yul\":3594:3596   */\n      0x20\n        /* \"#utility.yul\":3583:3592   */\n      dup3\n        /* \"#utility.yul\":3579:3597   */\n      add\n        /* \"#utility.yul\":3571:3597   */\n      swap1\n      pop\n        /* \"#utility.yul\":3607:3678   */\n      tag_307\n        /* \"#utility.yul\":3675:3676   */\n      0x00\n        /* \"#utility.yul\":3664:3673   */\n      dup4\n        /* \"#utility.yul\":3660:3677   */\n      add\n        /* \"#utility.yul\":3651:3657   */\n      dup5\n        /* \"#utility.yul\":3607:3678   */\n      tag_241\n      jump\t// in\n    tag_307:\n        /* \"#utility.yul\":3463:3685   */\n      swap3\n      swap2\n      pop\n      pop\n      jump\t// out\n        /* \"#utility.yul\":3691:4310   */\n    tag_45:\n        /* \"#utility.yul\":3768:3774   */\n      0x00\n        /* \"#utility.yul\":3776:3782   */\n      0x00\n        /* \"#utility.yul\":3784:3790   */\n      0x00\n        /* \"#utility.yul\":3833:3835   */\n      0x60\n        /* \"#utility.yul\":3821:3830   */\n      dup5\n        /* \"#utility.yul\":3812:3819   */\n      dup7\n        /* \"#utility.yul\":3808:3831   */\n      sub\n        /* \"#utility.yul\":3804:3836   */\n      slt\n        /* \"#utility.yul\":3801:3920   */\n      iszero\n      tag_309\n      jumpi\n        /* \"#utility.yul\":3839:3918   */\n      tag_310\n      tag_230\n      jump\t// in\n    tag_310:\n        /* \"#utility.yul\":3801:3920   */\n    tag_309:\n        /* \"#utility.yul\":3959:3960   */\n      0x00\n        /* \"#utility.yul\":3984:4037   */\n      tag_311\n        /* \"#utility.yul\":4029:4036   */\n      dup7\n        /* \"#utility.yul\":4020:4026   */\n      dup3\n        /* \"#utility.yul\":4009:4018   */\n      dup8\n        /* \"#utility.yul\":4005:4027   */\n      add\n        /* \"#utility.yul\":3984:4037   */\n      tag_235\n      jump\t// in\n    tag_311:\n        /* \"#utility.yul\":3974:4037   */\n      swap4\n      pop\n        /* \"#utility.yul\":3930:4047   */\n      pop\n        /* \"#utility.yul\":4086:4088   */\n      0x20\n        /* \"#utility.yul\":4112:4165   */\n      tag_312\n        /* \"#utility.yul\":4157:4164   */\n      dup7\n        /* \"#utility.yul\":4148:4154   */\n      dup3\n        /* \"#utility.yul\":4137:4146   */\n      dup8\n        /* \"#utility.yul\":4133:4155   */\n      add\n        /* \"#utility.yul\":4112:4165   */\n      tag_235\n      jump\t// in\n    tag_312:\n        /* \"#utility.yul\":4102:4165   */\n      swap3\n      pop\n        /* \"#utility.yul\":4057:4175   */\n      pop\n        /* \"#utility.yul\":4214:4216   */\n      0x40\n        /* \"#utility.yul\":4240:4293   */\n      tag_313\n        /* \"#utility.yul\":4285:4292   */\n      dup7\n        /* \"#utility.yul\":4276:4282   */\n      dup3\n        /* \"#utility.yul\":4265:4274   */\n      dup8\n        /* \"#utility.yul\":4261:4283   */\n      add\n        /* \"#utility.yul\":4240:4293   */\n      tag_238\n      jump\t// in\n    tag_313:\n        /* \"#utility.yul\":4230:4293   */\n      swap2\n      pop\n        /* \"#utility.yul\":4185:4303   */\n      pop\n        /* \"#utility.yul\":3691:4310   */\n      swap3\n      pop\n      swap3\n      pop\n      swap3\n      jump\t// out\n        /* \"#utility.yul\":4316:4414   */\n    tag_242:\n        /* \"#utility.yul\":4367:4373   */\n      0x00\n        /* \"#utility.yul\":4401:4406   */\n      dup2\n        /* \"#utility.yul\":4395:4407   */\n      mload\n        /* \"#utility.yul\":4385:4407   */\n      swap1\n      pop\n        /* \"#utility.yul\":4316:4414   */\n      swap2\n      swap1\n      pop\n      jump\t// out\n        /* \"#utility.yul\":4420:4588   */\n    tag_243:\n        /* \"#utility.yul\":4503:4514   */\n      0x00\n        /* \"#utility.yul\":4537:4543   */\n      dup3\n        /* \"#utility.yul\":4532:4535   */\n      dup3\n        /* \"#utility.yul\":4525:4544   */\n      mstore\n        /* \"#utility.yul\":4577:4581   */\n      0x20\n        /* \"#utility.yul\":4572:4575   */\n      dup3\n        /* \"#utility.yul\":4568:4582   */\n      add\n        /* \"#utility.yul\":4553:4582   */\n      swap1\n      pop\n        /* \"#utility.yul\":4420:4588   */\n      swap3\n      swap2\n      pop\n      pop\n      jump\t// out\n        /* \"#utility.yul\":4594:4967   */\n    tag_244:\n        /* \"#utility.yul\":4680:4683   */\n      0x00\n        /* \"#utility.yul\":4708:4746   */\n      tag_317\n        /* \"#utility.yul\":4740:4745   */\n      dup3\n        /* \"#utility.yul\":4708:4746   */\n      tag_242\n      jump\t// in\n    tag_317:\n        /* \"#utility.yul\":4762:4832   */\n      tag_318\n        /* \"#utility.yul\":4825:4831   */\n      dup2\n        /* \"#utility.yul\":4820:4823   */\n      dup6\n        /* \"#utility.yul\":4762:4832   */\n      tag_243\n      jump\t// in\n    tag_318:\n        /* \"#utility.yul\":4755:4832   */\n      swap4\n      pop\n        /* \"#utility.yul\":4841:4906   */\n      tag_319\n        /* \"#utility.yul\":4899:4905   */\n      dup2\n        /* \"#utility.yul\":4894:4897   */\n      dup6\n        /* \"#utility.yul\":4887:4891   */\n      0x20\n        /* \"#utility.yul\":4880:4885   */\n      dup7\n        /* \"#utility.yul\":4876:4892   */\n      add\n        /* \"#utility.yul\":4841:4906   */\n      tag_226\n      jump\t// in\n    tag_319:\n        /* \"#utility.yul\":4931:4960   */\n      tag_320\n        /* \"#utility.yul\":4953:4959   */\n      dup2\n        /* \"#utility.yul\":4931:4960   */\n      tag_227\n      jump\t// in\n    tag_320:\n        /* \"#utility.yul\":4926:4929   */\n      dup5\n        /* \"#utility.yul\":4922:4961   */\n      add\n        /* \"#utility.yul\":4915:4961   */\n      swap2\n      pop\n        /* \"#utility.yul\":4684:4967   */\n      pop\n        /* \"#utility.yul\":4594:4967   */\n      swap3\n      swap2\n      pop\n      pop\n      jump\t// out\n        /* \"#utility.yul\":4973:5282   */\n    tag_51:\n        /* \"#utility.yul\":5084:5088   */\n      0x00\n        /* \"#utility.yul\":5122:5124   */\n      0x20\n        /* \"#utility.yul\":5111:5120   */\n      dup3\n        /* \"#utility.yul\":5107:5125   */\n      add\n        /* \"#utility.yul\":5099:5125   */\n      swap1\n      pop\n        /* \"#utility.yul\":5171:5180   */\n      dup2\n        /* \"#utility.yul\":5165:5169   */\n      dup2\n        /* \"#utility.yul\":5161:5181   */\n      sub\n        /* \"#utility.yul\":5157:5158   */\n      0x00\n        /* \"#utility.yul\":5146:5155   */\n      dup4\n        /* \"#utility.yul\":5142:5159   */\n      add\n        /* \"#utility.yul\":5135:5182   */\n      mstore\n        /* \"#utility.yul\":5199:5275   */\n      tag_322\n        /* \"#utility.yul\":5270:5274   */\n      dup2\n        /* \"#utility.yul\":5261:5267   */\n      dup5\n        /* \"#utility.yul\":5199:5275   */\n      tag_244\n      jump\t// in\n    tag_322:\n        /* \"#utility.yul\":5191:5275   */\n      swap1\n      pop\n        /* \"#utility.yul\":4973:5282   */\n      swap3\n      swap2\n      pop\n      pop\n      jump\t// out\n        /* \"#utility.yul\":5288:5374   */\n    tag_245:\n        /* \"#utility.yul\":5323:5330   */\n      0x00\n        /* \"#utility.yul\":5363:5367   */\n      0xff\n        /* \"#utility.yul\":5356:5361   */\n      dup3\n        /* \"#utility.yul\":5352:5368   */\n      and\n        /* \"#utility.yul\":5341:5368   */\n      swap1\n      pop\n        /* \"#utility.yul\":5288:5374   */\n      swap2\n      swap1\n      pop\n      jump\t// out\n        /* \"#utility.yul\":5380:5492   */\n    tag_246:\n        /* \"#utility.yul\":5463:5485   */\n      tag_325\n        /* \"#utility.yul\":5479:5484   */\n      dup2\n        /* \"#utility.yul\":5463:5485   */\n      tag_245\n      jump\t// in\n    tag_325:\n        /* \"#utility.yul\":5458:5461   */\n      dup3\n        /* \"#utility.yul\":5451:5486   */\n      mstore\n        /* \"#utility.yul\":5380:5492   */\n      pop\n      pop\n      jump\t// out\n        /* \"#utility.yul\":5498:5712   */\n    tag_58:\n        /* \"#utility.yul\":5587:5591   */\n      0x00\n        /* \"#utility.yul\":5625:5627   */\n      0x20\n        /* \"#utility.yul\":5614:5623   */\n      dup3\n        /* \"#utility.yul\":5610:5628   */\n      add\n        /* \"#utility.yul\":5602:5628   */\n      swap1\n      pop\n        /* \"#utility.yul\":5638:5705   */\n      tag_327\n        /* \"#utility.yul\":5702:5703   */\n      0x00\n        /* \"#utility.yul\":5691:5700   */\n      dup4\n        /* \"#utility.yul\":5687:5704   */\n      add\n        /* \"#utility.yul\":5678:5684   */\n      dup5\n        /* \"#utility.yul\":5638:5705   */\n      tag_246\n      jump\t// in\n    tag_327:\n        /* \"#utility.yul\":5498:5712   */\n      swap3\n      swap2\n      pop\n      pop\n      jump\t// out\n        /* \"#utility.yul\":5718:6047   */\n    tag_61:\n        /* \"#utility.yul\":5777:5783   */\n      0x00\n        /* \"#utility.yul\":5826:5828   */\n      0x20\n        /* \"#utility.yul\":5814:5823   */\n      dup3\n        /* \"#utility.yul\":5805:5812   */\n      dup5\n        /* \"#utility.yul\":5801:5824   */\n      sub\n        /* \"#utility.yul\":5797:5829   */\n      slt\n        /* \"#utility.yul\":5794:5913   */\n      iszero\n      tag_329\n      jumpi\n        /* \"#utility.yul\":5832:5911   */\n      tag_330\n      tag_230\n      jump\t// in\n    tag_330:\n        /* \"#utility.yul\":5794:5913   */\n    tag_329:\n        /* \"#utility.yul\":5952:5953   */\n      0x00\n        /* \"#utility.yul\":5977:6030   */\n      tag_331\n        /* \"#utility.yul\":6022:6029   */\n      dup5\n        /* \"#utility.yul\":6013:6019   */\n      dup3\n        /* \"#utility.yul\":6002:6011   */\n      dup6\n        /* \"#utility.yul\":5998:6020   */\n      add\n        /* \"#utility.yul\":5977:6030   */\n      tag_235\n      jump\t// in\n    tag_331:\n        /* \"#utility.yul\":5967:6030   */\n      swap2\n      pop\n        /* \"#utility.yul\":5923:6040   */\n      pop\n        /* \"#utility.yul\":5718:6047   */\n      swap3\n      swap2\n      pop\n      pop\n      jump\t// out\n        /* \"#utility.yul\":6053:6130   */\n    tag_247:\n        /* \"#utility.yul\":6090:6097   */\n      0x00\n        /* \"#utility.yul\":6119:6124   */\n      dup2\n        /* \"#utility.yul\":6108:6124   */\n      swap1\n      pop\n        /* \"#utility.yul\":6053:6130   */\n      swap2\n      swap1\n      pop\n      jump\t// out\n        /* \"#utility.yul\":6136:6254   */\n    tag_248:\n        /* \"#utility.yul\":6223:6247   */\n      tag_334\n        /* \"#utility.yul\":6241:6246   */\n      dup2\n        /* \"#utility.yul\":6223:6247   */\n      tag_247\n      jump\t// in\n    tag_334:\n        /* \"#utility.yul\":6218:6221   */\n      dup3\n        /* \"#utility.yul\":6211:6248   */\n      mstore\n        /* \"#utility.yul\":6136:6254   */\n      pop\n      pop\n      jump\t// out\n        /* \"#utility.yul\":6260:6482   */\n    tag_82:\n        /* \"#utility.yul\":6353:6357   */\n      0x00\n        /* \"#utility.yul\":6391:6393   */\n      0x20\n        /* \"#utility.yul\":6380:6389   */\n      dup3\n        /* \"#utility.yul\":6376:6394   */\n      add\n        /* \"#utility.yul\":6368:6394   */\n      swap1\n      pop\n        /* \"#utility.yul\":6404:6475   */\n      tag_336\n        /* \"#utility.yul\":6472:6473   */\n      0x00\n        /* \"#utility.yul\":6461:6470   */\n      dup4\n        /* \"#utility.yul\":6457:6474   */\n      add\n        /* \"#utility.yul\":6448:6454   */\n      dup5\n        /* \"#utility.yul\":6404:6475   */\n      tag_248\n      jump\t// in\n    tag_336:\n        /* \"#utility.yul\":6260:6482   */\n      swap3\n      swap2\n      pop\n      pop\n      jump\t// out\n        /* \"#utility.yul\":6488:6606   */\n    tag_249:\n        /* \"#utility.yul\":6575:6599   */\n      tag_338\n        /* \"#utility.yul\":6593:6598   */\n      dup2\n        /* \"#utility.yul\":6575:6599   */\n      tag_233\n      jump\t// in\n    tag_338:\n        /* \"#utility.yul\":6570:6573   */\n      dup3\n        /* \"#utility.yul\":6563:6600   */\n      mstore\n        /* \"#utility.yul\":6488:6606   */\n      pop\n      pop\n      jump\t// out\n        /* \"#utility.yul\":6612:6834   */\n    tag_86:\n        /* \"#utility.yul\":6705:6709   */\n      0x00\n        /* \"#utility.yul\":6743:6745   */\n      0x20\n        /* \"#utility.yul\":6732:6741   */\n      dup3\n        /* \"#utility.yul\":6728:6746   */\n      add\n        /* \"#utility.yul\":6720:6746   */\n      swap1\n      pop\n        /* \"#utility.yul\":6756:6827   */\n      tag_340\n        /* \"#utility.yul\":6824:6825   */\n      0x00\n        /* \"#utility.yul\":6813:6822   */\n      dup4\n        /* \"#utility.yul\":6809:6826   */\n      add\n        /* \"#utility.yul\":6800:6806   */\n      dup5\n        /* \"#utility.yul\":6756:6827   */\n      tag_249\n      jump\t// in\n    tag_340:\n        /* \"#utility.yul\":6612:6834   */\n      swap3\n      swap2\n      pop\n      pop\n      jump\t// out\n        /* \"#utility.yul\":6840:7314   */\n    tag_105:\n        /* \"#utility.yul\":6908:6914   */\n      0x00\n        /* \"#utility.yul\":6916:6922   */\n      0x00\n        /* \"#utility.yul\":6965:6967   */\n      0x40\n        /* \"#utility.yul\":6953:6962   */\n      dup4\n        /* \"#utility.yul\":6944:6951   */\n      dup6\n        /* \"#utility.yul\":6940:6963   */\n      sub\n        /* \"#utility.yul\":6936:6968   */\n      slt\n        /* \"#utility.yul\":6933:7052   */\n      iszero\n      tag_342\n      jumpi\n        /* \"#utility.yul\":6971:7050   */\n      tag_343\n      tag_230\n      jump\t// in\n    tag_343:\n        /* \"#utility.yul\":6933:7052   */\n    tag_342:\n        /* \"#utility.yul\":7091:7092   */\n      0x00\n        /* \"#utility.yul\":7116:7169   */\n      tag_344\n        /* \"#utility.yul\":7161:7168   */\n      dup6\n        /* \"#utility.yul\":7152:7158   */\n      dup3\n        /* \"#utility.yul\":7141:7150   */\n      dup7\n        /* \"#utility.yul\":7137:7159   */\n      add\n        /* \"#utility.yul\":7116:7169   */\n      tag_235\n      jump\t// in\n    tag_344:\n        /* \"#utility.yul\":7106:7169   */\n      swap3\n      pop\n        /* \"#utility.yul\":7062:7179   */\n      pop\n        /* \"#utility.yul\":7218:7220   */\n      0x20\n        /* \"#utility.yul\":7244:7297   */\n      tag_345\n        /* \"#utility.yul\":7289:7296   */\n      dup6\n        /* \"#utility.yul\":7280:7286   */\n      dup3\n        /* \"#utility.yul\":7269:7278   */\n      dup7\n        /* \"#utility.yul\":7265:7287   */\n      add\n        /* \"#utility.yul\":7244:7297   */\n      tag_235\n      jump\t// in\n    tag_345:\n        /* \"#utility.yul\":7234:7297   */\n      swap2\n      pop\n        /* \"#utility.yul\":7189:7307   */\n      pop\n        /* \"#utility.yul\":6840:7314   */\n      swap3\n      pop\n      swap3\n      swap1\n      pop\n      jump\t// out\n        /* \"#utility.yul\":7320:7437   */\n    tag_250:\n        /* \"#utility.yul\":7429:7430   */\n      0x00\n        /* \"#utility.yul\":7426:7427   */\n      0x00\n        /* \"#utility.yul\":7419:7431   */\n      revert\n        /* \"#utility.yul\":7443:7560   */\n    tag_251:\n        /* \"#utility.yul\":7552:7553   */\n      0x00\n        /* \"#utility.yul\":7549:7550   */\n      0x00\n        /* \"#utility.yul\":7542:7554   */\n      revert\n        /* \"#utility.yul\":7566:7683   */\n    tag_252:\n        /* \"#utility.yul\":7675:7676   */\n      0x00\n        /* \"#utility.yul\":7672:7673   */\n      0x00\n        /* \"#utility.yul\":7665:7677   */\n      revert\n        /* \"#utility.yul\":7703:8256   */\n    tag_253:\n        /* \"#utility.yul\":7761:7769   */\n      0x00\n        /* \"#utility.yul\":7771:7777   */\n      0x00\n        /* \"#utility.yul\":7821:7824   */\n      dup4\n        /* \"#utility.yul\":7814:7818   */\n      0x1f\n        /* \"#utility.yul\":7806:7812   */\n      dup5\n        /* \"#utility.yul\":7802:7819   */\n      add\n        /* \"#utility.yul\":7798:7825   */\n      slt\n        /* \"#utility.yul\":7788:7910   */\n      tag_350\n      jumpi\n        /* \"#utility.yul\":7829:7908   */\n      tag_351\n      tag_250\n      jump\t// in\n    tag_351:\n        /* \"#utility.yul\":7788:7910   */\n    tag_350:\n        /* \"#utility.yul\":7942:7948   */\n      dup3\n        /* \"#utility.yul\":7929:7949   */\n      calldataload\n        /* \"#utility.yul\":7919:7949   */\n      swap1\n      pop\n        /* \"#utility.yul\":7972:7990   */\n      0xffffffffffffffff\n        /* \"#utility.yul\":7964:7970   */\n      dup2\n        /* \"#utility.yul\":7961:7991   */\n      gt\n        /* \"#utility.yul\":7958:8075   */\n      iszero\n      tag_352\n      jumpi\n        /* \"#utility.yul\":7994:8073   */\n      tag_353\n      tag_251\n      jump\t// in\n    tag_353:\n        /* \"#utility.yul\":7958:8075   */\n    tag_352:\n        /* \"#utility.yul\":8108:8112   */\n      0x20\n        /* \"#utility.yul\":8100:8106   */\n      dup4\n        /* \"#utility.yul\":8096:8113   */\n      add\n        /* \"#utility.yul\":8084:8113   */\n      swap2\n      pop\n        /* \"#utility.yul\":8162:8165   */\n      dup4\n        /* \"#utility.yul\":8154:8158   */\n      0x01\n        /* \"#utility.yul\":8146:8152   */\n      dup3\n        /* \"#utility.yul\":8142:8159   */\n      mul\n        /* \"#utility.yul\":8132:8140   */\n      dup4\n        /* \"#utility.yul\":8128:8160   */\n      add\n        /* \"#utility.yul\":8125:8166   */\n      gt\n        /* \"#utility.yul\":8122:8250   */\n      iszero\n      tag_354\n      jumpi\n        /* \"#utility.yul\":8169:8248   */\n      tag_355\n      tag_252\n      jump\t// in\n    tag_355:\n        /* \"#utility.yul\":8122:8250   */\n    tag_354:\n        /* \"#utility.yul\":7703:8256   */\n      swap3\n      pop\n      swap3\n      swap1\n      pop\n      jump\t// out\n        /* \"#utility.yul\":8262:8791   */\n    tag_110:\n        /* \"#utility.yul\":8333:8339   */\n      0x00\n        /* \"#utility.yul\":8341:8347   */\n      0x00\n        /* \"#utility.yul\":8390:8392   */\n      0x20\n        /* \"#utility.yul\":8378:8387   */\n      dup4\n        /* \"#utility.yul\":8369:8376   */\n      dup6\n        /* \"#utility.yul\":8365:8388   */\n      sub\n        /* \"#utility.yul\":8361:8393   */\n      slt\n        /* \"#utility.yul\":8358:8477   */\n      iszero\n      tag_357\n      jumpi\n        /* \"#utility.yul\":8396:8475   */\n      tag_358\n      tag_230\n      jump\t// in\n    tag_358:\n        /* \"#utility.yul\":8358:8477   */\n    tag_357:\n        /* \"#utility.yul\":8544:8545   */\n      0x00\n        /* \"#utility.yul\":8533:8542   */\n      dup4\n        /* \"#utility.yul\":8529:8546   */\n      add\n        /* \"#utility.yul\":8516:8547   */\n      calldataload\n        /* \"#utility.yul\":8574:8592   */\n      0xffffffffffffffff\n        /* \"#utility.yul\":8566:8572   */\n      dup2\n        /* \"#utility.yul\":8563:8593   */\n      gt\n        /* \"#utility.yul\":8560:8677   */\n      iszero\n      tag_359\n      jumpi\n        /* \"#utility.yul\":8596:8675   */\n      tag_360\n      tag_231\n      jump\t// in\n    tag_360:\n        /* \"#utility.yul\":8560:8677   */\n    tag_359:\n        /* \"#utility.yul\":8709:8774   */\n      tag_361\n        /* \"#utility.yul\":8766:8773   */\n      dup6\n        /* \"#utility.yul\":8757:8763   */\n      dup3\n        /* \"#utility.yul\":8746:8755   */\n      dup7\n        /* \"#utility.yul\":8742:8764   */\n      add\n        /* \"#utility.yul\":8709:8774   */\n      tag_253\n      jump\t// in\n    tag_361:\n        /* \"#utility.yul\":8691:8774   */\n      swap3\n      pop\n      swap3\n      pop\n        /* \"#utility.yul\":8487:8784   */\n      pop\n        /* \"#utility.yul\":8262:8791   */\n      swap3\n      pop\n      swap3\n      swap1\n      pop\n      jump\t// out\n        /* \"#utility.yul\":8797:8977   */\n    tag_254:\n        /* \"#utility.yul\":8845:8922   */\n      0x4e487b7100000000000000000000000000000000000000000000000000000000\n        /* \"#utility.yul\":8842:8843   */\n      0x00\n        /* \"#utility.yul\":8835:8923   */\n      mstore\n        /* \"#utility.yul\":8942:8946   */\n      0x22\n        /* \"#utility.yul\":8939:8940   */\n      0x04\n        /* \"#utility.yul\":8932:8947   */\n      mstore\n        /* \"#utility.yul\":8966:8970   */\n      0x24\n        /* \"#utility.yul\":8963:8964   */\n      0x00\n        /* \"#utility.yul\":8956:8971   */\n      revert\n        /* \"#utility.yul\":8983:9303   */\n    tag_117:\n        /* \"#utility.yul\":9027:9033   */\n      0x00\n        /* \"#utility.yul\":9064:9065   */\n      0x02\n        /* \"#utility.yul\":9058:9062   */\n      dup3\n        /* \"#utility.yul\":9054:9066   */\n      div\n        /* \"#utility.yul\":9044:9066   */\n      swap1\n      pop\n        /* \"#utility.yul\":9111:9112   */\n      0x01\n        /* \"#utility.yul\":9105:9109   */\n      dup3\n        /* \"#utility.yul\":9101:9113   */\n      and\n        /* \"#utility.yul\":9132:9150   */\n      dup1\n        /* \"#utility.yul\":9122:9203   */\n      tag_364\n      jumpi\n        /* \"#utility.yul\":9188:9192   */\n      0x7f\n        /* \"#utility.yul\":9180:9186   */\n      dup3\n        /* \"#utility.yul\":9176:9193   */\n      and\n        /* \"#utility.yul\":9166:9193   */\n      swap2\n      pop\n        /* \"#utility.yul\":9122:9203   */\n    tag_364:\n        /* \"#utility.yul\":9250:9252   */\n      0x20\n        /* \"#utility.yul\":9242:9248   */\n      dup3\n        /* \"#utility.yul\":9239:9253   */\n      lt\n        /* \"#utility.yul\":9219:9237   */\n      dup2\n        /* \"#utility.yul\":9216:9254   */\n      sub\n        /* \"#utility.yul\":9213:9297   */\n      tag_365\n      jumpi\n        /* \"#utility.yul\":9269:9287   */\n      tag_366\n      tag_254\n      jump\t// in\n    tag_366:\n        /* \"#utility.yul\":9213:9297   */\n    tag_365:\n        /* \"#utility.yul\":9034:9303   */\n      pop\n        /* \"#utility.yul\":8983:9303   */\n      swap2\n      swap1\n      pop\n      jump\t// out\n        /* \"#utility.yul\":9309:9489   */\n    tag_255:\n        /* \"#utility.yul\":9357:9434   */\n      0x4e487b7100000000000000000000000000000000000000000000000000000000\n        /* \"#utility.yul\":9354:9355   */\n      0x00\n        /* \"#utility.yul\":9347:9435   */\n      mstore\n        /* \"#utility.yul\":9454:9458   */\n      0x11\n        /* \"#utility.yul\":9451:9452   */\n      0x04\n        /* \"#utility.yul\":9444:9459   */\n      mstore\n        /* \"#utility.yul\":9478:9482   */\n      0x24\n        /* \"#utility.yul\":9475:9476   */\n      0x00\n        /* \"#utility.yul\":9468:9483   */\n      revert\n        /* \"#utility.yul\":9495:9689   */\n    tag_143:\n        /* \"#utility.yul\":9535:9539   */\n      0x00\n        /* \"#utility.yul\":9555:9575   */\n      tag_369\n        /* \"#utility.yul\":9573:9574   */\n      dup3\n        /* \"#utility.yul\":9555:9575   */\n      tag_236\n      jump\t// in\n    tag_369:\n        /* \"#utility.yul\":9550:9575   */\n      swap2\n      pop\n        /* \"#utility.yul\":9589:9609   */\n      tag_370\n        /* \"#utility.yul\":9607:9608   */\n      dup4\n        /* \"#utility.yul\":9589:9609   */\n      tag_236\n      jump\t// in\n    tag_370:\n        /* \"#utility.yul\":9584:9609   */\n      swap3\n      pop\n        /* \"#utility.yul\":9633:9634   */\n      dup3\n        /* \"#utility.yul\":9630:9631   */\n      dup3\n        /* \"#utility.yul\":9626:9635   */\n      sub\n        /* \"#utility.yul\":9618:9635   */\n      swap1\n      pop\n        /* \"#utility.yul\":9657:9658   */\n      dup2\n        /* \"#utility.yul\":9651:9655   */\n      dup2\n        /* \"#utility.yul\":9648:9659   */\n      gt\n        /* \"#utility.yul\":9645:9682   */\n      iszero\n      tag_371\n      jumpi\n        /* \"#utility.yul\":9662:9680   */\n      tag_372\n      tag_255\n      jump\t// in\n    tag_372:\n        /* \"#utility.yul\":9645:9682   */\n    tag_371:\n        /* \"#utility.yul\":9495:9689   */\n      swap3\n      swap2\n      pop\n      pop\n      jump\t// out\n        /* \"#utility.yul\":9695:9859   */\n    tag_256:\n        /* \"#utility.yul\":9835:9851   */\n      0x416c7265616479206d696e746564000000000000000000000000000000000000\n        /* \"#utility.yul\":9831:9832   */\n      0x00\n        /* \"#utility.yul\":9823:9829   */\n      dup3\n        /* \"#utility.yul\":9819:9833   */\n      add\n        /* \"#utility.yul\":9812:9852   */\n      mstore\n        /* \"#utility.yul\":9695:9859   */\n      pop\n      jump\t// out\n        /* \"#utility.yul\":9865:10231   */\n    tag_257:\n        /* \"#utility.yul\":10007:10010   */\n      0x00\n        /* \"#utility.yul\":10028:10095   */\n      tag_375\n        /* \"#utility.yul\":10092:10094   */\n      0x0e\n        /* \"#utility.yul\":10087:10090   */\n      dup4\n        /* \"#utility.yul\":10028:10095   */\n      tag_225\n      jump\t// in\n    tag_375:\n        /* \"#utility.yul\":10021:10095   */\n      swap2\n      pop\n        /* \"#utility.yul\":10104:10197   */\n      tag_376\n        /* \"#utility.yul\":10193:10196   */\n      dup3\n        /* \"#utility.yul\":10104:10197   */\n      tag_256\n      jump\t// in\n    tag_376:\n        /* \"#utility.yul\":10222:10224   */\n      0x20\n        /* \"#utility.yul\":10217:10220   */\n      dup3\n        /* \"#utility.yul\":10213:10225   */\n      add\n        /* \"#utility.yul\":10206:10225   */\n      swap1\n      pop\n        /* \"#utility.yul\":9865:10231   */\n      swap2\n      swap1\n      pop\n      jump\t// out\n        /* \"#utility.yul\":10237:10656   */\n    tag_158:\n        /* \"#utility.yul\":10403:10407   */\n      0x00\n        /* \"#utility.yul\":10441:10443   */\n      0x20\n        /* \"#utility.yul\":10430:10439   */\n      dup3\n        /* \"#utility.yul\":10426:10444   */\n      add\n        /* \"#utility.yul\":10418:10444   */\n      swap1\n      pop\n        /* \"#utility.yul\":10490:10499   */\n      dup2\n        /* \"#utility.yul\":10484:10488   */\n      dup2\n        /* \"#utility.yul\":10480:10500   */\n      sub\n        /* \"#utility.yul\":10476:10477   */\n      0x00\n        /* \"#utility.yul\":10465:10474   */\n      dup4\n        /* \"#utility.yul\":10461:10478   */\n      add\n        /* \"#utility.yul\":10454:10501   */\n      mstore\n        /* \"#utility.yul\":10518:10649   */\n      tag_378\n        /* \"#utility.yul\":10644:10648   */\n      dup2\n        /* \"#utility.yul\":10518:10649   */\n      tag_257\n      jump\t// in\n    tag_378:\n        /* \"#utility.yul\":10510:10649   */\n      swap1\n      pop\n        /* \"#utility.yul\":10237:10656   */\n      swap2\n      swap1\n      pop\n      jump\t// out\n        /* \"#utility.yul\":10662:10809   */\n    tag_258:\n        /* \"#utility.yul\":10763:10774   */\n      0x00\n        /* \"#utility.yul\":10800:10803   */\n      dup2\n        /* \"#utility.yul\":10785:10803   */\n      swap1\n      pop\n        /* \"#utility.yul\":10662:10809   */\n      swap3\n      swap2\n      pop\n      pop\n      jump\t// out\n        /* \"#utility.yul\":10815:10963   */\n    tag_259:\n        /* \"#utility.yul\":10913:10919   */\n      dup3\n        /* \"#utility.yul\":10908:10911   */\n      dup2\n        /* \"#utility.yul\":10903:10906   */\n      dup4\n        /* \"#utility.yul\":10890:10920   */\n      calldatacopy\n        /* \"#utility.yul\":10954:10955   */\n      0x00\n        /* \"#utility.yul\":10945:10951   */\n      dup4\n        /* \"#utility.yul\":10940:10943   */\n      dup4\n        /* \"#utility.yul\":10936:10952   */\n      add\n        /* \"#utility.yul\":10929:10956   */\n      mstore\n        /* \"#utility.yul\":10815:10963   */\n      pop\n      pop\n      pop\n      jump\t// out\n        /* \"#utility.yul\":10991:11318   */\n    tag_260:\n        /* \"#utility.yul\":11105:11108   */\n      0x00\n        /* \"#utility.yul\":11126:11214   */\n      tag_382\n        /* \"#utility.yul\":11207:11213   */\n      dup4\n        /* \"#utility.yul\":11202:11205   */\n      dup6\n        /* \"#utility.yul\":11126:11214   */\n      tag_258\n      jump\t// in\n    tag_382:\n        /* \"#utility.yul\":11119:11214   */\n      swap4\n      pop\n        /* \"#utility.yul\":11224:11280   */\n      tag_383\n        /* \"#utility.yul\":11273:11279   */\n      dup4\n        /* \"#utility.yul\":11268:11271   */\n      dup6\n        /* \"#utility.yul\":11261:11266   */\n      dup5\n        /* \"#utility.yul\":11224:11280   */\n      tag_259\n      jump\t// in\n    tag_383:\n        /* \"#utility.yul\":11305:11311   */\n      dup3\n        /* \"#utility.yul\":11300:11303   */\n      dup5\n        /* \"#utility.yul\":11296:11312   */\n      add\n        /* \"#utility.yul\":11289:11312   */\n      swap1\n      pop\n        /* \"#utility.yul\":10991:11318   */\n      swap4\n      swap3\n      pop\n      pop\n      pop\n      jump\t// out\n        /* \"#utility.yul\":11324:11615   */\n    tag_160:\n        /* \"#utility.yul\":11464:11467   */\n      0x00\n        /* \"#utility.yul\":11486:11589   */\n      tag_385\n        /* \"#utility.yul\":11585:11588   */\n      dup3\n        /* \"#utility.yul\":11576:11582   */\n      dup5\n        /* \"#utility.yul\":11568:11574   */\n      dup7\n        /* \"#utility.yul\":11486:11589   */\n      tag_260\n      jump\t// in\n    tag_385:\n        /* \"#utility.yul\":11479:11589   */\n      swap2\n      pop\n        /* \"#utility.yul\":11606:11609   */\n      dup2\n        /* \"#utility.yul\":11599:11609   */\n      swap1\n      pop\n        /* \"#utility.yul\":11324:11615   */\n      swap4\n      swap3\n      pop\n      pop\n      pop\n      jump\t// out\n        /* \"#utility.yul\":11621:11785   */\n    tag_261:\n        /* \"#utility.yul\":11761:11777   */\n      0x57726f6e67206d6e656d6f6e6963000000000000000000000000000000000000\n        /* \"#utility.yul\":11757:11758   */\n      0x00\n        /* \"#utility.yul\":11749:11755   */\n      dup3\n        /* \"#utility.yul\":11745:11759   */\n      add\n        /* \"#utility.yul\":11738:11778   */\n      mstore\n        /* \"#utility.yul\":11621:11785   */\n      pop\n      jump\t// out\n        /* \"#utility.yul\":11791:12157   */\n    tag_262:\n        /* \"#utility.yul\":11933:11936   */\n      0x00\n        /* \"#utility.yul\":11954:12021   */\n      tag_388\n        /* \"#utility.yul\":12018:12020   */\n      0x0e\n        /* \"#utility.yul\":12013:12016   */\n      dup4\n        /* \"#utility.yul\":11954:12021   */\n      tag_225\n      jump\t// in\n    tag_388:\n        /* \"#utility.yul\":11947:12021   */\n      swap2\n      pop\n        /* \"#utility.yul\":12030:12123   */\n      tag_389\n        /* \"#utility.yul\":12119:12122   */\n      dup3\n        /* \"#utility.yul\":12030:12123   */\n      tag_261\n      jump\t// in\n    tag_389:\n        /* \"#utility.yul\":12148:12150   */\n      0x20\n        /* \"#utility.yul\":12143:12146   */\n      dup3\n        /* \"#utility.yul\":12139:12151   */\n      add\n        /* \"#utility.yul\":12132:12151   */\n      swap1\n      pop\n        /* \"#utility.yul\":11791:12157   */\n      swap2\n      swap1\n      pop\n      jump\t// out\n        /* \"#utility.yul\":12163:12582   */\n    tag_163:\n        /* \"#utility.yul\":12329:12333   */\n      0x00\n        /* \"#utility.yul\":12367:12369   */\n      0x20\n        /* \"#utility.yul\":12356:12365   */\n      dup3\n        /* \"#utility.yul\":12352:12370   */\n      add\n        /* \"#utility.yul\":12344:12370   */\n      swap1\n      pop\n        /* \"#utility.yul\":12416:12425   */\n      dup2\n        /* \"#utility.yul\":12410:12414   */\n      dup2\n        /* \"#utility.yul\":12406:12426   */\n      sub\n        /* \"#utility.yul\":12402:12403   */\n      0x00\n        /* \"#utility.yul\":12391:12400   */\n      dup4\n        /* \"#utility.yul\":12387:12404   */\n      add\n        /* \"#utility.yul\":12380:12427   */\n      mstore\n        /* \"#utility.yul\":12444:12575   */\n      tag_391\n        /* \"#utility.yul\":12570:12574   */\n      dup2\n        /* \"#utility.yul\":12444:12575   */\n      tag_262\n      jump\t// in\n    tag_391:\n        /* \"#utility.yul\":12436:12575   */\n      swap1\n      pop\n        /* \"#utility.yul\":12163:12582   */\n      swap2\n      swap1\n      pop\n      jump\t// out\n        /* \"#utility.yul\":12588:12779   */\n    tag_166:\n        /* \"#utility.yul\":12628:12631   */\n      0x00\n        /* \"#utility.yul\":12647:12667   */\n      tag_393\n        /* \"#utility.yul\":12665:12666   */\n      dup3\n        /* \"#utility.yul\":12647:12667   */\n      tag_236\n      jump\t// in\n    tag_393:\n        /* \"#utility.yul\":12642:12667   */\n      swap2\n      pop\n        /* \"#utility.yul\":12681:12701   */\n      tag_394\n        /* \"#utility.yul\":12699:12700   */\n      dup4\n        /* \"#utility.yul\":12681:12701   */\n      tag_236\n      jump\t// in\n    tag_394:\n        /* \"#utility.yul\":12676:12701   */\n      swap3\n      pop\n        /* \"#utility.yul\":12724:12725   */\n      dup3\n        /* \"#utility.yul\":12721:12722   */\n      dup3\n        /* \"#utility.yul\":12717:12726   */\n      add\n        /* \"#utility.yul\":12710:12726   */\n      swap1\n      pop\n        /* \"#utility.yul\":12745:12748   */\n      dup1\n        /* \"#utility.yul\":12742:12743   */\n      dup3\n        /* \"#utility.yul\":12739:12749   */\n      gt\n        /* \"#utility.yul\":12736:12772   */\n      iszero\n      tag_395\n      jumpi\n        /* \"#utility.yul\":12752:12770   */\n      tag_396\n      tag_255\n      jump\t// in\n    tag_396:\n        /* \"#utility.yul\":12736:12772   */\n    tag_395:\n        /* \"#utility.yul\":12588:12779   */\n      swap3\n      swap2\n      pop\n      pop\n      jump\t// out\n        /* \"#utility.yul\":12785:12949   */\n    tag_263:\n        /* \"#utility.yul\":12925:12941   */\n      0x506f6f6c20657868617573746564000000000000000000000000000000000000\n        /* \"#utility.yul\":12921:12922   */\n      0x00\n        /* \"#utility.yul\":12913:12919   */\n      dup3\n        /* \"#utility.yul\":12909:12923   */\n      add\n        /* \"#utility.yul\":12902:12942   */\n      mstore\n        /* \"#utility.yul\":12785:12949   */\n      pop\n      jump\t// out\n        /* \"#utility.yul\":12955:13321   */\n    tag_264:\n        /* \"#utility.yul\":13097:13100   */\n      0x00\n        /* \"#utility.yul\":13118:13185   */\n      tag_399\n        /* \"#utility.yul\":13182:13184   */\n      0x0e\n        /* \"#utility.yul\":13177:13180   */\n      dup4\n        /* \"#utility.yul\":13118:13185   */\n      tag_225\n      jump\t// in\n    tag_399:\n        /* \"#utility.yul\":13111:13185   */\n      swap2\n      pop\n        /* \"#utility.yul\":13194:13287   */\n      tag_400\n        /* \"#utility.yul\":13283:13286   */\n      dup3\n        /* \"#utility.yul\":13194:13287   */\n      tag_263\n      jump\t// in\n    tag_400:\n        /* \"#utility.yul\":13312:13314   */\n      0x20\n        /* \"#utility.yul\":13307:13310   */\n      dup3\n        /* \"#utility.yul\":13303:13315   */\n      add\n        /* \"#utility.yul\":13296:13315   */\n      swap1\n      pop\n        /* \"#utility.yul\":12955:13321   */\n      swap2\n      swap1\n      pop\n      jump\t// out\n        /* \"#utility.yul\":13327:13746   */\n    tag_169:\n        /* \"#utility.yul\":13493:13497   */\n      0x00\n        /* \"#utility.yul\":13531:13533   */\n      0x20\n        /* \"#utility.yul\":13520:13529   */\n      dup3\n        /* \"#utility.yul\":13516:13534   */\n      add\n        /* \"#utility.yul\":13508:13534   */\n      swap1\n      pop\n        /* \"#utility.yul\":13580:13589   */\n      dup2\n        /* \"#utility.yul\":13574:13578   */\n      dup2\n        /* \"#utility.yul\":13570:13590   */\n      sub\n        /* \"#utility.yul\":13566:13567   */\n      0x00\n        /* \"#utility.yul\":13555:13564   */\n      dup4\n        /* \"#utility.yul\":13551:13568   */\n      add\n        /* \"#utility.yul\":13544:13591   */\n      mstore\n        /* \"#utility.yul\":13608:13739   */\n      tag_402\n        /* \"#utility.yul\":13734:13738   */\n      dup2\n        /* \"#utility.yul\":13608:13739   */\n      tag_264\n      jump\t// in\n    tag_402:\n        /* \"#utility.yul\":13600:13739   */\n      swap1\n      pop\n        /* \"#utility.yul\":13327:13746   */\n      swap2\n      swap1\n      pop\n      jump\t// out\n        /* \"#utility.yul\":13752:14194   */\n    tag_188:\n        /* \"#utility.yul\":13901:13905   */\n      0x00\n        /* \"#utility.yul\":13939:13941   */\n      0x60\n        /* \"#utility.yul\":13928:13937   */\n      dup3\n        /* \"#utility.yul\":13924:13942   */\n      add\n        /* \"#utility.yul\":13916:13942   */\n      swap1\n      pop\n        /* \"#utility.yul\":13952:14023   */\n      tag_404\n        /* \"#utility.yul\":14020:14021   */\n      0x00\n        /* \"#utility.yul\":14009:14018   */\n      dup4\n        /* \"#utility.yul\":14005:14022   */\n      add\n        /* \"#utility.yul\":13996:14002   */\n      dup7\n        /* \"#utility.yul\":13952:14023   */\n      tag_249\n      jump\t// in\n    tag_404:\n        /* \"#utility.yul\":14033:14105   */\n      tag_405\n        /* \"#utility.yul\":14101:14103   */\n      0x20\n        /* \"#utility.yul\":14090:14099   */\n      dup4\n        /* \"#utility.yul\":14086:14104   */\n      add\n        /* \"#utility.yul\":14077:14083   */\n      dup6\n        /* \"#utility.yul\":14033:14105   */\n      tag_241\n      jump\t// in\n    tag_405:\n        /* \"#utility.yul\":14115:14187   */\n      tag_406\n        /* \"#utility.yul\":14183:14185   */\n      0x40\n        /* \"#utility.yul\":14172:14181   */\n      dup4\n        /* \"#utility.yul\":14168:14186   */\n      add\n        /* \"#utility.yul\":14159:14165   */\n      dup5\n        /* \"#utility.yul\":14115:14187   */\n      tag_241\n      jump\t// in\n    tag_406:\n        /* \"#utility.yul\":13752:14194   */\n      swap5\n      swap4\n      pop\n      pop\n      pop\n      pop\n      jump\t// out\n    stop\n    data_7c247f0faa109da9a7dfcc30d9b7c5309fb4341a6d669088e6e5c9edaf7a8422 03678afdb0fe5548271967f1a67130b7105cd6a828e03909a67962e0ea1f61deb6\n\n    auxdata: 0xa2646970667358221220175992a98acb73aa5ed15dca2234f280beac78a3d4990d27cc990433af68baea64736f6c63430008220033\n}\n",
				"bytecode": {
					"linkReferences": {},
					"object": "608060405234801561000f575f5ffd5b50336040518060400160405280601181526020017f43616d656c6f7420457863616c696275720000000000000000000000000000008152506040518060400160405280600581526020017f455843414c000000000000000000000000000000000000000000000000000000815250816003908161008c9190610ac8565b50806004908161009c9190610ac8565b5050505f73ffffffffffffffffffffffffffffffffffffffff168173ffffffffffffffffffffffffffffffffffffffff160361010f575f6040517f1e4fbdf70000000000000000000000000000000000000000000000000000000081526004016101069190610bd6565b60405180910390fd5b61011e8161023f60201b60201c565b505f6101886040518060400160405280602081526020017f1234567890abcdef1234567890abcdef1234567890abcdef1234567890abcdef8152507f450d5ca1d5fa8aee9d893f6c7ac9fd8e59a06ff5f40dac808d5e4b456017f33661030260201b90919060201c565b90505f6040518060600160405280602181526020016126fc60219139805190602001205f1c90508073ffffffffffffffffffffffffffffffffffffffff168273ffffffffffffffffffffffffffffffffffffffff161461021d576040517f08c379a000000000000000000000000000000000000000000000000000000000815260040161021490610c49565b60405180910390fd5b610238336a06342fd08f00f63780000061033860201b60201c565b5050610de0565b5f60055f9054906101000a900473ffffffffffffffffffffffffffffffffffffffff1690508160055f6101000a81548173ffffffffffffffffffffffffffffffffffffffff021916908373ffffffffffffffffffffffffffffffffffffffff1602179055508173ffffffffffffffffffffffffffffffffffffffff168173ffffffffffffffffffffffffffffffffffffffff167f8be0079c531659141344cd1fd0a4f28419497f9722a3daafe3b4186f6b6457e060405160405180910390a35050565b5f5f5f5f61031686866103bd60201b60201c565b92509250925061032c828261041860201b60201c565b82935050505092915050565b5f73ffffffffffffffffffffffffffffffffffffffff168273ffffffffffffffffffffffffffffffffffffffff16036103a8575f6040517fec442f0500000000000000000000000000000000000000000000000000000000815260040161039f9190610bd6565b60405180910390fd5b6103b95f838361057a60201b60201c565b5050565b5f5f5f6041845103610403575f5f5f602087015192506040870151915060608701515f1a90506103f58882858561079360201b60201c565b955095509550505050610411565b5f600285515f1b9250925092505b9250925092565b5f600381111561042b5761042a610c67565b5b82600381111561043e5761043d610c67565b5b0315610576576001600381111561045857610457610c67565b5b82600381111561046b5761046a610c67565b5b036104a2576040517ff645eedf00000000000000000000000000000000000000000000000000000000815260040160405180910390fd5b600260038111156104b6576104b5610c67565b5b8260038111156104c9576104c8610c67565b5b0361050d57805f1c6040517ffce698f70000000000000000000000000000000000000000000000000000000081526004016105049190610ca3565b60405180910390fd5b6003808111156105205761051f610c67565b5b82600381111561053357610532610c67565b5b0361057557806040517fd78bce0c00000000000000000000000000000000000000000000000000000000815260040161056c9190610cd4565b60405180910390fd5b5b5050565b5f73ffffffffffffffffffffffffffffffffffffffff168373ffffffffffffffffffffffffffffffffffffffff16036105ca578060025f8282546105be9190610d1a565b92505081905550610698565b5f5f5f8573ffffffffffffffffffffffffffffffffffffffff1673ffffffffffffffffffffffffffffffffffffffff1681526020019081526020015f2054905081811015610653578381836040517fe450d38c00000000000000000000000000000000000000000000000000000000815260040161064a93929190610d4d565b60405180910390fd5b8181035f5f8673ffffffffffffffffffffffffffffffffffffffff1673ffffffffffffffffffffffffffffffffffffffff1681526020019081526020015f2081905550505b5f73ffffffffffffffffffffffffffffffffffffffff168273ffffffffffffffffffffffffffffffffffffffff16036106df578060025f8282540392505081905550610729565b805f5f8473ffffffffffffffffffffffffffffffffffffffff1673ffffffffffffffffffffffffffffffffffffffff1681526020019081526020015f205f82825401925050819055505b8173ffffffffffffffffffffffffffffffffffffffff168373ffffffffffffffffffffffffffffffffffffffff167fddf252ad1be2c89b69c2b068fc378daa952ba7f163c4a11628f55a4df523b3ef836040516107869190610ca3565b60405180910390a3505050565b5f5f5f7f7fffffffffffffffffffffffffffffff5d576e7357a4501ddfe92f46681b20a0845f1c11156107cf575f600385925092509250610870565b5f6001888888886040515f81526020016040526040516107f29493929190610d9d565b6020604051602081039080840390855afa158015610812573d5f5f3e3d5ffd5b5050506020604051035190505f73ffffffffffffffffffffffffffffffffffffffff168173ffffffffffffffffffffffffffffffffffffffff1603610863575f60015f5f1b93509350935050610870565b805f5f5f1b935093509350505b9450945094915050565b5f81519050919050565b7f4e487b71000000000000000000000000000000000000000000000000000000005f52604160045260245ffd5b7f4e487b71000000000000000000000000000000000000000000000000000000005f52602260045260245ffd5b5f60028204905060018216806108f557607f821691505b602082108103610908576109076108b1565b5b50919050565b5f819050815f5260205f209050919050565b5f6020601f8301049050919050565b5f82821b905092915050565b5f6008830261096a7fffffffffffffffffffffffffffffffffffffffffffffffffffffffffffffffff8261092f565b610974868361092f565b95508019841693508086168417925050509392505050565b5f819050919050565b5f819050919050565b5f6109b86109b36109ae8461098c565b610995565b61098c565b9050919050565b5f819050919050565b6109d18361099e565b6109e56109dd826109bf565b84845461093b565b825550505050565b5f5f905090565b6109fc6109ed565b610a078184846109c8565b505050565b5f5b82811015610a2d57610a225f8284016109f4565b600181019050610a0e565b505050565b601f821115610a805782821115610a7f57610a4c8161090e565b610a5583610920565b610a5e85610920565b6020861015610a6b575f90505b808301610a7a82840382610a0c565b505050505b5b505050565b5f82821c905092915050565b5f610aa05f1984600802610a85565b1980831691505092915050565b5f610ab88383610a91565b9150826002028217905092915050565b610ad18261087a565b67ffffffffffffffff811115610aea57610ae9610884565b5b610af482546108de565b610aff828285610a32565b5f60209050601f831160018114610b30575f8415610b1e578287015190505b610b288582610aad565b865550610b8f565b601f198416610b3e8661090e565b5f5b82811015610b6557848901518255600182019150602085019450602081019050610b40565b86831015610b825784890151610b7e601f891682610a91565b8355505b6001600288020188555050505b505050505050565b5f73ffffffffffffffffffffffffffffffffffffffff82169050919050565b5f610bc082610b97565b9050919050565b610bd081610bb6565b82525050565b5f602082019050610be95f830184610bc7565b92915050565b5f82825260208201905092915050565b7f496e76616c69642067656e65736973207369676e6174757265000000000000005f82015250565b5f610c33601983610bef565b9150610c3e82610bff565b602082019050919050565b5f6020820190508181035f830152610c6081610c27565b9050919050565b7f4e487b71000000000000000000000000000000000000000000000000000000005f52602160045260245ffd5b610c9d8161098c565b82525050565b5f602082019050610cb65f830184610c94565b92915050565b5f819050919050565b610cce81610cbc565b82525050565b5f602082019050610ce75f830184610cc5565b92915050565b7f4e487b71000000000000000000000000000000000000000000000000000000005f52601160045260245ffd5b5f610d248261098c565b9150610d2f8361098c565b9250828201905080821115610d4757610d46610ced565b5b92915050565b5f606082019050610d605f830186610bc7565b610d6d6020830185610c94565b610d7a6040830184610c94565b949350505050565b5f60ff82169050919050565b610d9781610d82565b82525050565b5f608082019050610db05f830187610cc5565b610dbd6020830186610d8e565b610dca6040830185610cc5565b610dd76060830184610cc5565b95945050505050565b61190f80610ded5f395ff3fe608060405234801561000f575f5ffd5b506004361061014b575f3560e01c8063715018a6116100c1578063965ea38c1161007a578063965ea38c146103815780639f45bdac1461039f578063a9059cbb146103bd578063dd62ed3e146103ed578063e042735b1461041d578063f2fde38b146104395761014b565b8063715018a6146102e157806377fd5d02146102eb5780637e39cb58146103095780638da5cb5b14610327578063902d55a51461034557806395d89b41146103635761014b565b80632c7abeea116101135780632c7abeea14610209578063313ce5671461022757806338e21cce1461024557806341baeb92146102755780636e95b7111461029357806370a08231146102b15761014b565b806306fdde031461014f578063095ea7b31461016d57806318160ddd1461019d57806323b872dd146101bb57806328fd21c1146101eb575b5f5ffd5b610157610455565b6040516101649190611255565b60405180910390f35b6101876004803603810190610182919061130a565b6104e5565b6040516101949190611362565b60405180910390f35b6101a5610507565b6040516101b2919061138a565b60405180910390f35b6101d560048036038101906101d091906113a3565b610510565b6040516101e29190611362565b60405180910390f35b6101f361053e565b6040516102009190611445565b60405180910390f35b61021161055a565b60405161021e919061138a565b60405180910390f35b61022f610567565b60405161023c9190611480565b60405180910390f35b61025f600480360381019061025a9190611499565b61056f565b60405161026c9190611362565b60405180910390f35b61027d61058c565b60405161028a919061138a565b60405180910390f35b61029b610592565b6040516102a8919061138a565b60405180910390f35b6102cb60048036038101906102c69190611499565b6105a1565b6040516102d8919061138a565b60405180910390f35b6102e96105e6565b005b6102f36105f9565b604051610300919061138a565b60405180910390f35b61031161061e565b60405161031e91906114dc565b60405180910390f35b61032f610642565b60405161033c9190611504565b60405180910390f35b61034d61066a565b60405161035a919061138a565b60405180910390f35b61036b610679565b6040516103789190611255565b60405180910390f35b610389610709565b6040516103969190611445565b60405180910390f35b6103a7610742565b6040516103b491906114dc565b60405180910390f35b6103d760048036038101906103d2919061130a565b610766565b6040516103e49190611362565b60405180910390f35b6104076004803603810190610402919061151d565b610788565b604051610414919061138a565b60405180910390f35b610437600480360381019061043291906115bc565b61080a565b005b610453600480360381019061044e9190611499565b610a14565b005b60606003805461046490611634565b80601f016020809104026020016040519081016040528092919081815260200182805461049090611634565b80156104db5780601f106104b2576101008083540402835291602001916104db565b820191905f5260205f20905b8154815290600101906020018083116104be57829003601f168201915b5050505050905090565b5f5f6104ef610a98565b90506104fc818585610a9f565b600191505092915050565b5f600254905090565b5f5f61051a610a98565b9050610527858285610ab1565b610532858585610b44565b60019150509392505050565b6040518060600160405280602181526020016118b96021913981565b683635c9adc5dea0000081565b5f6012905090565b6007602052805f5260405f205f915054906101000a900460ff1681565b60065481565b6a06342fd08f00f63780000081565b5f5f5f8373ffffffffffffffffffffffffffffffffffffffff1673ffffffffffffffffffffffffffffffffffffffff1681526020019081526020015f20549050919050565b6105ee610c34565b6105f75f610cbb565b565b6a06342fd08f00f6378000006a17fcfd266d36eb3d00000061061b9190611691565b81565b7f3d6146d9ec877e7556edbff9b8fa61ca49404ac8b4128ab4937a74c7b033cee781565b5f60055f9054906101000a900473ffffffffffffffffffffffffffffffffffffffff16905090565b6a17fcfd266d36eb3d00000081565b60606004805461068890611634565b80601f01602080910402602001604051908101604052809291908181526020018280546106b490611634565b80156106ff5780601f106106d6576101008083540402835291602001916106ff565b820191905f5260205f20905b8154815290600101906020018083116106e257829003601f168201915b5050505050905090565b6040518060400160405280602081526020017f1234567890abcdef1234567890abcdef1234567890abcdef1234567890abcdef81525081565b7f450d5ca1d5fa8aee9d893f6c7ac9fd8e59a06ff5f40dac808d5e4b456017f33681565b5f5f610770610a98565b905061077d818585610b44565b600191505092915050565b5f60015f8473ffffffffffffffffffffffffffffffffffffffff1673ffffffffffffffffffffffffffffffffffffffff1681526020019081526020015f205f8373ffffffffffffffffffffffffffffffffffffffff1673ffffffffffffffffffffffffffffffffffffffff1681526020019081526020015f2054905092915050565b60075f3373ffffffffffffffffffffffffffffffffffffffff1673ffffffffffffffffffffffffffffffffffffffff1681526020019081526020015f205f9054906101000a900460ff1615610894576040517f08c379a000000000000000000000000000000000000000000000000000000000815260040161088b9061170e565b60405180910390fd5b7f3d6146d9ec877e7556edbff9b8fa61ca49404ac8b4128ab4937a74c7b033cee782826040516108c5929190611768565b60405180910390201461090d576040517f08c379a0000000000000000000000000000000000000000000000000000000008152600401610904906117ca565b60405180910390fd5b6a06342fd08f00f6378000006a17fcfd266d36eb3d00000061092f9190611691565b683635c9adc5dea0000060065461094691906117e8565b1115610987576040517f08c379a000000000000000000000000000000000000000000000000000000000815260040161097e90611865565b60405180910390fd5b61099a33683635c9adc5dea00000610d7e565b683635c9adc5dea0000060065f8282546109b491906117e8565b92505081905550600160075f3373ffffffffffffffffffffffffffffffffffffffff1673ffffffffffffffffffffffffffffffffffffffff1681526020019081526020015f205f6101000a81548160ff0219169083151502179055505050565b610a1c610c34565b5f73ffffffffffffffffffffffffffffffffffffffff168173ffffffffffffffffffffffffffffffffffffffff1603610a8c575f6040517f1e4fbdf7000000000000000000000000000000000000000000000000000000008152600401610a839190611504565b60405180910390fd5b610a9581610cbb565b50565b5f33905090565b610aac8383836001610dfd565b505050565b5f610abc8484610788565b90507fffffffffffffffffffffffffffffffffffffffffffffffffffffffffffffffff811015610b3e5781811015610b2f578281836040517ffb8f41b2000000000000000000000000000000000000000000000000000000008152600401610b2693929190611883565b60405180910390fd5b610b3d84848484035f610dfd565b5b50505050565b5f73ffffffffffffffffffffffffffffffffffffffff168373ffffffffffffffffffffffffffffffffffffffff1603610bb4575f6040517f96c6fd1e000000000000000000000000000000000000000000000000000000008152600401610bab9190611504565b60405180910390fd5b5f73ffffffffffffffffffffffffffffffffffffffff168273ffffffffffffffffffffffffffffffffffffffff1603610c24575f6040517fec442f05000000000000000000000000000000000000000000000000000000008152600401610c1b9190611504565b60405180910390fd5b610c2f838383610fcc565b505050565b610c3c610a98565b73ffffffffffffffffffffffffffffffffffffffff16610c5a610642565b73ffffffffffffffffffffffffffffffffffffffff1614610cb957610c7d610a98565b6040517f118cdaa7000000000000000000000000000000000000000000000000000000008152600401610cb09190611504565b60405180910390fd5b565b5f60055f9054906101000a900473ffffffffffffffffffffffffffffffffffffffff1690508160055f6101000a81548173ffffffffffffffffffffffffffffffffffffffff021916908373ffffffffffffffffffffffffffffffffffffffff1602179055508173ffffffffffffffffffffffffffffffffffffffff168173ffffffffffffffffffffffffffffffffffffffff167f8be0079c531659141344cd1fd0a4f28419497f9722a3daafe3b4186f6b6457e060405160405180910390a35050565b5f73ffffffffffffffffffffffffffffffffffffffff168273ffffffffffffffffffffffffffffffffffffffff1603610dee575f6040517fec442f05000000000000000000000000000000000000000000000000000000008152600401610de59190611504565b60405180910390fd5b610df95f8383610fcc565b5050565b5f73ffffffffffffffffffffffffffffffffffffffff168473ffffffffffffffffffffffffffffffffffffffff1603610e6d575f6040517fe602df05000000000000000000000000000000000000000000000000000000008152600401610e649190611504565b60405180910390fd5b5f73ffffffffffffffffffffffffffffffffffffffff168373ffffffffffffffffffffffffffffffffffffffff1603610edd575f6040517f94280d62000000000000000000000000000000000000000000000000000000008152600401610ed49190611504565b60405180910390fd5b8160015f8673ffffffffffffffffffffffffffffffffffffffff1673ffffffffffffffffffffffffffffffffffffffff1681526020019081526020015f205f8573ffffffffffffffffffffffffffffffffffffffff1673ffffffffffffffffffffffffffffffffffffffff1681526020019081526020015f20819055508015610fc6578273ffffffffffffffffffffffffffffffffffffffff168473ffffffffffffffffffffffffffffffffffffffff167f8c5be1e5ebec7d5bd14f71427d1e84f3dd0314c0f7b2291e5b200ac8c7c3b92584604051610fbd919061138a565b60405180910390a35b50505050565b5f73ffffffffffffffffffffffffffffffffffffffff168373ffffffffffffffffffffffffffffffffffffffff160361101c578060025f82825461101091906117e8565b925050819055506110ea565b5f5f5f8573ffffffffffffffffffffffffffffffffffffffff1673ffffffffffffffffffffffffffffffffffffffff1681526020019081526020015f20549050818110156110a5578381836040517fe450d38c00000000000000000000000000000000000000000000000000000000815260040161109c93929190611883565b60405180910390fd5b8181035f5f8673ffffffffffffffffffffffffffffffffffffffff1673ffffffffffffffffffffffffffffffffffffffff1681526020019081526020015f2081905550505b5f73ffffffffffffffffffffffffffffffffffffffff168273ffffffffffffffffffffffffffffffffffffffff1603611131578060025f828254039250508190555061117b565b805f5f8473ffffffffffffffffffffffffffffffffffffffff1673ffffffffffffffffffffffffffffffffffffffff1681526020019081526020015f205f82825401925050819055505b8173ffffffffffffffffffffffffffffffffffffffff168373ffffffffffffffffffffffffffffffffffffffff167fddf252ad1be2c89b69c2b068fc378daa952ba7f163c4a11628f55a4df523b3ef836040516111d8919061138a565b60405180910390a3505050565b5f81519050919050565b5f82825260208201905092915050565b8281835e5f83830152505050565b5f601f19601f8301169050919050565b5f611227826111e5565b61123181856111ef565b93506112418185602086016111ff565b61124a8161120d565b840191505092915050565b5f6020820190508181035f83015261126d818461121d565b905092915050565b5f5ffd5b5f5ffd5b5f73ffffffffffffffffffffffffffffffffffffffff82169050919050565b5f6112a68261127d565b9050919050565b6112b68161129c565b81146112c0575f5ffd5b50565b5f813590506112d1816112ad565b92915050565b5f819050919050565b6112e9816112d7565b81146112f3575f5ffd5b50565b5f81359050611304816112e0565b92915050565b5f5f604083850312156113205761131f611275565b5b5f61132d858286016112c3565b925050602061133e858286016112f6565b9150509250929050565b5f8115159050919050565b61135c81611348565b82525050565b5f6020820190506113755f830184611353565b92915050565b611384816112d7565b82525050565b5f60208201905061139d5f83018461137b565b92915050565b5f5f5f606084860312156113ba576113b9611275565b5b5f6113c7868287016112c3565b93505060206113d8868287016112c3565b92505060406113e9868287016112f6565b9150509250925092565b5f81519050919050565b5f82825260208201905092915050565b5f611417826113f3565b61142181856113fd565b93506114318185602086016111ff565b61143a8161120d565b840191505092915050565b5f6020820190508181035f83015261145d818461140d565b905092915050565b5f60ff82169050919050565b61147a81611465565b82525050565b5f6020820190506114935f830184611471565b92915050565b5f602082840312156114ae576114ad611275565b5b5f6114bb848285016112c3565b91505092915050565b5f819050919050565b6114d6816114c4565b82525050565b5f6020820190506114ef5f8301846114cd565b92915050565b6114fe8161129c565b82525050565b5f6020820190506115175f8301846114f5565b92915050565b5f5f6040838503121561153357611532611275565b5b5f611540858286016112c3565b9250506020611551858286016112c3565b9150509250929050565b5f5ffd5b5f5ffd5b5f5ffd5b5f5f83601f84011261157c5761157b61155b565b5b8235905067ffffffffffffffff8111156115995761159861155f565b5b6020830191508360018202830111156115b5576115b4611563565b5b9250929050565b5f5f602083850312156115d2576115d1611275565b5b5f83013567ffffffffffffffff8111156115ef576115ee611279565b5b6115fb85828601611567565b92509250509250929050565b7f4e487b71000000000000000000000000000000000000000000000000000000005f52602260045260245ffd5b5f600282049050600182168061164b57607f821691505b60208210810361165e5761165d611607565b5b50919050565b7f4e487b71000000000000000000000000000000000000000000000000000000005f52601160045260245ffd5b5f61169b826112d7565b91506116a6836112d7565b92508282039050818111156116be576116bd611664565b5b92915050565b7f416c7265616479206d696e7465640000000000000000000000000000000000005f82015250565b5f6116f8600e836111ef565b9150611703826116c4565b602082019050919050565b5f6020820190508181035f830152611725816116ec565b9050919050565b5f81905092915050565b828183375f83830152505050565b5f61174f838561172c565b935061175c838584611736565b82840190509392505050565b5f611774828486611744565b91508190509392505050565b7f57726f6e67206d6e656d6f6e69630000000000000000000000000000000000005f82015250565b5f6117b4600e836111ef565b91506117bf82611780565b602082019050919050565b5f6020820190508181035f8301526117e1816117a8565b9050919050565b5f6117f2826112d7565b91506117fd836112d7565b925082820190508082111561181557611814611664565b5b92915050565b7f506f6f6c206578686175737465640000000000000000000000000000000000005f82015250565b5f61184f600e836111ef565b915061185a8261181b565b602082019050919050565b5f6020820190508181035f83015261187c81611843565b9050919050565b5f6060820190506118965f8301866114f5565b6118a3602083018561137b565b6118b0604083018461137b565b94935050505056fe03678afdb0fe5548271967f1a67130b7105cd6a828e03909a67962e0ea1f61deb6a2646970667358221220175992a98acb73aa5ed15dca2234f280beac78a3d4990d27cc990433af68baea64736f6c6343000822003303678afdb0fe5548271967f1a67130b7105cd6a828e03909a67962e0ea1f61deb6",
					"opcodes": "PUSH1 0x80 PUSH1 0x40 MSTORE CALLVALUE DUP1 ISZERO PUSH2 0xF JUMPI PUSH0 PUSH0 REVERT JUMPDEST POP CALLER PUSH1 0x40 MLOAD DUP1 PUSH1 0x40 ADD PUSH1 0x40 MSTORE DUP1 PUSH1 0x11 DUP2 MSTORE PUSH1 0x20 ADD PUSH32 0x43616D656C6F7420457863616C69627572000000000000000000000000000000 DUP2 MSTORE POP PUSH1 0x40 MLOAD DUP1 PUSH1 0x40 ADD PUSH1 0x40 MSTORE DUP1 PUSH1 0x5 DUP2 MSTORE PUSH1 0x20 ADD PUSH32 0x455843414C000000000000000000000000000000000000000000000000000000 DUP2 MSTORE POP DUP2 PUSH1 0x3 SWAP1 DUP2 PUSH2 0x8C SWAP2 SWAP1 PUSH2 0xAC8 JUMP JUMPDEST POP DUP1 PUSH1 0x4 SWAP1 DUP2 PUSH2 0x9C SWAP2 SWAP1 PUSH2 0xAC8 JUMP JUMPDEST POP POP POP PUSH0 PUSH20 0xFFFFFFFFFFFFFFFFFFFFFFFFFFFFFFFFFFFFFFFF AND DUP2 PUSH20 0xFFFFFFFFFFFFFFFFFFFFFFFFFFFFFFFFFFFFFFFF AND SUB PUSH2 0x10F JUMPI PUSH0 PUSH1 0x40 MLOAD PUSH32 0x1E4FBDF700000000000000000000000000000000000000000000000000000000 DUP2 MSTORE PUSH1 0x4 ADD PUSH2 0x106 SWAP2 SWAP1 PUSH2 0xBD6 JUMP JUMPDEST PUSH1 0x40 MLOAD DUP1 SWAP2 SUB SWAP1 REVERT JUMPDEST PUSH2 0x11E DUP2 PUSH2 0x23F PUSH1 0x20 SHL PUSH1 0x20 SHR JUMP JUMPDEST POP PUSH0 PUSH2 0x188 PUSH1 0x40 MLOAD DUP1 PUSH1 0x40 ADD PUSH1 0x40 MSTORE DUP1 PUSH1 0x20 DUP2 MSTORE PUSH1 0x20 ADD PUSH32 0x1234567890ABCDEF1234567890ABCDEF1234567890ABCDEF1234567890ABCDEF DUP2 MSTORE POP PUSH32 0x450D5CA1D5FA8AEE9D893F6C7AC9FD8E59A06FF5F40DAC808D5E4B456017F336 PUSH2 0x302 PUSH1 0x20 SHL SWAP1 SWAP2 SWAP1 PUSH1 0x20 SHR JUMP JUMPDEST SWAP1 POP PUSH0 PUSH1 0x40 MLOAD DUP1 PUSH1 0x60 ADD PUSH1 0x40 MSTORE DUP1 PUSH1 0x21 DUP2 MSTORE PUSH1 0x20 ADD PUSH2 0x26FC PUSH1 0x21 SWAP2 CODECOPY DUP1 MLOAD SWAP1 PUSH1 0x20 ADD KECCAK256 PUSH0 SHR SWAP1 POP DUP1 PUSH20 0xFFFFFFFFFFFFFFFFFFFFFFFFFFFFFFFFFFFFFFFF AND DUP3 PUSH20 0xFFFFFFFFFFFFFFFFFFFFFFFFFFFFFFFFFFFFFFFF AND EQ PUSH2 0x21D JUMPI PUSH1 0x40 MLOAD PUSH32 0x8C379A000000000000000000000000000000000000000000000000000000000 DUP2 MSTORE PUSH1 0x4 ADD PUSH2 0x214 SWAP1 PUSH2 0xC49 JUMP JUMPDEST PUSH1 0x40 MLOAD DUP1 SWAP2 SUB SWAP1 REVERT JUMPDEST PUSH2 0x238 CALLER PUSH11 0x6342FD08F00F637800000 PUSH2 0x338 PUSH1 0x20 SHL PUSH1 0x20 SHR JUMP JUMPDEST POP POP PUSH2 0xDE0 JUMP JUMPDEST PUSH0 PUSH1 0x5 PUSH0 SWAP1 SLOAD SWAP1 PUSH2 0x100 EXP SWAP1 DIV PUSH20 0xFFFFFFFFFFFFFFFFFFFFFFFFFFFFFFFFFFFFFFFF AND SWAP1 POP DUP2 PUSH1 0x5 PUSH0 PUSH2 0x100 EXP DUP2 SLOAD DUP2 PUSH20 0xFFFFFFFFFFFFFFFFFFFFFFFFFFFFFFFFFFFFFFFF MUL NOT AND SWAP1 DUP4 PUSH20 0xFFFFFFFFFFFFFFFFFFFFFFFFFFFFFFFFFFFFFFFF AND MUL OR SWAP1 SSTORE POP DUP2 PUSH20 0xFFFFFFFFFFFFFFFFFFFFFFFFFFFFFFFFFFFFFFFF AND DUP2 PUSH20 0xFFFFFFFFFFFFFFFFFFFFFFFFFFFFFFFFFFFFFFFF AND PUSH32 0x8BE0079C531659141344CD1FD0A4F28419497F9722A3DAAFE3B4186F6B6457E0 PUSH1 0x40 MLOAD PUSH1 0x40 MLOAD DUP1 SWAP2 SUB SWAP1 LOG3 POP POP JUMP JUMPDEST PUSH0 PUSH0 PUSH0 PUSH0 PUSH2 0x316 DUP7 DUP7 PUSH2 0x3BD PUSH1 0x20 SHL PUSH1 0x20 SHR JUMP JUMPDEST SWAP3 POP SWAP3 POP SWAP3 POP PUSH2 0x32C DUP3 DUP3 PUSH2 0x418 PUSH1 0x20 SHL PUSH1 0x20 SHR JUMP JUMPDEST DUP3 SWAP4 POP POP POP POP SWAP3 SWAP2 POP POP JUMP JUMPDEST PUSH0 PUSH20 0xFFFFFFFFFFFFFFFFFFFFFFFFFFFFFFFFFFFFFFFF AND DUP3 PUSH20 0xFFFFFFFFFFFFFFFFFFFFFFFFFFFFFFFFFFFFFFFF AND SUB PUSH2 0x3A8 JUMPI PUSH0 PUSH1 0x40 MLOAD PUSH32 0xEC442F0500000000000000000000000000000000000000000000000000000000 DUP2 MSTORE PUSH1 0x4 ADD PUSH2 0x39F SWAP2 SWAP1 PUSH2 0xBD6 JUMP JUMPDEST PUSH1 0x40 MLOAD DUP1 SWAP2 SUB SWAP1 REVERT JUMPDEST PUSH2 0x3B9 PUSH0 DUP4 DUP4 PUSH2 0x57A PUSH1 0x20 SHL PUSH1 0x20 SHR JUMP JUMPDEST POP POP JUMP JUMPDEST PUSH0 PUSH0 PUSH0 PUSH1 0x41 DUP5 MLOAD SUB PUSH2 0x403 JUMPI PUSH0 PUSH0 PUSH0 PUSH1 0x20 DUP8 ADD MLOAD SWAP3 POP PUSH1 0x40 DUP8 ADD MLOAD SWAP2 POP PUSH1 0x60 DUP8 ADD MLOAD PUSH0 BYTE SWAP1 POP PUSH2 0x3F5 DUP9 DUP3 DUP6 DUP6 PUSH2 0x793 PUSH1 0x20 SHL PUSH1 0x20 SHR JUMP JUMPDEST SWAP6 POP SWAP6 POP SWAP6 POP POP POP POP PUSH2 0x411 JUMP JUMPDEST PUSH0 PUSH1 0x2 DUP6 MLOAD PUSH0 SHL SWAP3 POP SWAP3 POP SWAP3 POP JUMPDEST SWAP3 POP SWAP3 POP SWAP3 JUMP JUMPDEST PUSH0 PUSH1 0x3 DUP2 GT ISZERO PUSH2 0x42B JUMPI PUSH2 0x42A PUSH2 0xC67 JUMP JUMPDEST JUMPDEST DUP3 PUSH1 0x3 DUP2 GT ISZERO PUSH2 0x43E JUMPI PUSH2 0x43D PUSH2 0xC67 JUMP JUMPDEST JUMPDEST SUB ISZERO PUSH2 0x576 JUMPI PUSH1 0x1 PUSH1 0x3 DUP2 GT ISZERO PUSH2 0x458 JUMPI PUSH2 0x457 PUSH2 0xC67 JUMP JUMPDEST JUMPDEST DUP3 PUSH1 0x3 DUP2 GT ISZERO PUSH2 0x46B JUMPI PUSH2 0x46A PUSH2 0xC67 JUMP JUMPDEST JUMPDEST SUB PUSH2 0x4A2 JUMPI PUSH1 0x40 MLOAD PUSH32 0xF645EEDF00000000000000000000000000000000000000000000000000000000 DUP2 MSTORE PUSH1 0x4 ADD PUSH1 0x40 MLOAD DUP1 SWAP2 SUB SWAP1 REVERT JUMPDEST PUSH1 0x2 PUSH1 0x3 DUP2 GT ISZERO PUSH2 0x4B6 JUMPI PUSH2 0x4B5 PUSH2 0xC67 JUMP JUMPDEST JUMPDEST DUP3 PUSH1 0x3 DUP2 GT ISZERO PUSH2 0x4C9 JUMPI PUSH2 0x4C8 PUSH2 0xC67 JUMP JUMPDEST JUMPDEST SUB PUSH2 0x50D JUMPI DUP1 PUSH0 SHR PUSH1 0x40 MLOAD PUSH32 0xFCE698F700000000000000000000000000000000000000000000000000000000 DUP2 MSTORE PUSH1 0x4 ADD PUSH2 0x504 SWAP2 SWAP1 PUSH2 0xCA3 JUMP JUMPDEST PUSH1 0x40 MLOAD DUP1 SWAP2 SUB SWAP1 REVERT JUMPDEST PUSH1 0x3 DUP1 DUP2 GT ISZERO PUSH2 0x520 JUMPI PUSH2 0x51F PUSH2 0xC67 JUMP JUMPDEST JUMPDEST DUP3 PUSH1 0x3 DUP2 GT ISZERO PUSH2 0x533 JUMPI PUSH2 0x532 PUSH2 0xC67 JUMP JUMPDEST JUMPDEST SUB PUSH2 0x575 JUMPI DUP1 PUSH1 0x40 MLOAD PUSH32 0xD78BCE0C00000000000000000000000000000000000000000000000000000000 DUP2 MSTORE PUSH1 0x4 ADD PUSH2 0x56C SWAP2 SWAP1 PUSH2 0xCD4 JUMP JUMPDEST PUSH1 0x40 MLOAD DUP1 SWAP2 SUB SWAP1 REVERT JUMPDEST JUMPDEST POP POP JUMP JUMPDEST PUSH0 PUSH20 0xFFFFFFFFFFFFFFFFFFFFFFFFFFFFFFFFFFFFFFFF AND DUP4 PUSH20 0xFFFFFFFFFFFFFFFFFFFFFFFFFFFFFFFFFFFFFFFF AND SUB PUSH2 0x5CA JUMPI DUP1 PUSH1 0x2 PUSH0 DUP3 DUP3 SLOAD PUSH2 0x5BE SWAP2 SWAP1 PUSH2 0xD1A JUMP JUMPDEST SWAP3 POP POP DUP2 SWAP1 SSTORE POP PUSH2 0x698 JUMP JUMPDEST PUSH0 PUSH0 PUSH0 DUP6 PUSH20 0xFFFFFFFFFFFFFFFFFFFFFFFFFFFFFFFFFFFFFFFF AND PUSH20 0xFFFFFFFFFFFFFFFFFFFFFFFFFFFFFFFFFFFFFFFF AND DUP2 MSTORE PUSH1 0x20 ADD SWAP1 DUP2 MSTORE PUSH1 0x20 ADD PUSH0 KECCAK256 SLOAD SWAP1 POP DUP2 DUP2 LT ISZERO PUSH2 0x653 JUMPI DUP4 DUP2 DUP4 PUSH1 0x40 MLOAD PUSH32 0xE450D38C00000000000000000000000000000000000000000000000000000000 DUP2 MSTORE PUSH1 0x4 ADD PUSH2 0x64A SWAP4 SWAP3 SWAP2 SWAP1 PUSH2 0xD4D JUMP JUMPDEST PUSH1 0x40 MLOAD DUP1 SWAP2 SUB SWAP1 REVERT JUMPDEST DUP2 DUP2 SUB PUSH0 PUSH0 DUP7 PUSH20 0xFFFFFFFFFFFFFFFFFFFFFFFFFFFFFFFFFFFFFFFF AND PUSH20 0xFFFFFFFFFFFFFFFFFFFFFFFFFFFFFFFFFFFFFFFF AND DUP2 MSTORE PUSH1 0x20 ADD SWAP1 DUP2 MSTORE PUSH1 0x20 ADD PUSH0 KECCAK256 DUP2 SWAP1 SSTORE POP POP JUMPDEST PUSH0 PUSH20 0xFFFFFFFFFFFFFFFFFFFFFFFFFFFFFFFFFFFFFFFF AND DUP3 PUSH20 0xFFFFFFFFFFFFFFFFFFFFFFFFFFFFFFFFFFFFFFFF AND SUB PUSH2 0x6DF JUMPI DUP1 PUSH1 0x2 PUSH0 DUP3 DUP3 SLOAD SUB SWAP3 POP POP DUP2 SWAP1 SSTORE POP PUSH2 0x729 JUMP JUMPDEST DUP1 PUSH0 PUSH0 DUP5 PUSH20 0xFFFFFFFFFFFFFFFFFFFFFFFFFFFFFFFFFFFFFFFF AND PUSH20 0xFFFFFFFFFFFFFFFFFFFFFFFFFFFFFFFFFFFFFFFF AND DUP2 MSTORE PUSH1 0x20 ADD SWAP1 DUP2 MSTORE PUSH1 0x20 ADD PUSH0 KECCAK256 PUSH0 DUP3 DUP3 SLOAD ADD SWAP3 POP POP DUP2 SWAP1 SSTORE POP JUMPDEST DUP2 PUSH20 0xFFFFFFFFFFFFFFFFFFFFFFFFFFFFFFFFFFFFFFFF AND DUP4 PUSH20 0xFFFFFFFFFFFFFFFFFFFFFFFFFFFFFFFFFFFFFFFF AND PUSH32 0xDDF252AD1BE2C89B69C2B068FC378DAA952BA7F163C4A11628F55A4DF523B3EF DUP4 PUSH1 0x40 MLOAD PUSH2 0x786 SWAP2 SWAP1 PUSH2 0xCA3 JUMP JUMPDEST PUSH1 0x40 MLOAD DUP1 SWAP2 SUB SWAP1 LOG3 POP POP POP JUMP JUMPDEST PUSH0 PUSH0 PUSH0 PUSH32 0x7FFFFFFFFFFFFFFFFFFFFFFFFFFFFFFF5D576E7357A4501DDFE92F46681B20A0 DUP5 PUSH0 SHR GT ISZERO PUSH2 0x7CF JUMPI PUSH0 PUSH1 0x3 DUP6 SWAP3 POP SWAP3 POP SWAP3 POP PUSH2 0x870 JUMP JUMPDEST PUSH0 PUSH1 0x1 DUP9 DUP9 DUP9 DUP9 PUSH1 0x40 MLOAD PUSH0 DUP2 MSTORE PUSH1 0x20 ADD PUSH1 0x40 MSTORE PUSH1 0x40 MLOAD PUSH2 0x7F2 SWAP5 SWAP4 SWAP3 SWAP2 SWAP1 PUSH2 0xD9D JUMP JUMPDEST PUSH1 0x20 PUSH1 0x40 MLOAD PUSH1 0x20 DUP2 SUB SWAP1 DUP1 DUP5 SUB SWAP1 DUP6 GAS STATICCALL ISZERO DUP1 ISZERO PUSH2 0x812 JUMPI RETURNDATASIZE PUSH0 PUSH0 RETURNDATACOPY RETURNDATASIZE PUSH0 REVERT JUMPDEST POP POP POP PUSH1 0x20 PUSH1 0x40 MLOAD SUB MLOAD SWAP1 POP PUSH0 PUSH20 0xFFFFFFFFFFFFFFFFFFFFFFFFFFFFFFFFFFFFFFFF AND DUP2 PUSH20 0xFFFFFFFFFFFFFFFFFFFFFFFFFFFFFFFFFFFFFFFF AND SUB PUSH2 0x863 JUMPI PUSH0 PUSH1 0x1 PUSH0 PUSH0 SHL SWAP4 POP SWAP4 POP SWAP4 POP POP PUSH2 0x870 JUMP JUMPDEST DUP1 PUSH0 PUSH0 PUSH0 SHL SWAP4 POP SWAP4 POP SWAP4 POP POP JUMPDEST SWAP5 POP SWAP5 POP SWAP5 SWAP2 POP POP JUMP JUMPDEST PUSH0 DUP2 MLOAD SWAP1 POP SWAP2 SWAP1 POP JUMP JUMPDEST PUSH32 0x4E487B7100000000000000000000000000000000000000000000000000000000 PUSH0 MSTORE PUSH1 0x41 PUSH1 0x4 MSTORE PUSH1 0x24 PUSH0 REVERT JUMPDEST PUSH32 0x4E487B7100000000000000000000000000000000000000000000000000000000 PUSH0 MSTORE PUSH1 0x22 PUSH1 0x4 MSTORE PUSH1 0x24 PUSH0 REVERT JUMPDEST PUSH0 PUSH1 0x2 DUP3 DIV SWAP1 POP PUSH1 0x1 DUP3 AND DUP1 PUSH2 0x8F5 JUMPI PUSH1 0x7F DUP3 AND SWAP2 POP JUMPDEST PUSH1 0x20 DUP3 LT DUP2 SUB PUSH2 0x908 JUMPI PUSH2 0x907 PUSH2 0x8B1 JUMP JUMPDEST JUMPDEST POP SWAP2 SWAP1 POP JUMP JUMPDEST PUSH0 DUP2 SWAP1 POP DUP2 PUSH0 MSTORE PUSH1 0x20 PUSH0 KECCAK256 SWAP1 POP SWAP2 SWAP1 POP JUMP JUMPDEST PUSH0 PUSH1 0x20 PUSH1 0x1F DUP4 ADD DIV SWAP1 POP SWAP2 SWAP1 POP JUMP JUMPDEST PUSH0 DUP3 DUP3 SHL SWAP1 POP SWAP3 SWAP2 POP POP JUMP JUMPDEST PUSH0 PUSH1 0x8 DUP4 MUL PUSH2 0x96A PUSH32 0xFFFFFFFFFFFFFFFFFFFFFFFFFFFFFFFFFFFFFFFFFFFFFFFFFFFFFFFFFFFFFFFF DUP3 PUSH2 0x92F JUMP JUMPDEST PUSH2 0x974 DUP7 DUP4 PUSH2 0x92F JUMP JUMPDEST SWAP6 POP DUP1 NOT DUP5 AND SWAP4 POP DUP1 DUP7 AND DUP5 OR SWAP3 POP POP POP SWAP4 SWAP3 POP POP POP JUMP JUMPDEST PUSH0 DUP2 SWAP1 POP SWAP2 SWAP1 POP JUMP JUMPDEST PUSH0 DUP2 SWAP1 POP SWAP2 SWAP1 POP JUMP JUMPDEST PUSH0 PUSH2 0x9B8 PUSH2 0x9B3 PUSH2 0x9AE DUP5 PUSH2 0x98C JUMP JUMPDEST PUSH2 0x995 JUMP JUMPDEST PUSH2 0x98C JUMP JUMPDEST SWAP1 POP SWAP2 SWAP1 POP JUMP JUMPDEST PUSH0 DUP2 SWAP1 POP SWAP2 SWAP1 POP JUMP JUMPDEST PUSH2 0x9D1 DUP4 PUSH2 0x99E JUMP JUMPDEST PUSH2 0x9E5 PUSH2 0x9DD DUP3 PUSH2 0x9BF JUMP JUMPDEST DUP5 DUP5 SLOAD PUSH2 0x93B JUMP JUMPDEST DUP3 SSTORE POP POP POP POP JUMP JUMPDEST PUSH0 PUSH0 SWAP1 POP SWAP1 JUMP JUMPDEST PUSH2 0x9FC PUSH2 0x9ED JUMP JUMPDEST PUSH2 0xA07 DUP2 DUP5 DUP5 PUSH2 0x9C8 JUMP JUMPDEST POP POP POP JUMP JUMPDEST PUSH0 JUMPDEST DUP3 DUP2 LT ISZERO PUSH2 0xA2D JUMPI PUSH2 0xA22 PUSH0 DUP3 DUP5 ADD PUSH2 0x9F4 JUMP JUMPDEST PUSH1 0x1 DUP2 ADD SWAP1 POP PUSH2 0xA0E JUMP JUMPDEST POP POP POP JUMP JUMPDEST PUSH1 0x1F DUP3 GT ISZERO PUSH2 0xA80 JUMPI DUP3 DUP3 GT ISZERO PUSH2 0xA7F JUMPI PUSH2 0xA4C DUP2 PUSH2 0x90E JUMP JUMPDEST PUSH2 0xA55 DUP4 PUSH2 0x920 JUMP JUMPDEST PUSH2 0xA5E DUP6 PUSH2 0x920 JUMP JUMPDEST PUSH1 0x20 DUP7 LT ISZERO PUSH2 0xA6B JUMPI PUSH0 SWAP1 POP JUMPDEST DUP1 DUP4 ADD PUSH2 0xA7A DUP3 DUP5 SUB DUP3 PUSH2 0xA0C JUMP JUMPDEST POP POP POP POP JUMPDEST JUMPDEST POP POP POP JUMP JUMPDEST PUSH0 DUP3 DUP3 SHR SWAP1 POP SWAP3 SWAP2 POP POP JUMP JUMPDEST PUSH0 PUSH2 0xAA0 PUSH0 NOT DUP5 PUSH1 0x8 MUL PUSH2 0xA85 JUMP JUMPDEST NOT DUP1 DUP4 AND SWAP2 POP POP SWAP3 SWAP2 POP POP JUMP JUMPDEST PUSH0 PUSH2 0xAB8 DUP4 DUP4 PUSH2 0xA91 JUMP JUMPDEST SWAP2 POP DUP3 PUSH1 0x2 MUL DUP3 OR SWAP1 POP SWAP3 SWAP2 POP POP JUMP JUMPDEST PUSH2 0xAD1 DUP3 PUSH2 0x87A JUMP JUMPDEST PUSH8 0xFFFFFFFFFFFFFFFF DUP2 GT ISZERO PUSH2 0xAEA JUMPI PUSH2 0xAE9 PUSH2 0x884 JUMP JUMPDEST JUMPDEST PUSH2 0xAF4 DUP3 SLOAD PUSH2 0x8DE JUMP JUMPDEST PUSH2 0xAFF DUP3 DUP3 DUP6 PUSH2 0xA32 JUMP JUMPDEST PUSH0 PUSH1 0x20 SWAP1 POP PUSH1 0x1F DUP4 GT PUSH1 0x1 DUP2 EQ PUSH2 0xB30 JUMPI PUSH0 DUP5 ISZERO PUSH2 0xB1E JUMPI DUP3 DUP8 ADD MLOAD SWAP1 POP JUMPDEST PUSH2 0xB28 DUP6 DUP3 PUSH2 0xAAD JUMP JUMPDEST DUP7 SSTORE POP PUSH2 0xB8F JUMP JUMPDEST PUSH1 0x1F NOT DUP5 AND PUSH2 0xB3E DUP7 PUSH2 0x90E JUMP JUMPDEST PUSH0 JUMPDEST DUP3 DUP2 LT ISZERO PUSH2 0xB65 JUMPI DUP5 DUP10 ADD MLOAD DUP3 SSTORE PUSH1 0x1 DUP3 ADD SWAP2 POP PUSH1 0x20 DUP6 ADD SWAP5 POP PUSH1 0x20 DUP2 ADD SWAP1 POP PUSH2 0xB40 JUMP JUMPDEST DUP7 DUP4 LT ISZERO PUSH2 0xB82 JUMPI DUP5 DUP10 ADD MLOAD PUSH2 0xB7E PUSH1 0x1F DUP10 AND DUP3 PUSH2 0xA91 JUMP JUMPDEST DUP4 SSTORE POP JUMPDEST PUSH1 0x1 PUSH1 0x2 DUP9 MUL ADD DUP9 SSTORE POP POP POP JUMPDEST POP POP POP POP POP POP JUMP JUMPDEST PUSH0 PUSH20 0xFFFFFFFFFFFFFFFFFFFFFFFFFFFFFFFFFFFFFFFF DUP3 AND SWAP1 POP SWAP2 SWAP1 POP JUMP JUMPDEST PUSH0 PUSH2 0xBC0 DUP3 PUSH2 0xB97 JUMP JUMPDEST SWAP1 POP SWAP2 SWAP1 POP JUMP JUMPDEST PUSH2 0xBD0 DUP2 PUSH2 0xBB6 JUMP JUMPDEST DUP3 MSTORE POP POP JUMP JUMPDEST PUSH0 PUSH1 0x20 DUP3 ADD SWAP1 POP PUSH2 0xBE9 PUSH0 DUP4 ADD DUP5 PUSH2 0xBC7 JUMP JUMPDEST SWAP3 SWAP2 POP POP JUMP JUMPDEST PUSH0 DUP3 DUP3 MSTORE PUSH1 0x20 DUP3 ADD SWAP1 POP SWAP3 SWAP2 POP POP JUMP JUMPDEST PUSH32 0x496E76616C69642067656E65736973207369676E617475726500000000000000 PUSH0 DUP3 ADD MSTORE POP JUMP JUMPDEST PUSH0 PUSH2 0xC33 PUSH1 0x19 DUP4 PUSH2 0xBEF JUMP JUMPDEST SWAP2 POP PUSH2 0xC3E DUP3 PUSH2 0xBFF JUMP JUMPDEST PUSH1 0x20 DUP3 ADD SWAP1 POP SWAP2 SWAP1 POP JUMP JUMPDEST PUSH0 PUSH1 0x20 DUP3 ADD SWAP1 POP DUP2 DUP2 SUB PUSH0 DUP4 ADD MSTORE PUSH2 0xC60 DUP2 PUSH2 0xC27 JUMP JUMPDEST SWAP1 POP SWAP2 SWAP1 POP JUMP JUMPDEST PUSH32 0x4E487B7100000000000000000000000000000000000000000000000000000000 PUSH0 MSTORE PUSH1 0x21 PUSH1 0x4 MSTORE PUSH1 0x24 PUSH0 REVERT JUMPDEST PUSH2 0xC9D DUP2 PUSH2 0x98C JUMP JUMPDEST DUP3 MSTORE POP POP JUMP JUMPDEST PUSH0 PUSH1 0x20 DUP3 ADD SWAP1 POP PUSH2 0xCB6 PUSH0 DUP4 ADD DUP5 PUSH2 0xC94 JUMP JUMPDEST SWAP3 SWAP2 POP POP JUMP JUMPDEST PUSH0 DUP2 SWAP1 POP SWAP2 SWAP1 POP JUMP JUMPDEST PUSH2 0xCCE DUP2 PUSH2 0xCBC JUMP JUMPDEST DUP3 MSTORE POP POP JUMP JUMPDEST PUSH0 PUSH1 0x20 DUP3 ADD SWAP1 POP PUSH2 0xCE7 PUSH0 DUP4 ADD DUP5 PUSH2 0xCC5 JUMP JUMPDEST SWAP3 SWAP2 POP POP JUMP JUMPDEST PUSH32 0x4E487B7100000000000000000000000000000000000000000000000000000000 PUSH0 MSTORE PUSH1 0x11 PUSH1 0x4 MSTORE PUSH1 0x24 PUSH0 REVERT JUMPDEST PUSH0 PUSH2 0xD24 DUP3 PUSH2 0x98C JUMP JUMPDEST SWAP2 POP PUSH2 0xD2F DUP4 PUSH2 0x98C JUMP JUMPDEST SWAP3 POP DUP3 DUP3 ADD SWAP1 POP DUP1 DUP3 GT ISZERO PUSH2 0xD47 JUMPI PUSH2 0xD46 PUSH2 0xCED JUMP JUMPDEST JUMPDEST SWAP3 SWAP2 POP POP JUMP JUMPDEST PUSH0 PUSH1 0x60 DUP3 ADD SWAP1 POP PUSH2 0xD60 PUSH0 DUP4 ADD DUP7 PUSH2 0xBC7 JUMP JUMPDEST PUSH2 0xD6D PUSH1 0x20 DUP4 ADD DUP6 PUSH2 0xC94 JUMP JUMPDEST PUSH2 0xD7A PUSH1 0x40 DUP4 ADD DUP5 PUSH2 0xC94 JUMP JUMPDEST SWAP5 SWAP4 POP POP POP POP JUMP JUMPDEST PUSH0 PUSH1 0xFF DUP3 AND SWAP1 POP SWAP2 SWAP1 POP JUMP JUMPDEST PUSH2 0xD97 DUP2 PUSH2 0xD82 JUMP JUMPDEST DUP3 MSTORE POP POP JUMP JUMPDEST PUSH0 PUSH1 0x80 DUP3 ADD SWAP1 POP PUSH2 0xDB0 PUSH0 DUP4 ADD DUP8 PUSH2 0xCC5 JUMP JUMPDEST PUSH2 0xDBD PUSH1 0x20 DUP4 ADD DUP7 PUSH2 0xD8E JUMP JUMPDEST PUSH2 0xDCA PUSH1 0x40 DUP4 ADD DUP6 PUSH2 0xCC5 JUMP JUMPDEST PUSH2 0xDD7 PUSH1 0x60 DUP4 ADD DUP5 PUSH2 0xCC5 JUMP JUMPDEST SWAP6 SWAP5 POP POP POP POP POP JUMP JUMPDEST PUSH2 0x190F DUP1 PUSH2 0xDED PUSH0 CODECOPY PUSH0 RETURN INVALID PUSH1 0x80 PUSH1 0x40 MSTORE CALLVALUE DUP1 ISZERO PUSH2 0xF JUMPI PUSH0 PUSH0 REVERT JUMPDEST POP PUSH1 0x4 CALLDATASIZE LT PUSH2 0x14B JUMPI PUSH0 CALLDATALOAD PUSH1 0xE0 SHR DUP1 PUSH4 0x715018A6 GT PUSH2 0xC1 JUMPI DUP1 PUSH4 0x965EA38C GT PUSH2 0x7A JUMPI DUP1 PUSH4 0x965EA38C EQ PUSH2 0x381 JUMPI DUP1 PUSH4 0x9F45BDAC EQ PUSH2 0x39F JUMPI DUP1 PUSH4 0xA9059CBB EQ PUSH2 0x3BD JUMPI DUP1 PUSH4 0xDD62ED3E EQ PUSH2 0x3ED JUMPI DUP1 PUSH4 0xE042735B EQ PUSH2 0x41D JUMPI DUP1 PUSH4 0xF2FDE38B EQ PUSH2 0x439 JUMPI PUSH2 0x14B JUMP JUMPDEST DUP1 PUSH4 0x715018A6 EQ PUSH2 0x2E1 JUMPI DUP1 PUSH4 0x77FD5D02 EQ PUSH2 0x2EB JUMPI DUP1 PUSH4 0x7E39CB58 EQ PUSH2 0x309 JUMPI DUP1 PUSH4 0x8DA5CB5B EQ PUSH2 0x327 JUMPI DUP1 PUSH4 0x902D55A5 EQ PUSH2 0x345 JUMPI DUP1 PUSH4 0x95D89B41 EQ PUSH2 0x363 JUMPI PUSH2 0x14B JUMP JUMPDEST DUP1 PUSH4 0x2C7ABEEA GT PUSH2 0x113 JUMPI DUP1 PUSH4 0x2C7ABEEA EQ PUSH2 0x209 JUMPI DUP1 PUSH4 0x313CE567 EQ PUSH2 0x227 JUMPI DUP1 PUSH4 0x38E21CCE EQ PUSH2 0x245 JUMPI DUP1 PUSH4 0x41BAEB92 EQ PUSH2 0x275 JUMPI DUP1 PUSH4 0x6E95B711 EQ PUSH2 0x293 JUMPI DUP1 PUSH4 0x70A08231 EQ PUSH2 0x2B1 JUMPI PUSH2 0x14B JUMP JUMPDEST DUP1 PUSH4 0x6FDDE03 EQ PUSH2 0x14F JUMPI DUP1 PUSH4 0x95EA7B3 EQ PUSH2 0x16D JUMPI DUP1 PUSH4 0x18160DDD EQ PUSH2 0x19D JUMPI DUP1 PUSH4 0x23B872DD EQ PUSH2 0x1BB JUMPI DUP1 PUSH4 0x28FD21C1 EQ PUSH2 0x1EB JUMPI JUMPDEST PUSH0 PUSH0 REVERT JUMPDEST PUSH2 0x157 PUSH2 0x455 JUMP JUMPDEST PUSH1 0x40 MLOAD PUSH2 0x164 SWAP2 SWAP1 PUSH2 0x1255 JUMP JUMPDEST PUSH1 0x40 MLOAD DUP1 SWAP2 SUB SWAP1 RETURN JUMPDEST PUSH2 0x187 PUSH1 0x4 DUP1 CALLDATASIZE SUB DUP2 ADD SWAP1 PUSH2 0x182 SWAP2 SWAP1 PUSH2 0x130A JUMP JUMPDEST PUSH2 0x4E5 JUMP JUMPDEST PUSH1 0x40 MLOAD PUSH2 0x194 SWAP2 SWAP1 PUSH2 0x1362 JUMP JUMPDEST PUSH1 0x40 MLOAD DUP1 SWAP2 SUB SWAP1 RETURN JUMPDEST PUSH2 0x1A5 PUSH2 0x507 JUMP JUMPDEST PUSH1 0x40 MLOAD PUSH2 0x1B2 SWAP2 SWAP1 PUSH2 0x138A JUMP JUMPDEST PUSH1 0x40 MLOAD DUP1 SWAP2 SUB SWAP1 RETURN JUMPDEST PUSH2 0x1D5 PUSH1 0x4 DUP1 CALLDATASIZE SUB DUP2 ADD SWAP1 PUSH2 0x1D0 SWAP2 SWAP1 PUSH2 0x13A3 JUMP JUMPDEST PUSH2 0x510 JUMP JUMPDEST PUSH1 0x40 MLOAD PUSH2 0x1E2 SWAP2 SWAP1 PUSH2 0x1362 JUMP JUMPDEST PUSH1 0x40 MLOAD DUP1 SWAP2 SUB SWAP1 RETURN JUMPDEST PUSH2 0x1F3 PUSH2 0x53E JUMP JUMPDEST PUSH1 0x40 MLOAD PUSH2 0x200 SWAP2 SWAP1 PUSH2 0x1445 JUMP JUMPDEST PUSH1 0x40 MLOAD DUP1 SWAP2 SUB SWAP1 RETURN JUMPDEST PUSH2 0x211 PUSH2 0x55A JUMP JUMPDEST PUSH1 0x40 MLOAD PUSH2 0x21E SWAP2 SWAP1 PUSH2 0x138A JUMP JUMPDEST PUSH1 0x40 MLOAD DUP1 SWAP2 SUB SWAP1 RETURN JUMPDEST PUSH2 0x22F PUSH2 0x567 JUMP JUMPDEST PUSH1 0x40 MLOAD PUSH2 0x23C SWAP2 SWAP1 PUSH2 0x1480 JUMP JUMPDEST PUSH1 0x40 MLOAD DUP1 SWAP2 SUB SWAP1 RETURN JUMPDEST PUSH2 0x25F PUSH1 0x4 DUP1 CALLDATASIZE SUB DUP2 ADD SWAP1 PUSH2 0x25A SWAP2 SWAP1 PUSH2 0x1499 JUMP JUMPDEST PUSH2 0x56F JUMP JUMPDEST PUSH1 0x40 MLOAD PUSH2 0x26C SWAP2 SWAP1 PUSH2 0x1362 JUMP JUMPDEST PUSH1 0x40 MLOAD DUP1 SWAP2 SUB SWAP1 RETURN JUMPDEST PUSH2 0x27D PUSH2 0x58C JUMP JUMPDEST PUSH1 0x40 MLOAD PUSH2 0x28A SWAP2 SWAP1 PUSH2 0x138A JUMP JUMPDEST PUSH1 0x40 MLOAD DUP1 SWAP2 SUB SWAP1 RETURN JUMPDEST PUSH2 0x29B PUSH2 0x592 JUMP JUMPDEST PUSH1 0x40 MLOAD PUSH2 0x2A8 SWAP2 SWAP1 PUSH2 0x138A JUMP JUMPDEST PUSH1 0x40 MLOAD DUP1 SWAP2 SUB SWAP1 RETURN JUMPDEST PUSH2 0x2CB PUSH1 0x4 DUP1 CALLDATASIZE SUB DUP2 ADD SWAP1 PUSH2 0x2C6 SWAP2 SWAP1 PUSH2 0x1499 JUMP JUMPDEST PUSH2 0x5A1 JUMP JUMPDEST PUSH1 0x40 MLOAD PUSH2 0x2D8 SWAP2 SWAP1 PUSH2 0x138A JUMP JUMPDEST PUSH1 0x40 MLOAD DUP1 SWAP2 SUB SWAP1 RETURN JUMPDEST PUSH2 0x2E9 PUSH2 0x5E6 JUMP JUMPDEST STOP JUMPDEST PUSH2 0x2F3 PUSH2 0x5F9 JUMP JUMPDEST PUSH1 0x40 MLOAD PUSH2 0x300 SWAP2 SWAP1 PUSH2 0x138A JUMP JUMPDEST PUSH1 0x40 MLOAD DUP1 SWAP2 SUB SWAP1 RETURN JUMPDEST PUSH2 0x311 PUSH2 0x61E JUMP JUMPDEST PUSH1 0x40 MLOAD PUSH2 0x31E SWAP2 SWAP1 PUSH2 0x14DC JUMP JUMPDEST PUSH1 0x40 MLOAD DUP1 SWAP2 SUB SWAP1 RETURN JUMPDEST PUSH2 0x32F PUSH2 0x642 JUMP JUMPDEST PUSH1 0x40 MLOAD PUSH2 0x33C SWAP2 SWAP1 PUSH2 0x1504 JUMP JUMPDEST PUSH1 0x40 MLOAD DUP1 SWAP2 SUB SWAP1 RETURN JUMPDEST PUSH2 0x34D PUSH2 0x66A JUMP JUMPDEST PUSH1 0x40 MLOAD PUSH2 0x35A SWAP2 SWAP1 PUSH2 0x138A JUMP JUMPDEST PUSH1 0x40 MLOAD DUP1 SWAP2 SUB SWAP1 RETURN JUMPDEST PUSH2 0x36B PUSH2 0x679 JUMP JUMPDEST PUSH1 0x40 MLOAD PUSH2 0x378 SWAP2 SWAP1 PUSH2 0x1255 JUMP JUMPDEST PUSH1 0x40 MLOAD DUP1 SWAP2 SUB SWAP1 RETURN JUMPDEST PUSH2 0x389 PUSH2 0x709 JUMP JUMPDEST PUSH1 0x40 MLOAD PUSH2 0x396 SWAP2 SWAP1 PUSH2 0x1445 JUMP JUMPDEST PUSH1 0x40 MLOAD DUP1 SWAP2 SUB SWAP1 RETURN JUMPDEST PUSH2 0x3A7 PUSH2 0x742 JUMP JUMPDEST PUSH1 0x40 MLOAD PUSH2 0x3B4 SWAP2 SWAP1 PUSH2 0x14DC JUMP JUMPDEST PUSH1 0x40 MLOAD DUP1 SWAP2 SUB SWAP1 RETURN JUMPDEST PUSH2 0x3D7 PUSH1 0x4 DUP1 CALLDATASIZE SUB DUP2 ADD SWAP1 PUSH2 0x3D2 SWAP2 SWAP1 PUSH2 0x130A JUMP JUMPDEST PUSH2 0x766 JUMP JUMPDEST PUSH1 0x40 MLOAD PUSH2 0x3E4 SWAP2 SWAP1 PUSH2 0x1362 JUMP JUMPDEST PUSH1 0x40 MLOAD DUP1 SWAP2 SUB SWAP1 RETURN JUMPDEST PUSH2 0x407 PUSH1 0x4 DUP1 CALLDATASIZE SUB DUP2 ADD SWAP1 PUSH2 0x402 SWAP2 SWAP1 PUSH2 0x151D JUMP JUMPDEST PUSH2 0x788 JUMP JUMPDEST PUSH1 0x40 MLOAD PUSH2 0x414 SWAP2 SWAP1 PUSH2 0x138A JUMP JUMPDEST PUSH1 0x40 MLOAD DUP1 SWAP2 SUB SWAP1 RETURN JUMPDEST PUSH2 0x437 PUSH1 0x4 DUP1 CALLDATASIZE SUB DUP2 ADD SWAP1 PUSH2 0x432 SWAP2 SWAP1 PUSH2 0x15BC JUMP JUMPDEST PUSH2 0x80A JUMP JUMPDEST STOP JUMPDEST PUSH2 0x453 PUSH1 0x4 DUP1 CALLDATASIZE SUB DUP2 ADD SWAP1 PUSH2 0x44E SWAP2 SWAP1 PUSH2 0x1499 JUMP JUMPDEST PUSH2 0xA14 JUMP JUMPDEST STOP JUMPDEST PUSH1 0x60 PUSH1 0x3 DUP1 SLOAD PUSH2 0x464 SWAP1 PUSH2 0x1634 JUMP JUMPDEST DUP1 PUSH1 0x1F ADD PUSH1 0x20 DUP1 SWAP2 DIV MUL PUSH1 0x20 ADD PUSH1 0x40 MLOAD SWAP1 DUP2 ADD PUSH1 0x40 MSTORE DUP1 SWAP3 SWAP2 SWAP1 DUP2 DUP2 MSTORE PUSH1 0x20 ADD DUP3 DUP1 SLOAD PUSH2 0x490 SWAP1 PUSH2 0x1634 JUMP JUMPDEST DUP1 ISZERO PUSH2 0x4DB JUMPI DUP1 PUSH1 0x1F LT PUSH2 0x4B2 JUMPI PUSH2 0x100 DUP1 DUP4 SLOAD DIV MUL DUP4 MSTORE SWAP2 PUSH1 0x20 ADD SWAP2 PUSH2 0x4DB JUMP JUMPDEST DUP3 ADD SWAP2 SWAP1 PUSH0 MSTORE PUSH1 0x20 PUSH0 KECCAK256 SWAP1 JUMPDEST DUP2 SLOAD DUP2 MSTORE SWAP1 PUSH1 0x1 ADD SWAP1 PUSH1 0x20 ADD DUP1 DUP4 GT PUSH2 0x4BE JUMPI DUP3 SWAP1 SUB PUSH1 0x1F AND DUP3 ADD SWAP2 JUMPDEST POP POP POP POP POP SWAP1 POP SWAP1 JUMP JUMPDEST PUSH0 PUSH0 PUSH2 0x4EF PUSH2 0xA98 JUMP JUMPDEST SWAP1 POP PUSH2 0x4FC DUP2 DUP6 DUP6 PUSH2 0xA9F JUMP JUMPDEST PUSH1 0x1 SWAP2 POP POP SWAP3 SWAP2 POP POP JUMP JUMPDEST PUSH0 PUSH1 0x2 SLOAD SWAP1 POP SWAP1 JUMP JUMPDEST PUSH0 PUSH0 PUSH2 0x51A PUSH2 0xA98 JUMP JUMPDEST SWAP1 POP PUSH2 0x527 DUP6 DUP3 DUP6 PUSH2 0xAB1 JUMP JUMPDEST PUSH2 0x532 DUP6 DUP6 DUP6 PUSH2 0xB44 JUMP JUMPDEST PUSH1 0x1 SWAP2 POP POP SWAP4 SWAP3 POP POP POP JUMP JUMPDEST PUSH1 0x40 MLOAD DUP1 PUSH1 0x60 ADD PUSH1 0x40 MSTORE DUP1 PUSH1 0x21 DUP2 MSTORE PUSH1 0x20 ADD PUSH2 0x18B9 PUSH1 0x21 SWAP2 CODECOPY DUP2 JUMP JUMPDEST PUSH9 0x3635C9ADC5DEA00000 DUP2 JUMP JUMPDEST PUSH0 PUSH1 0x12 SWAP1 POP SWAP1 JUMP JUMPDEST PUSH1 0x7 PUSH1 0x20 MSTORE DUP1 PUSH0 MSTORE PUSH1 0x40 PUSH0 KECCAK256 PUSH0 SWAP2 POP SLOAD SWAP1 PUSH2 0x100 EXP SWAP1 DIV PUSH1 0xFF AND DUP2 JUMP JUMPDEST PUSH1 0x6 SLOAD DUP2 JUMP JUMPDEST PUSH11 0x6342FD08F00F637800000 DUP2 JUMP JUMPDEST PUSH0 PUSH0 PUSH0 DUP4 PUSH20 0xFFFFFFFFFFFFFFFFFFFFFFFFFFFFFFFFFFFFFFFF AND PUSH20 0xFFFFFFFFFFFFFFFFFFFFFFFFFFFFFFFFFFFFFFFF AND DUP2 MSTORE PUSH1 0x20 ADD SWAP1 DUP2 MSTORE PUSH1 0x20 ADD PUSH0 KECCAK256 SLOAD SWAP1 POP SWAP2 SWAP1 POP JUMP JUMPDEST PUSH2 0x5EE PUSH2 0xC34 JUMP JUMPDEST PUSH2 0x5F7 PUSH0 PUSH2 0xCBB JUMP JUMPDEST JUMP JUMPDEST PUSH11 0x6342FD08F00F637800000 PUSH11 0x17FCFD266D36EB3D000000 PUSH2 0x61B SWAP2 SWAP1 PUSH2 0x1691 JUMP JUMPDEST DUP2 JUMP JUMPDEST PUSH32 0x3D6146D9EC877E7556EDBFF9B8FA61CA49404AC8B4128AB4937A74C7B033CEE7 DUP2 JUMP JUMPDEST PUSH0 PUSH1 0x5 PUSH0 SWAP1 SLOAD SWAP1 PUSH2 0x100 EXP SWAP1 DIV PUSH20 0xFFFFFFFFFFFFFFFFFFFFFFFFFFFFFFFFFFFFFFFF AND SWAP1 POP SWAP1 JUMP JUMPDEST PUSH11 0x17FCFD266D36EB3D000000 DUP2 JUMP JUMPDEST PUSH1 0x60 PUSH1 0x4 DUP1 SLOAD PUSH2 0x688 SWAP1 PUSH2 0x1634 JUMP JUMPDEST DUP1 PUSH1 0x1F ADD PUSH1 0x20 DUP1 SWAP2 DIV MUL PUSH1 0x20 ADD PUSH1 0x40 MLOAD SWAP1 DUP2 ADD PUSH1 0x40 MSTORE DUP1 SWAP3 SWAP2 SWAP1 DUP2 DUP2 MSTORE PUSH1 0x20 ADD DUP3 DUP1 SLOAD PUSH2 0x6B4 SWAP1 PUSH2 0x1634 JUMP JUMPDEST DUP1 ISZERO PUSH2 0x6FF JUMPI DUP1 PUSH1 0x1F LT PUSH2 0x6D6 JUMPI PUSH2 0x100 DUP1 DUP4 SLOAD DIV MUL DUP4 MSTORE SWAP2 PUSH1 0x20 ADD SWAP2 PUSH2 0x6FF JUMP JUMPDEST DUP3 ADD SWAP2 SWAP1 PUSH0 MSTORE PUSH1 0x20 PUSH0 KECCAK256 SWAP1 JUMPDEST DUP2 SLOAD DUP2 MSTORE SWAP1 PUSH1 0x1 ADD SWAP1 PUSH1 0x20 ADD DUP1 DUP4 GT PUSH2 0x6E2 JUMPI DUP3 SWAP1 SUB PUSH1 0x1F AND DUP3 ADD SWAP2 JUMPDEST POP POP POP POP POP SWAP1 POP SWAP1 JUMP JUMPDEST PUSH1 0x40 MLOAD DUP1 PUSH1 0x40 ADD PUSH1 0x40 MSTORE DUP1 PUSH1 0x20 DUP2 MSTORE PUSH1 0x20 ADD PUSH32 0x1234567890ABCDEF1234567890ABCDEF1234567890ABCDEF1234567890ABCDEF DUP2 MSTORE POP DUP2 JUMP JUMPDEST PUSH32 0x450D5CA1D5FA8AEE9D893F6C7AC9FD8E59A06FF5F40DAC808D5E4B456017F336 DUP2 JUMP JUMPDEST PUSH0 PUSH0 PUSH2 0x770 PUSH2 0xA98 JUMP JUMPDEST SWAP1 POP PUSH2 0x77D DUP2 DUP6 DUP6 PUSH2 0xB44 JUMP JUMPDEST PUSH1 0x1 SWAP2 POP POP SWAP3 SWAP2 POP POP JUMP JUMPDEST PUSH0 PUSH1 0x1 PUSH0 DUP5 PUSH20 0xFFFFFFFFFFFFFFFFFFFFFFFFFFFFFFFFFFFFFFFF AND PUSH20 0xFFFFFFFFFFFFFFFFFFFFFFFFFFFFFFFFFFFFFFFF AND DUP2 MSTORE PUSH1 0x20 ADD SWAP1 DUP2 MSTORE PUSH1 0x20 ADD PUSH0 KECCAK256 PUSH0 DUP4 PUSH20 0xFFFFFFFFFFFFFFFFFFFFFFFFFFFFFFFFFFFFFFFF AND PUSH20 0xFFFFFFFFFFFFFFFFFFFFFFFFFFFFFFFFFFFFFFFF AND DUP2 MSTORE PUSH1 0x20 ADD SWAP1 DUP2 MSTORE PUSH1 0x20 ADD PUSH0 KECCAK256 SLOAD SWAP1 POP SWAP3 SWAP2 POP POP JUMP JUMPDEST PUSH1 0x7 PUSH0 CALLER PUSH20 0xFFFFFFFFFFFFFFFFFFFFFFFFFFFFFFFFFFFFFFFF AND PUSH20 0xFFFFFFFFFFFFFFFFFFFFFFFFFFFFFFFFFFFFFFFF AND DUP2 MSTORE PUSH1 0x20 ADD SWAP1 DUP2 MSTORE PUSH1 0x20 ADD PUSH0 KECCAK256 PUSH0 SWAP1 SLOAD SWAP1 PUSH2 0x100 EXP SWAP1 DIV PUSH1 0xFF AND ISZERO PUSH2 0x894 JUMPI PUSH1 0x40 MLOAD PUSH32 0x8C379A000000000000000000000000000000000000000000000000000000000 DUP2 MSTORE PUSH1 0x4 ADD PUSH2 0x88B SWAP1 PUSH2 0x170E JUMP JUMPDEST PUSH1 0x40 MLOAD DUP1 SWAP2 SUB SWAP1 REVERT JUMPDEST PUSH32 0x3D6146D9EC877E7556EDBFF9B8FA61CA49404AC8B4128AB4937A74C7B033CEE7 DUP3 DUP3 PUSH1 0x40 MLOAD PUSH2 0x8C5 SWAP3 SWAP2 SWAP1 PUSH2 0x1768 JUMP JUMPDEST PUSH1 0x40 MLOAD DUP1 SWAP2 SUB SWAP1 KECCAK256 EQ PUSH2 0x90D JUMPI PUSH1 0x40 MLOAD PUSH32 0x8C379A000000000000000000000000000000000000000000000000000000000 DUP2 MSTORE PUSH1 0x4 ADD PUSH2 0x904 SWAP1 PUSH2 0x17CA JUMP JUMPDEST PUSH1 0x40 MLOAD DUP1 SWAP2 SUB SWAP1 REVERT JUMPDEST PUSH11 0x6342FD08F00F637800000 PUSH11 0x17FCFD266D36EB3D000000 PUSH2 0x92F SWAP2 SWAP1 PUSH2 0x1691 JUMP JUMPDEST PUSH9 0x3635C9ADC5DEA00000 PUSH1 0x6 SLOAD PUSH2 0x946 SWAP2 SWAP1 PUSH2 0x17E8 JUMP JUMPDEST GT ISZERO PUSH2 0x987 JUMPI PUSH1 0x40 MLOAD PUSH32 0x8C379A000000000000000000000000000000000000000000000000000000000 DUP2 MSTORE PUSH1 0x4 ADD PUSH2 0x97E SWAP1 PUSH2 0x1865 JUMP JUMPDEST PUSH1 0x40 MLOAD DUP1 SWAP2 SUB SWAP1 REVERT JUMPDEST PUSH2 0x99A CALLER PUSH9 0x3635C9ADC5DEA00000 PUSH2 0xD7E JUMP JUMPDEST PUSH9 0x3635C9ADC5DEA00000 PUSH1 0x6 PUSH0 DUP3 DUP3 SLOAD PUSH2 0x9B4 SWAP2 SWAP1 PUSH2 0x17E8 JUMP JUMPDEST SWAP3 POP POP DUP2 SWAP1 SSTORE POP PUSH1 0x1 PUSH1 0x7 PUSH0 CALLER PUSH20 0xFFFFFFFFFFFFFFFFFFFFFFFFFFFFFFFFFFFFFFFF AND PUSH20 0xFFFFFFFFFFFFFFFFFFFFFFFFFFFFFFFFFFFFFFFF AND DUP2 MSTORE PUSH1 0x20 ADD SWAP1 DUP2 MSTORE PUSH1 0x20 ADD PUSH0 KECCAK256 PUSH0 PUSH2 0x100 EXP DUP2 SLOAD DUP2 PUSH1 0xFF MUL NOT AND SWAP1 DUP4 ISZERO ISZERO MUL OR SWAP1 SSTORE POP POP POP JUMP JUMPDEST PUSH2 0xA1C PUSH2 0xC34 JUMP JUMPDEST PUSH0 PUSH20 0xFFFFFFFFFFFFFFFFFFFFFFFFFFFFFFFFFFFFFFFF AND DUP2 PUSH20 0xFFFFFFFFFFFFFFFFFFFFFFFFFFFFFFFFFFFFFFFF AND SUB PUSH2 0xA8C JUMPI PUSH0 PUSH1 0x40 MLOAD PUSH32 0x1E4FBDF700000000000000000000000000000000000000000000000000000000 DUP2 MSTORE PUSH1 0x4 ADD PUSH2 0xA83 SWAP2 SWAP1 PUSH2 0x1504 JUMP JUMPDEST PUSH1 0x40 MLOAD DUP1 SWAP2 SUB SWAP1 REVERT JUMPDEST PUSH2 0xA95 DUP2 PUSH2 0xCBB JUMP JUMPDEST POP JUMP JUMPDEST PUSH0 CALLER SWAP1 POP SWAP1 JUMP JUMPDEST PUSH2 0xAAC DUP4 DUP4 DUP4 PUSH1 0x1 PUSH2 0xDFD JUMP JUMPDEST POP POP POP JUMP JUMPDEST PUSH0 PUSH2 0xABC DUP5 DUP5 PUSH2 0x788 JUMP JUMPDEST SWAP1 POP PUSH32 0xFFFFFFFFFFFFFFFFFFFFFFFFFFFFFFFFFFFFFFFFFFFFFFFFFFFFFFFFFFFFFFFF DUP2 LT ISZERO PUSH2 0xB3E JUMPI DUP2 DUP2 LT ISZERO PUSH2 0xB2F JUMPI DUP3 DUP2 DUP4 PUSH1 0x40 MLOAD PUSH32 0xFB8F41B200000000000000000000000000000000000000000000000000000000 DUP2 MSTORE PUSH1 0x4 ADD PUSH2 0xB26 SWAP4 SWAP3 SWAP2 SWAP1 PUSH2 0x1883 JUMP JUMPDEST PUSH1 0x40 MLOAD DUP1 SWAP2 SUB SWAP1 REVERT JUMPDEST PUSH2 0xB3D DUP5 DUP5 DUP5 DUP5 SUB PUSH0 PUSH2 0xDFD JUMP JUMPDEST JUMPDEST POP POP POP POP JUMP JUMPDEST PUSH0 PUSH20 0xFFFFFFFFFFFFFFFFFFFFFFFFFFFFFFFFFFFFFFFF AND DUP4 PUSH20 0xFFFFFFFFFFFFFFFFFFFFFFFFFFFFFFFFFFFFFFFF AND SUB PUSH2 0xBB4 JUMPI PUSH0 PUSH1 0x40 MLOAD PUSH32 0x96C6FD1E00000000000000000000000000000000000000000000000000000000 DUP2 MSTORE PUSH1 0x4 ADD PUSH2 0xBAB SWAP2 SWAP1 PUSH2 0x1504 JUMP JUMPDEST PUSH1 0x40 MLOAD DUP1 SWAP2 SUB SWAP1 REVERT JUMPDEST PUSH0 PUSH20 0xFFFFFFFFFFFFFFFFFFFFFFFFFFFFFFFFFFFFFFFF AND DUP3 PUSH20 0xFFFFFFFFFFFFFFFFFFFFFFFFFFFFFFFFFFFFFFFF AND SUB PUSH2 0xC24 JUMPI PUSH0 PUSH1 0x40 MLOAD PUSH32 0xEC442F0500000000000000000000000000000000000000000000000000000000 DUP2 MSTORE PUSH1 0x4 ADD PUSH2 0xC1B SWAP2 SWAP1 PUSH2 0x1504 JUMP JUMPDEST PUSH1 0x40 MLOAD DUP1 SWAP2 SUB SWAP1 REVERT JUMPDEST PUSH2 0xC2F DUP4 DUP4 DUP4 PUSH2 0xFCC JUMP JUMPDEST POP POP POP JUMP JUMPDEST PUSH2 0xC3C PUSH2 0xA98 JUMP JUMPDEST PUSH20 0xFFFFFFFFFFFFFFFFFFFFFFFFFFFFFFFFFFFFFFFF AND PUSH2 0xC5A PUSH2 0x642 JUMP JUMPDEST PUSH20 0xFFFFFFFFFFFFFFFFFFFFFFFFFFFFFFFFFFFFFFFF AND EQ PUSH2 0xCB9 JUMPI PUSH2 0xC7D PUSH2 0xA98 JUMP JUMPDEST PUSH1 0x40 MLOAD PUSH32 0x118CDAA700000000000000000000000000000000000000000000000000000000 DUP2 MSTORE PUSH1 0x4 ADD PUSH2 0xCB0 SWAP2 SWAP1 PUSH2 0x1504 JUMP JUMPDEST PUSH1 0x40 MLOAD DUP1 SWAP2 SUB SWAP1 REVERT JUMPDEST JUMP JUMPDEST PUSH0 PUSH1 0x5 PUSH0 SWAP1 SLOAD SWAP1 PUSH2 0x100 EXP SWAP1 DIV PUSH20 0xFFFFFFFFFFFFFFFFFFFFFFFFFFFFFFFFFFFFFFFF AND SWAP1 POP DUP2 PUSH1 0x5 PUSH0 PUSH2 0x100 EXP DUP2 SLOAD DUP2 PUSH20 0xFFFFFFFFFFFFFFFFFFFFFFFFFFFFFFFFFFFFFFFF MUL NOT AND SWAP1 DUP4 PUSH20 0xFFFFFFFFFFFFFFFFFFFFFFFFFFFFFFFFFFFFFFFF AND MUL OR SWAP1 SSTORE POP DUP2 PUSH20 0xFFFFFFFFFFFFFFFFFFFFFFFFFFFFFFFFFFFFFFFF AND DUP2 PUSH20 0xFFFFFFFFFFFFFFFFFFFFFFFFFFFFFFFFFFFFFFFF AND PUSH32 0x8BE0079C531659141344CD1FD0A4F28419497F9722A3DAAFE3B4186F6B6457E0 PUSH1 0x40 MLOAD PUSH1 0x40 MLOAD DUP1 SWAP2 SUB SWAP1 LOG3 POP POP JUMP JUMPDEST PUSH0 PUSH20 0xFFFFFFFFFFFFFFFFFFFFFFFFFFFFFFFFFFFFFFFF AND DUP3 PUSH20 0xFFFFFFFFFFFFFFFFFFFFFFFFFFFFFFFFFFFFFFFF AND SUB PUSH2 0xDEE JUMPI PUSH0 PUSH1 0x40 MLOAD PUSH32 0xEC442F0500000000000000000000000000000000000000000000000000000000 DUP2 MSTORE PUSH1 0x4 ADD PUSH2 0xDE5 SWAP2 SWAP1 PUSH2 0x1504 JUMP JUMPDEST PUSH1 0x40 MLOAD DUP1 SWAP2 SUB SWAP1 REVERT JUMPDEST PUSH2 0xDF9 PUSH0 DUP4 DUP4 PUSH2 0xFCC JUMP JUMPDEST POP POP JUMP JUMPDEST PUSH0 PUSH20 0xFFFFFFFFFFFFFFFFFFFFFFFFFFFFFFFFFFFFFFFF AND DUP5 PUSH20 0xFFFFFFFFFFFFFFFFFFFFFFFFFFFFFFFFFFFFFFFF AND SUB PUSH2 0xE6D JUMPI PUSH0 PUSH1 0x40 MLOAD PUSH32 0xE602DF0500000000000000000000000000000000000000000000000000000000 DUP2 MSTORE PUSH1 0x4 ADD PUSH2 0xE64 SWAP2 SWAP1 PUSH2 0x1504 JUMP JUMPDEST PUSH1 0x40 MLOAD DUP1 SWAP2 SUB SWAP1 REVERT JUMPDEST PUSH0 PUSH20 0xFFFFFFFFFFFFFFFFFFFFFFFFFFFFFFFFFFFFFFFF AND DUP4 PUSH20 0xFFFFFFFFFFFFFFFFFFFFFFFFFFFFFFFFFFFFFFFF AND SUB PUSH2 0xEDD JUMPI PUSH0 PUSH1 0x40 MLOAD PUSH32 0x94280D6200000000000000000000000000000000000000000000000000000000 DUP2 MSTORE PUSH1 0x4 ADD PUSH2 0xED4 SWAP2 SWAP1 PUSH2 0x1504 JUMP JUMPDEST PUSH1 0x40 MLOAD DUP1 SWAP2 SUB SWAP1 REVERT JUMPDEST DUP2 PUSH1 0x1 PUSH0 DUP7 PUSH20 0xFFFFFFFFFFFFFFFFFFFFFFFFFFFFFFFFFFFFFFFF AND PUSH20 0xFFFFFFFFFFFFFFFFFFFFFFFFFFFFFFFFFFFFFFFF AND DUP2 MSTORE PUSH1 0x20 ADD SWAP1 DUP2 MSTORE PUSH1 0x20 ADD PUSH0 KECCAK256 PUSH0 DUP6 PUSH20 0xFFFFFFFFFFFFFFFFFFFFFFFFFFFFFFFFFFFFFFFF AND PUSH20 0xFFFFFFFFFFFFFFFFFFFFFFFFFFFFFFFFFFFFFFFF AND DUP2 MSTORE PUSH1 0x20 ADD SWAP1 DUP2 MSTORE PUSH1 0x20 ADD PUSH0 KECCAK256 DUP2 SWAP1 SSTORE POP DUP1 ISZERO PUSH2 0xFC6 JUMPI DUP3 PUSH20 0xFFFFFFFFFFFFFFFFFFFFFFFFFFFFFFFFFFFFFFFF AND DUP5 PUSH20 0xFFFFFFFFFFFFFFFFFFFFFFFFFFFFFFFFFFFFFFFF AND PUSH32 0x8C5BE1E5EBEC7D5BD14F71427D1E84F3DD0314C0F7B2291E5B200AC8C7C3B925 DUP5 PUSH1 0x40 MLOAD PUSH2 0xFBD SWAP2 SWAP1 PUSH2 0x138A JUMP JUMPDEST PUSH1 0x40 MLOAD DUP1 SWAP2 SUB SWAP1 LOG3 JUMPDEST POP POP POP POP JUMP JUMPDEST PUSH0 PUSH20 0xFFFFFFFFFFFFFFFFFFFFFFFFFFFFFFFFFFFFFFFF AND DUP4 PUSH20 0xFFFFFFFFFFFFFFFFFFFFFFFFFFFFFFFFFFFFFFFF AND SUB PUSH2 0x101C JUMPI DUP1 PUSH1 0x2 PUSH0 DUP3 DUP3 SLOAD PUSH2 0x1010 SWAP2 SWAP1 PUSH2 0x17E8 JUMP JUMPDEST SWAP3 POP POP DUP2 SWAP1 SSTORE POP PUSH2 0x10EA JUMP JUMPDEST PUSH0 PUSH0 PUSH0 DUP6 PUSH20 0xFFFFFFFFFFFFFFFFFFFFFFFFFFFFFFFFFFFFFFFF AND PUSH20 0xFFFFFFFFFFFFFFFFFFFFFFFFFFFFFFFFFFFFFFFF AND DUP2 MSTORE PUSH1 0x20 ADD SWAP1 DUP2 MSTORE PUSH1 0x20 ADD PUSH0 KECCAK256 SLOAD SWAP1 POP DUP2 DUP2 LT ISZERO PUSH2 0x10A5 JUMPI DUP4 DUP2 DUP4 PUSH1 0x40 MLOAD PUSH32 0xE450D38C00000000000000000000000000000000000000000000000000000000 DUP2 MSTORE PUSH1 0x4 ADD PUSH2 0x109C SWAP4 SWAP3 SWAP2 SWAP1 PUSH2 0x1883 JUMP JUMPDEST PUSH1 0x40 MLOAD DUP1 SWAP2 SUB SWAP1 REVERT JUMPDEST DUP2 DUP2 SUB PUSH0 PUSH0 DUP7 PUSH20 0xFFFFFFFFFFFFFFFFFFFFFFFFFFFFFFFFFFFFFFFF AND PUSH20 0xFFFFFFFFFFFFFFFFFFFFFFFFFFFFFFFFFFFFFFFF AND DUP2 MSTORE PUSH1 0x20 ADD SWAP1 DUP2 MSTORE PUSH1 0x20 ADD PUSH0 KECCAK256 DUP2 SWAP1 SSTORE POP POP JUMPDEST PUSH0 PUSH20 0xFFFFFFFFFFFFFFFFFFFFFFFFFFFFFFFFFFFFFFFF AND DUP3 PUSH20 0xFFFFFFFFFFFFFFFFFFFFFFFFFFFFFFFFFFFFFFFF AND SUB PUSH2 0x1131 JUMPI DUP1 PUSH1 0x2 PUSH0 DUP3 DUP3 SLOAD SUB SWAP3 POP POP DUP2 SWAP1 SSTORE POP PUSH2 0x117B JUMP JUMPDEST DUP1 PUSH0 PUSH0 DUP5 PUSH20 0xFFFFFFFFFFFFFFFFFFFFFFFFFFFFFFFFFFFFFFFF AND PUSH20 0xFFFFFFFFFFFFFFFFFFFFFFFFFFFFFFFFFFFFFFFF AND DUP2 MSTORE PUSH1 0x20 ADD SWAP1 DUP2 MSTORE PUSH1 0x20 ADD PUSH0 KECCAK256 PUSH0 DUP3 DUP3 SLOAD ADD SWAP3 POP POP DUP2 SWAP1 SSTORE POP JUMPDEST DUP2 PUSH20 0xFFFFFFFFFFFFFFFFFFFFFFFFFFFFFFFFFFFFFFFF AND DUP4 PUSH20 0xFFFFFFFFFFFFFFFFFFFFFFFFFFFFFFFFFFFFFFFF AND PUSH32 0xDDF252AD1BE2C89B69C2B068FC378DAA952BA7F163C4A11628F55A4DF523B3EF DUP4 PUSH1 0x40 MLOAD PUSH2 0x11D8 SWAP2 SWAP1 PUSH2 0x138A JUMP JUMPDEST PUSH1 0x40 MLOAD DUP1 SWAP2 SUB SWAP1 LOG3 POP POP POP JUMP JUMPDEST PUSH0 DUP2 MLOAD SWAP1 POP SWAP2 SWAP1 POP JUMP JUMPDEST PUSH0 DUP3 DUP3 MSTORE PUSH1 0x20 DUP3 ADD SWAP1 POP SWAP3 SWAP2 POP POP JUMP JUMPDEST DUP3 DUP2 DUP4 MCOPY PUSH0 DUP4 DUP4 ADD MSTORE POP POP POP JUMP JUMPDEST PUSH0 PUSH1 0x1F NOT PUSH1 0x1F DUP4 ADD AND SWAP1 POP SWAP2 SWAP1 POP JUMP JUMPDEST PUSH0 PUSH2 0x1227 DUP3 PUSH2 0x11E5 JUMP JUMPDEST PUSH2 0x1231 DUP2 DUP6 PUSH2 0x11EF JUMP JUMPDEST SWAP4 POP PUSH2 0x1241 DUP2 DUP6 PUSH1 0x20 DUP7 ADD PUSH2 0x11FF JUMP JUMPDEST PUSH2 0x124A DUP2 PUSH2 0x120D JUMP JUMPDEST DUP5 ADD SWAP2 POP POP SWAP3 SWAP2 POP POP JUMP JUMPDEST PUSH0 PUSH1 0x20 DUP3 ADD SWAP1 POP DUP2 DUP2 SUB PUSH0 DUP4 ADD MSTORE PUSH2 0x126D DUP2 DUP5 PUSH2 0x121D JUMP JUMPDEST SWAP1 POP SWAP3 SWAP2 POP POP JUMP JUMPDEST PUSH0 PUSH0 REVERT JUMPDEST PUSH0 PUSH0 REVERT JUMPDEST PUSH0 PUSH20 0xFFFFFFFFFFFFFFFFFFFFFFFFFFFFFFFFFFFFFFFF DUP3 AND SWAP1 POP SWAP2 SWAP1 POP JUMP JUMPDEST PUSH0 PUSH2 0x12A6 DUP3 PUSH2 0x127D JUMP JUMPDEST SWAP1 POP SWAP2 SWAP1 POP JUMP JUMPDEST PUSH2 0x12B6 DUP2 PUSH2 0x129C JUMP JUMPDEST DUP2 EQ PUSH2 0x12C0 JUMPI PUSH0 PUSH0 REVERT JUMPDEST POP JUMP JUMPDEST PUSH0 DUP2 CALLDATALOAD SWAP1 POP PUSH2 0x12D1 DUP2 PUSH2 0x12AD JUMP JUMPDEST SWAP3 SWAP2 POP POP JUMP JUMPDEST PUSH0 DUP2 SWAP1 POP SWAP2 SWAP1 POP JUMP JUMPDEST PUSH2 0x12E9 DUP2 PUSH2 0x12D7 JUMP JUMPDEST DUP2 EQ PUSH2 0x12F3 JUMPI PUSH0 PUSH0 REVERT JUMPDEST POP JUMP JUMPDEST PUSH0 DUP2 CALLDATALOAD SWAP1 POP PUSH2 0x1304 DUP2 PUSH2 0x12E0 JUMP JUMPDEST SWAP3 SWAP2 POP POP JUMP JUMPDEST PUSH0 PUSH0 PUSH1 0x40 DUP4 DUP6 SUB SLT ISZERO PUSH2 0x1320 JUMPI PUSH2 0x131F PUSH2 0x1275 JUMP JUMPDEST JUMPDEST PUSH0 PUSH2 0x132D DUP6 DUP3 DUP7 ADD PUSH2 0x12C3 JUMP JUMPDEST SWAP3 POP POP PUSH1 0x20 PUSH2 0x133E DUP6 DUP3 DUP7 ADD PUSH2 0x12F6 JUMP JUMPDEST SWAP2 POP POP SWAP3 POP SWAP3 SWAP1 POP JUMP JUMPDEST PUSH0 DUP2 ISZERO ISZERO SWAP1 POP SWAP2 SWAP1 POP JUMP JUMPDEST PUSH2 0x135C DUP2 PUSH2 0x1348 JUMP JUMPDEST DUP3 MSTORE POP POP JUMP JUMPDEST PUSH0 PUSH1 0x20 DUP3 ADD SWAP1 POP PUSH2 0x1375 PUSH0 DUP4 ADD DUP5 PUSH2 0x1353 JUMP JUMPDEST SWAP3 SWAP2 POP POP JUMP JUMPDEST PUSH2 0x1384 DUP2 PUSH2 0x12D7 JUMP JUMPDEST DUP3 MSTORE POP POP JUMP JUMPDEST PUSH0 PUSH1 0x20 DUP3 ADD SWAP1 POP PUSH2 0x139D PUSH0 DUP4 ADD DUP5 PUSH2 0x137B JUMP JUMPDEST SWAP3 SWAP2 POP POP JUMP JUMPDEST PUSH0 PUSH0 PUSH0 PUSH1 0x60 DUP5 DUP7 SUB SLT ISZERO PUSH2 0x13BA JUMPI PUSH2 0x13B9 PUSH2 0x1275 JUMP JUMPDEST JUMPDEST PUSH0 PUSH2 0x13C7 DUP7 DUP3 DUP8 ADD PUSH2 0x12C3 JUMP JUMPDEST SWAP4 POP POP PUSH1 0x20 PUSH2 0x13D8 DUP7 DUP3 DUP8 ADD PUSH2 0x12C3 JUMP JUMPDEST SWAP3 POP POP PUSH1 0x40 PUSH2 0x13E9 DUP7 DUP3 DUP8 ADD PUSH2 0x12F6 JUMP JUMPDEST SWAP2 POP POP SWAP3 POP SWAP3 POP SWAP3 JUMP JUMPDEST PUSH0 DUP2 MLOAD SWAP1 POP SWAP2 SWAP1 POP JUMP JUMPDEST PUSH0 DUP3 DUP3 MSTORE PUSH1 0x20 DUP3 ADD SWAP1 POP SWAP3 SWAP2 POP POP JUMP JUMPDEST PUSH0 PUSH2 0x1417 DUP3 PUSH2 0x13F3 JUMP JUMPDEST PUSH2 0x1421 DUP2 DUP6 PUSH2 0x13FD JUMP JUMPDEST SWAP4 POP PUSH2 0x1431 DUP2 DUP6 PUSH1 0x20 DUP7 ADD PUSH2 0x11FF JUMP JUMPDEST PUSH2 0x143A DUP2 PUSH2 0x120D JUMP JUMPDEST DUP5 ADD SWAP2 POP POP SWAP3 SWAP2 POP POP JUMP JUMPDEST PUSH0 PUSH1 0x20 DUP3 ADD SWAP1 POP DUP2 DUP2 SUB PUSH0 DUP4 ADD MSTORE PUSH2 0x145D DUP2 DUP5 PUSH2 0x140D JUMP JUMPDEST SWAP1 POP SWAP3 SWAP2 POP POP JUMP JUMPDEST PUSH0 PUSH1 0xFF DUP3 AND SWAP1 POP SWAP2 SWAP1 POP JUMP JUMPDEST PUSH2 0x147A DUP2 PUSH2 0x1465 JUMP JUMPDEST DUP3 MSTORE POP POP JUMP JUMPDEST PUSH0 PUSH1 0x20 DUP3 ADD SWAP1 POP PUSH2 0x1493 PUSH0 DUP4 ADD DUP5 PUSH2 0x1471 JUMP JUMPDEST SWAP3 SWAP2 POP POP JUMP JUMPDEST PUSH0 PUSH1 0x20 DUP3 DUP5 SUB SLT ISZERO PUSH2 0x14AE JUMPI PUSH2 0x14AD PUSH2 0x1275 JUMP JUMPDEST JUMPDEST PUSH0 PUSH2 0x14BB DUP5 DUP3 DUP6 ADD PUSH2 0x12C3 JUMP JUMPDEST SWAP2 POP POP SWAP3 SWAP2 POP POP JUMP JUMPDEST PUSH0 DUP2 SWAP1 POP SWAP2 SWAP1 POP JUMP JUMPDEST PUSH2 0x14D6 DUP2 PUSH2 0x14C4 JUMP JUMPDEST DUP3 MSTORE POP POP JUMP JUMPDEST PUSH0 PUSH1 0x20 DUP3 ADD SWAP1 POP PUSH2 0x14EF PUSH0 DUP4 ADD DUP5 PUSH2 0x14CD JUMP JUMPDEST SWAP3 SWAP2 POP POP JUMP JUMPDEST PUSH2 0x14FE DUP2 PUSH2 0x129C JUMP JUMPDEST DUP3 MSTORE POP POP JUMP JUMPDEST PUSH0 PUSH1 0x20 DUP3 ADD SWAP1 POP PUSH2 0x1517 PUSH0 DUP4 ADD DUP5 PUSH2 0x14F5 JUMP JUMPDEST SWAP3 SWAP2 POP POP JUMP JUMPDEST PUSH0 PUSH0 PUSH1 0x40 DUP4 DUP6 SUB SLT ISZERO PUSH2 0x1533 JUMPI PUSH2 0x1532 PUSH2 0x1275 JUMP JUMPDEST JUMPDEST PUSH0 PUSH2 0x1540 DUP6 DUP3 DUP7 ADD PUSH2 0x12C3 JUMP JUMPDEST SWAP3 POP POP PUSH1 0x20 PUSH2 0x1551 DUP6 DUP3 DUP7 ADD PUSH2 0x12C3 JUMP JUMPDEST SWAP2 POP POP SWAP3 POP SWAP3 SWAP1 POP JUMP JUMPDEST PUSH0 PUSH0 REVERT JUMPDEST PUSH0 PUSH0 REVERT JUMPDEST PUSH0 PUSH0 REVERT JUMPDEST PUSH0 PUSH0 DUP4 PUSH1 0x1F DUP5 ADD SLT PUSH2 0x157C JUMPI PUSH2 0x157B PUSH2 0x155B JUMP JUMPDEST JUMPDEST DUP3 CALLDATALOAD SWAP1 POP PUSH8 0xFFFFFFFFFFFFFFFF DUP2 GT ISZERO PUSH2 0x1599 JUMPI PUSH2 0x1598 PUSH2 0x155F JUMP JUMPDEST JUMPDEST PUSH1 0x20 DUP4 ADD SWAP2 POP DUP4 PUSH1 0x1 DUP3 MUL DUP4 ADD GT ISZERO PUSH2 0x15B5 JUMPI PUSH2 0x15B4 PUSH2 0x1563 JUMP JUMPDEST JUMPDEST SWAP3 POP SWAP3 SWAP1 POP JUMP JUMPDEST PUSH0 PUSH0 PUSH1 0x20 DUP4 DUP6 SUB SLT ISZERO PUSH2 0x15D2 JUMPI PUSH2 0x15D1 PUSH2 0x1275 JUMP JUMPDEST JUMPDEST PUSH0 DUP4 ADD CALLDATALOAD PUSH8 0xFFFFFFFFFFFFFFFF DUP2 GT ISZERO PUSH2 0x15EF JUMPI PUSH2 0x15EE PUSH2 0x1279 JUMP JUMPDEST JUMPDEST PUSH2 0x15FB DUP6 DUP3 DUP7 ADD PUSH2 0x1567 JUMP JUMPDEST SWAP3 POP SWAP3 POP POP SWAP3 POP SWAP3 SWAP1 POP JUMP JUMPDEST PUSH32 0x4E487B7100000000000000000000000000000000000000000000000000000000 PUSH0 MSTORE PUSH1 0x22 PUSH1 0x4 MSTORE PUSH1 0x24 PUSH0 REVERT JUMPDEST PUSH0 PUSH1 0x2 DUP3 DIV SWAP1 POP PUSH1 0x1 DUP3 AND DUP1 PUSH2 0x164B JUMPI PUSH1 0x7F DUP3 AND SWAP2 POP JUMPDEST PUSH1 0x20 DUP3 LT DUP2 SUB PUSH2 0x165E JUMPI PUSH2 0x165D PUSH2 0x1607 JUMP JUMPDEST JUMPDEST POP SWAP2 SWAP1 POP JUMP JUMPDEST PUSH32 0x4E487B7100000000000000000000000000000000000000000000000000000000 PUSH0 MSTORE PUSH1 0x11 PUSH1 0x4 MSTORE PUSH1 0x24 PUSH0 REVERT JUMPDEST PUSH0 PUSH2 0x169B DUP3 PUSH2 0x12D7 JUMP JUMPDEST SWAP2 POP PUSH2 0x16A6 DUP4 PUSH2 0x12D7 JUMP JUMPDEST SWAP3 POP DUP3 DUP3 SUB SWAP1 POP DUP2 DUP2 GT ISZERO PUSH2 0x16BE JUMPI PUSH2 0x16BD PUSH2 0x1664 JUMP JUMPDEST JUMPDEST SWAP3 SWAP2 POP POP JUMP JUMPDEST PUSH32 0x416C7265616479206D696E746564000000000000000000000000000000000000 PUSH0 DUP3 ADD MSTORE POP JUMP JUMPDEST PUSH0 PUSH2 0x16F8 PUSH1 0xE DUP4 PUSH2 0x11EF JUMP JUMPDEST SWAP2 POP PUSH2 0x1703 DUP3 PUSH2 0x16C4 JUMP JUMPDEST PUSH1 0x20 DUP3 ADD SWAP1 POP SWAP2 SWAP1 POP JUMP JUMPDEST PUSH0 PUSH1 0x20 DUP3 ADD SWAP1 POP DUP2 DUP2 SUB PUSH0 DUP4 ADD MSTORE PUSH2 0x1725 DUP2 PUSH2 0x16EC JUMP JUMPDEST SWAP1 POP SWAP2 SWAP1 POP JUMP JUMPDEST PUSH0 DUP2 SWAP1 POP SWAP3 SWAP2 POP POP JUMP JUMPDEST DUP3 DUP2 DUP4 CALLDATACOPY PUSH0 DUP4 DUP4 ADD MSTORE POP POP POP JUMP JUMPDEST PUSH0 PUSH2 0x174F DUP4 DUP6 PUSH2 0x172C JUMP JUMPDEST SWAP4 POP PUSH2 0x175C DUP4 DUP6 DUP5 PUSH2 0x1736 JUMP JUMPDEST DUP3 DUP5 ADD SWAP1 POP SWAP4 SWAP3 POP POP POP JUMP JUMPDEST PUSH0 PUSH2 0x1774 DUP3 DUP5 DUP7 PUSH2 0x1744 JUMP JUMPDEST SWAP2 POP DUP2 SWAP1 POP SWAP4 SWAP3 POP POP POP JUMP JUMPDEST PUSH32 0x57726F6E67206D6E656D6F6E6963000000000000000000000000000000000000 PUSH0 DUP3 ADD MSTORE POP JUMP JUMPDEST PUSH0 PUSH2 0x17B4 PUSH1 0xE DUP4 PUSH2 0x11EF JUMP JUMPDEST SWAP2 POP PUSH2 0x17BF DUP3 PUSH2 0x1780 JUMP JUMPDEST PUSH1 0x20 DUP3 ADD SWAP1 POP SWAP2 SWAP1 POP JUMP JUMPDEST PUSH0 PUSH1 0x20 DUP3 ADD SWAP1 POP DUP2 DUP2 SUB PUSH0 DUP4 ADD MSTORE PUSH2 0x17E1 DUP2 PUSH2 0x17A8 JUMP JUMPDEST SWAP1 POP SWAP2 SWAP1 POP JUMP JUMPDEST PUSH0 PUSH2 0x17F2 DUP3 PUSH2 0x12D7 JUMP JUMPDEST SWAP2 POP PUSH2 0x17FD DUP4 PUSH2 0x12D7 JUMP JUMPDEST SWAP3 POP DUP3 DUP3 ADD SWAP1 POP DUP1 DUP3 GT ISZERO PUSH2 0x1815 JUMPI PUSH2 0x1814 PUSH2 0x1664 JUMP JUMPDEST JUMPDEST SWAP3 SWAP2 POP POP JUMP JUMPDEST PUSH32 0x506F6F6C20657868617573746564000000000000000000000000000000000000 PUSH0 DUP3 ADD MSTORE POP JUMP JUMPDEST PUSH0 PUSH2 0x184F PUSH1 0xE DUP4 PUSH2 0x11EF JUMP JUMPDEST SWAP2 POP PUSH2 0x185A DUP3 PUSH2 0x181B JUMP JUMPDEST PUSH1 0x20 DUP3 ADD SWAP1 POP SWAP2 SWAP1 POP JUMP JUMPDEST PUSH0 PUSH1 0x20 DUP3 ADD SWAP1 POP DUP2 DUP2 SUB PUSH0 DUP4 ADD MSTORE PUSH2 0x187C DUP2 PUSH2 0x1843 JUMP JUMPDEST SWAP1 POP SWAP2 SWAP1 POP JUMP JUMPDEST PUSH0 PUSH1 0x60 DUP3 ADD SWAP1 POP PUSH2 0x1896 PUSH0 DUP4 ADD DUP7 PUSH2 0x14F5 JUMP JUMPDEST PUSH2 0x18A3 PUSH1 0x20 DUP4 ADD DUP6 PUSH2 0x137B JUMP JUMPDEST PUSH2 0x18B0 PUSH1 0x40 DUP4 ADD DUP5 PUSH2 0x137B JUMP JUMPDEST SWAP5 SWAP4 POP POP POP POP JUMP INVALID SUB PUSH8 0x8AFDB0FE55482719 PUSH8 0xF1A67130B7105CD6 0xA8 0x28 RJUMP 0x3909 0xA6 PUSH26 0x62E0EA1F61DEB6A2646970667358221220175992A98ACB73AA5E DATALOADN 0x5DCA 0x22 CALLVALUE CALLCODE DUP1 0xBE 0xAC PUSH25 0xA3D4990D27CC990433AF68BAEA64736F6C6343000822003303 PUSH8 0x8AFDB0FE55482719 PUSH8 0xF1A67130B7105CD6 0xA8 0x28 RJUMP 0x3909 0xA6 PUSH26 0x62E0EA1F61DEB600000000000000000000000000000000000000 "
				},
				"gasEstimates": {
					"creation": {
						"codeDepositCost": "1283000",
						"executionCost": "infinite",
						"totalCost": "infinite"
					},
					"external": {
						"GENESIS_MESSAGE_HASH()": "369",
						"GENESIS_MINT()": "436",
						"GENESIS_PUBKEY()": "infinite",
						"GENESIS_SIGNATURE()": "infinite",
						"MNEMONIC_HASH()": "392",
						"PER_SOLVER_MINT()": "348",
						"REMAINING_MINT()": "infinite",
						"TOTAL_SUPPLY()": "436",
						"allowance(address,address)": "infinite",
						"approve(address,uint256)": "infinite",
						"balanceOf(address)": "2961",
						"decimals()": "383",
						"hasMinted(address)": "2900",
						"mintByMnemonic(string)": "infinite",
						"mintedBySolvers()": "2514",
						"name()": "infinite",
						"owner()": "2604",
						"renounceOwnership()": "infinite",
						"symbol()": "infinite",
						"totalSupply()": "2500",
						"transfer(address,uint256)": "infinite",
						"transferFrom(address,address,uint256)": "infinite",
						"transferOwnership(address)": "infinite"
					}
				},
				"methodIdentifiers": {
					"GENESIS_MESSAGE_HASH()": "9f45bdac",
					"GENESIS_MINT()": "6e95b711",
					"GENESIS_PUBKEY()": "28fd21c1",
					"GENESIS_SIGNATURE()": "965ea38c",
					"MNEMONIC_HASH()": "7e39cb58",
					"PER_SOLVER_MINT()": "2c7abeea",
					"REMAINING_MINT()": "77fd5d02",
					"TOTAL_SUPPLY()": "902d55a5",
					"allowance(address,address)": "dd62ed3e",
					"approve(address,uint256)": "095ea7b3",
					"balanceOf(address)": "70a08231",
					"decimals()": "313ce567",
					"hasMinted(address)": "38e21cce",
					"mintByMnemonic(string)": "e042735b",
					"mintedBySolvers()": "41baeb92",
					"name()": "06fdde03",
					"owner()": "8da5cb5b",
					"renounceOwnership()": "715018a6",
					"symbol()": "95d89b41",
					"totalSupply()": "18160ddd",
					"transfer(address,uint256)": "a9059cbb",
					"transferFrom(address,address,uint256)": "23b872dd",
					"transferOwnership(address)": "f2fde38b"
				}
			},
			"storageLayout": {
				"storage": [
					{
						"astId": 468,
						"contract": "/contracts/HelloWorld.sol:CamelotScavenger",
						"label": "_balances",
						"offset": 0,
						"slot": "0",
						"type": "t_mapping(t_address,t_uint256)"
					},
					{
						"astId": 474,
						"contract": "/contracts/HelloWorld.sol:CamelotScavenger",
						"label": "_allowances",
						"offset": 0,
						"slot": "1",
						"type": "t_mapping(t_address,t_mapping(t_address,t_uint256))"
					},
					{
						"astId": 476,
						"contract": "/contracts/HelloWorld.sol:CamelotScavenger",
						"label": "_totalSupply",
						"offset": 0,
						"slot": "2",
						"type": "t_uint256"
					},
					{
						"astId": 478,
						"contract": "/contracts/HelloWorld.sol:CamelotScavenger",
						"label": "_name",
						"offset": 0,
						"slot": "3",
						"type": "t_string_storage"
					},
					{
						"astId": 480,
						"contract": "/contracts/HelloWorld.sol:CamelotScavenger",
						"label": "_symbol",
						"offset": 0,
						"slot": "4",
						"type": "t_string_storage"
					},
					{
						"astId": 169,
						"contract": "/contracts/HelloWorld.sol:CamelotScavenger",
						"label": "_owner",
						"offset": 0,
						"slot": "5",
						"type": "t_address"
					},
					{
						"astId": 47,
						"contract": "/contracts/HelloWorld.sol:CamelotScavenger",
						"label": "mintedBySolvers",
						"offset": 0,
						"slot": "6",
						"type": "t_uint256"
					},
					{
						"astId": 51,
						"contract": "/contracts/HelloWorld.sol:CamelotScavenger",
						"label": "hasMinted",
						"offset": 0,
						"slot": "7",
						"type": "t_mapping(t_address,t_bool)"
					}
				],
				"types": {
					"t_address": {
						"encoding": "inplace",
						"label": "address",
						"numberOfBytes": "20"
					},
					"t_bool": {
						"encoding": "inplace",
						"label": "bool",
						"numberOfBytes": "1"
					},
					"t_mapping(t_address,t_bool)": {
						"encoding": "mapping",
						"key": "t_address",
						"label": "mapping(address => bool)",
						"numberOfBytes": "32",
						"value": "t_bool"
					},
					"t_mapping(t_address,t_mapping(t_address,t_uint256))": {
						"encoding": "mapping",
						"key": "t_address",
						"label": "mapping(address => mapping(address => uint256))",
						"numberOfBytes": "32",
						"value": "t_mapping(t_address,t_uint256)"
					},
					"t_mapping(t_address,t_uint256)": {
						"encoding": "mapping",
						"key": "t_address",
						"label": "mapping(address => uint256)",
						"numberOfBytes": "32",
						"value": "t_uint256"
					},
					"t_string_storage": {
						"encoding": "bytes",
						"label": "string",
						"numberOfBytes": "32"
					},
					"t_uint256": {
						"encoding": "inplace",
						"label": "uint256",
						"numberOfBytes": "32"
					}
				}
			},
			"userdoc": {
				"kind": "user",
				"methods": {},
				"version": 1
			}
		}
	}
}