{
	"/contracts/CamelotScavenger.sol": {
		"CamelotScavenger": {
			"abi": [
				{
					"inputs": [],
					"stateMutability": "nonpayable",
					"type": "constructor"
				},
				{
					"inputs": [],
					"name": "ECDSAInvalidSignature",
					"type": "error"
				},
				{
					"inputs": [
						{
							"internalType": "uint256",
							"name": "length",
							"type": "uint256"
						}
					],
					"name": "ECDSAInvalidSignatureLength",
					"type": "error"
				},
				{
					"inputs": [
						{
							"internalType": "bytes32",
							"name": "s",
							"type": "bytes32"
						}
					],
					"name": "ECDSAInvalidSignatureS",
					"type": "error"
				},
				{
					"inputs": [
						{
							"internalType": "address",
							"name": "spender",
							"type": "address"
						},
						{
							"internalType": "uint256",
							"name": "allowance",
							"type": "uint256"
						},
						{
							"internalType": "uint256",
							"name": "needed",
							"type": "uint256"
						}
					],
					"name": "ERC20InsufficientAllowance",
					"type": "error"
				},
				{
					"inputs": [
						{
							"internalType": "address",
							"name": "sender",
							"type": "address"
						},
						{
							"internalType": "uint256",
							"name": "balance",
							"type": "uint256"
						},
						{
							"internalType": "uint256",
							"name": "needed",
							"type": "uint256"
						}
					],
					"name": "ERC20InsufficientBalance",
					"type": "error"
				},
				{
					"inputs": [
						{
							"internalType": "address",
							"name": "approver",
							"type": "address"
						}
					],
					"name": "ERC20InvalidApprover",
					"type": "error"
				},
				{
					"inputs": [
						{
							"internalType": "address",
							"name": "receiver",
							"type": "address"
						}
					],
					"name": "ERC20InvalidReceiver",
					"type": "error"
				},
				{
					"inputs": [
						{
							"internalType": "address",
							"name": "sender",
							"type": "address"
						}
					],
					"name": "ERC20InvalidSender",
					"type": "error"
				},
				{
					"inputs": [
						{
							"internalType": "address",
							"name": "spender",
							"type": "address"
						}
					],
					"name": "ERC20InvalidSpender",
					"type": "error"
				},
				{
					"inputs": [
						{
							"internalType": "address",
							"name": "owner",
							"type": "address"
						}
					],
					"name": "OwnableInvalidOwner",
					"type": "error"
				},
				{
					"inputs": [
						{
							"internalType": "address",
							"name": "account",
							"type": "address"
						}
					],
					"name": "OwnableUnauthorizedAccount",
					"type": "error"
				},
				{
					"anonymous": false,
					"inputs": [
						{
							"indexed": true,
							"internalType": "address",
							"name": "owner",
							"type": "address"
						},
						{
							"indexed": true,
							"internalType": "address",
							"name": "spender",
							"type": "address"
						},
						{
							"indexed": false,
							"internalType": "uint256",
							"name": "value",
							"type": "uint256"
						}
					],
					"name": "Approval",
					"type": "event"
				},
				{
					"anonymous": false,
					"inputs": [
						{
							"indexed": true,
							"internalType": "address",
							"name": "previousOwner",
							"type": "address"
						},
						{
							"indexed": true,
							"internalType": "address",
							"name": "newOwner",
							"type": "address"
						}
					],
					"name": "OwnershipTransferred",
					"type": "event"
				},
				{
					"anonymous": false,
					"inputs": [
						{
							"indexed": true,
							"internalType": "address",
							"name": "from",
							"type": "address"
						},
						{
							"indexed": true,
							"internalType": "address",
							"name": "to",
							"type": "address"
						},
						{
							"indexed": false,
							"internalType": "uint256",
							"name": "value",
							"type": "uint256"
						}
					],
					"name": "Transfer",
					"type": "event"
				},
				{
					"inputs": [],
					"name": "GENESIS_MESSAGE_HASH",
					"outputs": [
						{
							"internalType": "bytes32",
							"name": "",
							"type": "bytes32"
						}
					],
					"stateMutability": "view",
					"type": "function"
				},
				{
					"inputs": [],
					"name": "GENESIS_MINT",
					"outputs": [
						{
							"internalType": "uint256",
							"name": "",
							"type": "uint256"
						}
					],
					"stateMutability": "view",
					"type": "function"
				},
				{
					"inputs": [],
					"name": "GENESIS_PUBKEY",
					"outputs": [
						{
							"internalType": "bytes",
							"name": "",
							"type": "bytes"
						}
					],
					"stateMutability": "view",
					"type": "function"
				},
				{
					"inputs": [],
					"name": "GENESIS_SIGNATURE",
					"outputs": [
						{
							"internalType": "bytes",
							"name": "",
							"type": "bytes"
						}
					],
					"stateMutability": "view",
					"type": "function"
				},
				{
					"inputs": [],
					"name": "MNEMONIC_HASH",
					"outputs": [
						{
							"internalType": "bytes32",
							"name": "",
							"type": "bytes32"
						}
					],
					"stateMutability": "view",
					"type": "function"
				},
				{
					"inputs": [],
					"name": "PER_SOLVER_MINT",
					"outputs": [
						{
							"internalType": "uint256",
							"name": "",
							"type": "uint256"
						}
					],
					"stateMutability": "view",
					"type": "function"
				},
				{
					"inputs": [],
					"name": "REMAINING_MINT",
					"outputs": [
						{
							"internalType": "uint256",
							"name": "",
							"type": "uint256"
						}
					],
					"stateMutability": "view",
					"type": "function"
				},
				{
					"inputs": [],
					"name": "TOTAL_SUPPLY",
					"outputs": [
						{
							"internalType": "uint256",
							"name": "",
							"type": "uint256"
						}
					],
					"stateMutability": "view",
					"type": "function"
				},
				{
					"inputs": [
						{
							"internalType": "address",
							"name": "owner",
							"type": "address"
						},
						{
							"internalType": "address",
							"name": "spender",
							"type": "address"
						}
					],
					"name": "allowance",
					"outputs": [
						{
							"internalType": "uint256",
							"name": "",
							"type": "uint256"
						}
					],
					"stateMutability": "view",
					"type": "function"
				},
				{
					"inputs": [
						{
							"internalType": "address",
							"name": "spender",
							"type": "address"
						},
						{
							"internalType": "uint256",
							"name": "value",
							"type": "uint256"
						}
					],
					"name": "approve",
					"outputs": [
						{
							"internalType": "bool",
							"name": "",
							"type": "bool"
						}
					],
					"stateMutability": "nonpayable",
					"type": "function"
				},
				{
					"inputs": [
						{
							"internalType": "address",
							"name": "account",
							"type": "address"
						}
					],
					"name": "balanceOf",
					"outputs": [
						{
							"internalType": "uint256",
							"name": "",
							"type": "uint256"
						}
					],
					"stateMutability": "view",
					"type": "function"
				},
				{
					"inputs": [],
					"name": "decimals",
					"outputs": [
						{
							"internalType": "uint8",
							"name": "",
							"type": "uint8"
						}
					],
					"stateMutability": "view",
					"type": "function"
				},
				{
					"inputs": [
						{
							"internalType": "address",
							"name": "",
							"type": "address"
						}
					],
					"name": "hasMinted",
					"outputs": [
						{
							"internalType": "bool",
							"name": "",
							"type": "bool"
						}
					],
					"stateMutability": "view",
					"type": "function"
				},
				{
					"inputs": [
						{
							"internalType": "string",
							"name": "mnemonic",
							"type": "string"
						}
					],
					"name": "mintByMnemonic",
					"outputs": [],
					"stateMutability": "nonpayable",
					"type": "function"
				},
				{
					"inputs": [],
					"name": "mintedBySolvers",
					"outputs": [
						{
							"internalType": "uint256",
							"name": "",
							"type": "uint256"
						}
					],
					"stateMutability": "view",
					"type": "function"
				},
				{
					"inputs": [],
					"name": "name",
					"outputs": [
						{
							"internalType": "string",
							"name": "",
							"type": "string"
						}
					],
					"stateMutability": "view",
					"type": "function"
				},
				{
					"inputs": [],
					"name": "owner",
					"outputs": [
						{
							"internalType": "address",
							"name": "",
							"type": "address"
						}
					],
					"stateMutability": "view",
					"type": "function"
				},
				{
					"inputs": [],
					"name": "renounceOwnership",
					"outputs": [],
					"stateMutability": "nonpayable",
					"type": "function"
				},
				{
					"inputs": [],
					"name": "symbol",
					"outputs": [
						{
							"internalType": "string",
							"name": "",
							"type": "string"
						}
					],
					"stateMutability": "view",
					"type": "function"
				},
				{
					"inputs": [],
					"name": "totalSupply",
					"outputs": [
						{
							"internalType": "uint256",
							"name": "",
							"type": "uint256"
						}
					],
					"stateMutability": "view",
					"type": "function"
				},
				{
					"inputs": [
						{
							"internalType": "address",
							"name": "to",
							"type": "address"
						},
						{
							"internalType": "uint256",
							"name": "value",
							"type": "uint256"
						}
					],
					"name": "transfer",
					"outputs": [
						{
							"internalType": "bool",
							"name": "",
							"type": "bool"
						}
					],
					"stateMutability": "nonpayable",
					"type": "function"
				},
				{
					"inputs": [
						{
							"internalType": "address",
							"name": "from",
							"type": "address"
						},
						{
							"internalType": "address",
							"name": "to",
							"type": "address"
						},
						{
							"internalType": "uint256",
							"name": "value",
							"type": "uint256"
						}
					],
					"name": "transferFrom",
					"outputs": [
						{
							"internalType": "bool",
							"name": "",
							"type": "bool"
						}
					],
					"stateMutability": "nonpayable",
					"type": "function"
				},
				{
					"inputs": [
						{
							"internalType": "address",
							"name": "newOwner",
							"type": "address"
						}
					],
					"name": "transferOwnership",
					"outputs": [],
					"stateMutability": "nonpayable",
					"type": "function"
				}
			],
			"devdoc": {
				"errors": {
					"ECDSAInvalidSignature()": [
						{
							"details": "The signature is invalid."
						}
					],
					"ECDSAInvalidSignatureLength(uint256)": [
						{
							"details": "The signature has an invalid length."
						}
					],
					"ECDSAInvalidSignatureS(bytes32)": [
						{
							"details": "The signature has an S value that is in the upper half order."
						}
					],
					"ERC20InsufficientAllowance(address,uint256,uint256)": [
						{
							"details": "Indicates a failure with the `spender`’s `allowance`. Used in transfers.",
							"params": {
								"allowance": "Amount of tokens a `spender` is allowed to operate with.",
								"needed": "Minimum amount required to perform a transfer.",
								"spender": "Address that may be allowed to operate on tokens without being their owner."
							}
						}
					],
					"ERC20InsufficientBalance(address,uint256,uint256)": [
						{
							"details": "Indicates an error related to the current `balance` of a `sender`. Used in transfers.",
							"params": {
								"balance": "Current balance for the interacting account.",
								"needed": "Minimum amount required to perform a transfer.",
								"sender": "Address whose tokens are being transferred."
							}
						}
					],
					"ERC20InvalidApprover(address)": [
						{
							"details": "Indicates a failure with the `approver` of a token to be approved. Used in approvals.",
							"params": {
								"approver": "Address initiating an approval operation."
							}
						}
					],
					"ERC20InvalidReceiver(address)": [
						{
							"details": "Indicates a failure with the token `receiver`. Used in transfers.",
							"params": {
								"receiver": "Address to which tokens are being transferred."
							}
						}
					],
					"ERC20InvalidSender(address)": [
						{
							"details": "Indicates a failure with the token `sender`. Used in transfers.",
							"params": {
								"sender": "Address whose tokens are being transferred."
							}
						}
					],
					"ERC20InvalidSpender(address)": [
						{
							"details": "Indicates a failure with the `spender` to be approved. Used in approvals.",
							"params": {
								"spender": "Address that may be allowed to operate on tokens without being their owner."
							}
						}
					],
					"OwnableInvalidOwner(address)": [
						{
							"details": "The owner is not a valid owner account. (eg. `address(0)`)"
						}
					],
					"OwnableUnauthorizedAccount(address)": [
						{
							"details": "The caller account is not authorized to perform an operation."
						}
					]
				},
				"events": {
					"Approval(address,address,uint256)": {
						"details": "Emitted when the allowance of a `spender` for an `owner` is set by a call to {approve}. `value` is the new allowance."
					},
					"Transfer(address,address,uint256)": {
						"details": "Emitted when `value` tokens are moved from one account (`from`) to another (`to`). Note that `value` may be zero."
					}
				},
				"kind": "dev",
				"methods": {
					"allowance(address,address)": {
						"details": "Returns the remaining number of tokens that `spender` will be allowed to spend on behalf of `owner` through {transferFrom}. This is zero by default. This value changes when {approve} or {transferFrom} are called."
					},
					"approve(address,uint256)": {
						"details": "See {IERC20-approve}. NOTE: If `value` is the maximum `uint256`, the allowance is not updated on `transferFrom`. This is semantically equivalent to an infinite approval. Requirements: - `spender` cannot be the zero address."
					},
					"balanceOf(address)": {
						"details": "Returns the value of tokens owned by `account`."
					},
					"decimals()": {
						"details": "Returns the number of decimals used to get its user representation. For example, if `decimals` equals `2`, a balance of `505` tokens should be displayed to a user as `5.05` (`505 / 10 ** 2`). Tokens usually opt for a value of 18, imitating the relationship between Ether and Wei. This is the default value returned by this function, unless it's overridden. NOTE: This information is only used for _display_ purposes: it in no way affects any of the arithmetic of the contract, including {IERC20-balanceOf} and {IERC20-transfer}."
					},
					"name()": {
						"details": "Returns the name of the token."
					},
					"owner()": {
						"details": "Returns the address of the current owner."
					},
					"renounceOwnership()": {
						"details": "Leaves the contract without owner. It will not be possible to call `onlyOwner` functions. Can only be called by the current owner. NOTE: Renouncing ownership will leave the contract without an owner, thereby disabling any functionality that is only available to the owner."
					},
					"symbol()": {
						"details": "Returns the symbol of the token, usually a shorter version of the name."
					},
					"totalSupply()": {
						"details": "Returns the value of tokens in existence."
					},
					"transfer(address,uint256)": {
						"details": "See {IERC20-transfer}. Requirements: - `to` cannot be the zero address. - the caller must have a balance of at least `value`."
					},
					"transferFrom(address,address,uint256)": {
						"details": "See {IERC20-transferFrom}. Skips emitting an {Approval} event indicating an allowance update. This is not required by the ERC. See {xref-ERC20-_approve-address-address-uint256-bool-}[_approve]. NOTE: Does not update the allowance if the current allowance is the maximum `uint256`. Requirements: - `from` and `to` cannot be the zero address. - `from` must have a balance of at least `value`. - the caller must have allowance for ``from``'s tokens of at least `value`."
					},
					"transferOwnership(address)": {
						"details": "Transfers ownership of the contract to a new account (`newOwner`). Can only be called by the current owner."
					}
				},
				"version": 1
			},
			"evm": {
				"assembly": "    /* \"/contracts/CamelotScavenger.sol\":231:1916  contract CamelotScavenger is ERC20, Ownable {... */\n  mstore(0x40, 0x80)\n    /* \"/contracts/CamelotScavenger.sol\":1150:1489  constructor() ERC20(\"Camelot Excalibur\", \"EXCAL\") Ownable(msg.sender) {... */\n  callvalue\n  dup1\n  iszero\n  tag_1\n  jumpi\n  0x00\n  dup1\n  revert\ntag_1:\n  pop\n    /* \"/contracts/CamelotScavenger.sol\":1208:1218  msg.sender */\n  caller\n    /* \"@openzeppelin/contracts/token/ERC20/ERC20.sol\":1582:1695  constructor(string memory name_, string memory symbol_) {... */\n  mload(0x40)\n  dup1\n  0x40\n  add\n  0x40\n  mstore\n  dup1\n  0x11\n  dup2\n  mstore\n  0x20\n  add\n  shl(0x79, 0x21b0b6b2b637ba1022bc31b0b634b13ab9)\n  dup2\n  mstore\n  pop\n  mload(0x40)\n  dup1\n  0x40\n  add\n  0x40\n  mstore\n  dup1\n  0x05\n  dup2\n  mstore\n  0x20\n  add\n  shl(0xda, 0x115610d053)\n  dup2\n  mstore\n  pop\n    /* \"@openzeppelin/contracts/token/ERC20/ERC20.sol\":1656:1661  name_ */\n  dup2\n    /* \"@openzeppelin/contracts/token/ERC20/ERC20.sol\":1648:1653  _name */\n  0x03\n    /* \"@openzeppelin/contracts/token/ERC20/ERC20.sol\":1648:1661  _name = name_ */\n  swap1\n  dup2\n  tag_6\n  swap2\n  swap1\n  tag_7\n  jump\t// in\ntag_6:\n  pop\n    /* \"@openzeppelin/contracts/token/ERC20/ERC20.sol\":1671:1678  _symbol */\n  0x04\n    /* \"@openzeppelin/contracts/token/ERC20/ERC20.sol\":1671:1688  _symbol = symbol_ */\n  tag_8\n    /* \"@openzeppelin/contracts/token/ERC20/ERC20.sol\":1681:1688  symbol_ */\n  dup3\n    /* \"@openzeppelin/contracts/token/ERC20/ERC20.sol\":1671:1678  _symbol */\n  dup3\n    /* \"@openzeppelin/contracts/token/ERC20/ERC20.sol\":1671:1688  _symbol = symbol_ */\n  tag_7\n  jump\t// in\ntag_8:\n  pop\n  pop\n  pop\n  sub(shl(0xa0, 0x01), 0x01)\n    /* \"@openzeppelin/contracts/access/Ownable.sol\":1273:1299  initialOwner == address(0) */\n  dup2\n  and\n    /* \"@openzeppelin/contracts/access/Ownable.sol\":1269:1364  if (initialOwner == address(0)) {... */\n  tag_10\n  jumpi\n    /* \"@openzeppelin/contracts/access/Ownable.sol\":1322:1353  OwnableInvalidOwner(address(0)) */\n  mload(0x40)\n  shl(0xe0, 0x1e4fbdf7)\n  dup2\n  mstore\n    /* \"@openzeppelin/contracts/access/Ownable.sol\":1350:1351  0 */\n  0x00\n    /* \"@openzeppelin/contracts/access/Ownable.sol\":1322:1353  OwnableInvalidOwner(address(0)) */\n  0x04\n  dup3\n  add\n    /* \"#utility.yul\":2881:2932   */\n  mstore\n    /* \"#utility.yul\":2854:2872   */\n  0x24\n  add\n    /* \"@openzeppelin/contracts/access/Ownable.sol\":1322:1353  OwnableInvalidOwner(address(0)) */\ntag_11:\n  mload(0x40)\n  dup1\n  swap2\n  sub\n  swap1\n  revert\n    /* \"@openzeppelin/contracts/access/Ownable.sol\":1269:1364  if (initialOwner == address(0)) {... */\ntag_10:\n    /* \"@openzeppelin/contracts/access/Ownable.sol\":1373:1405  _transferOwnership(initialOwner) */\n  tag_13\n    /* \"@openzeppelin/contracts/access/Ownable.sol\":1392:1404  initialOwner */\n  dup2\n    /* \"@openzeppelin/contracts/access/Ownable.sol\":1373:1391  _transferOwnership */\n  tag_14\n    /* \"@openzeppelin/contracts/access/Ownable.sol\":1373:1405  _transferOwnership(initialOwner) */\n  jump\t// in\ntag_13:\n  pop\n    /* \"/contracts/CamelotScavenger.sol\":1276:1293  GENESIS_SIGNATURE */\n  0x40\n  dup1\n  mload\n  dup1\n  dup3\n  add\n  swap1\n  swap2\n  mstore\n  0x20\n  dup1\n  dup3\n  mstore\n  0x1234567890abcdef1234567890abcdef1234567890abcdef1234567890abcdef\n  swap1\n  dup3\n  add\n  mstore\n    /* \"/contracts/CamelotScavenger.sol\":1230:1244  address signer */\n  0x00\n  swap1\n    /* \"/contracts/CamelotScavenger.sol\":1247:1294  GENESIS_MESSAGE_HASH.recover(GENESIS_SIGNATURE) */\n  tag_16\n  swap1\n    /* \"/contracts/CamelotScavenger.sol\":907:942  keccak256(\"Camelot Scavenger Hunt\") */\n  0x450d5ca1d5fa8aee9d893f6c7ac9fd8e59a06ff5f40dac808d5e4b456017f336\n  swap1\n    /* \"/contracts/CamelotScavenger.sol\":1247:1275  GENESIS_MESSAGE_HASH.recover */\n  tag_17\n    /* \"/contracts/CamelotScavenger.sol\":1247:1294  GENESIS_MESSAGE_HASH.recover(GENESIS_SIGNATURE) */\n  jump\t// in\ntag_16:\n    /* \"/contracts/CamelotScavenger.sol\":1230:1294  address signer = GENESIS_MESSAGE_HASH.recover(GENESIS_SIGNATURE) */\n  swap1\n  pop\n    /* \"/contracts/CamelotScavenger.sol\":1304:1320  address expected */\n  0x00\n    /* \"/contracts/CamelotScavenger.sol\":1357:1371  GENESIS_PUBKEY */\n  mload(0x40)\n  dup1\n  0x60\n  add\n  0x40\n  mstore\n  dup1\n  0x21\n  dup2\n  mstore\n  0x20\n  add\n  data_7c247f0faa109da9a7dfcc30d9b7c5309fb4341a6d669088e6e5c9edaf7a8422\n  0x21\n  swap2\n  codecopy\n    /* \"/contracts/CamelotScavenger.sol\":1347:1372  keccak256(GENESIS_PUBKEY) */\n  dup1\n  mload\n  swap1\n  0x20\n  add\n  keccak256\n    /* \"/contracts/CamelotScavenger.sol\":1339:1373  uint256(keccak256(GENESIS_PUBKEY)) */\n  0x00\n  shr\n    /* \"/contracts/CamelotScavenger.sol\":1304:1375  address expected = address(uint160(uint256(keccak256(GENESIS_PUBKEY)))) */\n  swap1\n  pop\n    /* \"/contracts/CamelotScavenger.sol\":1403:1411  expected */\n  dup1\n  sub(shl(0xa0, 0x01), 0x01)\n    /* \"/contracts/CamelotScavenger.sol\":1393:1411  signer == expected */\n  and\n    /* \"/contracts/CamelotScavenger.sol\":1393:1399  signer */\n  dup3\n  sub(shl(0xa0, 0x01), 0x01)\n    /* \"/contracts/CamelotScavenger.sol\":1393:1411  signer == expected */\n  and\n  eq\n    /* \"/contracts/CamelotScavenger.sol\":1385:1441  require(signer == expected, \"Invalid genesis signature\") */\n  tag_18\n  jumpi\n  mload(0x40)\n  shl(0xe5, 0x461bcd)\n  dup2\n  mstore\n    /* \"#utility.yul\":3145:3147   */\n  0x20\n    /* \"/contracts/CamelotScavenger.sol\":1385:1441  require(signer == expected, \"Invalid genesis signature\") */\n  0x04\n  dup3\n  add\n    /* \"#utility.yul\":3127:3148   */\n  mstore\n    /* \"#utility.yul\":3184:3186   */\n  0x19\n    /* \"#utility.yul\":3164:3182   */\n  0x24\n  dup3\n  add\n    /* \"#utility.yul\":3157:3187   */\n  mstore\n    /* \"#utility.yul\":3223:3250   */\n  0x496e76616c69642067656e65736973207369676e617475726500000000000000\n    /* \"#utility.yul\":3203:3221   */\n  0x44\n  dup3\n  add\n    /* \"#utility.yul\":3196:3251   */\n  mstore\n    /* \"#utility.yul\":3268:3286   */\n  0x64\n  add\n    /* \"/contracts/CamelotScavenger.sol\":1385:1441  require(signer == expected, \"Invalid genesis signature\") */\n  tag_11\n    /* \"#utility.yul\":2943:3292   */\n  jump\n    /* \"/contracts/CamelotScavenger.sol\":1385:1441  require(signer == expected, \"Invalid genesis signature\") */\ntag_18:\n    /* \"/contracts/CamelotScavenger.sol\":1451:1482  _mint(msg.sender, GENESIS_MINT) */\n  tag_21\n    /* \"/contracts/CamelotScavenger.sol\":1457:1467  msg.sender */\n  caller\n    /* \"/contracts/CamelotScavenger.sol\":696:714  7_500_000 * 10**18 */\n  0x06342fd08f00f637800000\n    /* \"/contracts/CamelotScavenger.sol\":1451:1456  _mint */\n  tag_22\n    /* \"/contracts/CamelotScavenger.sol\":1451:1482  _mint(msg.sender, GENESIS_MINT) */\n  jump\t// in\ntag_21:\n    /* \"/contracts/CamelotScavenger.sol\":1220:1489  {... */\n  pop\n  pop\n    /* \"/contracts/CamelotScavenger.sol\":231:1916  contract CamelotScavenger is ERC20, Ownable {... */\n  jump(tag_92)\n    /* \"@openzeppelin/contracts/access/Ownable.sol\":2912:3099  function _transferOwnership(address newOwner) internal virtual {... */\ntag_14:\n    /* \"@openzeppelin/contracts/access/Ownable.sol\":3004:3010  _owner */\n  0x05\n  dup1\n  sload\n  sub(shl(0xa0, 0x01), 0x01)\n    /* \"@openzeppelin/contracts/access/Ownable.sol\":3020:3037  _owner = newOwner */\n  dup4\n  dup2\n  and\n  not(sub(shl(0xa0, 0x01), 0x01))\n  dup4\n  and\n  dup2\n  or\n  swap1\n  swap4\n  sstore\n    /* \"@openzeppelin/contracts/access/Ownable.sol\":3052:3092  OwnershipTransferred(oldOwner, newOwner) */\n  mload(0x40)\n    /* \"@openzeppelin/contracts/access/Ownable.sol\":3004:3010  _owner */\n  swap2\n  and\n  swap2\n    /* \"@openzeppelin/contracts/access/Ownable.sol\":3020:3037  _owner = newOwner */\n  swap1\n    /* \"@openzeppelin/contracts/access/Ownable.sol\":3004:3010  _owner */\n  dup3\n  swap1\n    /* \"@openzeppelin/contracts/access/Ownable.sol\":3052:3092  OwnershipTransferred(oldOwner, newOwner) */\n  0x8be0079c531659141344cd1fd0a4f28419497f9722a3daafe3b4186f6b6457e0\n  swap1\n    /* \"@openzeppelin/contracts/access/Ownable.sol\":2985:3001  address oldOwner */\n  0x00\n  swap1\n    /* \"@openzeppelin/contracts/access/Ownable.sol\":3052:3092  OwnershipTransferred(oldOwner, newOwner) */\n  log3\n    /* \"@openzeppelin/contracts/access/Ownable.sol\":2975:3099  {... */\n  pop\n    /* \"@openzeppelin/contracts/access/Ownable.sol\":2912:3099  function _transferOwnership(address newOwner) internal virtual {... */\n  pop\n  jump\t// out\n    /* \"@openzeppelin/contracts/utils/cryptography/ECDSA.sol\":5276:5531  function recover(bytes32 hash, bytes memory signature) internal pure returns (address) {... */\ntag_17:\n    /* \"@openzeppelin/contracts/utils/cryptography/ECDSA.sol\":5354:5361  address */\n  0x00\n  dup1\n  dup1\n  dup1\n    /* \"@openzeppelin/contracts/utils/cryptography/ECDSA.sol\":5433:5460  tryRecover(hash, signature) */\n  tag_26\n    /* \"@openzeppelin/contracts/utils/cryptography/ECDSA.sol\":5444:5448  hash */\n  dup7\n    /* \"@openzeppelin/contracts/utils/cryptography/ECDSA.sol\":5450:5459  signature */\n  dup7\n    /* \"@openzeppelin/contracts/utils/cryptography/ECDSA.sol\":5433:5443  tryRecover */\n  tag_27\n    /* \"@openzeppelin/contracts/utils/cryptography/ECDSA.sol\":5433:5460  tryRecover(hash, signature) */\n  jump\t// in\ntag_26:\n    /* \"@openzeppelin/contracts/utils/cryptography/ECDSA.sol\":5373:5460  (address recovered, RecoverError error, bytes32 errorArg) = tryRecover(hash, signature) */\n  swap2\n  swap5\n  pop\n  swap3\n  pop\n  swap1\n  pop\n    /* \"@openzeppelin/contracts/utils/cryptography/ECDSA.sol\":5470:5498  _throwError(error, errorArg) */\n  tag_28\n    /* \"@openzeppelin/contracts/utils/cryptography/ECDSA.sol\":5373:5460  (address recovered, RecoverError error, bytes32 errorArg) = tryRecover(hash, signature) */\n  dup3\n  dup3\n    /* \"@openzeppelin/contracts/utils/cryptography/ECDSA.sol\":5470:5481  _throwError */\n  tag_29\n    /* \"@openzeppelin/contracts/utils/cryptography/ECDSA.sol\":5470:5498  _throwError(error, errorArg) */\n  jump\t// in\ntag_28:\n  pop\n    /* \"@openzeppelin/contracts/utils/cryptography/ECDSA.sol\":5515:5524  recovered */\n  swap1\n  swap2\n  pop\n  pop\n    /* \"@openzeppelin/contracts/utils/cryptography/ECDSA.sol\":5276:5531  function recover(bytes32 hash, bytes memory signature) internal pure returns (address) {... */\ntag_25:\n  swap3\n  swap2\n  pop\n  pop\n  jump\t// out\n    /* \"@openzeppelin/contracts/token/ERC20/ERC20.sol\":7362:7570  function _mint(address account, uint256 value) internal {... */\ntag_22:\n  sub(shl(0xa0, 0x01), 0x01)\n    /* \"@openzeppelin/contracts/token/ERC20/ERC20.sol\":7432:7453  account == address(0) */\n  dup3\n  and\n    /* \"@openzeppelin/contracts/token/ERC20/ERC20.sol\":7428:7519  if (account == address(0)) {... */\n  tag_31\n  jumpi\n    /* \"@openzeppelin/contracts/token/ERC20/ERC20.sol\":7476:7508  ERC20InvalidReceiver(address(0)) */\n  mload(0x40)\n  shl(0xe0, 0xec442f05)\n  dup2\n  mstore\n    /* \"@openzeppelin/contracts/token/ERC20/ERC20.sol\":7505:7506  0 */\n  0x00\n    /* \"@openzeppelin/contracts/token/ERC20/ERC20.sol\":7476:7508  ERC20InvalidReceiver(address(0)) */\n  0x04\n  dup3\n  add\n    /* \"#utility.yul\":2881:2932   */\n  mstore\n    /* \"#utility.yul\":2854:2872   */\n  0x24\n  add\n    /* \"@openzeppelin/contracts/token/ERC20/ERC20.sol\":7476:7508  ERC20InvalidReceiver(address(0)) */\n  tag_11\n    /* \"#utility.yul\":2735:2938   */\n  jump\n    /* \"@openzeppelin/contracts/token/ERC20/ERC20.sol\":7428:7519  if (account == address(0)) {... */\ntag_31:\n    /* \"@openzeppelin/contracts/token/ERC20/ERC20.sol\":7528:7563  _update(address(0), account, value) */\n  tag_33\n    /* \"@openzeppelin/contracts/token/ERC20/ERC20.sol\":7544:7545  0 */\n  0x00\n    /* \"@openzeppelin/contracts/token/ERC20/ERC20.sol\":7548:7555  account */\n  dup4\n    /* \"@openzeppelin/contracts/token/ERC20/ERC20.sol\":7557:7562  value */\n  dup4\n    /* \"@openzeppelin/contracts/token/ERC20/ERC20.sol\":7528:7535  _update */\n  tag_34\n    /* \"@openzeppelin/contracts/token/ERC20/ERC20.sol\":7528:7563  _update(address(0), account, value) */\n  jump\t// in\ntag_33:\n    /* \"@openzeppelin/contracts/token/ERC20/ERC20.sol\":7362:7570  function _mint(address account, uint256 value) internal {... */\n  pop\n  pop\n  jump\t// out\n    /* \"@openzeppelin/contracts/utils/cryptography/ECDSA.sol\":2419:3197  function tryRecover(... */\ntag_27:\n    /* \"@openzeppelin/contracts/utils/cryptography/ECDSA.sol\":2522:2539  address recovered */\n  0x00\n    /* \"@openzeppelin/contracts/utils/cryptography/ECDSA.sol\":2541:2557  RecoverError err */\n  dup1\n    /* \"@openzeppelin/contracts/utils/cryptography/ECDSA.sol\":2559:2573  bytes32 errArg */\n  0x00\n    /* \"@openzeppelin/contracts/utils/cryptography/ECDSA.sol\":2589:2598  signature */\n  dup4\n    /* \"@openzeppelin/contracts/utils/cryptography/ECDSA.sol\":2589:2605  signature.length */\n  mload\n    /* \"@openzeppelin/contracts/utils/cryptography/ECDSA.sol\":2609:2611  65 */\n  0x41\n    /* \"@openzeppelin/contracts/utils/cryptography/ECDSA.sol\":2589:2611  signature.length == 65 */\n  sub\n    /* \"@openzeppelin/contracts/utils/cryptography/ECDSA.sol\":2585:3191  if (signature.length == 65) {... */\n  tag_36\n  jumpi\n    /* \"@openzeppelin/contracts/utils/cryptography/ECDSA.sol\":2894:2898  0x20 */\n  0x20\n    /* \"@openzeppelin/contracts/utils/cryptography/ECDSA.sol\":2879:2899  add(signature, 0x20) */\n  dup5\n  add\n    /* \"@openzeppelin/contracts/utils/cryptography/ECDSA.sol\":2873:2900  mload(add(signature, 0x20)) */\n  mload\n    /* \"@openzeppelin/contracts/utils/cryptography/ECDSA.sol\":2943:2947  0x40 */\n  0x40\n    /* \"@openzeppelin/contracts/utils/cryptography/ECDSA.sol\":2928:2948  add(signature, 0x40) */\n  dup6\n  add\n    /* \"@openzeppelin/contracts/utils/cryptography/ECDSA.sol\":2922:2949  mload(add(signature, 0x40)) */\n  mload\n    /* \"@openzeppelin/contracts/utils/cryptography/ECDSA.sol\":3000:3004  0x60 */\n  0x60\n    /* \"@openzeppelin/contracts/utils/cryptography/ECDSA.sol\":2985:3005  add(signature, 0x60) */\n  dup7\n  add\n    /* \"@openzeppelin/contracts/utils/cryptography/ECDSA.sol\":2979:3006  mload(add(signature, 0x60)) */\n  mload\n    /* \"@openzeppelin/contracts/utils/cryptography/ECDSA.sol\":2627:2636  bytes32 r */\n  0x00\n    /* \"@openzeppelin/contracts/utils/cryptography/ECDSA.sol\":2971:3007  byte(0, mload(add(signature, 0x60))) */\n  byte\n    /* \"@openzeppelin/contracts/utils/cryptography/ECDSA.sol\":3041:3066  tryRecover(hash, v, r, s) */\n  tag_37\n    /* \"@openzeppelin/contracts/utils/cryptography/ECDSA.sol\":3052:3056  hash */\n  dup9\n    /* \"@openzeppelin/contracts/utils/cryptography/ECDSA.sol\":2971:3007  byte(0, mload(add(signature, 0x60))) */\n  dup3\n    /* \"@openzeppelin/contracts/utils/cryptography/ECDSA.sol\":2873:2900  mload(add(signature, 0x20)) */\n  dup6\n    /* \"@openzeppelin/contracts/utils/cryptography/ECDSA.sol\":2922:2949  mload(add(signature, 0x40)) */\n  dup6\n    /* \"@openzeppelin/contracts/utils/cryptography/ECDSA.sol\":3041:3051  tryRecover */\n  tag_38\n    /* \"@openzeppelin/contracts/utils/cryptography/ECDSA.sol\":3041:3066  tryRecover(hash, v, r, s) */\n  jump\t// in\ntag_37:\n    /* \"@openzeppelin/contracts/utils/cryptography/ECDSA.sol\":3034:3066  return tryRecover(hash, v, r, s) */\n  swap6\n  pop\n  swap6\n  pop\n  swap6\n  pop\n  pop\n  pop\n  pop\n  jump(tag_39)\n    /* \"@openzeppelin/contracts/utils/cryptography/ECDSA.sol\":2585:3191  if (signature.length == 65) {... */\ntag_36:\n  pop\n  pop\n    /* \"@openzeppelin/contracts/utils/cryptography/ECDSA.sol\":3162:3178  signature.length */\n  dup2\n  mload\n    /* \"@openzeppelin/contracts/utils/cryptography/ECDSA.sol\":3113:3114  0 */\n  0x00\n  swap2\n  pop\n    /* \"@openzeppelin/contracts/utils/cryptography/ECDSA.sol\":3117:3152  RecoverError.InvalidSignatureLength */\n  0x02\n  swap1\n    /* \"@openzeppelin/contracts/utils/cryptography/ECDSA.sol\":2585:3191  if (signature.length == 65) {... */\ntag_39:\n    /* \"@openzeppelin/contracts/utils/cryptography/ECDSA.sol\":2419:3197  function tryRecover(... */\n  swap3\n  pop\n  swap3\n  pop\n  swap3\n  jump\t// out\n    /* \"@openzeppelin/contracts/utils/cryptography/ECDSA.sol\":11617:12149  function _throwError(RecoverError error, bytes32 errorArg) private pure {... */\ntag_29:\n    /* \"@openzeppelin/contracts/utils/cryptography/ECDSA.sol\":11712:11732  RecoverError.NoError */\n  0x00\n    /* \"@openzeppelin/contracts/utils/cryptography/ECDSA.sol\":11703:11708  error */\n  dup3\n    /* \"@openzeppelin/contracts/utils/cryptography/ECDSA.sol\":11703:11732  error == RecoverError.NoError */\n  0x03\n  dup2\n  gt\n  iszero\n  tag_45\n  jumpi\n  tag_45\n  tag_43\n  jump\t// in\ntag_45:\n  sub\n    /* \"@openzeppelin/contracts/utils/cryptography/ECDSA.sol\":11699:12143  if (error == RecoverError.NoError) {... */\n  tag_46\n  jumpi\n    /* \"@openzeppelin/contracts/utils/cryptography/ECDSA.sol\":11617:12149  function _throwError(RecoverError error, bytes32 errorArg) private pure {... */\n  pop\n  pop\n  jump\t// out\n    /* \"@openzeppelin/contracts/utils/cryptography/ECDSA.sol\":11699:12143  if (error == RecoverError.NoError) {... */\ntag_46:\n    /* \"@openzeppelin/contracts/utils/cryptography/ECDSA.sol\":11808:11837  RecoverError.InvalidSignature */\n  0x01\n    /* \"@openzeppelin/contracts/utils/cryptography/ECDSA.sol\":11799:11804  error */\n  dup3\n    /* \"@openzeppelin/contracts/utils/cryptography/ECDSA.sol\":11799:11837  error == RecoverError.InvalidSignature */\n  0x03\n  dup2\n  gt\n  iszero\n  tag_51\n  jumpi\n  tag_51\n  tag_43\n  jump\t// in\ntag_51:\n  sub\n    /* \"@openzeppelin/contracts/utils/cryptography/ECDSA.sol\":11795:12143  if (error == RecoverError.InvalidSignature) {... */\n  tag_52\n  jumpi\n    /* \"@openzeppelin/contracts/utils/cryptography/ECDSA.sol\":11860:11883  ECDSAInvalidSignature() */\n  mload(0x40)\n  shl(0xe0, 0xf645eedf)\n  dup2\n  mstore\n  0x04\n  add\n  mload(0x40)\n  dup1\n  swap2\n  sub\n  swap1\n  revert\n    /* \"@openzeppelin/contracts/utils/cryptography/ECDSA.sol\":11795:12143  if (error == RecoverError.InvalidSignature) {... */\ntag_52:\n    /* \"@openzeppelin/contracts/utils/cryptography/ECDSA.sol\":11913:11948  RecoverError.InvalidSignatureLength */\n  0x02\n    /* \"@openzeppelin/contracts/utils/cryptography/ECDSA.sol\":11904:11909  error */\n  dup3\n    /* \"@openzeppelin/contracts/utils/cryptography/ECDSA.sol\":11904:11948  error == RecoverError.InvalidSignatureLength */\n  0x03\n  dup2\n  gt\n  iszero\n  tag_57\n  jumpi\n  tag_57\n  tag_43\n  jump\t// in\ntag_57:\n  sub\n    /* \"@openzeppelin/contracts/utils/cryptography/ECDSA.sol\":11900:12143  if (error == RecoverError.InvalidSignatureLength) {... */\n  tag_58\n  jumpi\n    /* \"@openzeppelin/contracts/utils/cryptography/ECDSA.sol\":11971:12017  ECDSAInvalidSignatureLength(uint256(errorArg)) */\n  mload(0x40)\n  shl(0xe0, 0xfce698f7)\n  dup2\n  mstore\n  0x04\n  dup2\n  add\n    /* \"#utility.yul\":3575:3600   */\n  dup3\n  swap1\n  mstore\n    /* \"#utility.yul\":3548:3566   */\n  0x24\n  add\n    /* \"@openzeppelin/contracts/utils/cryptography/ECDSA.sol\":11971:12017  ECDSAInvalidSignatureLength(uint256(errorArg)) */\n  tag_11\n    /* \"#utility.yul\":3429:3606   */\n  jump\n    /* \"@openzeppelin/contracts/utils/cryptography/ECDSA.sol\":11900:12143  if (error == RecoverError.InvalidSignatureLength) {... */\ntag_58:\n    /* \"@openzeppelin/contracts/utils/cryptography/ECDSA.sol\":12047:12077  RecoverError.InvalidSignatureS */\n  0x03\n    /* \"@openzeppelin/contracts/utils/cryptography/ECDSA.sol\":12038:12043  error */\n  dup3\n    /* \"@openzeppelin/contracts/utils/cryptography/ECDSA.sol\":12038:12077  error == RecoverError.InvalidSignatureS */\n  0x03\n  dup2\n  gt\n  iszero\n  tag_65\n  jumpi\n  tag_65\n  tag_43\n  jump\t// in\ntag_65:\n  sub\n    /* \"@openzeppelin/contracts/utils/cryptography/ECDSA.sol\":12034:12143  if (error == RecoverError.InvalidSignatureS) {... */\n  tag_33\n  jumpi\n    /* \"@openzeppelin/contracts/utils/cryptography/ECDSA.sol\":12100:12132  ECDSAInvalidSignatureS(errorArg) */\n  mload(0x40)\n  shl(0xe2, 0x35e2f383)\n  dup2\n  mstore\n  0x04\n  dup2\n  add\n    /* \"#utility.yul\":3575:3600   */\n  dup3\n  swap1\n  mstore\n    /* \"#utility.yul\":3548:3566   */\n  0x24\n  add\n    /* \"@openzeppelin/contracts/utils/cryptography/ECDSA.sol\":12100:12132  ECDSAInvalidSignatureS(errorArg) */\n  tag_11\n    /* \"#utility.yul\":3429:3606   */\n  jump\n    /* \"@openzeppelin/contracts/token/ERC20/ERC20.sol\":5912:7019  function _update(address from, address to, uint256 value) internal virtual {... */\ntag_34:\n  sub(shl(0xa0, 0x01), 0x01)\n    /* \"@openzeppelin/contracts/token/ERC20/ERC20.sol\":6001:6019  from == address(0) */\n  dup4\n  and\n    /* \"@openzeppelin/contracts/token/ERC20/ERC20.sol\":5997:6537  if (from == address(0)) {... */\n  tag_70\n  jumpi\n    /* \"@openzeppelin/contracts/token/ERC20/ERC20.sol\":6153:6158  value */\n  dup1\n    /* \"@openzeppelin/contracts/token/ERC20/ERC20.sol\":6137:6149  _totalSupply */\n  0x02\n  0x00\n    /* \"@openzeppelin/contracts/token/ERC20/ERC20.sol\":6137:6158  _totalSupply += value */\n  dup3\n  dup3\n  sload\n  tag_71\n  swap2\n  swap1\n  tag_72\n  jump\t// in\ntag_71:\n  swap1\n  swap2\n  sstore\n  pop\n    /* \"@openzeppelin/contracts/token/ERC20/ERC20.sol\":5997:6537  if (from == address(0)) {... */\n  tag_73\n  swap1\n  pop\n  jump\ntag_70:\n  sub(shl(0xa0, 0x01), 0x01)\n    /* \"@openzeppelin/contracts/token/ERC20/ERC20.sol\":6211:6226  _balances[from] */\n  dup4\n  and\n    /* \"@openzeppelin/contracts/token/ERC20/ERC20.sol\":6189:6208  uint256 fromBalance */\n  0x00\n    /* \"@openzeppelin/contracts/token/ERC20/ERC20.sol\":6211:6226  _balances[from] */\n  swap1\n  dup2\n  mstore\n  0x20\n  dup2\n  swap1\n  mstore\n  0x40\n  swap1\n  keccak256\n  sload\n    /* \"@openzeppelin/contracts/token/ERC20/ERC20.sol\":6244:6263  fromBalance < value */\n  dup2\n  dup2\n  lt\n    /* \"@openzeppelin/contracts/token/ERC20/ERC20.sol\":6240:6355  if (fromBalance < value) {... */\n  iszero\n  tag_74\n  jumpi\n    /* \"@openzeppelin/contracts/token/ERC20/ERC20.sol\":6290:6340  ERC20InsufficientBalance(from, fromBalance, value) */\n  mload(0x40)\n  shl(0xe2, 0x391434e3)\n  dup2\n  mstore\n  sub(shl(0xa0, 0x01), 0x01)\n    /* \"#utility.yul\":4240:4272   */\n  dup6\n  and\n    /* \"@openzeppelin/contracts/token/ERC20/ERC20.sol\":6290:6340  ERC20InsufficientBalance(from, fromBalance, value) */\n  0x04\n  dup3\n  add\n    /* \"#utility.yul\":4222:4273   */\n  mstore\n    /* \"#utility.yul\":4289:4307   */\n  0x24\n  dup2\n  add\n    /* \"#utility.yul\":4282:4316   */\n  dup3\n  swap1\n  mstore\n    /* \"#utility.yul\":4332:4350   */\n  0x44\n  dup2\n  add\n    /* \"#utility.yul\":4325:4359   */\n  dup4\n  swap1\n  mstore\n    /* \"#utility.yul\":4195:4213   */\n  0x64\n  add\n    /* \"@openzeppelin/contracts/token/ERC20/ERC20.sol\":6290:6340  ERC20InsufficientBalance(from, fromBalance, value) */\n  tag_11\n    /* \"#utility.yul\":4020:4365   */\n  jump\n    /* \"@openzeppelin/contracts/token/ERC20/ERC20.sol\":6240:6355  if (fromBalance < value) {... */\ntag_74:\n  sub(shl(0xa0, 0x01), 0x01)\n    /* \"@openzeppelin/contracts/token/ERC20/ERC20.sol\":6475:6490  _balances[from] */\n  dup5\n  and\n    /* \"@openzeppelin/contracts/token/ERC20/ERC20.sol\":6475:6484  _balances */\n  0x00\n    /* \"@openzeppelin/contracts/token/ERC20/ERC20.sol\":6475:6490  _balances[from] */\n  swap1\n  dup2\n  mstore\n  0x20\n  dup2\n  swap1\n  mstore\n  0x40\n  swap1\n  keccak256\n    /* \"@openzeppelin/contracts/token/ERC20/ERC20.sol\":6493:6512  fromBalance - value */\n  swap1\n  dup3\n  swap1\n  sub\n    /* \"@openzeppelin/contracts/token/ERC20/ERC20.sol\":6475:6512  _balances[from] = fromBalance - value */\n  swap1\n  sstore\n    /* \"@openzeppelin/contracts/token/ERC20/ERC20.sol\":5997:6537  if (from == address(0)) {... */\ntag_73:\n  sub(shl(0xa0, 0x01), 0x01)\n    /* \"@openzeppelin/contracts/token/ERC20/ERC20.sol\":6551:6567  to == address(0) */\n  dup3\n  and\n    /* \"@openzeppelin/contracts/token/ERC20/ERC20.sol\":6547:6972  if (to == address(0)) {... */\n  tag_77\n  jumpi\n    /* \"@openzeppelin/contracts/token/ERC20/ERC20.sol\":6714:6726  _totalSupply */\n  0x02\n    /* \"@openzeppelin/contracts/token/ERC20/ERC20.sol\":6714:6735  _totalSupply -= value */\n  dup1\n  sload\n  dup3\n  swap1\n  sub\n  swap1\n  sstore\n    /* \"@openzeppelin/contracts/token/ERC20/ERC20.sol\":6547:6972  if (to == address(0)) {... */\n  jump(tag_78)\ntag_77:\n  sub(shl(0xa0, 0x01), 0x01)\n    /* \"@openzeppelin/contracts/token/ERC20/ERC20.sol\":6925:6938  _balances[to] */\n  dup3\n  and\n    /* \"@openzeppelin/contracts/token/ERC20/ERC20.sol\":6925:6934  _balances */\n  0x00\n    /* \"@openzeppelin/contracts/token/ERC20/ERC20.sol\":6925:6938  _balances[to] */\n  swap1\n  dup2\n  mstore\n  0x20\n  dup2\n  swap1\n  mstore\n  0x40\n  swap1\n  keccak256\n    /* \"@openzeppelin/contracts/token/ERC20/ERC20.sol\":6925:6947  _balances[to] += value */\n  dup1\n  sload\n  dup3\n  add\n  swap1\n  sstore\n    /* \"@openzeppelin/contracts/token/ERC20/ERC20.sol\":6547:6972  if (to == address(0)) {... */\ntag_78:\n    /* \"@openzeppelin/contracts/token/ERC20/ERC20.sol\":7002:7004  to */\n  dup2\n  sub(shl(0xa0, 0x01), 0x01)\n    /* \"@openzeppelin/contracts/token/ERC20/ERC20.sol\":6987:7012  Transfer(from, to, value) */\n  and\n    /* \"@openzeppelin/contracts/token/ERC20/ERC20.sol\":6996:7000  from */\n  dup4\n  sub(shl(0xa0, 0x01), 0x01)\n    /* \"@openzeppelin/contracts/token/ERC20/ERC20.sol\":6987:7012  Transfer(from, to, value) */\n  and\n  0xddf252ad1be2c89b69c2b068fc378daa952ba7f163c4a11628f55a4df523b3ef\n    /* \"@openzeppelin/contracts/token/ERC20/ERC20.sol\":7006:7011  value */\n  dup4\n    /* \"@openzeppelin/contracts/token/ERC20/ERC20.sol\":6987:7012  Transfer(from, to, value) */\n  mload(0x40)\n  tag_79\n  swap2\n    /* \"#utility.yul\":3575:3600   */\n  dup2\n  mstore\n    /* \"#utility.yul\":3563:3565   */\n  0x20\n    /* \"#utility.yul\":3548:3566   */\n  add\n  swap1\n    /* \"#utility.yul\":3429:3606   */\n  jump\n    /* \"@openzeppelin/contracts/token/ERC20/ERC20.sol\":6987:7012  Transfer(from, to, value) */\ntag_79:\n  mload(0x40)\n  dup1\n  swap2\n  sub\n  swap1\n  log3\n    /* \"@openzeppelin/contracts/token/ERC20/ERC20.sol\":5912:7019  function _update(address from, address to, uint256 value) internal virtual {... */\n  pop\n  pop\n  pop\n  jump\t// out\n    /* \"@openzeppelin/contracts/utils/cryptography/ECDSA.sol\":7129:8680  function tryRecover(... */\ntag_38:\n    /* \"@openzeppelin/contracts/utils/cryptography/ECDSA.sol\":7255:7272  address recovered */\n  0x00\n  dup1\n  dup1\n  sub(shl(0xff, 0x01), 0xa2a8918ca85bafe22016d0b997e4df60)\n    /* \"@openzeppelin/contracts/utils/cryptography/ECDSA.sol\":8196:8275  uint256(s) > 0x7FFFFFFFFFFFFFFFFFFFFFFFFFFFFFFF5D576E7357A4501DDFE92F46681B20A0 */\n  dup5\n  gt\n    /* \"@openzeppelin/contracts/utils/cryptography/ECDSA.sol\":8192:8356  if (uint256(s) > 0x7FFFFFFFFFFFFFFFFFFFFFFFFFFFFFFF5D576E7357A4501DDFE92F46681B20A0) {... */\n  iszero\n  tag_81\n  jumpi\n  pop\n    /* \"@openzeppelin/contracts/utils/cryptography/ECDSA.sol\":8307:8308  0 */\n  0x00\n  swap2\n  pop\n    /* \"@openzeppelin/contracts/utils/cryptography/ECDSA.sol\":8311:8341  RecoverError.InvalidSignatureS */\n  0x03\n  swap1\n  pop\n    /* \"@openzeppelin/contracts/utils/cryptography/ECDSA.sol\":8343:8344  s */\n  dup3\n    /* \"@openzeppelin/contracts/utils/cryptography/ECDSA.sol\":8291:8345  return (address(0), RecoverError.InvalidSignatureS, s) */\n  jump(tag_80)\n    /* \"@openzeppelin/contracts/utils/cryptography/ECDSA.sol\":8192:8356  if (uint256(s) > 0x7FFFFFFFFFFFFFFFFFFFFFFFFFFFFFFF5D576E7357A4501DDFE92F46681B20A0) {... */\ntag_81:\n    /* \"@openzeppelin/contracts/utils/cryptography/ECDSA.sol\":8467:8491  ecrecover(hash, v, r, s) */\n  0x40\n  dup1\n  mload\n    /* \"@openzeppelin/contracts/utils/cryptography/ECDSA.sol\":8450:8464  address signer */\n  0x00\n    /* \"@openzeppelin/contracts/utils/cryptography/ECDSA.sol\":8467:8491  ecrecover(hash, v, r, s) */\n  dup1\n  dup3\n  mstore\n  0x20\n  dup3\n  add\n  dup1\n  dup5\n  mstore\n    /* \"#utility.yul\":4597:4622   */\n  dup11\n  swap1\n  mstore\n    /* \"#utility.yul\":4670:4674   */\n  0xff\n    /* \"#utility.yul\":4658:4675   */\n  dup10\n  and\n    /* \"#utility.yul\":4638:4656   */\n  swap3\n  dup3\n  add\n    /* \"#utility.yul\":4631:4676   */\n  swap3\n  swap1\n  swap3\n  mstore\n    /* \"#utility.yul\":4692:4710   */\n  0x60\n  dup2\n  add\n    /* \"#utility.yul\":4685:4719   */\n  dup8\n  swap1\n  mstore\n    /* \"#utility.yul\":4735:4753   */\n  0x80\n  dup2\n  add\n    /* \"#utility.yul\":4728:4762   */\n  dup7\n  swap1\n  mstore\n    /* \"@openzeppelin/contracts/utils/cryptography/ECDSA.sol\":8467:8491  ecrecover(hash, v, r, s) */\n  0x01\n  swap1\n    /* \"#utility.yul\":4569:4588   */\n  0xa0\n  add\n    /* \"@openzeppelin/contracts/utils/cryptography/ECDSA.sol\":8467:8491  ecrecover(hash, v, r, s) */\n  0x20\n  mload(0x40)\n  0x20\n  dup2\n  sub\n  swap1\n  dup1\n  dup5\n  sub\n  swap1\n  dup6\n  gas\n  staticcall\n  iszero\n  dup1\n  iszero\n  tag_85\n  jumpi\n  returndatasize\n  0x00\n  dup1\n  returndatacopy\n  revert(0x00, returndatasize)\ntag_85:\n  pop\n  pop\n  mload(add(not(0x1f), mload(0x40)))\n  swap2\n  pop\n  pop\n  sub(shl(0xa0, 0x01), 0x01)\n    /* \"@openzeppelin/contracts/utils/cryptography/ECDSA.sol\":8505:8525  signer == address(0) */\n  dup2\n  and\n    /* \"@openzeppelin/contracts/utils/cryptography/ECDSA.sol\":8501:8614  if (signer == address(0)) {... */\n  tag_86\n  jumpi\n  pop\n    /* \"@openzeppelin/contracts/utils/cryptography/ECDSA.sol\":8557:8558  0 */\n  0x00\n  swap3\n  pop\n    /* \"@openzeppelin/contracts/utils/cryptography/ECDSA.sol\":8561:8590  RecoverError.InvalidSignature */\n  0x01\n  swap2\n  pop\n    /* \"@openzeppelin/contracts/utils/cryptography/ECDSA.sol\":8557:8558  0 */\n  dup3\n  swap1\n  pop\n    /* \"@openzeppelin/contracts/utils/cryptography/ECDSA.sol\":8541:8603  return (address(0), RecoverError.InvalidSignature, bytes32(0)) */\n  jump(tag_80)\n    /* \"@openzeppelin/contracts/utils/cryptography/ECDSA.sol\":8501:8614  if (signer == address(0)) {... */\ntag_86:\n    /* \"@openzeppelin/contracts/utils/cryptography/ECDSA.sol\":8632:8638  signer */\n  swap3\n  pop\n    /* \"@openzeppelin/contracts/utils/cryptography/ECDSA.sol\":8640:8660  RecoverError.NoError */\n  0x00\n  swap2\n  pop\n  dup2\n  swap1\n  pop\n    /* \"@openzeppelin/contracts/utils/cryptography/ECDSA.sol\":7129:8680  function tryRecover(... */\ntag_80:\n  swap5\n  pop\n  swap5\n  pop\n  swap5\n  swap2\n  pop\n  pop\n  jump\t// out\n    /* \"#utility.yul\":14:141   */\ntag_87:\n    /* \"#utility.yul\":75:85   */\n  0x4e487b71\n    /* \"#utility.yul\":70:73   */\n  0xe0\n    /* \"#utility.yul\":66:86   */\n  shl\n    /* \"#utility.yul\":63:64   */\n  0x00\n    /* \"#utility.yul\":56:87   */\n  mstore\n    /* \"#utility.yul\":106:110   */\n  0x41\n    /* \"#utility.yul\":103:104   */\n  0x04\n    /* \"#utility.yul\":96:111   */\n  mstore\n    /* \"#utility.yul\":130:134   */\n  0x24\n    /* \"#utility.yul\":127:128   */\n  0x00\n    /* \"#utility.yul\":120:135   */\n  revert\n    /* \"#utility.yul\":146:526   */\ntag_88:\n    /* \"#utility.yul\":225:226   */\n  0x01\n    /* \"#utility.yul\":221:233   */\n  dup2\n  dup2\n  shr\n  swap1\n    /* \"#utility.yul\":268:280   */\n  dup3\n  and\n  dup1\n    /* \"#utility.yul\":289:350   */\n  tag_95\n  jumpi\n    /* \"#utility.yul\":343:347   */\n  0x7f\n    /* \"#utility.yul\":335:341   */\n  dup3\n    /* \"#utility.yul\":331:348   */\n  and\n    /* \"#utility.yul\":321:348   */\n  swap2\n  pop\n    /* \"#utility.yul\":289:350   */\ntag_95:\n    /* \"#utility.yul\":396:398   */\n  0x20\n    /* \"#utility.yul\":388:394   */\n  dup3\n    /* \"#utility.yul\":385:399   */\n  lt\n    /* \"#utility.yul\":365:383   */\n  dup2\n    /* \"#utility.yul\":362:400   */\n  sub\n    /* \"#utility.yul\":359:520   */\n  tag_96\n  jumpi\n    /* \"#utility.yul\":442:452   */\n  0x4e487b71\n    /* \"#utility.yul\":437:440   */\n  0xe0\n    /* \"#utility.yul\":433:453   */\n  shl\n    /* \"#utility.yul\":430:431   */\n  0x00\n    /* \"#utility.yul\":423:454   */\n  mstore\n    /* \"#utility.yul\":477:481   */\n  0x22\n    /* \"#utility.yul\":474:475   */\n  0x04\n    /* \"#utility.yul\":467:482   */\n  mstore\n    /* \"#utility.yul\":505:509   */\n  0x24\n    /* \"#utility.yul\":502:503   */\n  0x00\n    /* \"#utility.yul\":495:510   */\n  revert\n    /* \"#utility.yul\":359:520   */\ntag_96:\n  pop\n    /* \"#utility.yul\":146:526   */\n  swap2\n  swap1\n  pop\n  jump\t// out\n    /* \"#utility.yul\":657:1202   */\ntag_90:\n    /* \"#utility.yul\":759:761   */\n  0x1f\n    /* \"#utility.yul\":754:757   */\n  dup3\n    /* \"#utility.yul\":751:762   */\n  gt\n    /* \"#utility.yul\":748:1196   */\n  iszero\n  tag_99\n  jumpi\n    /* \"#utility.yul\":795:796   */\n  0x00\n    /* \"#utility.yul\":820:825   */\n  dup2\n    /* \"#utility.yul\":816:818   */\n  dup2\n    /* \"#utility.yul\":809:826   */\n  mstore\n    /* \"#utility.yul\":865:869   */\n  0x20\n    /* \"#utility.yul\":861:863   */\n  dup2\n    /* \"#utility.yul\":851:870   */\n  keccak256\n    /* \"#utility.yul\":935:937   */\n  0x1f\n    /* \"#utility.yul\":923:933   */\n  dup6\n    /* \"#utility.yul\":919:938   */\n  add\n    /* \"#utility.yul\":916:917   */\n  0x05\n    /* \"#utility.yul\":912:939   */\n  shr\n    /* \"#utility.yul\":906:910   */\n  dup2\n    /* \"#utility.yul\":902:940   */\n  add\n    /* \"#utility.yul\":971:975   */\n  0x20\n    /* \"#utility.yul\":959:969   */\n  dup7\n    /* \"#utility.yul\":956:976   */\n  lt\n    /* \"#utility.yul\":953:1000   */\n  iszero\n  tag_100\n  jumpi\n  pop\n    /* \"#utility.yul\":994:998   */\n  dup1\n    /* \"#utility.yul\":953:1000   */\ntag_100:\n    /* \"#utility.yul\":1049:1051   */\n  0x1f\n    /* \"#utility.yul\":1044:1047   */\n  dup6\n    /* \"#utility.yul\":1040:1052   */\n  add\n    /* \"#utility.yul\":1037:1038   */\n  0x05\n    /* \"#utility.yul\":1033:1053   */\n  shr\n    /* \"#utility.yul\":1027:1031   */\n  dup3\n    /* \"#utility.yul\":1023:1054   */\n  add\n    /* \"#utility.yul\":1013:1054   */\n  swap2\n  pop\n    /* \"#utility.yul\":1104:1186   */\ntag_101:\n    /* \"#utility.yul\":1122:1124   */\n  dup2\n    /* \"#utility.yul\":1115:1120   */\n  dup2\n    /* \"#utility.yul\":1112:1125   */\n  lt\n    /* \"#utility.yul\":1104:1186   */\n  iszero\n  tag_103\n  jumpi\n    /* \"#utility.yul\":1167:1184   */\n  dup3\n  dup2\n  sstore\n    /* \"#utility.yul\":1148:1149   */\n  0x01\n    /* \"#utility.yul\":1137:1150   */\n  add\n    /* \"#utility.yul\":1104:1186   */\n  jump(tag_101)\ntag_103:\n    /* \"#utility.yul\":1108:1111   */\n  pop\n  pop\n  pop\n    /* \"#utility.yul\":748:1196   */\ntag_99:\n    /* \"#utility.yul\":657:1202   */\n  pop\n  pop\n  pop\n  jump\t// out\n    /* \"#utility.yul\":1378:2730   */\ntag_7:\n    /* \"#utility.yul\":1498:1508   */\n  dup2\n  mload\n  sub(shl(0x40, 0x01), 0x01)\n    /* \"#utility.yul\":1520:1550   */\n  dup2\n  gt\n    /* \"#utility.yul\":1517:1573   */\n  iszero\n  tag_107\n  jumpi\n    /* \"#utility.yul\":1553:1571   */\n  tag_107\n  tag_87\n  jump\t// in\ntag_107:\n    /* \"#utility.yul\":1582:1679   */\n  tag_108\n    /* \"#utility.yul\":1672:1678   */\n  dup2\n    /* \"#utility.yul\":1632:1670   */\n  tag_109\n    /* \"#utility.yul\":1664:1668   */\n  dup5\n    /* \"#utility.yul\":1658:1669   */\n  sload\n    /* \"#utility.yul\":1632:1670   */\n  tag_88\n  jump\t// in\ntag_109:\n    /* \"#utility.yul\":1626:1630   */\n  dup5\n    /* \"#utility.yul\":1582:1679   */\n  tag_90\n  jump\t// in\ntag_108:\n    /* \"#utility.yul\":1734:1738   */\n  0x20\n  dup1\n    /* \"#utility.yul\":1798:1800   */\n  0x1f\n    /* \"#utility.yul\":1787:1801   */\n  dup4\n  gt\n    /* \"#utility.yul\":1815:1816   */\n  0x01\n    /* \"#utility.yul\":1810:2473   */\n  dup2\n  eq\n  tag_111\n  jumpi\n    /* \"#utility.yul\":2517:2518   */\n  0x00\n    /* \"#utility.yul\":2534:2540   */\n  dup5\n    /* \"#utility.yul\":2531:2620   */\n  iszero\n  tag_112\n  jumpi\n  pop\n    /* \"#utility.yul\":2586:2605   */\n  dup6\n  dup4\n  add\n    /* \"#utility.yul\":2580:2606   */\n  mload\n    /* \"#utility.yul\":2531:2620   */\ntag_112:\n  not(0x00)\n    /* \"#utility.yul\":1335:1336   */\n  0x03\n    /* \"#utility.yul\":1331:1342   */\n  dup7\n  swap1\n  shl\n    /* \"#utility.yul\":1327:1351   */\n  shr\n    /* \"#utility.yul\":1323:1352   */\n  not\n    /* \"#utility.yul\":1313:1353   */\n  and\n    /* \"#utility.yul\":1359:1360   */\n  0x01\n    /* \"#utility.yul\":1355:1366   */\n  dup6\n  swap1\n  shl\n    /* \"#utility.yul\":1310:1367   */\n  or\n    /* \"#utility.yul\":2633:2714   */\n  dup6\n  sstore\n    /* \"#utility.yul\":1780:2724   */\n  jump(tag_103)\n    /* \"#utility.yul\":1810:2473   */\ntag_111:\n    /* \"#utility.yul\":604:605   */\n  0x00\n    /* \"#utility.yul\":597:611   */\n  dup6\n  dup2\n  mstore\n    /* \"#utility.yul\":641:645   */\n  0x20\n    /* \"#utility.yul\":628:646   */\n  dup2\n  keccak256\n  not(0x1f)\n    /* \"#utility.yul\":1846:1866   */\n  dup7\n  and\n  swap2\n    /* \"#utility.yul\":1964:2200   */\ntag_115:\n    /* \"#utility.yul\":1978:1985   */\n  dup3\n    /* \"#utility.yul\":1975:1976   */\n  dup2\n    /* \"#utility.yul\":1972:1986   */\n  lt\n    /* \"#utility.yul\":1964:2200   */\n  iszero\n  tag_117\n  jumpi\n    /* \"#utility.yul\":2067:2086   */\n  dup9\n  dup7\n  add\n    /* \"#utility.yul\":2061:2087   */\n  mload\n    /* \"#utility.yul\":2046:2088   */\n  dup3\n  sstore\n    /* \"#utility.yul\":2159:2186   */\n  swap5\n  dup5\n  add\n  swap5\n    /* \"#utility.yul\":2127:2128   */\n  0x01\n    /* \"#utility.yul\":2115:2129   */\n  swap1\n  swap2\n  add\n  swap1\n    /* \"#utility.yul\":1994:2013   */\n  dup5\n  add\n    /* \"#utility.yul\":1964:2200   */\n  jump(tag_115)\ntag_117:\n    /* \"#utility.yul\":1968:1971   */\n  pop\n    /* \"#utility.yul\":2228:2234   */\n  dup6\n    /* \"#utility.yul\":2219:2226   */\n  dup3\n    /* \"#utility.yul\":2216:2235   */\n  lt\n    /* \"#utility.yul\":2213:2414   */\n  iszero\n  tag_118\n  jumpi\n    /* \"#utility.yul\":2289:2308   */\n  dup8\n  dup6\n  add\n    /* \"#utility.yul\":2283:2309   */\n  mload\n  not(0x00)\n    /* \"#utility.yul\":2372:2373   */\n  0x03\n    /* \"#utility.yul\":2368:2382   */\n  dup9\n  swap1\n  shl\n    /* \"#utility.yul\":2384:2387   */\n  0xf8\n    /* \"#utility.yul\":2364:2388   */\n  and\n    /* \"#utility.yul\":2360:2397   */\n  shr\n    /* \"#utility.yul\":2356:2398   */\n  not\n    /* \"#utility.yul\":2341:2399   */\n  and\n    /* \"#utility.yul\":2326:2400   */\n  dup2\n  sstore\n    /* \"#utility.yul\":2213:2414   */\ntag_118:\n  pop\n  pop\n  pop\n  pop\n  pop\n    /* \"#utility.yul\":2460:2461   */\n  0x01\n    /* \"#utility.yul\":2444:2458   */\n  swap1\n  dup2\n  shl\n    /* \"#utility.yul\":2440:2462   */\n  add\n    /* \"#utility.yul\":2427:2463   */\n  swap1\n  sstore\n  pop\n    /* \"#utility.yul\":1378:2730   */\n  jump\t// out\n    /* \"#utility.yul\":3297:3424   */\ntag_43:\n    /* \"#utility.yul\":3358:3368   */\n  0x4e487b71\n    /* \"#utility.yul\":3353:3356   */\n  0xe0\n    /* \"#utility.yul\":3349:3369   */\n  shl\n    /* \"#utility.yul\":3346:3347   */\n  0x00\n    /* \"#utility.yul\":3339:3370   */\n  mstore\n    /* \"#utility.yul\":3389:3393   */\n  0x21\n    /* \"#utility.yul\":3386:3387   */\n  0x04\n    /* \"#utility.yul\":3379:3394   */\n  mstore\n    /* \"#utility.yul\":3413:3417   */\n  0x24\n    /* \"#utility.yul\":3410:3411   */\n  0x00\n    /* \"#utility.yul\":3403:3418   */\n  revert\n    /* \"#utility.yul\":3793:4015   */\ntag_72:\n    /* \"#utility.yul\":3858:3867   */\n  dup1\n  dup3\n  add\n    /* \"#utility.yul\":3879:3889   */\n  dup1\n  dup3\n  gt\n    /* \"#utility.yul\":3876:4009   */\n  iszero\n  tag_25\n  jumpi\n    /* \"#utility.yul\":3931:3941   */\n  0x4e487b71\n    /* \"#utility.yul\":3926:3929   */\n  0xe0\n    /* \"#utility.yul\":3922:3942   */\n  shl\n    /* \"#utility.yul\":3919:3920   */\n  0x00\n    /* \"#utility.yul\":3912:3943   */\n  mstore\n    /* \"#utility.yul\":3966:3970   */\n  0x11\n    /* \"#utility.yul\":3963:3964   */\n  0x04\n    /* \"#utility.yul\":3956:3971   */\n  mstore\n    /* \"#utility.yul\":3994:3998   */\n  0x24\n    /* \"#utility.yul\":3991:3992   */\n  0x00\n    /* \"#utility.yul\":3984:3999   */\n  revert\n    /* \"#utility.yul\":4370:4768   */\ntag_92:\n    /* \"/contracts/CamelotScavenger.sol\":231:1916  contract CamelotScavenger is ERC20, Ownable {... */\n  dataSize(sub_0)\n  dup1\n  dataOffset(sub_0)\n  0x00\n  codecopy\n  0x00\n  return\nstop\ndata_7c247f0faa109da9a7dfcc30d9b7c5309fb4341a6d669088e6e5c9edaf7a8422 03678afdb0fe5548271967f1a67130b7105cd6a828e03909a67962e0ea1f61deb6\n\nsub_0: assembly {\n        /* \"/contracts/CamelotScavenger.sol\":231:1916  contract CamelotScavenger is ERC20, Ownable {... */\n      mstore(0x40, 0x80)\n      callvalue\n      dup1\n      iszero\n      tag_1\n      jumpi\n      0x00\n      dup1\n      revert\n    tag_1:\n      pop\n      jumpi(tag_2, lt(calldatasize, 0x04))\n      shr(0xe0, calldataload(0x00))\n      dup1\n      0x715018a6\n      gt\n      tag_26\n      jumpi\n      dup1\n      0x965ea38c\n      gt\n      tag_27\n      jumpi\n      dup1\n      0x965ea38c\n      eq\n      tag_20\n      jumpi\n      dup1\n      0x9f45bdac\n      eq\n      tag_21\n      jumpi\n      dup1\n      0xa9059cbb\n      eq\n      tag_22\n      jumpi\n      dup1\n      0xdd62ed3e\n      eq\n      tag_23\n      jumpi\n      dup1\n      0xe042735b\n      eq\n      tag_24\n      jumpi\n      dup1\n      0xf2fde38b\n      eq\n      tag_25\n      jumpi\n      0x00\n      dup1\n      revert\n    tag_27:\n      dup1\n      0x715018a6\n      eq\n      tag_14\n      jumpi\n      dup1\n      0x77fd5d02\n      eq\n      tag_15\n      jumpi\n      dup1\n      0x7e39cb58\n      eq\n      tag_16\n      jumpi\n      dup1\n      0x8da5cb5b\n      eq\n      tag_17\n      jumpi\n      dup1\n      0x902d55a5\n      eq\n      tag_18\n      jumpi\n      dup1\n      0x95d89b41\n      eq\n      tag_19\n      jumpi\n      0x00\n      dup1\n      revert\n    tag_26:\n      dup1\n      0x2c7abeea\n      gt\n      tag_28\n      jumpi\n      dup1\n      0x2c7abeea\n      eq\n      tag_8\n      jumpi\n      dup1\n      0x313ce567\n      eq\n      tag_9\n      jumpi\n      dup1\n      0x38e21cce\n      eq\n      tag_10\n      jumpi\n      dup1\n      0x41baeb92\n      eq\n      tag_11\n      jumpi\n      dup1\n      0x6e95b711\n      eq\n      tag_12\n      jumpi\n      dup1\n      0x70a08231\n      eq\n      tag_13\n      jumpi\n      0x00\n      dup1\n      revert\n    tag_28:\n      dup1\n      0x06fdde03\n      eq\n      tag_3\n      jumpi\n      dup1\n      0x095ea7b3\n      eq\n      tag_4\n      jumpi\n      dup1\n      0x18160ddd\n      eq\n      tag_5\n      jumpi\n      dup1\n      0x23b872dd\n      eq\n      tag_6\n      jumpi\n      dup1\n      0x28fd21c1\n      eq\n      tag_7\n      jumpi\n    tag_2:\n      0x00\n      dup1\n      revert\n        /* \"@openzeppelin/contracts/token/ERC20/ERC20.sol\":1760:1849  function name() public view virtual returns (string memory) {... */\n    tag_3:\n      tag_29\n      tag_30\n      jump\t// in\n    tag_29:\n      mload(0x40)\n      tag_31\n      swap2\n      swap1\n      tag_32\n      jump\t// in\n    tag_31:\n      mload(0x40)\n      dup1\n      swap2\n      sub\n      swap1\n      return\n        /* \"@openzeppelin/contracts/token/ERC20/ERC20.sol\":3902:4088  function approve(address spender, uint256 value) public virtual returns (bool) {... */\n    tag_4:\n      tag_33\n      tag_34\n      calldatasize\n      0x04\n      tag_35\n      jump\t// in\n    tag_34:\n      tag_36\n      jump\t// in\n    tag_33:\n      mload(0x40)\n        /* \"#utility.yul\":1269:1283   */\n      swap1\n      iszero\n        /* \"#utility.yul\":1262:1284   */\n      iszero\n        /* \"#utility.yul\":1244:1285   */\n      dup2\n      mstore\n        /* \"#utility.yul\":1232:1234   */\n      0x20\n        /* \"#utility.yul\":1217:1235   */\n      add\n        /* \"@openzeppelin/contracts/token/ERC20/ERC20.sol\":3902:4088  function approve(address spender, uint256 value) public virtual returns (bool) {... */\n      tag_31\n        /* \"#utility.yul\":1104:1291   */\n      jump\n        /* \"@openzeppelin/contracts/token/ERC20/ERC20.sol\":2803:2900  function totalSupply() public view virtual returns (uint256) {... */\n    tag_5:\n        /* \"@openzeppelin/contracts/token/ERC20/ERC20.sol\":2881:2893  _totalSupply */\n      sload(0x02)\n        /* \"@openzeppelin/contracts/token/ERC20/ERC20.sol\":2803:2900  function totalSupply() public view virtual returns (uint256) {... */\n    tag_39:\n      mload(0x40)\n        /* \"#utility.yul\":1442:1467   */\n      swap1\n      dup2\n      mstore\n        /* \"#utility.yul\":1430:1432   */\n      0x20\n        /* \"#utility.yul\":1415:1433   */\n      add\n        /* \"@openzeppelin/contracts/token/ERC20/ERC20.sol\":2803:2900  function totalSupply() public view virtual returns (uint256) {... */\n      tag_31\n        /* \"#utility.yul\":1296:1473   */\n      jump\n        /* \"@openzeppelin/contracts/token/ERC20/ERC20.sol\":4680:4924  function transferFrom(address from, address to, uint256 value) public virtual returns (bool) {... */\n    tag_6:\n      tag_33\n      tag_44\n      calldatasize\n      0x04\n      tag_45\n      jump\t// in\n    tag_44:\n      tag_46\n      jump\t// in\n        /* \"/contracts/CamelotScavenger.sol\":311:429  bytes public constant GENESIS_PUBKEY =... */\n    tag_7:\n      tag_29\n      tag_49\n      jump\t// in\n        /* \"/contracts/CamelotScavenger.sol\":794:853  uint256 public constant PER_SOLVER_MINT =     1000 * 10**18 */\n    tag_8:\n      tag_39\n        /* \"/contracts/CamelotScavenger.sol\":840:853  1000 * 10**18 */\n      0x3635c9adc5dea00000\n        /* \"/contracts/CamelotScavenger.sol\":794:853  uint256 public constant PER_SOLVER_MINT =     1000 * 10**18 */\n      dup2\n      jump\n        /* \"@openzeppelin/contracts/token/ERC20/ERC20.sol\":2688:2770  function decimals() public view virtual returns (uint8) {... */\n    tag_9:\n      mload(0x40)\n        /* \"@openzeppelin/contracts/token/ERC20/ERC20.sol\":2761:2763  18 */\n      0x12\n        /* \"#utility.yul\":2176:2212   */\n      dup2\n      mstore\n        /* \"#utility.yul\":2164:2166   */\n      0x20\n        /* \"#utility.yul\":2149:2167   */\n      add\n        /* \"@openzeppelin/contracts/token/ERC20/ERC20.sol\":2688:2770  function decimals() public view virtual returns (uint8) {... */\n      tag_31\n        /* \"#utility.yul\":2034:2218   */\n      jump\n        /* \"/contracts/CamelotScavenger.sol\":1102:1143  mapping(address => bool) public hasMinted */\n    tag_10:\n      tag_33\n      tag_60\n      calldatasize\n      0x04\n      tag_61\n      jump\t// in\n    tag_60:\n      mstore(0x20, 0x07)\n      0x00\n      swap1\n      dup2\n      mstore\n      0x40\n      swap1\n      keccak256\n      sload\n      0xff\n      and\n      dup2\n      jump\n        /* \"/contracts/CamelotScavenger.sol\":1066:1096  uint256 public mintedBySolvers */\n    tag_11:\n      tag_39\n      sload(0x06)\n      dup2\n      jump\n        /* \"/contracts/CamelotScavenger.sol\":654:714  uint256 public constant GENESIS_MINT   =  7_500_000 * 10**18 */\n    tag_12:\n      tag_39\n        /* \"/contracts/CamelotScavenger.sol\":696:714  7_500_000 * 10**18 */\n      0x06342fd08f00f637800000\n        /* \"/contracts/CamelotScavenger.sol\":654:714  uint256 public constant GENESIS_MINT   =  7_500_000 * 10**18 */\n      dup2\n      jump\n        /* \"@openzeppelin/contracts/token/ERC20/ERC20.sol\":2933:3049  function balanceOf(address account) public view virtual returns (uint256) {... */\n    tag_13:\n      tag_39\n      tag_71\n      calldatasize\n      0x04\n      tag_61\n      jump\t// in\n    tag_71:\n      sub(shl(0xa0, 0x01), 0x01)\n        /* \"@openzeppelin/contracts/token/ERC20/ERC20.sol\":3024:3042  _balances[account] */\n      and\n        /* \"@openzeppelin/contracts/token/ERC20/ERC20.sol\":2998:3005  uint256 */\n      0x00\n        /* \"@openzeppelin/contracts/token/ERC20/ERC20.sol\":3024:3042  _balances[account] */\n      swap1\n      dup2\n      mstore\n      0x20\n      dup2\n      swap1\n      mstore\n      0x40\n      swap1\n      keccak256\n      sload\n      swap1\n        /* \"@openzeppelin/contracts/token/ERC20/ERC20.sol\":2933:3049  function balanceOf(address account) public view virtual returns (uint256) {... */\n      jump\n        /* \"@openzeppelin/contracts/access/Ownable.sol\":2293:2394  function renounceOwnership() public virtual onlyOwner {... */\n    tag_14:\n      tag_74\n      tag_75\n      jump\t// in\n    tag_74:\n      stop\n        /* \"/contracts/CamelotScavenger.sol\":720:788  uint256 public constant REMAINING_MINT = TOTAL_SUPPLY - GENESIS_MINT */\n    tag_15:\n      tag_39\n      tag_77\n      jump\t// in\n        /* \"/contracts/CamelotScavenger.sol\":436:581  bytes32 public constant MNEMONIC_HASH = keccak256(... */\n    tag_16:\n      tag_39\n        /* \"/contracts/CamelotScavenger.sol\":476:581  keccak256(... */\n      0x3d6146d9ec877e7556edbff9b8fa61ca49404ac8b4128ab4937a74c7b033cee7\n        /* \"/contracts/CamelotScavenger.sol\":436:581  bytes32 public constant MNEMONIC_HASH = keccak256(... */\n      dup2\n      jump\n        /* \"@openzeppelin/contracts/access/Ownable.sol\":1638:1723  function owner() public view virtual returns (address) {... */\n    tag_17:\n        /* \"@openzeppelin/contracts/access/Ownable.sol\":1710:1716  _owner */\n      sload(0x05)\n        /* \"@openzeppelin/contracts/access/Ownable.sol\":1638:1723  function owner() public view virtual returns (address) {... */\n      mload(0x40)\n      sub(shl(0xa0, 0x01), 0x01)\n        /* \"@openzeppelin/contracts/access/Ownable.sol\":1710:1716  _owner */\n      swap1\n      swap2\n      and\n        /* \"#utility.yul\":2742:2793   */\n      dup2\n      mstore\n        /* \"#utility.yul\":2730:2732   */\n      0x20\n        /* \"#utility.yul\":2715:2733   */\n      add\n        /* \"@openzeppelin/contracts/access/Ownable.sol\":1638:1723  function owner() public view virtual returns (address) {... */\n      tag_31\n        /* \"#utility.yul\":2596:2799   */\n      jump\n        /* \"/contracts/CamelotScavenger.sol\":588:648  uint256 public constant TOTAL_SUPPLY   = 29_000_000 * 10**18 */\n    tag_18:\n      tag_39\n        /* \"/contracts/CamelotScavenger.sol\":629:648  29_000_000 * 10**18 */\n      0x17fcfd266d36eb3d000000\n        /* \"/contracts/CamelotScavenger.sol\":588:648  uint256 public constant TOTAL_SUPPLY   = 29_000_000 * 10**18 */\n      dup2\n      jump\n        /* \"@openzeppelin/contracts/token/ERC20/ERC20.sol\":1962:2055  function symbol() public view virtual returns (string memory) {... */\n    tag_19:\n      tag_29\n      tag_91\n      jump\t// in\n        /* \"/contracts/CamelotScavenger.sol\":948:1059  bytes public constant GENESIS_SIGNATURE = hex\"1234567890abcdef1234567890abcdef1234567890abcdef1234567890abcdef\" */\n    tag_20:\n      tag_29\n      mload(0x40)\n      dup1\n      0x40\n      add\n      0x40\n      mstore\n      dup1\n      0x20\n      dup2\n      mstore\n      0x20\n      add\n      0x1234567890abcdef1234567890abcdef1234567890abcdef1234567890abcdef\n      dup2\n      mstore\n      pop\n      dup2\n      jump\n        /* \"/contracts/CamelotScavenger.sol\":860:942  bytes32 public constant GENESIS_MESSAGE_HASH = keccak256(\"Camelot Scavenger Hunt\") */\n    tag_21:\n      tag_39\n        /* \"/contracts/CamelotScavenger.sol\":907:942  keccak256(\"Camelot Scavenger Hunt\") */\n      0x450d5ca1d5fa8aee9d893f6c7ac9fd8e59a06ff5f40dac808d5e4b456017f336\n        /* \"/contracts/CamelotScavenger.sol\":860:942  bytes32 public constant GENESIS_MESSAGE_HASH = keccak256(\"Camelot Scavenger Hunt\") */\n      dup2\n      jump\n        /* \"@openzeppelin/contracts/token/ERC20/ERC20.sol\":3244:3422  function transfer(address to, uint256 value) public virtual returns (bool) {... */\n    tag_22:\n      tag_33\n      tag_100\n      calldatasize\n      0x04\n      tag_35\n      jump\t// in\n    tag_100:\n      tag_101\n      jump\t// in\n        /* \"@openzeppelin/contracts/token/ERC20/ERC20.sol\":3455:3595  function allowance(address owner, address spender) public view virtual returns (uint256) {... */\n    tag_23:\n      tag_39\n      tag_104\n      calldatasize\n      0x04\n      tag_105\n      jump\t// in\n    tag_104:\n      sub(shl(0xa0, 0x01), 0x01)\n        /* \"@openzeppelin/contracts/token/ERC20/ERC20.sol\":3561:3579  _allowances[owner] */\n      swap2\n      dup3\n      and\n        /* \"@openzeppelin/contracts/token/ERC20/ERC20.sol\":3535:3542  uint256 */\n      0x00\n        /* \"@openzeppelin/contracts/token/ERC20/ERC20.sol\":3561:3579  _allowances[owner] */\n      swap1\n      dup2\n      mstore\n        /* \"@openzeppelin/contracts/token/ERC20/ERC20.sol\":3561:3572  _allowances */\n      0x01\n        /* \"@openzeppelin/contracts/token/ERC20/ERC20.sol\":3561:3579  _allowances[owner] */\n      0x20\n      swap1\n      dup2\n      mstore\n      0x40\n      dup1\n      dup4\n      keccak256\n        /* \"@openzeppelin/contracts/token/ERC20/ERC20.sol\":3561:3588  _allowances[owner][spender] */\n      swap4\n      swap1\n      swap5\n      and\n      dup3\n      mstore\n      swap2\n      swap1\n      swap2\n      mstore\n      keccak256\n      sload\n      swap1\n        /* \"@openzeppelin/contracts/token/ERC20/ERC20.sol\":3455:3595  function allowance(address owner, address spender) public view virtual returns (uint256) {... */\n      jump\n        /* \"/contracts/CamelotScavenger.sol\":1495:1914  function mintByMnemonic(string calldata mnemonic) external {... */\n    tag_24:\n      tag_74\n      tag_109\n      calldatasize\n      0x04\n      tag_110\n      jump\t// in\n    tag_109:\n      tag_111\n      jump\t// in\n        /* \"@openzeppelin/contracts/access/Ownable.sol\":2543:2758  function transferOwnership(address newOwner) public virtual onlyOwner {... */\n    tag_25:\n      tag_74\n      tag_113\n      calldatasize\n      0x04\n      tag_61\n      jump\t// in\n    tag_113:\n      tag_114\n      jump\t// in\n        /* \"@openzeppelin/contracts/token/ERC20/ERC20.sol\":1760:1849  function name() public view virtual returns (string memory) {... */\n    tag_30:\n        /* \"@openzeppelin/contracts/token/ERC20/ERC20.sol\":1805:1818  string memory */\n      0x60\n        /* \"@openzeppelin/contracts/token/ERC20/ERC20.sol\":1837:1842  _name */\n      0x03\n        /* \"@openzeppelin/contracts/token/ERC20/ERC20.sol\":1830:1842  return _name */\n      dup1\n      sload\n      tag_116\n      swap1\n      tag_117\n      jump\t// in\n    tag_116:\n      dup1\n      0x1f\n      add\n      0x20\n      dup1\n      swap2\n      div\n      mul\n      0x20\n      add\n      mload(0x40)\n      swap1\n      dup2\n      add\n      0x40\n      mstore\n      dup1\n      swap3\n      swap2\n      swap1\n      dup2\n      dup2\n      mstore\n      0x20\n      add\n      dup3\n      dup1\n      sload\n      tag_118\n      swap1\n      tag_117\n      jump\t// in\n    tag_118:\n      dup1\n      iszero\n      tag_119\n      jumpi\n      dup1\n      0x1f\n      lt\n      tag_120\n      jumpi\n      0x0100\n      dup1\n      dup4\n      sload\n      div\n      mul\n      dup4\n      mstore\n      swap2\n      0x20\n      add\n      swap2\n      jump(tag_119)\n    tag_120:\n      dup3\n      add\n      swap2\n      swap1\n      0x00\n      mstore\n      keccak256(0x00, 0x20)\n      swap1\n    tag_121:\n      dup2\n      sload\n      dup2\n      mstore\n      swap1\n      0x01\n      add\n      swap1\n      0x20\n      add\n      dup1\n      dup4\n      gt\n      tag_121\n      jumpi\n      dup3\n      swap1\n      sub\n      0x1f\n      and\n      dup3\n      add\n      swap2\n    tag_119:\n      pop\n      pop\n      pop\n      pop\n      pop\n      swap1\n      pop\n        /* \"@openzeppelin/contracts/token/ERC20/ERC20.sol\":1760:1849  function name() public view virtual returns (string memory) {... */\n      swap1\n      jump\t// out\n        /* \"@openzeppelin/contracts/token/ERC20/ERC20.sol\":3902:4088  function approve(address spender, uint256 value) public virtual returns (bool) {... */\n    tag_36:\n        /* \"@openzeppelin/contracts/token/ERC20/ERC20.sol\":3975:3979  bool */\n      0x00\n        /* \"@openzeppelin/contracts/utils/Context.sol\":735:745  msg.sender */\n      caller\n        /* \"@openzeppelin/contracts/token/ERC20/ERC20.sol\":4029:4060  _approve(owner, spender, value) */\n      tag_125\n        /* \"@openzeppelin/contracts/utils/Context.sol\":735:745  msg.sender */\n      dup2\n        /* \"@openzeppelin/contracts/token/ERC20/ERC20.sol\":4045:4052  spender */\n      dup6\n        /* \"@openzeppelin/contracts/token/ERC20/ERC20.sol\":4054:4059  value */\n      dup6\n        /* \"@openzeppelin/contracts/token/ERC20/ERC20.sol\":4029:4037  _approve */\n      tag_126\n        /* \"@openzeppelin/contracts/token/ERC20/ERC20.sol\":4029:4060  _approve(owner, spender, value) */\n      jump\t// in\n    tag_125:\n        /* \"@openzeppelin/contracts/token/ERC20/ERC20.sol\":4077:4081  true */\n      0x01\n        /* \"@openzeppelin/contracts/token/ERC20/ERC20.sol\":4070:4081  return true */\n      swap2\n      pop\n      pop\n        /* \"@openzeppelin/contracts/token/ERC20/ERC20.sol\":3902:4088  function approve(address spender, uint256 value) public virtual returns (bool) {... */\n    tag_122:\n      swap3\n      swap2\n      pop\n      pop\n      jump\t// out\n        /* \"@openzeppelin/contracts/token/ERC20/ERC20.sol\":4680:4924  function transferFrom(address from, address to, uint256 value) public virtual returns (bool) {... */\n    tag_46:\n        /* \"@openzeppelin/contracts/token/ERC20/ERC20.sol\":4767:4771  bool */\n      0x00\n        /* \"@openzeppelin/contracts/utils/Context.sol\":735:745  msg.sender */\n      caller\n        /* \"@openzeppelin/contracts/token/ERC20/ERC20.sol\":4823:4860  _spendAllowance(from, spender, value) */\n      tag_130\n        /* \"@openzeppelin/contracts/token/ERC20/ERC20.sol\":4839:4843  from */\n      dup6\n        /* \"@openzeppelin/contracts/utils/Context.sol\":735:745  msg.sender */\n      dup3\n        /* \"@openzeppelin/contracts/token/ERC20/ERC20.sol\":4854:4859  value */\n      dup6\n        /* \"@openzeppelin/contracts/token/ERC20/ERC20.sol\":4823:4838  _spendAllowance */\n      tag_131\n        /* \"@openzeppelin/contracts/token/ERC20/ERC20.sol\":4823:4860  _spendAllowance(from, spender, value) */\n      jump\t// in\n    tag_130:\n        /* \"@openzeppelin/contracts/token/ERC20/ERC20.sol\":4870:4896  _transfer(from, to, value) */\n      tag_132\n        /* \"@openzeppelin/contracts/token/ERC20/ERC20.sol\":4880:4884  from */\n      dup6\n        /* \"@openzeppelin/contracts/token/ERC20/ERC20.sol\":4886:4888  to */\n      dup6\n        /* \"@openzeppelin/contracts/token/ERC20/ERC20.sol\":4890:4895  value */\n      dup6\n        /* \"@openzeppelin/contracts/token/ERC20/ERC20.sol\":4870:4879  _transfer */\n      tag_133\n        /* \"@openzeppelin/contracts/token/ERC20/ERC20.sol\":4870:4896  _transfer(from, to, value) */\n      jump\t// in\n    tag_132:\n      pop\n        /* \"@openzeppelin/contracts/token/ERC20/ERC20.sol\":4913:4917  true */\n      0x01\n      swap5\n        /* \"@openzeppelin/contracts/token/ERC20/ERC20.sol\":4680:4924  function transferFrom(address from, address to, uint256 value) public virtual returns (bool) {... */\n      swap4\n      pop\n      pop\n      pop\n      pop\n      jump\t// out\n        /* \"/contracts/CamelotScavenger.sol\":311:429  bytes public constant GENESIS_PUBKEY =... */\n    tag_49:\n      mload(0x40)\n      dup1\n      0x60\n      add\n      0x40\n      mstore\n      dup1\n      0x21\n      dup2\n      mstore\n      0x20\n      add\n      data_7c247f0faa109da9a7dfcc30d9b7c5309fb4341a6d669088e6e5c9edaf7a8422\n      0x21\n      swap2\n      codecopy\n      dup2\n      jump\t// out\n        /* \"@openzeppelin/contracts/access/Ownable.sol\":2293:2394  function renounceOwnership() public virtual onlyOwner {... */\n    tag_75:\n        /* \"@openzeppelin/contracts/access/Ownable.sol\":1531:1544  _checkOwner() */\n      tag_137\n        /* \"@openzeppelin/contracts/access/Ownable.sol\":1531:1542  _checkOwner */\n      tag_138\n        /* \"@openzeppelin/contracts/access/Ownable.sol\":1531:1544  _checkOwner() */\n      jump\t// in\n    tag_137:\n        /* \"@openzeppelin/contracts/access/Ownable.sol\":2357:2387  _transferOwnership(address(0)) */\n      tag_140\n        /* \"@openzeppelin/contracts/access/Ownable.sol\":2384:2385  0 */\n      0x00\n        /* \"@openzeppelin/contracts/access/Ownable.sol\":2357:2375  _transferOwnership */\n      tag_141\n        /* \"@openzeppelin/contracts/access/Ownable.sol\":2357:2387  _transferOwnership(address(0)) */\n      jump\t// in\n    tag_140:\n        /* \"@openzeppelin/contracts/access/Ownable.sol\":2293:2394  function renounceOwnership() public virtual onlyOwner {... */\n      jump\t// out\n        /* \"/contracts/CamelotScavenger.sol\":720:788  uint256 public constant REMAINING_MINT = TOTAL_SUPPLY - GENESIS_MINT */\n    tag_77:\n        /* \"/contracts/CamelotScavenger.sol\":761:788  TOTAL_SUPPLY - GENESIS_MINT */\n      tag_142\n        /* \"/contracts/CamelotScavenger.sol\":696:714  7_500_000 * 10**18 */\n      0x06342fd08f00f637800000\n        /* \"/contracts/CamelotScavenger.sol\":629:648  29_000_000 * 10**18 */\n      0x17fcfd266d36eb3d000000\n        /* \"/contracts/CamelotScavenger.sol\":761:788  TOTAL_SUPPLY - GENESIS_MINT */\n      tag_143\n      jump\t// in\n    tag_142:\n        /* \"/contracts/CamelotScavenger.sol\":720:788  uint256 public constant REMAINING_MINT = TOTAL_SUPPLY - GENESIS_MINT */\n      dup2\n      jump\t// out\n        /* \"@openzeppelin/contracts/token/ERC20/ERC20.sol\":1962:2055  function symbol() public view virtual returns (string memory) {... */\n    tag_91:\n        /* \"@openzeppelin/contracts/token/ERC20/ERC20.sol\":2009:2022  string memory */\n      0x60\n        /* \"@openzeppelin/contracts/token/ERC20/ERC20.sol\":2041:2048  _symbol */\n      0x04\n        /* \"@openzeppelin/contracts/token/ERC20/ERC20.sol\":2034:2048  return _symbol */\n      dup1\n      sload\n      tag_116\n      swap1\n      tag_117\n      jump\t// in\n        /* \"@openzeppelin/contracts/token/ERC20/ERC20.sol\":3244:3422  function transfer(address to, uint256 value) public virtual returns (bool) {... */\n    tag_101:\n        /* \"@openzeppelin/contracts/token/ERC20/ERC20.sol\":3313:3317  bool */\n      0x00\n        /* \"@openzeppelin/contracts/utils/Context.sol\":735:745  msg.sender */\n      caller\n        /* \"@openzeppelin/contracts/token/ERC20/ERC20.sol\":3367:3394  _transfer(owner, to, value) */\n      tag_125\n        /* \"@openzeppelin/contracts/utils/Context.sol\":735:745  msg.sender */\n      dup2\n        /* \"@openzeppelin/contracts/token/ERC20/ERC20.sol\":3384:3386  to */\n      dup6\n        /* \"@openzeppelin/contracts/token/ERC20/ERC20.sol\":3388:3393  value */\n      dup6\n        /* \"@openzeppelin/contracts/token/ERC20/ERC20.sol\":3367:3376  _transfer */\n      tag_133\n        /* \"@openzeppelin/contracts/token/ERC20/ERC20.sol\":3367:3394  _transfer(owner, to, value) */\n      jump\t// in\n        /* \"/contracts/CamelotScavenger.sol\":1495:1914  function mintByMnemonic(string calldata mnemonic) external {... */\n    tag_111:\n        /* \"/contracts/CamelotScavenger.sol\":1583:1593  msg.sender */\n      caller\n        /* \"/contracts/CamelotScavenger.sol\":1573:1594  hasMinted[msg.sender] */\n      0x00\n      swap1\n      dup2\n      mstore\n        /* \"/contracts/CamelotScavenger.sol\":1573:1582  hasMinted */\n      0x07\n        /* \"/contracts/CamelotScavenger.sol\":1573:1594  hasMinted[msg.sender] */\n      0x20\n      mstore\n      0x40\n      swap1\n      keccak256\n      sload\n      0xff\n      and\n        /* \"/contracts/CamelotScavenger.sol\":1572:1594  !hasMinted[msg.sender] */\n      iszero\n        /* \"/contracts/CamelotScavenger.sol\":1564:1613  require(!hasMinted[msg.sender], \"Already minted\") */\n      tag_156\n      jumpi\n      mload(0x40)\n      shl(0xe5, 0x461bcd)\n      dup2\n      mstore\n        /* \"#utility.yul\":4518:4520   */\n      0x20\n        /* \"/contracts/CamelotScavenger.sol\":1564:1613  require(!hasMinted[msg.sender], \"Already minted\") */\n      0x04\n      dup3\n      add\n        /* \"#utility.yul\":4500:4521   */\n      mstore\n        /* \"#utility.yul\":4557:4559   */\n      0x0e\n        /* \"#utility.yul\":4537:4555   */\n      0x24\n      dup3\n      add\n        /* \"#utility.yul\":4530:4560   */\n      mstore\n      shl(0x92, 0x105b1c9958591e481b5a5b9d1959)\n        /* \"#utility.yul\":4576:4594   */\n      0x44\n      dup3\n      add\n        /* \"#utility.yul\":4569:4613   */\n      mstore\n        /* \"#utility.yul\":4630:4648   */\n      0x64\n      add\n        /* \"/contracts/CamelotScavenger.sol\":1564:1613  require(!hasMinted[msg.sender], \"Already minted\") */\n    tag_157:\n      mload(0x40)\n      dup1\n      swap2\n      sub\n      swap1\n      revert\n    tag_156:\n        /* \"/contracts/CamelotScavenger.sol\":476:581  keccak256(... */\n      0x3d6146d9ec877e7556edbff9b8fa61ca49404ac8b4128ab4937a74c7b033cee7\n        /* \"/contracts/CamelotScavenger.sol\":1647:1655  mnemonic */\n      dup3\n      dup3\n        /* \"/contracts/CamelotScavenger.sol\":1631:1657  keccak256(bytes(mnemonic)) */\n      mload(0x40)\n      tag_159\n      swap3\n      swap2\n      swap1\n      tag_160\n      jump\t// in\n    tag_159:\n      mload(0x40)\n      dup1\n      swap2\n      sub\n      swap1\n      keccak256\n        /* \"/contracts/CamelotScavenger.sol\":1631:1674  keccak256(bytes(mnemonic)) == MNEMONIC_HASH */\n      eq\n        /* \"/contracts/CamelotScavenger.sol\":1623:1693  require(keccak256(bytes(mnemonic)) == MNEMONIC_HASH, \"Wrong mnemonic\") */\n      tag_161\n      jumpi\n      mload(0x40)\n      shl(0xe5, 0x461bcd)\n      dup2\n      mstore\n        /* \"#utility.yul\":5137:5139   */\n      0x20\n        /* \"/contracts/CamelotScavenger.sol\":1623:1693  require(keccak256(bytes(mnemonic)) == MNEMONIC_HASH, \"Wrong mnemonic\") */\n      0x04\n      dup3\n      add\n        /* \"#utility.yul\":5119:5140   */\n      mstore\n        /* \"#utility.yul\":5176:5178   */\n      0x0e\n        /* \"#utility.yul\":5156:5174   */\n      0x24\n      dup3\n      add\n        /* \"#utility.yul\":5149:5179   */\n      mstore\n      shl(0x90, 0x57726f6e67206d6e656d6f6e6963)\n        /* \"#utility.yul\":5195:5213   */\n      0x44\n      dup3\n      add\n        /* \"#utility.yul\":5188:5232   */\n      mstore\n        /* \"#utility.yul\":5249:5267   */\n      0x64\n      add\n        /* \"/contracts/CamelotScavenger.sol\":1623:1693  require(keccak256(bytes(mnemonic)) == MNEMONIC_HASH, \"Wrong mnemonic\") */\n      tag_157\n        /* \"#utility.yul\":4935:5273   */\n      jump\n        /* \"/contracts/CamelotScavenger.sol\":1623:1693  require(keccak256(bytes(mnemonic)) == MNEMONIC_HASH, \"Wrong mnemonic\") */\n    tag_161:\n        /* \"/contracts/CamelotScavenger.sol\":761:788  TOTAL_SUPPLY - GENESIS_MINT */\n      tag_164\n        /* \"/contracts/CamelotScavenger.sol\":696:714  7_500_000 * 10**18 */\n      0x06342fd08f00f637800000\n        /* \"/contracts/CamelotScavenger.sol\":629:648  29_000_000 * 10**18 */\n      0x17fcfd266d36eb3d000000\n        /* \"/contracts/CamelotScavenger.sol\":761:788  TOTAL_SUPPLY - GENESIS_MINT */\n      tag_143\n      jump\t// in\n    tag_164:\n        /* \"/contracts/CamelotScavenger.sol\":840:853  1000 * 10**18 */\n      0x3635c9adc5dea00000\n        /* \"/contracts/CamelotScavenger.sol\":1711:1726  mintedBySolvers */\n      sload(0x06)\n        /* \"/contracts/CamelotScavenger.sol\":1711:1744  mintedBySolvers + PER_SOLVER_MINT */\n      tag_165\n      swap2\n      swap1\n      tag_166\n      jump\t// in\n    tag_165:\n        /* \"/contracts/CamelotScavenger.sol\":1711:1762  mintedBySolvers + PER_SOLVER_MINT <= REMAINING_MINT */\n      gt\n      iszero\n        /* \"/contracts/CamelotScavenger.sol\":1703:1781  require(mintedBySolvers + PER_SOLVER_MINT <= REMAINING_MINT, \"Pool exhausted\") */\n      tag_167\n      jumpi\n      mload(0x40)\n      shl(0xe5, 0x461bcd)\n      dup2\n      mstore\n        /* \"#utility.yul\":5610:5612   */\n      0x20\n        /* \"/contracts/CamelotScavenger.sol\":1703:1781  require(mintedBySolvers + PER_SOLVER_MINT <= REMAINING_MINT, \"Pool exhausted\") */\n      0x04\n      dup3\n      add\n        /* \"#utility.yul\":5592:5613   */\n      mstore\n        /* \"#utility.yul\":5649:5651   */\n      0x0e\n        /* \"#utility.yul\":5629:5647   */\n      0x24\n      dup3\n      add\n        /* \"#utility.yul\":5622:5652   */\n      mstore\n      shl(0x92, 0x141bdbdb08195e1a185d5cdd1959)\n        /* \"#utility.yul\":5668:5686   */\n      0x44\n      dup3\n      add\n        /* \"#utility.yul\":5661:5705   */\n      mstore\n        /* \"#utility.yul\":5722:5740   */\n      0x64\n      add\n        /* \"/contracts/CamelotScavenger.sol\":1703:1781  require(mintedBySolvers + PER_SOLVER_MINT <= REMAINING_MINT, \"Pool exhausted\") */\n      tag_157\n        /* \"#utility.yul\":5408:5746   */\n      jump\n        /* \"/contracts/CamelotScavenger.sol\":1703:1781  require(mintedBySolvers + PER_SOLVER_MINT <= REMAINING_MINT, \"Pool exhausted\") */\n    tag_167:\n        /* \"/contracts/CamelotScavenger.sol\":1791:1825  _mint(msg.sender, PER_SOLVER_MINT) */\n      tag_170\n        /* \"/contracts/CamelotScavenger.sol\":1797:1807  msg.sender */\n      caller\n        /* \"/contracts/CamelotScavenger.sol\":840:853  1000 * 10**18 */\n      0x3635c9adc5dea00000\n        /* \"/contracts/CamelotScavenger.sol\":1791:1796  _mint */\n      tag_171\n        /* \"/contracts/CamelotScavenger.sol\":1791:1825  _mint(msg.sender, PER_SOLVER_MINT) */\n      jump\t// in\n    tag_170:\n        /* \"/contracts/CamelotScavenger.sol\":840:853  1000 * 10**18 */\n      0x3635c9adc5dea00000\n        /* \"/contracts/CamelotScavenger.sol\":1835:1850  mintedBySolvers */\n      0x06\n      0x00\n        /* \"/contracts/CamelotScavenger.sol\":1835:1869  mintedBySolvers += PER_SOLVER_MINT */\n      dup3\n      dup3\n      sload\n      tag_172\n      swap2\n      swap1\n      tag_166\n      jump\t// in\n    tag_172:\n      swap1\n      swap2\n      sstore\n      pop\n      pop\n        /* \"/contracts/CamelotScavenger.sol\":1889:1899  msg.sender */\n      caller\n        /* \"/contracts/CamelotScavenger.sol\":1879:1900  hasMinted[msg.sender] */\n      0x00\n      swap1\n      dup2\n      mstore\n        /* \"/contracts/CamelotScavenger.sol\":1879:1888  hasMinted */\n      0x07\n        /* \"/contracts/CamelotScavenger.sol\":1879:1900  hasMinted[msg.sender] */\n      0x20\n      mstore\n      0x40\n      swap1\n      keccak256\n        /* \"/contracts/CamelotScavenger.sol\":1879:1907  hasMinted[msg.sender] = true */\n      dup1\n      sload\n      not(0xff)\n      and\n        /* \"/contracts/CamelotScavenger.sol\":1903:1907  true */\n      0x01\n        /* \"/contracts/CamelotScavenger.sol\":1879:1907  hasMinted[msg.sender] = true */\n      or\n      swap1\n      sstore\n      pop\n      pop\n        /* \"/contracts/CamelotScavenger.sol\":1495:1914  function mintByMnemonic(string calldata mnemonic) external {... */\n      jump\t// out\n        /* \"@openzeppelin/contracts/access/Ownable.sol\":2543:2758  function transferOwnership(address newOwner) public virtual onlyOwner {... */\n    tag_114:\n        /* \"@openzeppelin/contracts/access/Ownable.sol\":1531:1544  _checkOwner() */\n      tag_174\n        /* \"@openzeppelin/contracts/access/Ownable.sol\":1531:1542  _checkOwner */\n      tag_138\n        /* \"@openzeppelin/contracts/access/Ownable.sol\":1531:1544  _checkOwner() */\n      jump\t// in\n    tag_174:\n      sub(shl(0xa0, 0x01), 0x01)\n        /* \"@openzeppelin/contracts/access/Ownable.sol\":2627:2649  newOwner == address(0) */\n      dup2\n      and\n        /* \"@openzeppelin/contracts/access/Ownable.sol\":2623:2714  if (newOwner == address(0)) {... */\n      tag_176\n      jumpi\n        /* \"@openzeppelin/contracts/access/Ownable.sol\":2672:2703  OwnableInvalidOwner(address(0)) */\n      mload(0x40)\n      shl(0xe0, 0x1e4fbdf7)\n      dup2\n      mstore\n        /* \"@openzeppelin/contracts/access/Ownable.sol\":2700:2701  0 */\n      0x00\n        /* \"@openzeppelin/contracts/access/Ownable.sol\":2672:2703  OwnableInvalidOwner(address(0)) */\n      0x04\n      dup3\n      add\n        /* \"#utility.yul\":2742:2793   */\n      mstore\n        /* \"#utility.yul\":2715:2733   */\n      0x24\n      add\n        /* \"@openzeppelin/contracts/access/Ownable.sol\":2672:2703  OwnableInvalidOwner(address(0)) */\n      tag_157\n        /* \"#utility.yul\":2596:2799   */\n      jump\n        /* \"@openzeppelin/contracts/access/Ownable.sol\":2623:2714  if (newOwner == address(0)) {... */\n    tag_176:\n        /* \"@openzeppelin/contracts/access/Ownable.sol\":2723:2751  _transferOwnership(newOwner) */\n      tag_178\n        /* \"@openzeppelin/contracts/access/Ownable.sol\":2742:2750  newOwner */\n      dup2\n        /* \"@openzeppelin/contracts/access/Ownable.sol\":2723:2741  _transferOwnership */\n      tag_141\n        /* \"@openzeppelin/contracts/access/Ownable.sol\":2723:2751  _transferOwnership(newOwner) */\n      jump\t// in\n    tag_178:\n        /* \"@openzeppelin/contracts/access/Ownable.sol\":2543:2758  function transferOwnership(address newOwner) public virtual onlyOwner {... */\n      pop\n      jump\t// out\n        /* \"@openzeppelin/contracts/token/ERC20/ERC20.sol\":8630:8758  function _approve(address owner, address spender, uint256 value) internal {... */\n    tag_126:\n        /* \"@openzeppelin/contracts/token/ERC20/ERC20.sol\":8714:8751  _approve(owner, spender, value, true) */\n      tag_181\n        /* \"@openzeppelin/contracts/token/ERC20/ERC20.sol\":8723:8728  owner */\n      dup4\n        /* \"@openzeppelin/contracts/token/ERC20/ERC20.sol\":8730:8737  spender */\n      dup4\n        /* \"@openzeppelin/contracts/token/ERC20/ERC20.sol\":8739:8744  value */\n      dup4\n        /* \"@openzeppelin/contracts/token/ERC20/ERC20.sol\":8746:8750  true */\n      0x01\n        /* \"@openzeppelin/contracts/token/ERC20/ERC20.sol\":8714:8722  _approve */\n      tag_182\n        /* \"@openzeppelin/contracts/token/ERC20/ERC20.sol\":8714:8751  _approve(owner, spender, value, true) */\n      jump\t// in\n    tag_181:\n        /* \"@openzeppelin/contracts/token/ERC20/ERC20.sol\":8630:8758  function _approve(address owner, address spender, uint256 value) internal {... */\n      pop\n      pop\n      pop\n      jump\t// out\n        /* \"@openzeppelin/contracts/token/ERC20/ERC20.sol\":10321:10797  function _spendAllowance(address owner, address spender, uint256 value) internal virtual {... */\n    tag_131:\n      sub(shl(0xa0, 0x01), 0x01)\n        /* \"@openzeppelin/contracts/token/ERC20/ERC20.sol\":3561:3579  _allowances[owner] */\n      dup4\n      dup2\n      and\n        /* \"@openzeppelin/contracts/token/ERC20/ERC20.sol\":10420:10444  uint256 currentAllowance */\n      0x00\n        /* \"@openzeppelin/contracts/token/ERC20/ERC20.sol\":3561:3579  _allowances[owner] */\n      swap1\n      dup2\n      mstore\n        /* \"@openzeppelin/contracts/token/ERC20/ERC20.sol\":3561:3572  _allowances */\n      0x01\n        /* \"@openzeppelin/contracts/token/ERC20/ERC20.sol\":3561:3579  _allowances[owner] */\n      0x20\n      swap1\n      dup2\n      mstore\n      0x40\n      dup1\n      dup4\n      keccak256\n        /* \"@openzeppelin/contracts/token/ERC20/ERC20.sol\":3561:3588  _allowances[owner][spender] */\n      swap4\n      dup7\n      and\n      dup4\n      mstore\n      swap3\n      swap1\n      mstore\n      keccak256\n      sload\n      not(0x00)\n        /* \"@openzeppelin/contracts/token/ERC20/ERC20.sol\":10486:10522  currentAllowance < type(uint256).max */\n      dup2\n      lt\n        /* \"@openzeppelin/contracts/token/ERC20/ERC20.sol\":10482:10791  if (currentAllowance < type(uint256).max) {... */\n      iszero\n      tag_189\n      jumpi\n        /* \"@openzeppelin/contracts/token/ERC20/ERC20.sol\":10561:10566  value */\n      dup2\n        /* \"@openzeppelin/contracts/token/ERC20/ERC20.sol\":10542:10558  currentAllowance */\n      dup2\n        /* \"@openzeppelin/contracts/token/ERC20/ERC20.sol\":10542:10566  currentAllowance < value */\n      lt\n        /* \"@openzeppelin/contracts/token/ERC20/ERC20.sol\":10538:10668  if (currentAllowance < value) {... */\n      iszero\n      tag_186\n      jumpi\n        /* \"@openzeppelin/contracts/token/ERC20/ERC20.sol\":10593:10653  ERC20InsufficientAllowance(spender, currentAllowance, value) */\n      mload(0x40)\n      shl(0xe1, 0x7dc7a0d9)\n      dup2\n      mstore\n      sub(shl(0xa0, 0x01), 0x01)\n        /* \"#utility.yul\":5971:6003   */\n      dup5\n      and\n        /* \"@openzeppelin/contracts/token/ERC20/ERC20.sol\":10593:10653  ERC20InsufficientAllowance(spender, currentAllowance, value) */\n      0x04\n      dup3\n      add\n        /* \"#utility.yul\":5953:6004   */\n      mstore\n        /* \"#utility.yul\":6020:6038   */\n      0x24\n      dup2\n      add\n        /* \"#utility.yul\":6013:6047   */\n      dup3\n      swap1\n      mstore\n        /* \"#utility.yul\":6063:6081   */\n      0x44\n      dup2\n      add\n        /* \"#utility.yul\":6056:6090   */\n      dup4\n      swap1\n      mstore\n        /* \"#utility.yul\":5926:5944   */\n      0x64\n      add\n        /* \"@openzeppelin/contracts/token/ERC20/ERC20.sol\":10593:10653  ERC20InsufficientAllowance(spender, currentAllowance, value) */\n      tag_157\n        /* \"#utility.yul\":5751:6096   */\n      jump\n        /* \"@openzeppelin/contracts/token/ERC20/ERC20.sol\":10538:10668  if (currentAllowance < value) {... */\n    tag_186:\n        /* \"@openzeppelin/contracts/token/ERC20/ERC20.sol\":10709:10766  _approve(owner, spender, currentAllowance - value, false) */\n      tag_189\n        /* \"@openzeppelin/contracts/token/ERC20/ERC20.sol\":10718:10723  owner */\n      dup5\n        /* \"@openzeppelin/contracts/token/ERC20/ERC20.sol\":10725:10732  spender */\n      dup5\n        /* \"@openzeppelin/contracts/token/ERC20/ERC20.sol\":10753:10758  value */\n      dup5\n        /* \"@openzeppelin/contracts/token/ERC20/ERC20.sol\":10734:10750  currentAllowance */\n      dup5\n        /* \"@openzeppelin/contracts/token/ERC20/ERC20.sol\":10734:10758  currentAllowance - value */\n      sub\n        /* \"@openzeppelin/contracts/token/ERC20/ERC20.sol\":10760:10765  false */\n      0x00\n        /* \"@openzeppelin/contracts/token/ERC20/ERC20.sol\":10709:10717  _approve */\n      tag_182\n        /* \"@openzeppelin/contracts/token/ERC20/ERC20.sol\":10709:10766  _approve(owner, spender, currentAllowance - value, false) */\n      jump\t// in\n    tag_189:\n        /* \"@openzeppelin/contracts/token/ERC20/ERC20.sol\":10410:10797  {... */\n      pop\n        /* \"@openzeppelin/contracts/token/ERC20/ERC20.sol\":10321:10797  function _spendAllowance(address owner, address spender, uint256 value) internal virtual {... */\n      pop\n      pop\n      pop\n      jump\t// out\n        /* \"@openzeppelin/contracts/token/ERC20/ERC20.sol\":5297:5597  function _transfer(address from, address to, uint256 value) internal {... */\n    tag_133:\n      sub(shl(0xa0, 0x01), 0x01)\n        /* \"@openzeppelin/contracts/token/ERC20/ERC20.sol\":5380:5398  from == address(0) */\n      dup4\n      and\n        /* \"@openzeppelin/contracts/token/ERC20/ERC20.sol\":5376:5462  if (from == address(0)) {... */\n      tag_191\n      jumpi\n        /* \"@openzeppelin/contracts/token/ERC20/ERC20.sol\":5421:5451  ERC20InvalidSender(address(0)) */\n      mload(0x40)\n      shl(0xe1, 0x4b637e8f)\n      dup2\n      mstore\n        /* \"@openzeppelin/contracts/token/ERC20/ERC20.sol\":5448:5449  0 */\n      0x00\n        /* \"@openzeppelin/contracts/token/ERC20/ERC20.sol\":5421:5451  ERC20InvalidSender(address(0)) */\n      0x04\n      dup3\n      add\n        /* \"#utility.yul\":2742:2793   */\n      mstore\n        /* \"#utility.yul\":2715:2733   */\n      0x24\n      add\n        /* \"@openzeppelin/contracts/token/ERC20/ERC20.sol\":5421:5451  ERC20InvalidSender(address(0)) */\n      tag_157\n        /* \"#utility.yul\":2596:2799   */\n      jump\n        /* \"@openzeppelin/contracts/token/ERC20/ERC20.sol\":5376:5462  if (from == address(0)) {... */\n    tag_191:\n      sub(shl(0xa0, 0x01), 0x01)\n        /* \"@openzeppelin/contracts/token/ERC20/ERC20.sol\":5475:5491  to == address(0) */\n      dup3\n      and\n        /* \"@openzeppelin/contracts/token/ERC20/ERC20.sol\":5471:5557  if (to == address(0)) {... */\n      tag_193\n      jumpi\n        /* \"@openzeppelin/contracts/token/ERC20/ERC20.sol\":5514:5546  ERC20InvalidReceiver(address(0)) */\n      mload(0x40)\n      shl(0xe0, 0xec442f05)\n      dup2\n      mstore\n        /* \"@openzeppelin/contracts/token/ERC20/ERC20.sol\":5543:5544  0 */\n      0x00\n        /* \"@openzeppelin/contracts/token/ERC20/ERC20.sol\":5514:5546  ERC20InvalidReceiver(address(0)) */\n      0x04\n      dup3\n      add\n        /* \"#utility.yul\":2742:2793   */\n      mstore\n        /* \"#utility.yul\":2715:2733   */\n      0x24\n      add\n        /* \"@openzeppelin/contracts/token/ERC20/ERC20.sol\":5514:5546  ERC20InvalidReceiver(address(0)) */\n      tag_157\n        /* \"#utility.yul\":2596:2799   */\n      jump\n        /* \"@openzeppelin/contracts/token/ERC20/ERC20.sol\":5471:5557  if (to == address(0)) {... */\n    tag_193:\n        /* \"@openzeppelin/contracts/token/ERC20/ERC20.sol\":5566:5590  _update(from, to, value) */\n      tag_181\n        /* \"@openzeppelin/contracts/token/ERC20/ERC20.sol\":5574:5578  from */\n      dup4\n        /* \"@openzeppelin/contracts/token/ERC20/ERC20.sol\":5580:5582  to */\n      dup4\n        /* \"@openzeppelin/contracts/token/ERC20/ERC20.sol\":5584:5589  value */\n      dup4\n        /* \"@openzeppelin/contracts/token/ERC20/ERC20.sol\":5566:5573  _update */\n      tag_196\n        /* \"@openzeppelin/contracts/token/ERC20/ERC20.sol\":5566:5590  _update(from, to, value) */\n      jump\t// in\n        /* \"@openzeppelin/contracts/access/Ownable.sol\":1796:1958  function _checkOwner() internal view virtual {... */\n    tag_138:\n        /* \"@openzeppelin/contracts/access/Ownable.sol\":1710:1716  _owner */\n      and(sub(shl(0xa0, 0x01), 0x01), sload(0x05))\n        /* \"@openzeppelin/contracts/utils/Context.sol\":735:745  msg.sender */\n      caller\n        /* \"@openzeppelin/contracts/access/Ownable.sol\":1855:1878  owner() != _msgSender() */\n      eq\n        /* \"@openzeppelin/contracts/access/Ownable.sol\":1851:1952  if (owner() != _msgSender()) {... */\n      tag_140\n      jumpi\n        /* \"@openzeppelin/contracts/access/Ownable.sol\":1901:1941  OwnableUnauthorizedAccount(_msgSender()) */\n      mload(0x40)\n      shl(0xe0, 0x118cdaa7)\n      dup2\n      mstore\n        /* \"@openzeppelin/contracts/utils/Context.sol\":735:745  msg.sender */\n      caller\n        /* \"@openzeppelin/contracts/access/Ownable.sol\":1901:1941  OwnableUnauthorizedAccount(_msgSender()) */\n      0x04\n      dup3\n      add\n        /* \"#utility.yul\":2742:2793   */\n      mstore\n        /* \"#utility.yul\":2715:2733   */\n      0x24\n      add\n        /* \"@openzeppelin/contracts/access/Ownable.sol\":1901:1941  OwnableUnauthorizedAccount(_msgSender()) */\n      tag_157\n        /* \"#utility.yul\":2596:2799   */\n      jump\n        /* \"@openzeppelin/contracts/access/Ownable.sol\":2912:3099  function _transferOwnership(address newOwner) internal virtual {... */\n    tag_141:\n        /* \"@openzeppelin/contracts/access/Ownable.sol\":3004:3010  _owner */\n      0x05\n      dup1\n      sload\n      sub(shl(0xa0, 0x01), 0x01)\n        /* \"@openzeppelin/contracts/access/Ownable.sol\":3020:3037  _owner = newOwner */\n      dup4\n      dup2\n      and\n      not(sub(shl(0xa0, 0x01), 0x01))\n      dup4\n      and\n      dup2\n      or\n      swap1\n      swap4\n      sstore\n        /* \"@openzeppelin/contracts/access/Ownable.sol\":3052:3092  OwnershipTransferred(oldOwner, newOwner) */\n      mload(0x40)\n        /* \"@openzeppelin/contracts/access/Ownable.sol\":3004:3010  _owner */\n      swap2\n      and\n      swap2\n        /* \"@openzeppelin/contracts/access/Ownable.sol\":3020:3037  _owner = newOwner */\n      swap1\n        /* \"@openzeppelin/contracts/access/Ownable.sol\":3004:3010  _owner */\n      dup3\n      swap1\n        /* \"@openzeppelin/contracts/access/Ownable.sol\":3052:3092  OwnershipTransferred(oldOwner, newOwner) */\n      0x8be0079c531659141344cd1fd0a4f28419497f9722a3daafe3b4186f6b6457e0\n      swap1\n        /* \"@openzeppelin/contracts/access/Ownable.sol\":2985:3001  address oldOwner */\n      0x00\n      swap1\n        /* \"@openzeppelin/contracts/access/Ownable.sol\":3052:3092  OwnershipTransferred(oldOwner, newOwner) */\n      log3\n        /* \"@openzeppelin/contracts/access/Ownable.sol\":2975:3099  {... */\n      pop\n        /* \"@openzeppelin/contracts/access/Ownable.sol\":2912:3099  function _transferOwnership(address newOwner) internal virtual {... */\n      pop\n      jump\t// out\n        /* \"@openzeppelin/contracts/token/ERC20/ERC20.sol\":7362:7570  function _mint(address account, uint256 value) internal {... */\n    tag_171:\n      sub(shl(0xa0, 0x01), 0x01)\n        /* \"@openzeppelin/contracts/token/ERC20/ERC20.sol\":7432:7453  account == address(0) */\n      dup3\n      and\n        /* \"@openzeppelin/contracts/token/ERC20/ERC20.sol\":7428:7519  if (account == address(0)) {... */\n      tag_205\n      jumpi\n        /* \"@openzeppelin/contracts/token/ERC20/ERC20.sol\":7476:7508  ERC20InvalidReceiver(address(0)) */\n      mload(0x40)\n      shl(0xe0, 0xec442f05)\n      dup2\n      mstore\n        /* \"@openzeppelin/contracts/token/ERC20/ERC20.sol\":7505:7506  0 */\n      0x00\n        /* \"@openzeppelin/contracts/token/ERC20/ERC20.sol\":7476:7508  ERC20InvalidReceiver(address(0)) */\n      0x04\n      dup3\n      add\n        /* \"#utility.yul\":2742:2793   */\n      mstore\n        /* \"#utility.yul\":2715:2733   */\n      0x24\n      add\n        /* \"@openzeppelin/contracts/token/ERC20/ERC20.sol\":7476:7508  ERC20InvalidReceiver(address(0)) */\n      tag_157\n        /* \"#utility.yul\":2596:2799   */\n      jump\n        /* \"@openzeppelin/contracts/token/ERC20/ERC20.sol\":7428:7519  if (account == address(0)) {... */\n    tag_205:\n        /* \"@openzeppelin/contracts/token/ERC20/ERC20.sol\":7528:7563  _update(address(0), account, value) */\n      tag_207\n        /* \"@openzeppelin/contracts/token/ERC20/ERC20.sol\":7544:7545  0 */\n      0x00\n        /* \"@openzeppelin/contracts/token/ERC20/ERC20.sol\":7548:7555  account */\n      dup4\n        /* \"@openzeppelin/contracts/token/ERC20/ERC20.sol\":7557:7562  value */\n      dup4\n        /* \"@openzeppelin/contracts/token/ERC20/ERC20.sol\":7528:7535  _update */\n      tag_196\n        /* \"@openzeppelin/contracts/token/ERC20/ERC20.sol\":7528:7563  _update(address(0), account, value) */\n      jump\t// in\n    tag_207:\n        /* \"@openzeppelin/contracts/token/ERC20/ERC20.sol\":7362:7570  function _mint(address account, uint256 value) internal {... */\n      pop\n      pop\n      jump\t// out\n        /* \"@openzeppelin/contracts/token/ERC20/ERC20.sol\":9607:10039  function _approve(address owner, address spender, uint256 value, bool emitEvent) internal virtual {... */\n    tag_182:\n      sub(shl(0xa0, 0x01), 0x01)\n        /* \"@openzeppelin/contracts/token/ERC20/ERC20.sol\":9719:9738  owner == address(0) */\n      dup5\n      and\n        /* \"@openzeppelin/contracts/token/ERC20/ERC20.sol\":9715:9804  if (owner == address(0)) {... */\n      tag_209\n      jumpi\n        /* \"@openzeppelin/contracts/token/ERC20/ERC20.sol\":9761:9793  ERC20InvalidApprover(address(0)) */\n      mload(0x40)\n      shl(0xe0, 0xe602df05)\n      dup2\n      mstore\n        /* \"@openzeppelin/contracts/token/ERC20/ERC20.sol\":9790:9791  0 */\n      0x00\n        /* \"@openzeppelin/contracts/token/ERC20/ERC20.sol\":9761:9793  ERC20InvalidApprover(address(0)) */\n      0x04\n      dup3\n      add\n        /* \"#utility.yul\":2742:2793   */\n      mstore\n        /* \"#utility.yul\":2715:2733   */\n      0x24\n      add\n        /* \"@openzeppelin/contracts/token/ERC20/ERC20.sol\":9761:9793  ERC20InvalidApprover(address(0)) */\n      tag_157\n        /* \"#utility.yul\":2596:2799   */\n      jump\n        /* \"@openzeppelin/contracts/token/ERC20/ERC20.sol\":9715:9804  if (owner == address(0)) {... */\n    tag_209:\n      sub(shl(0xa0, 0x01), 0x01)\n        /* \"@openzeppelin/contracts/token/ERC20/ERC20.sol\":9817:9838  spender == address(0) */\n      dup4\n      and\n        /* \"@openzeppelin/contracts/token/ERC20/ERC20.sol\":9813:9903  if (spender == address(0)) {... */\n      tag_211\n      jumpi\n        /* \"@openzeppelin/contracts/token/ERC20/ERC20.sol\":9861:9892  ERC20InvalidSpender(address(0)) */\n      mload(0x40)\n      shl(0xe1, 0x4a1406b1)\n      dup2\n      mstore\n        /* \"@openzeppelin/contracts/token/ERC20/ERC20.sol\":9889:9890  0 */\n      0x00\n        /* \"@openzeppelin/contracts/token/ERC20/ERC20.sol\":9861:9892  ERC20InvalidSpender(address(0)) */\n      0x04\n      dup3\n      add\n        /* \"#utility.yul\":2742:2793   */\n      mstore\n        /* \"#utility.yul\":2715:2733   */\n      0x24\n      add\n        /* \"@openzeppelin/contracts/token/ERC20/ERC20.sol\":9861:9892  ERC20InvalidSpender(address(0)) */\n      tag_157\n        /* \"#utility.yul\":2596:2799   */\n      jump\n        /* \"@openzeppelin/contracts/token/ERC20/ERC20.sol\":9813:9903  if (spender == address(0)) {... */\n    tag_211:\n      sub(shl(0xa0, 0x01), 0x01)\n        /* \"@openzeppelin/contracts/token/ERC20/ERC20.sol\":9912:9930  _allowances[owner] */\n      dup1\n      dup6\n      and\n      0x00\n      swap1\n      dup2\n      mstore\n        /* \"@openzeppelin/contracts/token/ERC20/ERC20.sol\":9912:9923  _allowances */\n      0x01\n        /* \"@openzeppelin/contracts/token/ERC20/ERC20.sol\":9912:9930  _allowances[owner] */\n      0x20\n      swap1\n      dup2\n      mstore\n      0x40\n      dup1\n      dup4\n      keccak256\n        /* \"@openzeppelin/contracts/token/ERC20/ERC20.sol\":9912:9939  _allowances[owner][spender] */\n      swap4\n      dup8\n      and\n      dup4\n      mstore\n      swap3\n      swap1\n      mstore\n      keccak256\n        /* \"@openzeppelin/contracts/token/ERC20/ERC20.sol\":9912:9947  _allowances[owner][spender] = value */\n      dup3\n      swap1\n      sstore\n        /* \"@openzeppelin/contracts/token/ERC20/ERC20.sol\":9957:10033  if (emitEvent) {... */\n      dup1\n      iszero\n      tag_189\n      jumpi\n        /* \"@openzeppelin/contracts/token/ERC20/ERC20.sol\":10007:10014  spender */\n      dup3\n      sub(shl(0xa0, 0x01), 0x01)\n        /* \"@openzeppelin/contracts/token/ERC20/ERC20.sol\":9991:10022  Approval(owner, spender, value) */\n      and\n        /* \"@openzeppelin/contracts/token/ERC20/ERC20.sol\":10000:10005  owner */\n      dup5\n      sub(shl(0xa0, 0x01), 0x01)\n        /* \"@openzeppelin/contracts/token/ERC20/ERC20.sol\":9991:10022  Approval(owner, spender, value) */\n      and\n      0x8c5be1e5ebec7d5bd14f71427d1e84f3dd0314c0f7b2291e5b200ac8c7c3b925\n        /* \"@openzeppelin/contracts/token/ERC20/ERC20.sol\":10016:10021  value */\n      dup5\n        /* \"@openzeppelin/contracts/token/ERC20/ERC20.sol\":9991:10022  Approval(owner, spender, value) */\n      mload(0x40)\n      tag_214\n      swap2\n        /* \"#utility.yul\":1442:1467   */\n      dup2\n      mstore\n        /* \"#utility.yul\":1430:1432   */\n      0x20\n        /* \"#utility.yul\":1415:1433   */\n      add\n      swap1\n        /* \"#utility.yul\":1296:1473   */\n      jump\n        /* \"@openzeppelin/contracts/token/ERC20/ERC20.sol\":9991:10022  Approval(owner, spender, value) */\n    tag_214:\n      mload(0x40)\n      dup1\n      swap2\n      sub\n      swap1\n      log3\n        /* \"@openzeppelin/contracts/token/ERC20/ERC20.sol\":9607:10039  function _approve(address owner, address spender, uint256 value, bool emitEvent) internal virtual {... */\n      pop\n      pop\n      pop\n      pop\n      jump\t// out\n        /* \"@openzeppelin/contracts/token/ERC20/ERC20.sol\":5912:7019  function _update(address from, address to, uint256 value) internal virtual {... */\n    tag_196:\n      sub(shl(0xa0, 0x01), 0x01)\n        /* \"@openzeppelin/contracts/token/ERC20/ERC20.sol\":6001:6019  from == address(0) */\n      dup4\n      and\n        /* \"@openzeppelin/contracts/token/ERC20/ERC20.sol\":5997:6537  if (from == address(0)) {... */\n      tag_216\n      jumpi\n        /* \"@openzeppelin/contracts/token/ERC20/ERC20.sol\":6153:6158  value */\n      dup1\n        /* \"@openzeppelin/contracts/token/ERC20/ERC20.sol\":6137:6149  _totalSupply */\n      0x02\n      0x00\n        /* \"@openzeppelin/contracts/token/ERC20/ERC20.sol\":6137:6158  _totalSupply += value */\n      dup3\n      dup3\n      sload\n      tag_217\n      swap2\n      swap1\n      tag_166\n      jump\t// in\n    tag_217:\n      swap1\n      swap2\n      sstore\n      pop\n        /* \"@openzeppelin/contracts/token/ERC20/ERC20.sol\":5997:6537  if (from == address(0)) {... */\n      tag_218\n      swap1\n      pop\n      jump\n    tag_216:\n      sub(shl(0xa0, 0x01), 0x01)\n        /* \"@openzeppelin/contracts/token/ERC20/ERC20.sol\":6211:6226  _balances[from] */\n      dup4\n      and\n        /* \"@openzeppelin/contracts/token/ERC20/ERC20.sol\":6189:6208  uint256 fromBalance */\n      0x00\n        /* \"@openzeppelin/contracts/token/ERC20/ERC20.sol\":6211:6226  _balances[from] */\n      swap1\n      dup2\n      mstore\n      0x20\n      dup2\n      swap1\n      mstore\n      0x40\n      swap1\n      keccak256\n      sload\n        /* \"@openzeppelin/contracts/token/ERC20/ERC20.sol\":6244:6263  fromBalance < value */\n      dup2\n      dup2\n      lt\n        /* \"@openzeppelin/contracts/token/ERC20/ERC20.sol\":6240:6355  if (fromBalance < value) {... */\n      iszero\n      tag_219\n      jumpi\n        /* \"@openzeppelin/contracts/token/ERC20/ERC20.sol\":6290:6340  ERC20InsufficientBalance(from, fromBalance, value) */\n      mload(0x40)\n      shl(0xe2, 0x391434e3)\n      dup2\n      mstore\n      sub(shl(0xa0, 0x01), 0x01)\n        /* \"#utility.yul\":5971:6003   */\n      dup6\n      and\n        /* \"@openzeppelin/contracts/token/ERC20/ERC20.sol\":6290:6340  ERC20InsufficientBalance(from, fromBalance, value) */\n      0x04\n      dup3\n      add\n        /* \"#utility.yul\":5953:6004   */\n      mstore\n        /* \"#utility.yul\":6020:6038   */\n      0x24\n      dup2\n      add\n        /* \"#utility.yul\":6013:6047   */\n      dup3\n      swap1\n      mstore\n        /* \"#utility.yul\":6063:6081   */\n      0x44\n      dup2\n      add\n        /* \"#utility.yul\":6056:6090   */\n      dup4\n      swap1\n      mstore\n        /* \"#utility.yul\":5926:5944   */\n      0x64\n      add\n        /* \"@openzeppelin/contracts/token/ERC20/ERC20.sol\":6290:6340  ERC20InsufficientBalance(from, fromBalance, value) */\n      tag_157\n        /* \"#utility.yul\":5751:6096   */\n      jump\n        /* \"@openzeppelin/contracts/token/ERC20/ERC20.sol\":6240:6355  if (fromBalance < value) {... */\n    tag_219:\n      sub(shl(0xa0, 0x01), 0x01)\n        /* \"@openzeppelin/contracts/token/ERC20/ERC20.sol\":6475:6490  _balances[from] */\n      dup5\n      and\n        /* \"@openzeppelin/contracts/token/ERC20/ERC20.sol\":6475:6484  _balances */\n      0x00\n        /* \"@openzeppelin/contracts/token/ERC20/ERC20.sol\":6475:6490  _balances[from] */\n      swap1\n      dup2\n      mstore\n      0x20\n      dup2\n      swap1\n      mstore\n      0x40\n      swap1\n      keccak256\n        /* \"@openzeppelin/contracts/token/ERC20/ERC20.sol\":6493:6512  fromBalance - value */\n      swap1\n      dup3\n      swap1\n      sub\n        /* \"@openzeppelin/contracts/token/ERC20/ERC20.sol\":6475:6512  _balances[from] = fromBalance - value */\n      swap1\n      sstore\n        /* \"@openzeppelin/contracts/token/ERC20/ERC20.sol\":5997:6537  if (from == address(0)) {... */\n    tag_218:\n      sub(shl(0xa0, 0x01), 0x01)\n        /* \"@openzeppelin/contracts/token/ERC20/ERC20.sol\":6551:6567  to == address(0) */\n      dup3\n      and\n        /* \"@openzeppelin/contracts/token/ERC20/ERC20.sol\":6547:6972  if (to == address(0)) {... */\n      tag_221\n      jumpi\n        /* \"@openzeppelin/contracts/token/ERC20/ERC20.sol\":6714:6726  _totalSupply */\n      0x02\n        /* \"@openzeppelin/contracts/token/ERC20/ERC20.sol\":6714:6735  _totalSupply -= value */\n      dup1\n      sload\n      dup3\n      swap1\n      sub\n      swap1\n      sstore\n        /* \"@openzeppelin/contracts/token/ERC20/ERC20.sol\":6547:6972  if (to == address(0)) {... */\n      jump(tag_222)\n    tag_221:\n      sub(shl(0xa0, 0x01), 0x01)\n        /* \"@openzeppelin/contracts/token/ERC20/ERC20.sol\":6925:6938  _balances[to] */\n      dup3\n      and\n        /* \"@openzeppelin/contracts/token/ERC20/ERC20.sol\":6925:6934  _balances */\n      0x00\n        /* \"@openzeppelin/contracts/token/ERC20/ERC20.sol\":6925:6938  _balances[to] */\n      swap1\n      dup2\n      mstore\n      0x20\n      dup2\n      swap1\n      mstore\n      0x40\n      swap1\n      keccak256\n        /* \"@openzeppelin/contracts/token/ERC20/ERC20.sol\":6925:6947  _balances[to] += value */\n      dup1\n      sload\n      dup3\n      add\n      swap1\n      sstore\n        /* \"@openzeppelin/contracts/token/ERC20/ERC20.sol\":6547:6972  if (to == address(0)) {... */\n    tag_222:\n        /* \"@openzeppelin/contracts/token/ERC20/ERC20.sol\":7002:7004  to */\n      dup2\n      sub(shl(0xa0, 0x01), 0x01)\n        /* \"@openzeppelin/contracts/token/ERC20/ERC20.sol\":6987:7012  Transfer(from, to, value) */\n      and\n        /* \"@openzeppelin/contracts/token/ERC20/ERC20.sol\":6996:7000  from */\n      dup4\n      sub(shl(0xa0, 0x01), 0x01)\n        /* \"@openzeppelin/contracts/token/ERC20/ERC20.sol\":6987:7012  Transfer(from, to, value) */\n      and\n      0xddf252ad1be2c89b69c2b068fc378daa952ba7f163c4a11628f55a4df523b3ef\n        /* \"@openzeppelin/contracts/token/ERC20/ERC20.sol\":7006:7011  value */\n      dup4\n        /* \"@openzeppelin/contracts/token/ERC20/ERC20.sol\":6987:7012  Transfer(from, to, value) */\n      mload(0x40)\n      tag_223\n      swap2\n        /* \"#utility.yul\":1442:1467   */\n      dup2\n      mstore\n        /* \"#utility.yul\":1430:1432   */\n      0x20\n        /* \"#utility.yul\":1415:1433   */\n      add\n      swap1\n        /* \"#utility.yul\":1296:1473   */\n      jump\n        /* \"@openzeppelin/contracts/token/ERC20/ERC20.sol\":6987:7012  Transfer(from, to, value) */\n    tag_223:\n      mload(0x40)\n      dup1\n      swap2\n      sub\n      swap1\n      log3\n        /* \"@openzeppelin/contracts/token/ERC20/ERC20.sol\":5912:7019  function _update(address from, address to, uint256 value) internal virtual {... */\n      pop\n      pop\n      pop\n      jump\t// out\n        /* \"#utility.yul\":14:437   */\n    tag_224:\n        /* \"#utility.yul\":56:59   */\n      0x00\n        /* \"#utility.yul\":94:99   */\n      dup2\n        /* \"#utility.yul\":88:100   */\n      mload\n        /* \"#utility.yul\":121:127   */\n      dup1\n        /* \"#utility.yul\":116:119   */\n      dup5\n        /* \"#utility.yul\":109:128   */\n      mstore\n        /* \"#utility.yul\":146:147   */\n      0x00\n        /* \"#utility.yul\":156:318   */\n    tag_229:\n        /* \"#utility.yul\":170:176   */\n      dup2\n        /* \"#utility.yul\":167:168   */\n      dup2\n        /* \"#utility.yul\":164:177   */\n      lt\n        /* \"#utility.yul\":156:318   */\n      iszero\n      tag_231\n      jumpi\n        /* \"#utility.yul\":232:236   */\n      0x20\n        /* \"#utility.yul\":288:301   */\n      dup2\n      dup6\n      add\n        /* \"#utility.yul\":284:306   */\n      dup2\n      add\n        /* \"#utility.yul\":278:307   */\n      mload\n        /* \"#utility.yul\":260:271   */\n      dup7\n      dup4\n      add\n        /* \"#utility.yul\":256:276   */\n      dup3\n      add\n        /* \"#utility.yul\":249:308   */\n      mstore\n        /* \"#utility.yul\":185:197   */\n      add\n        /* \"#utility.yul\":156:318   */\n      jump(tag_229)\n    tag_231:\n        /* \"#utility.yul\":160:163   */\n      pop\n        /* \"#utility.yul\":363:364   */\n      0x00\n        /* \"#utility.yul\":356:360   */\n      0x20\n        /* \"#utility.yul\":347:353   */\n      dup3\n        /* \"#utility.yul\":342:345   */\n      dup7\n        /* \"#utility.yul\":338:354   */\n      add\n        /* \"#utility.yul\":334:361   */\n      add\n        /* \"#utility.yul\":327:365   */\n      mstore\n        /* \"#utility.yul\":426:430   */\n      0x20\n        /* \"#utility.yul\":419:421   */\n      0x1f\n        /* \"#utility.yul\":415:422   */\n      not\n        /* \"#utility.yul\":410:412   */\n      0x1f\n        /* \"#utility.yul\":402:408   */\n      dup4\n        /* \"#utility.yul\":398:413   */\n      add\n        /* \"#utility.yul\":394:423   */\n      and\n        /* \"#utility.yul\":389:392   */\n      dup6\n        /* \"#utility.yul\":385:424   */\n      add\n        /* \"#utility.yul\":381:431   */\n      add\n        /* \"#utility.yul\":374:431   */\n      swap2\n      pop\n      pop\n        /* \"#utility.yul\":14:437   */\n      swap3\n      swap2\n      pop\n      pop\n      jump\t// out\n        /* \"#utility.yul\":442:662   */\n    tag_32:\n        /* \"#utility.yul\":591:593   */\n      0x20\n        /* \"#utility.yul\":580:589   */\n      dup2\n        /* \"#utility.yul\":573:594   */\n      mstore\n        /* \"#utility.yul\":554:558   */\n      0x00\n        /* \"#utility.yul\":611:656   */\n      tag_233\n        /* \"#utility.yul\":652:654   */\n      0x20\n        /* \"#utility.yul\":641:650   */\n      dup4\n        /* \"#utility.yul\":637:655   */\n      add\n        /* \"#utility.yul\":629:635   */\n      dup5\n        /* \"#utility.yul\":611:656   */\n      tag_224\n      jump\t// in\n    tag_233:\n        /* \"#utility.yul\":603:656   */\n      swap4\n        /* \"#utility.yul\":442:662   */\n      swap3\n      pop\n      pop\n      pop\n      jump\t// out\n        /* \"#utility.yul\":667:840   */\n    tag_225:\n        /* \"#utility.yul\":735:755   */\n      dup1\n      calldataload\n      sub(shl(0xa0, 0x01), 0x01)\n        /* \"#utility.yul\":784:815   */\n      dup2\n      and\n        /* \"#utility.yul\":774:816   */\n      dup2\n      eq\n        /* \"#utility.yul\":764:834   */\n      tag_235\n      jumpi\n        /* \"#utility.yul\":830:831   */\n      0x00\n        /* \"#utility.yul\":827:828   */\n      dup1\n        /* \"#utility.yul\":820:832   */\n      revert\n        /* \"#utility.yul\":764:834   */\n    tag_235:\n        /* \"#utility.yul\":667:840   */\n      swap2\n      swap1\n      pop\n      jump\t// out\n        /* \"#utility.yul\":845:1099   */\n    tag_35:\n        /* \"#utility.yul\":913:919   */\n      0x00\n        /* \"#utility.yul\":921:927   */\n      dup1\n        /* \"#utility.yul\":974:976   */\n      0x40\n        /* \"#utility.yul\":962:971   */\n      dup4\n        /* \"#utility.yul\":953:960   */\n      dup6\n        /* \"#utility.yul\":949:972   */\n      sub\n        /* \"#utility.yul\":945:977   */\n      slt\n        /* \"#utility.yul\":942:994   */\n      iszero\n      tag_237\n      jumpi\n        /* \"#utility.yul\":990:991   */\n      0x00\n        /* \"#utility.yul\":987:988   */\n      dup1\n        /* \"#utility.yul\":980:992   */\n      revert\n        /* \"#utility.yul\":942:994   */\n    tag_237:\n        /* \"#utility.yul\":1013:1042   */\n      tag_238\n        /* \"#utility.yul\":1032:1041   */\n      dup4\n        /* \"#utility.yul\":1013:1042   */\n      tag_225\n      jump\t// in\n    tag_238:\n        /* \"#utility.yul\":1003:1042   */\n      swap5\n        /* \"#utility.yul\":1089:1091   */\n      0x20\n        /* \"#utility.yul\":1074:1092   */\n      swap4\n      swap1\n      swap4\n      add\n        /* \"#utility.yul\":1061:1093   */\n      calldataload\n      swap4\n      pop\n      pop\n      pop\n        /* \"#utility.yul\":845:1099   */\n      jump\t// out\n        /* \"#utility.yul\":1478:1806   */\n    tag_45:\n        /* \"#utility.yul\":1555:1561   */\n      0x00\n        /* \"#utility.yul\":1563:1569   */\n      dup1\n        /* \"#utility.yul\":1571:1577   */\n      0x00\n        /* \"#utility.yul\":1624:1626   */\n      0x60\n        /* \"#utility.yul\":1612:1621   */\n      dup5\n        /* \"#utility.yul\":1603:1610   */\n      dup7\n        /* \"#utility.yul\":1599:1622   */\n      sub\n        /* \"#utility.yul\":1595:1627   */\n      slt\n        /* \"#utility.yul\":1592:1644   */\n      iszero\n      tag_242\n      jumpi\n        /* \"#utility.yul\":1640:1641   */\n      0x00\n        /* \"#utility.yul\":1637:1638   */\n      dup1\n        /* \"#utility.yul\":1630:1642   */\n      revert\n        /* \"#utility.yul\":1592:1644   */\n    tag_242:\n        /* \"#utility.yul\":1663:1692   */\n      tag_243\n        /* \"#utility.yul\":1682:1691   */\n      dup5\n        /* \"#utility.yul\":1663:1692   */\n      tag_225\n      jump\t// in\n    tag_243:\n        /* \"#utility.yul\":1653:1692   */\n      swap3\n      pop\n        /* \"#utility.yul\":1711:1749   */\n      tag_244\n        /* \"#utility.yul\":1745:1747   */\n      0x20\n        /* \"#utility.yul\":1734:1743   */\n      dup6\n        /* \"#utility.yul\":1730:1748   */\n      add\n        /* \"#utility.yul\":1711:1749   */\n      tag_225\n      jump\t// in\n    tag_244:\n        /* \"#utility.yul\":1701:1749   */\n      swap2\n      pop\n        /* \"#utility.yul\":1796:1798   */\n      0x40\n        /* \"#utility.yul\":1785:1794   */\n      dup5\n        /* \"#utility.yul\":1781:1799   */\n      add\n        /* \"#utility.yul\":1768:1800   */\n      calldataload\n        /* \"#utility.yul\":1758:1800   */\n      swap1\n      pop\n        /* \"#utility.yul\":1478:1806   */\n      swap3\n      pop\n      swap3\n      pop\n      swap3\n      jump\t// out\n        /* \"#utility.yul\":2223:2409   */\n    tag_61:\n        /* \"#utility.yul\":2282:2288   */\n      0x00\n        /* \"#utility.yul\":2335:2337   */\n      0x20\n        /* \"#utility.yul\":2323:2332   */\n      dup3\n        /* \"#utility.yul\":2314:2321   */\n      dup5\n        /* \"#utility.yul\":2310:2333   */\n      sub\n        /* \"#utility.yul\":2306:2338   */\n      slt\n        /* \"#utility.yul\":2303:2355   */\n      iszero\n      tag_249\n      jumpi\n        /* \"#utility.yul\":2351:2352   */\n      0x00\n        /* \"#utility.yul\":2348:2349   */\n      dup1\n        /* \"#utility.yul\":2341:2353   */\n      revert\n        /* \"#utility.yul\":2303:2355   */\n    tag_249:\n        /* \"#utility.yul\":2374:2403   */\n      tag_233\n        /* \"#utility.yul\":2393:2402   */\n      dup3\n        /* \"#utility.yul\":2374:2403   */\n      tag_225\n      jump\t// in\n        /* \"#utility.yul\":2804:3064   */\n    tag_105:\n        /* \"#utility.yul\":2872:2878   */\n      0x00\n        /* \"#utility.yul\":2880:2886   */\n      dup1\n        /* \"#utility.yul\":2933:2935   */\n      0x40\n        /* \"#utility.yul\":2921:2930   */\n      dup4\n        /* \"#utility.yul\":2912:2919   */\n      dup6\n        /* \"#utility.yul\":2908:2931   */\n      sub\n        /* \"#utility.yul\":2904:2936   */\n      slt\n        /* \"#utility.yul\":2901:2953   */\n      iszero\n      tag_254\n      jumpi\n        /* \"#utility.yul\":2949:2950   */\n      0x00\n        /* \"#utility.yul\":2946:2947   */\n      dup1\n        /* \"#utility.yul\":2939:2951   */\n      revert\n        /* \"#utility.yul\":2901:2953   */\n    tag_254:\n        /* \"#utility.yul\":2972:3001   */\n      tag_255\n        /* \"#utility.yul\":2991:3000   */\n      dup4\n        /* \"#utility.yul\":2972:3001   */\n      tag_225\n      jump\t// in\n    tag_255:\n        /* \"#utility.yul\":2962:3001   */\n      swap2\n      pop\n        /* \"#utility.yul\":3020:3058   */\n      tag_256\n        /* \"#utility.yul\":3054:3056   */\n      0x20\n        /* \"#utility.yul\":3043:3052   */\n      dup5\n        /* \"#utility.yul\":3039:3057   */\n      add\n        /* \"#utility.yul\":3020:3058   */\n      tag_225\n      jump\t// in\n    tag_256:\n        /* \"#utility.yul\":3010:3058   */\n      swap1\n      pop\n        /* \"#utility.yul\":2804:3064   */\n      swap3\n      pop\n      swap3\n      swap1\n      pop\n      jump\t// out\n        /* \"#utility.yul\":3069:3661   */\n    tag_110:\n        /* \"#utility.yul\":3140:3146   */\n      0x00\n        /* \"#utility.yul\":3148:3154   */\n      dup1\n        /* \"#utility.yul\":3201:3203   */\n      0x20\n        /* \"#utility.yul\":3189:3198   */\n      dup4\n        /* \"#utility.yul\":3180:3187   */\n      dup6\n        /* \"#utility.yul\":3176:3199   */\n      sub\n        /* \"#utility.yul\":3172:3204   */\n      slt\n        /* \"#utility.yul\":3169:3221   */\n      iszero\n      tag_258\n      jumpi\n        /* \"#utility.yul\":3217:3218   */\n      0x00\n        /* \"#utility.yul\":3214:3215   */\n      dup1\n        /* \"#utility.yul\":3207:3219   */\n      revert\n        /* \"#utility.yul\":3169:3221   */\n    tag_258:\n        /* \"#utility.yul\":3257:3266   */\n      dup3\n        /* \"#utility.yul\":3244:3267   */\n      calldataload\n        /* \"#utility.yul\":3286:3304   */\n      0xffffffffffffffff\n        /* \"#utility.yul\":3327:3329   */\n      dup1\n        /* \"#utility.yul\":3319:3325   */\n      dup3\n        /* \"#utility.yul\":3316:3330   */\n      gt\n        /* \"#utility.yul\":3313:3347   */\n      iszero\n      tag_259\n      jumpi\n        /* \"#utility.yul\":3343:3344   */\n      0x00\n        /* \"#utility.yul\":3340:3341   */\n      dup1\n        /* \"#utility.yul\":3333:3345   */\n      revert\n        /* \"#utility.yul\":3313:3347   */\n    tag_259:\n        /* \"#utility.yul\":3381:3387   */\n      dup2\n        /* \"#utility.yul\":3370:3379   */\n      dup6\n        /* \"#utility.yul\":3366:3388   */\n      add\n        /* \"#utility.yul\":3356:3388   */\n      swap2\n      pop\n        /* \"#utility.yul\":3426:3433   */\n      dup6\n        /* \"#utility.yul\":3419:3423   */\n      0x1f\n        /* \"#utility.yul\":3415:3417   */\n      dup4\n        /* \"#utility.yul\":3411:3424   */\n      add\n        /* \"#utility.yul\":3407:3434   */\n      slt\n        /* \"#utility.yul\":3397:3452   */\n      tag_260\n      jumpi\n        /* \"#utility.yul\":3448:3449   */\n      0x00\n        /* \"#utility.yul\":3445:3446   */\n      dup1\n        /* \"#utility.yul\":3438:3450   */\n      revert\n        /* \"#utility.yul\":3397:3452   */\n    tag_260:\n        /* \"#utility.yul\":3488:3490   */\n      dup2\n        /* \"#utility.yul\":3475:3491   */\n      calldataload\n        /* \"#utility.yul\":3514:3516   */\n      dup2\n        /* \"#utility.yul\":3506:3512   */\n      dup2\n        /* \"#utility.yul\":3503:3517   */\n      gt\n        /* \"#utility.yul\":3500:3534   */\n      iszero\n      tag_261\n      jumpi\n        /* \"#utility.yul\":3530:3531   */\n      0x00\n        /* \"#utility.yul\":3527:3528   */\n      dup1\n        /* \"#utility.yul\":3520:3532   */\n      revert\n        /* \"#utility.yul\":3500:3534   */\n    tag_261:\n        /* \"#utility.yul\":3575:3582   */\n      dup7\n        /* \"#utility.yul\":3570:3572   */\n      0x20\n        /* \"#utility.yul\":3561:3567   */\n      dup3\n        /* \"#utility.yul\":3557:3559   */\n      dup6\n        /* \"#utility.yul\":3553:3568   */\n      add\n        /* \"#utility.yul\":3549:3573   */\n      add\n        /* \"#utility.yul\":3546:3583   */\n      gt\n        /* \"#utility.yul\":3543:3600   */\n      iszero\n      tag_262\n      jumpi\n        /* \"#utility.yul\":3596:3597   */\n      0x00\n        /* \"#utility.yul\":3593:3594   */\n      dup1\n        /* \"#utility.yul\":3586:3598   */\n      revert\n        /* \"#utility.yul\":3543:3600   */\n    tag_262:\n        /* \"#utility.yul\":3627:3629   */\n      0x20\n        /* \"#utility.yul\":3619:3630   */\n      swap3\n      swap1\n      swap3\n      add\n      swap7\n        /* \"#utility.yul\":3649:3655   */\n      swap2\n      swap6\n      pop\n        /* \"#utility.yul\":3069:3661   */\n      swap1\n      swap4\n      pop\n      pop\n      pop\n      pop\n      jump\t// out\n        /* \"#utility.yul\":3666:4046   */\n    tag_117:\n        /* \"#utility.yul\":3745:3746   */\n      0x01\n        /* \"#utility.yul\":3741:3753   */\n      dup2\n      dup2\n      shr\n      swap1\n        /* \"#utility.yul\":3788:3800   */\n      dup3\n      and\n      dup1\n        /* \"#utility.yul\":3809:3870   */\n      tag_264\n      jumpi\n        /* \"#utility.yul\":3863:3867   */\n      0x7f\n        /* \"#utility.yul\":3855:3861   */\n      dup3\n        /* \"#utility.yul\":3851:3868   */\n      and\n        /* \"#utility.yul\":3841:3868   */\n      swap2\n      pop\n        /* \"#utility.yul\":3809:3870   */\n    tag_264:\n        /* \"#utility.yul\":3916:3918   */\n      0x20\n        /* \"#utility.yul\":3908:3914   */\n      dup3\n        /* \"#utility.yul\":3905:3919   */\n      lt\n        /* \"#utility.yul\":3885:3903   */\n      dup2\n        /* \"#utility.yul\":3882:3920   */\n      sub\n        /* \"#utility.yul\":3879:4040   */\n      tag_265\n      jumpi\n        /* \"#utility.yul\":3962:3972   */\n      0x4e487b71\n        /* \"#utility.yul\":3957:3960   */\n      0xe0\n        /* \"#utility.yul\":3953:3973   */\n      shl\n        /* \"#utility.yul\":3950:3951   */\n      0x00\n        /* \"#utility.yul\":3943:3974   */\n      mstore\n        /* \"#utility.yul\":3997:4001   */\n      0x22\n        /* \"#utility.yul\":3994:3995   */\n      0x04\n        /* \"#utility.yul\":3987:4002   */\n      mstore\n        /* \"#utility.yul\":4025:4029   */\n      0x24\n        /* \"#utility.yul\":4022:4023   */\n      0x00\n        /* \"#utility.yul\":4015:4030   */\n      revert\n        /* \"#utility.yul\":3879:4040   */\n    tag_265:\n      pop\n        /* \"#utility.yul\":3666:4046   */\n      swap2\n      swap1\n      pop\n      jump\t// out\n        /* \"#utility.yul\":4051:4178   */\n    tag_226:\n        /* \"#utility.yul\":4112:4122   */\n      0x4e487b71\n        /* \"#utility.yul\":4107:4110   */\n      0xe0\n        /* \"#utility.yul\":4103:4123   */\n      shl\n        /* \"#utility.yul\":4100:4101   */\n      0x00\n        /* \"#utility.yul\":4093:4124   */\n      mstore\n        /* \"#utility.yul\":4143:4147   */\n      0x11\n        /* \"#utility.yul\":4140:4141   */\n      0x04\n        /* \"#utility.yul\":4133:4148   */\n      mstore\n        /* \"#utility.yul\":4167:4171   */\n      0x24\n        /* \"#utility.yul\":4164:4165   */\n      0x00\n        /* \"#utility.yul\":4157:4172   */\n      revert\n        /* \"#utility.yul\":4183:4311   */\n    tag_143:\n        /* \"#utility.yul\":4250:4259   */\n      dup2\n      dup2\n      sub\n        /* \"#utility.yul\":4271:4282   */\n      dup2\n      dup2\n      gt\n        /* \"#utility.yul\":4268:4305   */\n      iszero\n      tag_122\n      jumpi\n        /* \"#utility.yul\":4285:4303   */\n      tag_122\n      tag_226\n      jump\t// in\n        /* \"#utility.yul\":4659:4930   */\n    tag_160:\n        /* \"#utility.yul\":4842:4848   */\n      dup2\n        /* \"#utility.yul\":4834:4840   */\n      dup4\n        /* \"#utility.yul\":4829:4832   */\n      dup3\n        /* \"#utility.yul\":4816:4849   */\n      calldatacopy\n        /* \"#utility.yul\":4798:4801   */\n      0x00\n        /* \"#utility.yul\":4868:4884   */\n      swap2\n      add\n        /* \"#utility.yul\":4893:4906   */\n      swap1\n      dup2\n      mstore\n        /* \"#utility.yul\":4868:4884   */\n      swap2\n        /* \"#utility.yul\":4659:4930   */\n      swap1\n      pop\n      jump\t// out\n        /* \"#utility.yul\":5278:5403   */\n    tag_166:\n        /* \"#utility.yul\":5343:5352   */\n      dup1\n      dup3\n      add\n        /* \"#utility.yul\":5364:5374   */\n      dup1\n      dup3\n      gt\n        /* \"#utility.yul\":5361:5397   */\n      iszero\n      tag_122\n      jumpi\n        /* \"#utility.yul\":5377:5395   */\n      tag_122\n      tag_226\n      jump\t// in\n    stop\n    data_7c247f0faa109da9a7dfcc30d9b7c5309fb4341a6d669088e6e5c9edaf7a8422 03678afdb0fe5548271967f1a67130b7105cd6a828e03909a67962e0ea1f61deb6\n\n    auxdata: 0xa26469706673582212207dc45ca2adcd59b75c1ad7baf31d1cda1795bb8ceb578c7e509afdb32f23b32064736f6c63430008140033\n}\n",
				"bytecode": {
					"linkReferences": {},
					"object": "60806040523480156200001157600080fd5b50336040518060400160405280601181526020017021b0b6b2b637ba1022bc31b0b634b13ab960791b81525060405180604001604052806005815260200164115610d05360da1b81525081600390816200006c919062000648565b5060046200007b828262000648565b5050506001600160a01b038116620000ae57604051631e4fbdf760e01b8152600060048201526024015b60405180910390fd5b620000b981620001ca565b506040805180820190915260208082527f1234567890abcdef1234567890abcdef1234567890abcdef1234567890abcdef908201526000906200011e907f450d5ca1d5fa8aee9d893f6c7ac9fd8e59a06ff5f40dac808d5e4b456017f336906200021c565b905060006040518060600160405280602181526020016200141e602191398051906020012060001c9050806001600160a01b0316826001600160a01b031614620001ab5760405162461bcd60e51b815260206004820152601960248201527f496e76616c69642067656e65736973207369676e6174757265000000000000006044820152606401620000a5565b620001c2336a06342fd08f00f6378000006200024c565b50506200074c565b600580546001600160a01b038381166001600160a01b0319831681179093556040519116919082907f8be0079c531659141344cd1fd0a4f28419497f9722a3daafe3b4186f6b6457e090600090a35050565b60008080806200022d86866200028a565b91945092509050620002408282620002db565b50909150505b92915050565b6001600160a01b038216620002785760405163ec442f0560e01b815260006004820152602401620000a5565b6200028660008383620003a6565b5050565b60008060008351604103620002c85760208401516040850151606086015160001a620002b988828585620004d9565b955095509550505050620002d4565b50508151600091506002905b9250925092565b6000826003811115620002f257620002f262000714565b03620002fc575050565b600182600381111562000313576200031362000714565b03620003325760405163f645eedf60e01b815260040160405180910390fd5b600282600381111562000349576200034962000714565b036200036c5760405163fce698f760e01b815260048101829052602401620000a5565b600382600381111562000383576200038362000714565b0362000286576040516335e2f38360e21b815260048101829052602401620000a5565b6001600160a01b038316620003d5578060026000828254620003c991906200072a565b90915550620004499050565b6001600160a01b038316600090815260208190526040902054818110156200042a5760405163391434e360e21b81526001600160a01b03851660048201526024810182905260448101839052606401620000a5565b6001600160a01b03841660009081526020819052604090209082900390555b6001600160a01b038216620004675760028054829003905562000486565b6001600160a01b03821660009081526020819052604090208054820190555b816001600160a01b0316836001600160a01b03167fddf252ad1be2c89b69c2b068fc378daa952ba7f163c4a11628f55a4df523b3ef83604051620004cc91815260200190565b60405180910390a3505050565b600080806fa2a8918ca85bafe22016d0b997e4df60600160ff1b038411156200050c575060009150600390508262000599565b604080516000808252602082018084528a905260ff891692820192909252606081018790526080810186905260019060a0016020604051602081039080840390855afa15801562000561573d6000803e3d6000fd5b5050604051601f1901519150506001600160a01b0381166200058f5750600092506001915082905062000599565b9250600091508190505b9450945094915050565b634e487b7160e01b600052604160045260246000fd5b600181811c90821680620005ce57607f821691505b602082108103620005ef57634e487b7160e01b600052602260045260246000fd5b50919050565b601f8211156200064357600081815260208120601f850160051c810160208610156200061e5750805b601f850160051c820191505b818110156200063f578281556001016200062a565b5050505b505050565b81516001600160401b03811115620006645762000664620005a3565b6200067c81620006758454620005b9565b84620005f5565b602080601f831160018114620006b457600084156200069b5750858301515b600019600386901b1c1916600185901b1785556200063f565b600085815260208120601f198616915b82811015620006e557888601518255948401946001909101908401620006c4565b5085821015620007045787850151600019600388901b60f8161c191681555b5050505050600190811b01905550565b634e487b7160e01b600052602160045260246000fd5b808201808211156200024657634e487b7160e01b600052601160045260246000fd5b610cc2806200075c6000396000f3fe608060405234801561001057600080fd5b506004361061014d5760003560e01c8063715018a6116100c3578063965ea38c1161007c578063965ea38c146102b45780639f45bdac146102f0578063a9059cbb14610317578063dd62ed3e1461032a578063e042735b14610363578063f2fde38b1461037657600080fd5b8063715018a61461024657806377fd5d02146102505780637e39cb58146102585780638da5cb5b1461027f578063902d55a51461029a57806395d89b41146102ac57600080fd5b80632c7abeea116101155780632c7abeea146101c0578063313ce567146101d057806338e21cce146101df57806341baeb92146102025780636e95b7111461020b57806370a082311461021d57600080fd5b806306fdde0314610152578063095ea7b31461017057806318160ddd1461019357806323b872dd146101a557806328fd21c1146101b8575b600080fd5b61015a610389565b6040516101679190610a89565b60405180910390f35b61018361017e366004610abf565b61041b565b6040519015158152602001610167565b6002545b604051908152602001610167565b6101836101b3366004610ae9565b610435565b61015a610459565b610197683635c9adc5dea0000081565b60405160128152602001610167565b6101836101ed366004610b25565b60076020526000908152604090205460ff1681565b61019760065481565b6101976a06342fd08f00f63780000081565b61019761022b366004610b25565b6001600160a01b031660009081526020819052604090205490565b61024e610475565b005b610197610489565b6101977f3d6146d9ec877e7556edbff9b8fa61ca49404ac8b4128ab4937a74c7b033cee781565b6005546040516001600160a01b039091168152602001610167565b6101976a17fcfd266d36eb3d00000081565b61015a6104ac565b61015a6040518060400160405280602081526020017f1234567890abcdef1234567890abcdef1234567890abcdef1234567890abcdef81525081565b6101977f450d5ca1d5fa8aee9d893f6c7ac9fd8e59a06ff5f40dac808d5e4b456017f33681565b610183610325366004610abf565b6104bb565b610197610338366004610b40565b6001600160a01b03918216600090815260016020908152604080832093909416825291909152205490565b61024e610371366004610b73565b6104c9565b61024e610384366004610b25565b61065d565b60606003805461039890610be5565b80601f01602080910402602001604051908101604052809291908181526020018280546103c490610be5565b80156104115780601f106103e657610100808354040283529160200191610411565b820191906000526020600020905b8154815290600101906020018083116103f457829003601f168201915b5050505050905090565b60003361042981858561069b565b60019150505b92915050565b6000336104438582856106ad565b61044e85858561072c565b506001949350505050565b604051806060016040528060218152602001610c6c6021913981565b61047d61078b565b61048760006107b8565b565b6104a96a06342fd08f00f6378000006a17fcfd266d36eb3d000000610c35565b81565b60606004805461039890610be5565b60003361042981858561072c565b3360009081526007602052604090205460ff161561051f5760405162461bcd60e51b815260206004820152600e60248201526d105b1c9958591e481b5a5b9d195960921b60448201526064015b60405180910390fd5b7f3d6146d9ec877e7556edbff9b8fa61ca49404ac8b4128ab4937a74c7b033cee78282604051610550929190610c48565b6040518091039020146105965760405162461bcd60e51b815260206004820152600e60248201526d57726f6e67206d6e656d6f6e696360901b6044820152606401610516565b6105b66a06342fd08f00f6378000006a17fcfd266d36eb3d000000610c35565b683635c9adc5dea000006006546105cd9190610c58565b111561060c5760405162461bcd60e51b815260206004820152600e60248201526d141bdbdb08195e1a185d5cdd195960921b6044820152606401610516565b61061f33683635c9adc5dea0000061080a565b683635c9adc5dea000006006600082825461063a9190610c58565b9091555050336000908152600760205260409020805460ff191660011790555050565b61066561078b565b6001600160a01b03811661068f57604051631e4fbdf760e01b815260006004820152602401610516565b610698816107b8565b50565b6106a88383836001610844565b505050565b6001600160a01b03838116600090815260016020908152604080832093861683529290522054600019811015610726578181101561071757604051637dc7a0d960e11b81526001600160a01b03841660048201526024810182905260448101839052606401610516565b61072684848484036000610844565b50505050565b6001600160a01b03831661075657604051634b637e8f60e11b815260006004820152602401610516565b6001600160a01b0382166107805760405163ec442f0560e01b815260006004820152602401610516565b6106a8838383610919565b6005546001600160a01b031633146104875760405163118cdaa760e01b8152336004820152602401610516565b600580546001600160a01b038381166001600160a01b0319831681179093556040519116919082907f8be0079c531659141344cd1fd0a4f28419497f9722a3daafe3b4186f6b6457e090600090a35050565b6001600160a01b0382166108345760405163ec442f0560e01b815260006004820152602401610516565b61084060008383610919565b5050565b6001600160a01b03841661086e5760405163e602df0560e01b815260006004820152602401610516565b6001600160a01b03831661089857604051634a1406b160e11b815260006004820152602401610516565b6001600160a01b038085166000908152600160209081526040808320938716835292905220829055801561072657826001600160a01b0316846001600160a01b03167f8c5be1e5ebec7d5bd14f71427d1e84f3dd0314c0f7b2291e5b200ac8c7c3b9258460405161090b91815260200190565b60405180910390a350505050565b6001600160a01b0383166109445780600260008282546109399190610c58565b909155506109b69050565b6001600160a01b038316600090815260208190526040902054818110156109975760405163391434e360e21b81526001600160a01b03851660048201526024810182905260448101839052606401610516565b6001600160a01b03841660009081526020819052604090209082900390555b6001600160a01b0382166109d2576002805482900390556109f1565b6001600160a01b03821660009081526020819052604090208054820190555b816001600160a01b0316836001600160a01b03167fddf252ad1be2c89b69c2b068fc378daa952ba7f163c4a11628f55a4df523b3ef83604051610a3691815260200190565b60405180910390a3505050565b6000815180845260005b81811015610a6957602081850181015186830182015201610a4d565b506000602082860101526020601f19601f83011685010191505092915050565b602081526000610a9c6020830184610a43565b9392505050565b80356001600160a01b0381168114610aba57600080fd5b919050565b60008060408385031215610ad257600080fd5b610adb83610aa3565b946020939093013593505050565b600080600060608486031215610afe57600080fd5b610b0784610aa3565b9250610b1560208501610aa3565b9150604084013590509250925092565b600060208284031215610b3757600080fd5b610a9c82610aa3565b60008060408385031215610b5357600080fd5b610b5c83610aa3565b9150610b6a60208401610aa3565b90509250929050565b60008060208385031215610b8657600080fd5b823567ffffffffffffffff80821115610b9e57600080fd5b818501915085601f830112610bb257600080fd5b813581811115610bc157600080fd5b866020828501011115610bd357600080fd5b60209290920196919550909350505050565b600181811c90821680610bf957607f821691505b602082108103610c1957634e487b7160e01b600052602260045260246000fd5b50919050565b634e487b7160e01b600052601160045260246000fd5b8181038181111561042f5761042f610c1f565b8183823760009101908152919050565b8082018082111561042f5761042f610c1f56fe03678afdb0fe5548271967f1a67130b7105cd6a828e03909a67962e0ea1f61deb6a26469706673582212207dc45ca2adcd59b75c1ad7baf31d1cda1795bb8ceb578c7e509afdb32f23b32064736f6c6343000814003303678afdb0fe5548271967f1a67130b7105cd6a828e03909a67962e0ea1f61deb6",
					"opcodes": "PUSH1 0x80 PUSH1 0x40 MSTORE CALLVALUE DUP1 ISZERO PUSH3 0x11 JUMPI PUSH1 0x0 DUP1 REVERT JUMPDEST POP CALLER PUSH1 0x40 MLOAD DUP1 PUSH1 0x40 ADD PUSH1 0x40 MSTORE DUP1 PUSH1 0x11 DUP2 MSTORE PUSH1 0x20 ADD PUSH17 0x21B0B6B2B637BA1022BC31B0B634B13AB9 PUSH1 0x79 SHL DUP2 MSTORE POP PUSH1 0x40 MLOAD DUP1 PUSH1 0x40 ADD PUSH1 0x40 MSTORE DUP1 PUSH1 0x5 DUP2 MSTORE PUSH1 0x20 ADD PUSH5 0x115610D053 PUSH1 0xDA SHL DUP2 MSTORE POP DUP2 PUSH1 0x3 SWAP1 DUP2 PUSH3 0x6C SWAP2 SWAP1 PUSH3 0x648 JUMP JUMPDEST POP PUSH1 0x4 PUSH3 0x7B DUP3 DUP3 PUSH3 0x648 JUMP JUMPDEST POP POP POP PUSH1 0x1 PUSH1 0x1 PUSH1 0xA0 SHL SUB DUP2 AND PUSH3 0xAE JUMPI PUSH1 0x40 MLOAD PUSH4 0x1E4FBDF7 PUSH1 0xE0 SHL DUP2 MSTORE PUSH1 0x0 PUSH1 0x4 DUP3 ADD MSTORE PUSH1 0x24 ADD JUMPDEST PUSH1 0x40 MLOAD DUP1 SWAP2 SUB SWAP1 REVERT JUMPDEST PUSH3 0xB9 DUP2 PUSH3 0x1CA JUMP JUMPDEST POP PUSH1 0x40 DUP1 MLOAD DUP1 DUP3 ADD SWAP1 SWAP2 MSTORE PUSH1 0x20 DUP1 DUP3 MSTORE PUSH32 0x1234567890ABCDEF1234567890ABCDEF1234567890ABCDEF1234567890ABCDEF SWAP1 DUP3 ADD MSTORE PUSH1 0x0 SWAP1 PUSH3 0x11E SWAP1 PUSH32 0x450D5CA1D5FA8AEE9D893F6C7AC9FD8E59A06FF5F40DAC808D5E4B456017F336 SWAP1 PUSH3 0x21C JUMP JUMPDEST SWAP1 POP PUSH1 0x0 PUSH1 0x40 MLOAD DUP1 PUSH1 0x60 ADD PUSH1 0x40 MSTORE DUP1 PUSH1 0x21 DUP2 MSTORE PUSH1 0x20 ADD PUSH3 0x141E PUSH1 0x21 SWAP2 CODECOPY DUP1 MLOAD SWAP1 PUSH1 0x20 ADD KECCAK256 PUSH1 0x0 SHR SWAP1 POP DUP1 PUSH1 0x1 PUSH1 0x1 PUSH1 0xA0 SHL SUB AND DUP3 PUSH1 0x1 PUSH1 0x1 PUSH1 0xA0 SHL SUB AND EQ PUSH3 0x1AB JUMPI PUSH1 0x40 MLOAD PUSH3 0x461BCD PUSH1 0xE5 SHL DUP2 MSTORE PUSH1 0x20 PUSH1 0x4 DUP3 ADD MSTORE PUSH1 0x19 PUSH1 0x24 DUP3 ADD MSTORE PUSH32 0x496E76616C69642067656E65736973207369676E617475726500000000000000 PUSH1 0x44 DUP3 ADD MSTORE PUSH1 0x64 ADD PUSH3 0xA5 JUMP JUMPDEST PUSH3 0x1C2 CALLER PUSH11 0x6342FD08F00F637800000 PUSH3 0x24C JUMP JUMPDEST POP POP PUSH3 0x74C JUMP JUMPDEST PUSH1 0x5 DUP1 SLOAD PUSH1 0x1 PUSH1 0x1 PUSH1 0xA0 SHL SUB DUP4 DUP2 AND PUSH1 0x1 PUSH1 0x1 PUSH1 0xA0 SHL SUB NOT DUP4 AND DUP2 OR SWAP1 SWAP4 SSTORE PUSH1 0x40 MLOAD SWAP2 AND SWAP2 SWAP1 DUP3 SWAP1 PUSH32 0x8BE0079C531659141344CD1FD0A4F28419497F9722A3DAAFE3B4186F6B6457E0 SWAP1 PUSH1 0x0 SWAP1 LOG3 POP POP JUMP JUMPDEST PUSH1 0x0 DUP1 DUP1 DUP1 PUSH3 0x22D DUP7 DUP7 PUSH3 0x28A JUMP JUMPDEST SWAP2 SWAP5 POP SWAP3 POP SWAP1 POP PUSH3 0x240 DUP3 DUP3 PUSH3 0x2DB JUMP JUMPDEST POP SWAP1 SWAP2 POP POP JUMPDEST SWAP3 SWAP2 POP POP JUMP JUMPDEST PUSH1 0x1 PUSH1 0x1 PUSH1 0xA0 SHL SUB DUP3 AND PUSH3 0x278 JUMPI PUSH1 0x40 MLOAD PUSH4 0xEC442F05 PUSH1 0xE0 SHL DUP2 MSTORE PUSH1 0x0 PUSH1 0x4 DUP3 ADD MSTORE PUSH1 0x24 ADD PUSH3 0xA5 JUMP JUMPDEST PUSH3 0x286 PUSH1 0x0 DUP4 DUP4 PUSH3 0x3A6 JUMP JUMPDEST POP POP JUMP JUMPDEST PUSH1 0x0 DUP1 PUSH1 0x0 DUP4 MLOAD PUSH1 0x41 SUB PUSH3 0x2C8 JUMPI PUSH1 0x20 DUP5 ADD MLOAD PUSH1 0x40 DUP6 ADD MLOAD PUSH1 0x60 DUP7 ADD MLOAD PUSH1 0x0 BYTE PUSH3 0x2B9 DUP9 DUP3 DUP6 DUP6 PUSH3 0x4D9 JUMP JUMPDEST SWAP6 POP SWAP6 POP SWAP6 POP POP POP POP PUSH3 0x2D4 JUMP JUMPDEST POP POP DUP2 MLOAD PUSH1 0x0 SWAP2 POP PUSH1 0x2 SWAP1 JUMPDEST SWAP3 POP SWAP3 POP SWAP3 JUMP JUMPDEST PUSH1 0x0 DUP3 PUSH1 0x3 DUP2 GT ISZERO PUSH3 0x2F2 JUMPI PUSH3 0x2F2 PUSH3 0x714 JUMP JUMPDEST SUB PUSH3 0x2FC JUMPI POP POP JUMP JUMPDEST PUSH1 0x1 DUP3 PUSH1 0x3 DUP2 GT ISZERO PUSH3 0x313 JUMPI PUSH3 0x313 PUSH3 0x714 JUMP JUMPDEST SUB PUSH3 0x332 JUMPI PUSH1 0x40 MLOAD PUSH4 0xF645EEDF PUSH1 0xE0 SHL DUP2 MSTORE PUSH1 0x4 ADD PUSH1 0x40 MLOAD DUP1 SWAP2 SUB SWAP1 REVERT JUMPDEST PUSH1 0x2 DUP3 PUSH1 0x3 DUP2 GT ISZERO PUSH3 0x349 JUMPI PUSH3 0x349 PUSH3 0x714 JUMP JUMPDEST SUB PUSH3 0x36C JUMPI PUSH1 0x40 MLOAD PUSH4 0xFCE698F7 PUSH1 0xE0 SHL DUP2 MSTORE PUSH1 0x4 DUP2 ADD DUP3 SWAP1 MSTORE PUSH1 0x24 ADD PUSH3 0xA5 JUMP JUMPDEST PUSH1 0x3 DUP3 PUSH1 0x3 DUP2 GT ISZERO PUSH3 0x383 JUMPI PUSH3 0x383 PUSH3 0x714 JUMP JUMPDEST SUB PUSH3 0x286 JUMPI PUSH1 0x40 MLOAD PUSH4 0x35E2F383 PUSH1 0xE2 SHL DUP2 MSTORE PUSH1 0x4 DUP2 ADD DUP3 SWAP1 MSTORE PUSH1 0x24 ADD PUSH3 0xA5 JUMP JUMPDEST PUSH1 0x1 PUSH1 0x1 PUSH1 0xA0 SHL SUB DUP4 AND PUSH3 0x3D5 JUMPI DUP1 PUSH1 0x2 PUSH1 0x0 DUP3 DUP3 SLOAD PUSH3 0x3C9 SWAP2 SWAP1 PUSH3 0x72A JUMP JUMPDEST SWAP1 SWAP2 SSTORE POP PUSH3 0x449 SWAP1 POP JUMP JUMPDEST PUSH1 0x1 PUSH1 0x1 PUSH1 0xA0 SHL SUB DUP4 AND PUSH1 0x0 SWAP1 DUP2 MSTORE PUSH1 0x20 DUP2 SWAP1 MSTORE PUSH1 0x40 SWAP1 KECCAK256 SLOAD DUP2 DUP2 LT ISZERO PUSH3 0x42A JUMPI PUSH1 0x40 MLOAD PUSH4 0x391434E3 PUSH1 0xE2 SHL DUP2 MSTORE PUSH1 0x1 PUSH1 0x1 PUSH1 0xA0 SHL SUB DUP6 AND PUSH1 0x4 DUP3 ADD MSTORE PUSH1 0x24 DUP2 ADD DUP3 SWAP1 MSTORE PUSH1 0x44 DUP2 ADD DUP4 SWAP1 MSTORE PUSH1 0x64 ADD PUSH3 0xA5 JUMP JUMPDEST PUSH1 0x1 PUSH1 0x1 PUSH1 0xA0 SHL SUB DUP5 AND PUSH1 0x0 SWAP1 DUP2 MSTORE PUSH1 0x20 DUP2 SWAP1 MSTORE PUSH1 0x40 SWAP1 KECCAK256 SWAP1 DUP3 SWAP1 SUB SWAP1 SSTORE JUMPDEST PUSH1 0x1 PUSH1 0x1 PUSH1 0xA0 SHL SUB DUP3 AND PUSH3 0x467 JUMPI PUSH1 0x2 DUP1 SLOAD DUP3 SWAP1 SUB SWAP1 SSTORE PUSH3 0x486 JUMP JUMPDEST PUSH1 0x1 PUSH1 0x1 PUSH1 0xA0 SHL SUB DUP3 AND PUSH1 0x0 SWAP1 DUP2 MSTORE PUSH1 0x20 DUP2 SWAP1 MSTORE PUSH1 0x40 SWAP1 KECCAK256 DUP1 SLOAD DUP3 ADD SWAP1 SSTORE JUMPDEST DUP2 PUSH1 0x1 PUSH1 0x1 PUSH1 0xA0 SHL SUB AND DUP4 PUSH1 0x1 PUSH1 0x1 PUSH1 0xA0 SHL SUB AND PUSH32 0xDDF252AD1BE2C89B69C2B068FC378DAA952BA7F163C4A11628F55A4DF523B3EF DUP4 PUSH1 0x40 MLOAD PUSH3 0x4CC SWAP2 DUP2 MSTORE PUSH1 0x20 ADD SWAP1 JUMP JUMPDEST PUSH1 0x40 MLOAD DUP1 SWAP2 SUB SWAP1 LOG3 POP POP POP JUMP JUMPDEST PUSH1 0x0 DUP1 DUP1 PUSH16 0xA2A8918CA85BAFE22016D0B997E4DF60 PUSH1 0x1 PUSH1 0xFF SHL SUB DUP5 GT ISZERO PUSH3 0x50C JUMPI POP PUSH1 0x0 SWAP2 POP PUSH1 0x3 SWAP1 POP DUP3 PUSH3 0x599 JUMP JUMPDEST PUSH1 0x40 DUP1 MLOAD PUSH1 0x0 DUP1 DUP3 MSTORE PUSH1 0x20 DUP3 ADD DUP1 DUP5 MSTORE DUP11 SWAP1 MSTORE PUSH1 0xFF DUP10 AND SWAP3 DUP3 ADD SWAP3 SWAP1 SWAP3 MSTORE PUSH1 0x60 DUP2 ADD DUP8 SWAP1 MSTORE PUSH1 0x80 DUP2 ADD DUP7 SWAP1 MSTORE PUSH1 0x1 SWAP1 PUSH1 0xA0 ADD PUSH1 0x20 PUSH1 0x40 MLOAD PUSH1 0x20 DUP2 SUB SWAP1 DUP1 DUP5 SUB SWAP1 DUP6 GAS STATICCALL ISZERO DUP1 ISZERO PUSH3 0x561 JUMPI RETURNDATASIZE PUSH1 0x0 DUP1 RETURNDATACOPY RETURNDATASIZE PUSH1 0x0 REVERT JUMPDEST POP POP PUSH1 0x40 MLOAD PUSH1 0x1F NOT ADD MLOAD SWAP2 POP POP PUSH1 0x1 PUSH1 0x1 PUSH1 0xA0 SHL SUB DUP2 AND PUSH3 0x58F JUMPI POP PUSH1 0x0 SWAP3 POP PUSH1 0x1 SWAP2 POP DUP3 SWAP1 POP PUSH3 0x599 JUMP JUMPDEST SWAP3 POP PUSH1 0x0 SWAP2 POP DUP2 SWAP1 POP JUMPDEST SWAP5 POP SWAP5 POP SWAP5 SWAP2 POP POP JUMP JUMPDEST PUSH4 0x4E487B71 PUSH1 0xE0 SHL PUSH1 0x0 MSTORE PUSH1 0x41 PUSH1 0x4 MSTORE PUSH1 0x24 PUSH1 0x0 REVERT JUMPDEST PUSH1 0x1 DUP2 DUP2 SHR SWAP1 DUP3 AND DUP1 PUSH3 0x5CE JUMPI PUSH1 0x7F DUP3 AND SWAP2 POP JUMPDEST PUSH1 0x20 DUP3 LT DUP2 SUB PUSH3 0x5EF JUMPI PUSH4 0x4E487B71 PUSH1 0xE0 SHL PUSH1 0x0 MSTORE PUSH1 0x22 PUSH1 0x4 MSTORE PUSH1 0x24 PUSH1 0x0 REVERT JUMPDEST POP SWAP2 SWAP1 POP JUMP JUMPDEST PUSH1 0x1F DUP3 GT ISZERO PUSH3 0x643 JUMPI PUSH1 0x0 DUP2 DUP2 MSTORE PUSH1 0x20 DUP2 KECCAK256 PUSH1 0x1F DUP6 ADD PUSH1 0x5 SHR DUP2 ADD PUSH1 0x20 DUP7 LT ISZERO PUSH3 0x61E JUMPI POP DUP1 JUMPDEST PUSH1 0x1F DUP6 ADD PUSH1 0x5 SHR DUP3 ADD SWAP2 POP JUMPDEST DUP2 DUP2 LT ISZERO PUSH3 0x63F JUMPI DUP3 DUP2 SSTORE PUSH1 0x1 ADD PUSH3 0x62A JUMP JUMPDEST POP POP POP JUMPDEST POP POP POP JUMP JUMPDEST DUP2 MLOAD PUSH1 0x1 PUSH1 0x1 PUSH1 0x40 SHL SUB DUP2 GT ISZERO PUSH3 0x664 JUMPI PUSH3 0x664 PUSH3 0x5A3 JUMP JUMPDEST PUSH3 0x67C DUP2 PUSH3 0x675 DUP5 SLOAD PUSH3 0x5B9 JUMP JUMPDEST DUP5 PUSH3 0x5F5 JUMP JUMPDEST PUSH1 0x20 DUP1 PUSH1 0x1F DUP4 GT PUSH1 0x1 DUP2 EQ PUSH3 0x6B4 JUMPI PUSH1 0x0 DUP5 ISZERO PUSH3 0x69B JUMPI POP DUP6 DUP4 ADD MLOAD JUMPDEST PUSH1 0x0 NOT PUSH1 0x3 DUP7 SWAP1 SHL SHR NOT AND PUSH1 0x1 DUP6 SWAP1 SHL OR DUP6 SSTORE PUSH3 0x63F JUMP JUMPDEST PUSH1 0x0 DUP6 DUP2 MSTORE PUSH1 0x20 DUP2 KECCAK256 PUSH1 0x1F NOT DUP7 AND SWAP2 JUMPDEST DUP3 DUP2 LT ISZERO PUSH3 0x6E5 JUMPI DUP9 DUP7 ADD MLOAD DUP3 SSTORE SWAP5 DUP5 ADD SWAP5 PUSH1 0x1 SWAP1 SWAP2 ADD SWAP1 DUP5 ADD PUSH3 0x6C4 JUMP JUMPDEST POP DUP6 DUP3 LT ISZERO PUSH3 0x704 JUMPI DUP8 DUP6 ADD MLOAD PUSH1 0x0 NOT PUSH1 0x3 DUP9 SWAP1 SHL PUSH1 0xF8 AND SHR NOT AND DUP2 SSTORE JUMPDEST POP POP POP POP POP PUSH1 0x1 SWAP1 DUP2 SHL ADD SWAP1 SSTORE POP JUMP JUMPDEST PUSH4 0x4E487B71 PUSH1 0xE0 SHL PUSH1 0x0 MSTORE PUSH1 0x21 PUSH1 0x4 MSTORE PUSH1 0x24 PUSH1 0x0 REVERT JUMPDEST DUP1 DUP3 ADD DUP1 DUP3 GT ISZERO PUSH3 0x246 JUMPI PUSH4 0x4E487B71 PUSH1 0xE0 SHL PUSH1 0x0 MSTORE PUSH1 0x11 PUSH1 0x4 MSTORE PUSH1 0x24 PUSH1 0x0 REVERT JUMPDEST PUSH2 0xCC2 DUP1 PUSH3 0x75C PUSH1 0x0 CODECOPY PUSH1 0x0 RETURN INVALID PUSH1 0x80 PUSH1 0x40 MSTORE CALLVALUE DUP1 ISZERO PUSH2 0x10 JUMPI PUSH1 0x0 DUP1 REVERT JUMPDEST POP PUSH1 0x4 CALLDATASIZE LT PUSH2 0x14D JUMPI PUSH1 0x0 CALLDATALOAD PUSH1 0xE0 SHR DUP1 PUSH4 0x715018A6 GT PUSH2 0xC3 JUMPI DUP1 PUSH4 0x965EA38C GT PUSH2 0x7C JUMPI DUP1 PUSH4 0x965EA38C EQ PUSH2 0x2B4 JUMPI DUP1 PUSH4 0x9F45BDAC EQ PUSH2 0x2F0 JUMPI DUP1 PUSH4 0xA9059CBB EQ PUSH2 0x317 JUMPI DUP1 PUSH4 0xDD62ED3E EQ PUSH2 0x32A JUMPI DUP1 PUSH4 0xE042735B EQ PUSH2 0x363 JUMPI DUP1 PUSH4 0xF2FDE38B EQ PUSH2 0x376 JUMPI PUSH1 0x0 DUP1 REVERT JUMPDEST DUP1 PUSH4 0x715018A6 EQ PUSH2 0x246 JUMPI DUP1 PUSH4 0x77FD5D02 EQ PUSH2 0x250 JUMPI DUP1 PUSH4 0x7E39CB58 EQ PUSH2 0x258 JUMPI DUP1 PUSH4 0x8DA5CB5B EQ PUSH2 0x27F JUMPI DUP1 PUSH4 0x902D55A5 EQ PUSH2 0x29A JUMPI DUP1 PUSH4 0x95D89B41 EQ PUSH2 0x2AC JUMPI PUSH1 0x0 DUP1 REVERT JUMPDEST DUP1 PUSH4 0x2C7ABEEA GT PUSH2 0x115 JUMPI DUP1 PUSH4 0x2C7ABEEA EQ PUSH2 0x1C0 JUMPI DUP1 PUSH4 0x313CE567 EQ PUSH2 0x1D0 JUMPI DUP1 PUSH4 0x38E21CCE EQ PUSH2 0x1DF JUMPI DUP1 PUSH4 0x41BAEB92 EQ PUSH2 0x202 JUMPI DUP1 PUSH4 0x6E95B711 EQ PUSH2 0x20B JUMPI DUP1 PUSH4 0x70A08231 EQ PUSH2 0x21D JUMPI PUSH1 0x0 DUP1 REVERT JUMPDEST DUP1 PUSH4 0x6FDDE03 EQ PUSH2 0x152 JUMPI DUP1 PUSH4 0x95EA7B3 EQ PUSH2 0x170 JUMPI DUP1 PUSH4 0x18160DDD EQ PUSH2 0x193 JUMPI DUP1 PUSH4 0x23B872DD EQ PUSH2 0x1A5 JUMPI DUP1 PUSH4 0x28FD21C1 EQ PUSH2 0x1B8 JUMPI JUMPDEST PUSH1 0x0 DUP1 REVERT JUMPDEST PUSH2 0x15A PUSH2 0x389 JUMP JUMPDEST PUSH1 0x40 MLOAD PUSH2 0x167 SWAP2 SWAP1 PUSH2 0xA89 JUMP JUMPDEST PUSH1 0x40 MLOAD DUP1 SWAP2 SUB SWAP1 RETURN JUMPDEST PUSH2 0x183 PUSH2 0x17E CALLDATASIZE PUSH1 0x4 PUSH2 0xABF JUMP JUMPDEST PUSH2 0x41B JUMP JUMPDEST PUSH1 0x40 MLOAD SWAP1 ISZERO ISZERO DUP2 MSTORE PUSH1 0x20 ADD PUSH2 0x167 JUMP JUMPDEST PUSH1 0x2 SLOAD JUMPDEST PUSH1 0x40 MLOAD SWAP1 DUP2 MSTORE PUSH1 0x20 ADD PUSH2 0x167 JUMP JUMPDEST PUSH2 0x183 PUSH2 0x1B3 CALLDATASIZE PUSH1 0x4 PUSH2 0xAE9 JUMP JUMPDEST PUSH2 0x435 JUMP JUMPDEST PUSH2 0x15A PUSH2 0x459 JUMP JUMPDEST PUSH2 0x197 PUSH9 0x3635C9ADC5DEA00000 DUP2 JUMP JUMPDEST PUSH1 0x40 MLOAD PUSH1 0x12 DUP2 MSTORE PUSH1 0x20 ADD PUSH2 0x167 JUMP JUMPDEST PUSH2 0x183 PUSH2 0x1ED CALLDATASIZE PUSH1 0x4 PUSH2 0xB25 JUMP JUMPDEST PUSH1 0x7 PUSH1 0x20 MSTORE PUSH1 0x0 SWAP1 DUP2 MSTORE PUSH1 0x40 SWAP1 KECCAK256 SLOAD PUSH1 0xFF AND DUP2 JUMP JUMPDEST PUSH2 0x197 PUSH1 0x6 SLOAD DUP2 JUMP JUMPDEST PUSH2 0x197 PUSH11 0x6342FD08F00F637800000 DUP2 JUMP JUMPDEST PUSH2 0x197 PUSH2 0x22B CALLDATASIZE PUSH1 0x4 PUSH2 0xB25 JUMP JUMPDEST PUSH1 0x1 PUSH1 0x1 PUSH1 0xA0 SHL SUB AND PUSH1 0x0 SWAP1 DUP2 MSTORE PUSH1 0x20 DUP2 SWAP1 MSTORE PUSH1 0x40 SWAP1 KECCAK256 SLOAD SWAP1 JUMP JUMPDEST PUSH2 0x24E PUSH2 0x475 JUMP JUMPDEST STOP JUMPDEST PUSH2 0x197 PUSH2 0x489 JUMP JUMPDEST PUSH2 0x197 PUSH32 0x3D6146D9EC877E7556EDBFF9B8FA61CA49404AC8B4128AB4937A74C7B033CEE7 DUP2 JUMP JUMPDEST PUSH1 0x5 SLOAD PUSH1 0x40 MLOAD PUSH1 0x1 PUSH1 0x1 PUSH1 0xA0 SHL SUB SWAP1 SWAP2 AND DUP2 MSTORE PUSH1 0x20 ADD PUSH2 0x167 JUMP JUMPDEST PUSH2 0x197 PUSH11 0x17FCFD266D36EB3D000000 DUP2 JUMP JUMPDEST PUSH2 0x15A PUSH2 0x4AC JUMP JUMPDEST PUSH2 0x15A PUSH1 0x40 MLOAD DUP1 PUSH1 0x40 ADD PUSH1 0x40 MSTORE DUP1 PUSH1 0x20 DUP2 MSTORE PUSH1 0x20 ADD PUSH32 0x1234567890ABCDEF1234567890ABCDEF1234567890ABCDEF1234567890ABCDEF DUP2 MSTORE POP DUP2 JUMP JUMPDEST PUSH2 0x197 PUSH32 0x450D5CA1D5FA8AEE9D893F6C7AC9FD8E59A06FF5F40DAC808D5E4B456017F336 DUP2 JUMP JUMPDEST PUSH2 0x183 PUSH2 0x325 CALLDATASIZE PUSH1 0x4 PUSH2 0xABF JUMP JUMPDEST PUSH2 0x4BB JUMP JUMPDEST PUSH2 0x197 PUSH2 0x338 CALLDATASIZE PUSH1 0x4 PUSH2 0xB40 JUMP JUMPDEST PUSH1 0x1 PUSH1 0x1 PUSH1 0xA0 SHL SUB SWAP2 DUP3 AND PUSH1 0x0 SWAP1 DUP2 MSTORE PUSH1 0x1 PUSH1 0x20 SWAP1 DUP2 MSTORE PUSH1 0x40 DUP1 DUP4 KECCAK256 SWAP4 SWAP1 SWAP5 AND DUP3 MSTORE SWAP2 SWAP1 SWAP2 MSTORE KECCAK256 SLOAD SWAP1 JUMP JUMPDEST PUSH2 0x24E PUSH2 0x371 CALLDATASIZE PUSH1 0x4 PUSH2 0xB73 JUMP JUMPDEST PUSH2 0x4C9 JUMP JUMPDEST PUSH2 0x24E PUSH2 0x384 CALLDATASIZE PUSH1 0x4 PUSH2 0xB25 JUMP JUMPDEST PUSH2 0x65D JUMP JUMPDEST PUSH1 0x60 PUSH1 0x3 DUP1 SLOAD PUSH2 0x398 SWAP1 PUSH2 0xBE5 JUMP JUMPDEST DUP1 PUSH1 0x1F ADD PUSH1 0x20 DUP1 SWAP2 DIV MUL PUSH1 0x20 ADD PUSH1 0x40 MLOAD SWAP1 DUP2 ADD PUSH1 0x40 MSTORE DUP1 SWAP3 SWAP2 SWAP1 DUP2 DUP2 MSTORE PUSH1 0x20 ADD DUP3 DUP1 SLOAD PUSH2 0x3C4 SWAP1 PUSH2 0xBE5 JUMP JUMPDEST DUP1 ISZERO PUSH2 0x411 JUMPI DUP1 PUSH1 0x1F LT PUSH2 0x3E6 JUMPI PUSH2 0x100 DUP1 DUP4 SLOAD DIV MUL DUP4 MSTORE SWAP2 PUSH1 0x20 ADD SWAP2 PUSH2 0x411 JUMP JUMPDEST DUP3 ADD SWAP2 SWAP1 PUSH1 0x0 MSTORE PUSH1 0x20 PUSH1 0x0 KECCAK256 SWAP1 JUMPDEST DUP2 SLOAD DUP2 MSTORE SWAP1 PUSH1 0x1 ADD SWAP1 PUSH1 0x20 ADD DUP1 DUP4 GT PUSH2 0x3F4 JUMPI DUP3 SWAP1 SUB PUSH1 0x1F AND DUP3 ADD SWAP2 JUMPDEST POP POP POP POP POP SWAP1 POP SWAP1 JUMP JUMPDEST PUSH1 0x0 CALLER PUSH2 0x429 DUP2 DUP6 DUP6 PUSH2 0x69B JUMP JUMPDEST PUSH1 0x1 SWAP2 POP POP JUMPDEST SWAP3 SWAP2 POP POP JUMP JUMPDEST PUSH1 0x0 CALLER PUSH2 0x443 DUP6 DUP3 DUP6 PUSH2 0x6AD JUMP JUMPDEST PUSH2 0x44E DUP6 DUP6 DUP6 PUSH2 0x72C JUMP JUMPDEST POP PUSH1 0x1 SWAP5 SWAP4 POP POP POP POP JUMP JUMPDEST PUSH1 0x40 MLOAD DUP1 PUSH1 0x60 ADD PUSH1 0x40 MSTORE DUP1 PUSH1 0x21 DUP2 MSTORE PUSH1 0x20 ADD PUSH2 0xC6C PUSH1 0x21 SWAP2 CODECOPY DUP2 JUMP JUMPDEST PUSH2 0x47D PUSH2 0x78B JUMP JUMPDEST PUSH2 0x487 PUSH1 0x0 PUSH2 0x7B8 JUMP JUMPDEST JUMP JUMPDEST PUSH2 0x4A9 PUSH11 0x6342FD08F00F637800000 PUSH11 0x17FCFD266D36EB3D000000 PUSH2 0xC35 JUMP JUMPDEST DUP2 JUMP JUMPDEST PUSH1 0x60 PUSH1 0x4 DUP1 SLOAD PUSH2 0x398 SWAP1 PUSH2 0xBE5 JUMP JUMPDEST PUSH1 0x0 CALLER PUSH2 0x429 DUP2 DUP6 DUP6 PUSH2 0x72C JUMP JUMPDEST CALLER PUSH1 0x0 SWAP1 DUP2 MSTORE PUSH1 0x7 PUSH1 0x20 MSTORE PUSH1 0x40 SWAP1 KECCAK256 SLOAD PUSH1 0xFF AND ISZERO PUSH2 0x51F JUMPI PUSH1 0x40 MLOAD PUSH3 0x461BCD PUSH1 0xE5 SHL DUP2 MSTORE PUSH1 0x20 PUSH1 0x4 DUP3 ADD MSTORE PUSH1 0xE PUSH1 0x24 DUP3 ADD MSTORE PUSH14 0x105B1C9958591E481B5A5B9D1959 PUSH1 0x92 SHL PUSH1 0x44 DUP3 ADD MSTORE PUSH1 0x64 ADD JUMPDEST PUSH1 0x40 MLOAD DUP1 SWAP2 SUB SWAP1 REVERT JUMPDEST PUSH32 0x3D6146D9EC877E7556EDBFF9B8FA61CA49404AC8B4128AB4937A74C7B033CEE7 DUP3 DUP3 PUSH1 0x40 MLOAD PUSH2 0x550 SWAP3 SWAP2 SWAP1 PUSH2 0xC48 JUMP JUMPDEST PUSH1 0x40 MLOAD DUP1 SWAP2 SUB SWAP1 KECCAK256 EQ PUSH2 0x596 JUMPI PUSH1 0x40 MLOAD PUSH3 0x461BCD PUSH1 0xE5 SHL DUP2 MSTORE PUSH1 0x20 PUSH1 0x4 DUP3 ADD MSTORE PUSH1 0xE PUSH1 0x24 DUP3 ADD MSTORE PUSH14 0x57726F6E67206D6E656D6F6E6963 PUSH1 0x90 SHL PUSH1 0x44 DUP3 ADD MSTORE PUSH1 0x64 ADD PUSH2 0x516 JUMP JUMPDEST PUSH2 0x5B6 PUSH11 0x6342FD08F00F637800000 PUSH11 0x17FCFD266D36EB3D000000 PUSH2 0xC35 JUMP JUMPDEST PUSH9 0x3635C9ADC5DEA00000 PUSH1 0x6 SLOAD PUSH2 0x5CD SWAP2 SWAP1 PUSH2 0xC58 JUMP JUMPDEST GT ISZERO PUSH2 0x60C JUMPI PUSH1 0x40 MLOAD PUSH3 0x461BCD PUSH1 0xE5 SHL DUP2 MSTORE PUSH1 0x20 PUSH1 0x4 DUP3 ADD MSTORE PUSH1 0xE PUSH1 0x24 DUP3 ADD MSTORE PUSH14 0x141BDBDB08195E1A185D5CDD1959 PUSH1 0x92 SHL PUSH1 0x44 DUP3 ADD MSTORE PUSH1 0x64 ADD PUSH2 0x516 JUMP JUMPDEST PUSH2 0x61F CALLER PUSH9 0x3635C9ADC5DEA00000 PUSH2 0x80A JUMP JUMPDEST PUSH9 0x3635C9ADC5DEA00000 PUSH1 0x6 PUSH1 0x0 DUP3 DUP3 SLOAD PUSH2 0x63A SWAP2 SWAP1 PUSH2 0xC58 JUMP JUMPDEST SWAP1 SWAP2 SSTORE POP POP CALLER PUSH1 0x0 SWAP1 DUP2 MSTORE PUSH1 0x7 PUSH1 0x20 MSTORE PUSH1 0x40 SWAP1 KECCAK256 DUP1 SLOAD PUSH1 0xFF NOT AND PUSH1 0x1 OR SWAP1 SSTORE POP POP JUMP JUMPDEST PUSH2 0x665 PUSH2 0x78B JUMP JUMPDEST PUSH1 0x1 PUSH1 0x1 PUSH1 0xA0 SHL SUB DUP2 AND PUSH2 0x68F JUMPI PUSH1 0x40 MLOAD PUSH4 0x1E4FBDF7 PUSH1 0xE0 SHL DUP2 MSTORE PUSH1 0x0 PUSH1 0x4 DUP3 ADD MSTORE PUSH1 0x24 ADD PUSH2 0x516 JUMP JUMPDEST PUSH2 0x698 DUP2 PUSH2 0x7B8 JUMP JUMPDEST POP JUMP JUMPDEST PUSH2 0x6A8 DUP4 DUP4 DUP4 PUSH1 0x1 PUSH2 0x844 JUMP JUMPDEST POP POP POP JUMP JUMPDEST PUSH1 0x1 PUSH1 0x1 PUSH1 0xA0 SHL SUB DUP4 DUP2 AND PUSH1 0x0 SWAP1 DUP2 MSTORE PUSH1 0x1 PUSH1 0x20 SWAP1 DUP2 MSTORE PUSH1 0x40 DUP1 DUP4 KECCAK256 SWAP4 DUP7 AND DUP4 MSTORE SWAP3 SWAP1 MSTORE KECCAK256 SLOAD PUSH1 0x0 NOT DUP2 LT ISZERO PUSH2 0x726 JUMPI DUP2 DUP2 LT ISZERO PUSH2 0x717 JUMPI PUSH1 0x40 MLOAD PUSH4 0x7DC7A0D9 PUSH1 0xE1 SHL DUP2 MSTORE PUSH1 0x1 PUSH1 0x1 PUSH1 0xA0 SHL SUB DUP5 AND PUSH1 0x4 DUP3 ADD MSTORE PUSH1 0x24 DUP2 ADD DUP3 SWAP1 MSTORE PUSH1 0x44 DUP2 ADD DUP4 SWAP1 MSTORE PUSH1 0x64 ADD PUSH2 0x516 JUMP JUMPDEST PUSH2 0x726 DUP5 DUP5 DUP5 DUP5 SUB PUSH1 0x0 PUSH2 0x844 JUMP JUMPDEST POP POP POP POP JUMP JUMPDEST PUSH1 0x1 PUSH1 0x1 PUSH1 0xA0 SHL SUB DUP4 AND PUSH2 0x756 JUMPI PUSH1 0x40 MLOAD PUSH4 0x4B637E8F PUSH1 0xE1 SHL DUP2 MSTORE PUSH1 0x0 PUSH1 0x4 DUP3 ADD MSTORE PUSH1 0x24 ADD PUSH2 0x516 JUMP JUMPDEST PUSH1 0x1 PUSH1 0x1 PUSH1 0xA0 SHL SUB DUP3 AND PUSH2 0x780 JUMPI PUSH1 0x40 MLOAD PUSH4 0xEC442F05 PUSH1 0xE0 SHL DUP2 MSTORE PUSH1 0x0 PUSH1 0x4 DUP3 ADD MSTORE PUSH1 0x24 ADD PUSH2 0x516 JUMP JUMPDEST PUSH2 0x6A8 DUP4 DUP4 DUP4 PUSH2 0x919 JUMP JUMPDEST PUSH1 0x5 SLOAD PUSH1 0x1 PUSH1 0x1 PUSH1 0xA0 SHL SUB AND CALLER EQ PUSH2 0x487 JUMPI PUSH1 0x40 MLOAD PUSH4 0x118CDAA7 PUSH1 0xE0 SHL DUP2 MSTORE CALLER PUSH1 0x4 DUP3 ADD MSTORE PUSH1 0x24 ADD PUSH2 0x516 JUMP JUMPDEST PUSH1 0x5 DUP1 SLOAD PUSH1 0x1 PUSH1 0x1 PUSH1 0xA0 SHL SUB DUP4 DUP2 AND PUSH1 0x1 PUSH1 0x1 PUSH1 0xA0 SHL SUB NOT DUP4 AND DUP2 OR SWAP1 SWAP4 SSTORE PUSH1 0x40 MLOAD SWAP2 AND SWAP2 SWAP1 DUP3 SWAP1 PUSH32 0x8BE0079C531659141344CD1FD0A4F28419497F9722A3DAAFE3B4186F6B6457E0 SWAP1 PUSH1 0x0 SWAP1 LOG3 POP POP JUMP JUMPDEST PUSH1 0x1 PUSH1 0x1 PUSH1 0xA0 SHL SUB DUP3 AND PUSH2 0x834 JUMPI PUSH1 0x40 MLOAD PUSH4 0xEC442F05 PUSH1 0xE0 SHL DUP2 MSTORE PUSH1 0x0 PUSH1 0x4 DUP3 ADD MSTORE PUSH1 0x24 ADD PUSH2 0x516 JUMP JUMPDEST PUSH2 0x840 PUSH1 0x0 DUP4 DUP4 PUSH2 0x919 JUMP JUMPDEST POP POP JUMP JUMPDEST PUSH1 0x1 PUSH1 0x1 PUSH1 0xA0 SHL SUB DUP5 AND PUSH2 0x86E JUMPI PUSH1 0x40 MLOAD PUSH4 0xE602DF05 PUSH1 0xE0 SHL DUP2 MSTORE PUSH1 0x0 PUSH1 0x4 DUP3 ADD MSTORE PUSH1 0x24 ADD PUSH2 0x516 JUMP JUMPDEST PUSH1 0x1 PUSH1 0x1 PUSH1 0xA0 SHL SUB DUP4 AND PUSH2 0x898 JUMPI PUSH1 0x40 MLOAD PUSH4 0x4A1406B1 PUSH1 0xE1 SHL DUP2 MSTORE PUSH1 0x0 PUSH1 0x4 DUP3 ADD MSTORE PUSH1 0x24 ADD PUSH2 0x516 JUMP JUMPDEST PUSH1 0x1 PUSH1 0x1 PUSH1 0xA0 SHL SUB DUP1 DUP6 AND PUSH1 0x0 SWAP1 DUP2 MSTORE PUSH1 0x1 PUSH1 0x20 SWAP1 DUP2 MSTORE PUSH1 0x40 DUP1 DUP4 KECCAK256 SWAP4 DUP8 AND DUP4 MSTORE SWAP3 SWAP1 MSTORE KECCAK256 DUP3 SWAP1 SSTORE DUP1 ISZERO PUSH2 0x726 JUMPI DUP3 PUSH1 0x1 PUSH1 0x1 PUSH1 0xA0 SHL SUB AND DUP5 PUSH1 0x1 PUSH1 0x1 PUSH1 0xA0 SHL SUB AND PUSH32 0x8C5BE1E5EBEC7D5BD14F71427D1E84F3DD0314C0F7B2291E5B200AC8C7C3B925 DUP5 PUSH1 0x40 MLOAD PUSH2 0x90B SWAP2 DUP2 MSTORE PUSH1 0x20 ADD SWAP1 JUMP JUMPDEST PUSH1 0x40 MLOAD DUP1 SWAP2 SUB SWAP1 LOG3 POP POP POP POP JUMP JUMPDEST PUSH1 0x1 PUSH1 0x1 PUSH1 0xA0 SHL SUB DUP4 AND PUSH2 0x944 JUMPI DUP1 PUSH1 0x2 PUSH1 0x0 DUP3 DUP3 SLOAD PUSH2 0x939 SWAP2 SWAP1 PUSH2 0xC58 JUMP JUMPDEST SWAP1 SWAP2 SSTORE POP PUSH2 0x9B6 SWAP1 POP JUMP JUMPDEST PUSH1 0x1 PUSH1 0x1 PUSH1 0xA0 SHL SUB DUP4 AND PUSH1 0x0 SWAP1 DUP2 MSTORE PUSH1 0x20 DUP2 SWAP1 MSTORE PUSH1 0x40 SWAP1 KECCAK256 SLOAD DUP2 DUP2 LT ISZERO PUSH2 0x997 JUMPI PUSH1 0x40 MLOAD PUSH4 0x391434E3 PUSH1 0xE2 SHL DUP2 MSTORE PUSH1 0x1 PUSH1 0x1 PUSH1 0xA0 SHL SUB DUP6 AND PUSH1 0x4 DUP3 ADD MSTORE PUSH1 0x24 DUP2 ADD DUP3 SWAP1 MSTORE PUSH1 0x44 DUP2 ADD DUP4 SWAP1 MSTORE PUSH1 0x64 ADD PUSH2 0x516 JUMP JUMPDEST PUSH1 0x1 PUSH1 0x1 PUSH1 0xA0 SHL SUB DUP5 AND PUSH1 0x0 SWAP1 DUP2 MSTORE PUSH1 0x20 DUP2 SWAP1 MSTORE PUSH1 0x40 SWAP1 KECCAK256 SWAP1 DUP3 SWAP1 SUB SWAP1 SSTORE JUMPDEST PUSH1 0x1 PUSH1 0x1 PUSH1 0xA0 SHL SUB DUP3 AND PUSH2 0x9D2 JUMPI PUSH1 0x2 DUP1 SLOAD DUP3 SWAP1 SUB SWAP1 SSTORE PUSH2 0x9F1 JUMP JUMPDEST PUSH1 0x1 PUSH1 0x1 PUSH1 0xA0 SHL SUB DUP3 AND PUSH1 0x0 SWAP1 DUP2 MSTORE PUSH1 0x20 DUP2 SWAP1 MSTORE PUSH1 0x40 SWAP1 KECCAK256 DUP1 SLOAD DUP3 ADD SWAP1 SSTORE JUMPDEST DUP2 PUSH1 0x1 PUSH1 0x1 PUSH1 0xA0 SHL SUB AND DUP4 PUSH1 0x1 PUSH1 0x1 PUSH1 0xA0 SHL SUB AND PUSH32 0xDDF252AD1BE2C89B69C2B068FC378DAA952BA7F163C4A11628F55A4DF523B3EF DUP4 PUSH1 0x40 MLOAD PUSH2 0xA36 SWAP2 DUP2 MSTORE PUSH1 0x20 ADD SWAP1 JUMP JUMPDEST PUSH1 0x40 MLOAD DUP1 SWAP2 SUB SWAP1 LOG3 POP POP POP JUMP JUMPDEST PUSH1 0x0 DUP2 MLOAD DUP1 DUP5 MSTORE PUSH1 0x0 JUMPDEST DUP2 DUP2 LT ISZERO PUSH2 0xA69 JUMPI PUSH1 0x20 DUP2 DUP6 ADD DUP2 ADD MLOAD DUP7 DUP4 ADD DUP3 ADD MSTORE ADD PUSH2 0xA4D JUMP JUMPDEST POP PUSH1 0x0 PUSH1 0x20 DUP3 DUP7 ADD ADD MSTORE PUSH1 0x20 PUSH1 0x1F NOT PUSH1 0x1F DUP4 ADD AND DUP6 ADD ADD SWAP2 POP POP SWAP3 SWAP2 POP POP JUMP JUMPDEST PUSH1 0x20 DUP2 MSTORE PUSH1 0x0 PUSH2 0xA9C PUSH1 0x20 DUP4 ADD DUP5 PUSH2 0xA43 JUMP JUMPDEST SWAP4 SWAP3 POP POP POP JUMP JUMPDEST DUP1 CALLDATALOAD PUSH1 0x1 PUSH1 0x1 PUSH1 0xA0 SHL SUB DUP2 AND DUP2 EQ PUSH2 0xABA JUMPI PUSH1 0x0 DUP1 REVERT JUMPDEST SWAP2 SWAP1 POP JUMP JUMPDEST PUSH1 0x0 DUP1 PUSH1 0x40 DUP4 DUP6 SUB SLT ISZERO PUSH2 0xAD2 JUMPI PUSH1 0x0 DUP1 REVERT JUMPDEST PUSH2 0xADB DUP4 PUSH2 0xAA3 JUMP JUMPDEST SWAP5 PUSH1 0x20 SWAP4 SWAP1 SWAP4 ADD CALLDATALOAD SWAP4 POP POP POP JUMP JUMPDEST PUSH1 0x0 DUP1 PUSH1 0x0 PUSH1 0x60 DUP5 DUP7 SUB SLT ISZERO PUSH2 0xAFE JUMPI PUSH1 0x0 DUP1 REVERT JUMPDEST PUSH2 0xB07 DUP5 PUSH2 0xAA3 JUMP JUMPDEST SWAP3 POP PUSH2 0xB15 PUSH1 0x20 DUP6 ADD PUSH2 0xAA3 JUMP JUMPDEST SWAP2 POP PUSH1 0x40 DUP5 ADD CALLDATALOAD SWAP1 POP SWAP3 POP SWAP3 POP SWAP3 JUMP JUMPDEST PUSH1 0x0 PUSH1 0x20 DUP3 DUP5 SUB SLT ISZERO PUSH2 0xB37 JUMPI PUSH1 0x0 DUP1 REVERT JUMPDEST PUSH2 0xA9C DUP3 PUSH2 0xAA3 JUMP JUMPDEST PUSH1 0x0 DUP1 PUSH1 0x40 DUP4 DUP6 SUB SLT ISZERO PUSH2 0xB53 JUMPI PUSH1 0x0 DUP1 REVERT JUMPDEST PUSH2 0xB5C DUP4 PUSH2 0xAA3 JUMP JUMPDEST SWAP2 POP PUSH2 0xB6A PUSH1 0x20 DUP5 ADD PUSH2 0xAA3 JUMP JUMPDEST SWAP1 POP SWAP3 POP SWAP3 SWAP1 POP JUMP JUMPDEST PUSH1 0x0 DUP1 PUSH1 0x20 DUP4 DUP6 SUB SLT ISZERO PUSH2 0xB86 JUMPI PUSH1 0x0 DUP1 REVERT JUMPDEST DUP3 CALLDATALOAD PUSH8 0xFFFFFFFFFFFFFFFF DUP1 DUP3 GT ISZERO PUSH2 0xB9E JUMPI PUSH1 0x0 DUP1 REVERT JUMPDEST DUP2 DUP6 ADD SWAP2 POP DUP6 PUSH1 0x1F DUP4 ADD SLT PUSH2 0xBB2 JUMPI PUSH1 0x0 DUP1 REVERT JUMPDEST DUP2 CALLDATALOAD DUP2 DUP2 GT ISZERO PUSH2 0xBC1 JUMPI PUSH1 0x0 DUP1 REVERT JUMPDEST DUP7 PUSH1 0x20 DUP3 DUP6 ADD ADD GT ISZERO PUSH2 0xBD3 JUMPI PUSH1 0x0 DUP1 REVERT JUMPDEST PUSH1 0x20 SWAP3 SWAP1 SWAP3 ADD SWAP7 SWAP2 SWAP6 POP SWAP1 SWAP4 POP POP POP POP JUMP JUMPDEST PUSH1 0x1 DUP2 DUP2 SHR SWAP1 DUP3 AND DUP1 PUSH2 0xBF9 JUMPI PUSH1 0x7F DUP3 AND SWAP2 POP JUMPDEST PUSH1 0x20 DUP3 LT DUP2 SUB PUSH2 0xC19 JUMPI PUSH4 0x4E487B71 PUSH1 0xE0 SHL PUSH1 0x0 MSTORE PUSH1 0x22 PUSH1 0x4 MSTORE PUSH1 0x24 PUSH1 0x0 REVERT JUMPDEST POP SWAP2 SWAP1 POP JUMP JUMPDEST PUSH4 0x4E487B71 PUSH1 0xE0 SHL PUSH1 0x0 MSTORE PUSH1 0x11 PUSH1 0x4 MSTORE PUSH1 0x24 PUSH1 0x0 REVERT JUMPDEST DUP2 DUP2 SUB DUP2 DUP2 GT ISZERO PUSH2 0x42F JUMPI PUSH2 0x42F PUSH2 0xC1F JUMP JUMPDEST DUP2 DUP4 DUP3 CALLDATACOPY PUSH1 0x0 SWAP2 ADD SWAP1 DUP2 MSTORE SWAP2 SWAP1 POP JUMP JUMPDEST DUP1 DUP3 ADD DUP1 DUP3 GT ISZERO PUSH2 0x42F JUMPI PUSH2 0x42F PUSH2 0xC1F JUMP INVALID SUB PUSH8 0x8AFDB0FE55482719 PUSH8 0xF1A67130B7105CD6 0xA8 0x28 0xE0 CODECOPY MULMOD 0xA6 PUSH26 0x62E0EA1F61DEB6A26469706673582212207DC45CA2ADCD59B75C BYTE 0xD7 0xBA RETURN SAR SHR 0xDA OR SWAP6 0xBB DUP13 0xEB JUMPI DUP13 PUSH31 0x509AFDB32F23B32064736F6C6343000814003303678AFDB0FE5548271967F1 0xA6 PUSH18 0x30B7105CD6A828E03909A67962E0EA1F61DE 0xB6 "
				},
				"gasEstimates": {
					"creation": {
						"codeDepositCost": "653200",
						"executionCost": "infinite",
						"totalCost": "infinite"
					},
					"external": {
						"GENESIS_MESSAGE_HASH()": "239",
						"GENESIS_MINT()": "306",
						"GENESIS_PUBKEY()": "infinite",
						"GENESIS_SIGNATURE()": "infinite",
						"MNEMONIC_HASH()": "262",
						"PER_SOLVER_MINT()": "218",
						"REMAINING_MINT()": "324",
						"TOTAL_SUPPLY()": "306",
						"allowance(address,address)": "infinite",
						"approve(address,uint256)": "24762",
						"balanceOf(address)": "2673",
						"decimals()": "222",
						"hasMinted(address)": "2598",
						"mintByMnemonic(string)": "infinite",
						"mintedBySolvers()": "2384",
						"name()": "infinite",
						"owner()": "2390",
						"renounceOwnership()": "infinite",
						"symbol()": "infinite",
						"totalSupply()": "2349",
						"transfer(address,uint256)": "51288",
						"transferFrom(address,address,uint256)": "infinite",
						"transferOwnership(address)": "28468"
					}
				},
				"methodIdentifiers": {
					"GENESIS_MESSAGE_HASH()": "9f45bdac",
					"GENESIS_MINT()": "6e95b711",
					"GENESIS_PUBKEY()": "28fd21c1",
					"GENESIS_SIGNATURE()": "965ea38c",
					"MNEMONIC_HASH()": "7e39cb58",
					"PER_SOLVER_MINT()": "2c7abeea",
					"REMAINING_MINT()": "77fd5d02",
					"TOTAL_SUPPLY()": "902d55a5",
					"allowance(address,address)": "dd62ed3e",
					"approve(address,uint256)": "095ea7b3",
					"balanceOf(address)": "70a08231",
					"decimals()": "313ce567",
					"hasMinted(address)": "38e21cce",
					"mintByMnemonic(string)": "e042735b",
					"mintedBySolvers()": "41baeb92",
					"name()": "06fdde03",
					"owner()": "8da5cb5b",
					"renounceOwnership()": "715018a6",
					"symbol()": "95d89b41",
					"totalSupply()": "18160ddd",
					"transfer(address,uint256)": "a9059cbb",
					"transferFrom(address,address,uint256)": "23b872dd",
					"transferOwnership(address)": "f2fde38b"
				}
			},
			"storageLayout": {
				"storage": [
					{
						"astId": 468,
						"contract": "/contracts/CamelotScavenger.sol:CamelotScavenger",
						"label": "_balances",
						"offset": 0,
						"slot": "0",
						"type": "t_mapping(t_address,t_uint256)"
					},
					{
						"astId": 474,
						"contract": "/contracts/CamelotScavenger.sol:CamelotScavenger",
						"label": "_allowances",
						"offset": 0,
						"slot": "1",
						"type": "t_mapping(t_address,t_mapping(t_address,t_uint256))"
					},
					{
						"astId": 476,
						"contract": "/contracts/CamelotScavenger.sol:CamelotScavenger",
						"label": "_totalSupply",
						"offset": 0,
						"slot": "2",
						"type": "t_uint256"
					},
					{
						"astId": 478,
						"contract": "/contracts/CamelotScavenger.sol:CamelotScavenger",
						"label": "_name",
						"offset": 0,
						"slot": "3",
						"type": "t_string_storage"
					},
					{
						"astId": 480,
						"contract": "/contracts/CamelotScavenger.sol:CamelotScavenger",
						"label": "_symbol",
						"offset": 0,
						"slot": "4",
						"type": "t_string_storage"
					},
					{
						"astId": 169,
						"contract": "/contracts/CamelotScavenger.sol:CamelotScavenger",
						"label": "_owner",
						"offset": 0,
						"slot": "5",
						"type": "t_address"
					},
					{
						"astId": 55,
						"contract": "/contracts/CamelotScavenger.sol:CamelotScavenger",
						"label": "mintedBySolvers",
						"offset": 0,
						"slot": "6",
						"type": "t_uint256"
					},
					{
						"astId": 59,
						"contract": "/contracts/CamelotScavenger.sol:CamelotScavenger",
						"label": "hasMinted",
						"offset": 0,
						"slot": "7",
						"type": "t_mapping(t_address,t_bool)"
					}
				],
				"types": {
					"t_address": {
						"encoding": "inplace",
						"label": "address",
						"numberOfBytes": "20"
					},
					"t_bool": {
						"encoding": "inplace",
						"label": "bool",
						"numberOfBytes": "1"
					},
					"t_mapping(t_address,t_bool)": {
						"encoding": "mapping",
						"key": "t_address",
						"label": "mapping(address => bool)",
						"numberOfBytes": "32",
						"value": "t_bool"
					},
					"t_mapping(t_address,t_mapping(t_address,t_uint256))": {
						"encoding": "mapping",
						"key": "t_address",
						"label": "mapping(address => mapping(address => uint256))",
						"numberOfBytes": "32",
						"value": "t_mapping(t_address,t_uint256)"
					},
					"t_mapping(t_address,t_uint256)": {
						"encoding": "mapping",
						"key": "t_address",
						"label": "mapping(address => uint256)",
						"numberOfBytes": "32",
						"value": "t_uint256"
					},
					"t_string_storage": {
						"encoding": "bytes",
						"label": "string",
						"numberOfBytes": "32"
					},
					"t_uint256": {
						"encoding": "inplace",
						"label": "uint256",
						"numberOfBytes": "32"
					}
				}
			},
			"userdoc": {
				"kind": "user",
				"methods": {},
				"version": 1
			}
		}
	}
}